{
  "contractName": "REDBroadcast",
  "abi": [
    {
      "inputs": [],
      "stateMutability": "nonpayable",
      "type": "constructor"
    },
    {
      "anonymous": false,
      "inputs": [
        {
          "indexed": true,
          "internalType": "address",
          "name": "account",
          "type": "address"
        },
        {
          "indexed": true,
          "internalType": "address",
          "name": "operator",
          "type": "address"
        },
        {
          "indexed": false,
          "internalType": "bool",
          "name": "approved",
          "type": "bool"
        }
      ],
      "name": "ApprovalForAll",
      "type": "event"
    },
    {
      "anonymous": false,
      "inputs": [
        {
          "indexed": false,
          "internalType": "address",
          "name": "account",
          "type": "address"
        }
      ],
      "name": "Paused",
      "type": "event"
    },
    {
      "anonymous": false,
      "inputs": [
        {
          "indexed": true,
          "internalType": "bytes32",
          "name": "role",
          "type": "bytes32"
        },
        {
          "indexed": true,
          "internalType": "bytes32",
          "name": "previousAdminRole",
          "type": "bytes32"
        },
        {
          "indexed": true,
          "internalType": "bytes32",
          "name": "newAdminRole",
          "type": "bytes32"
        }
      ],
      "name": "RoleAdminChanged",
      "type": "event"
    },
    {
      "anonymous": false,
      "inputs": [
        {
          "indexed": true,
          "internalType": "bytes32",
          "name": "role",
          "type": "bytes32"
        },
        {
          "indexed": true,
          "internalType": "address",
          "name": "account",
          "type": "address"
        },
        {
          "indexed": true,
          "internalType": "address",
          "name": "sender",
          "type": "address"
        }
      ],
      "name": "RoleGranted",
      "type": "event"
    },
    {
      "anonymous": false,
      "inputs": [
        {
          "indexed": true,
          "internalType": "bytes32",
          "name": "role",
          "type": "bytes32"
        },
        {
          "indexed": true,
          "internalType": "address",
          "name": "account",
          "type": "address"
        },
        {
          "indexed": true,
          "internalType": "address",
          "name": "sender",
          "type": "address"
        }
      ],
      "name": "RoleRevoked",
      "type": "event"
    },
    {
      "anonymous": false,
      "inputs": [
        {
          "indexed": true,
          "internalType": "address",
          "name": "operator",
          "type": "address"
        },
        {
          "indexed": true,
          "internalType": "address",
          "name": "from",
          "type": "address"
        },
        {
          "indexed": true,
          "internalType": "address",
          "name": "to",
          "type": "address"
        },
        {
          "indexed": false,
          "internalType": "uint256[]",
          "name": "ids",
          "type": "uint256[]"
        },
        {
          "indexed": false,
          "internalType": "uint256[]",
          "name": "values",
          "type": "uint256[]"
        }
      ],
      "name": "TransferBatch",
      "type": "event"
    },
    {
      "anonymous": false,
      "inputs": [
        {
          "indexed": true,
          "internalType": "address",
          "name": "operator",
          "type": "address"
        },
        {
          "indexed": true,
          "internalType": "address",
          "name": "from",
          "type": "address"
        },
        {
          "indexed": true,
          "internalType": "address",
          "name": "to",
          "type": "address"
        },
        {
          "indexed": false,
          "internalType": "uint256",
          "name": "id",
          "type": "uint256"
        },
        {
          "indexed": false,
          "internalType": "uint256",
          "name": "value",
          "type": "uint256"
        }
      ],
      "name": "TransferSingle",
      "type": "event"
    },
    {
      "anonymous": false,
      "inputs": [
        {
          "indexed": false,
          "internalType": "string",
          "name": "value",
          "type": "string"
        },
        {
          "indexed": true,
          "internalType": "uint256",
          "name": "id",
          "type": "uint256"
        }
      ],
      "name": "URI",
      "type": "event"
    },
    {
      "anonymous": false,
      "inputs": [
        {
          "indexed": false,
          "internalType": "address",
          "name": "account",
          "type": "address"
        }
      ],
      "name": "Unpaused",
      "type": "event"
    },
    {
      "inputs": [],
      "name": "DEFAULT_ADMIN_ROLE",
      "outputs": [
        {
          "internalType": "bytes32",
          "name": "",
          "type": "bytes32"
        }
      ],
      "stateMutability": "view",
      "type": "function"
    },
    {
      "inputs": [],
      "name": "MINTER_ROLE",
      "outputs": [
        {
          "internalType": "bytes32",
          "name": "",
          "type": "bytes32"
        }
      ],
      "stateMutability": "view",
      "type": "function"
    },
    {
      "inputs": [],
      "name": "PAUSER_ROLE",
      "outputs": [
        {
          "internalType": "bytes32",
          "name": "",
          "type": "bytes32"
        }
      ],
      "stateMutability": "view",
      "type": "function"
    },
    {
      "inputs": [],
      "name": "URI_SETTER_ROLE",
      "outputs": [
        {
          "internalType": "bytes32",
          "name": "",
          "type": "bytes32"
        }
      ],
      "stateMutability": "view",
      "type": "function"
    },
    {
      "inputs": [
        {
          "internalType": "address",
          "name": "account",
          "type": "address"
        },
        {
          "internalType": "uint256",
          "name": "id",
          "type": "uint256"
        }
      ],
      "name": "balanceOf",
      "outputs": [
        {
          "internalType": "uint256",
          "name": "",
          "type": "uint256"
        }
      ],
      "stateMutability": "view",
      "type": "function"
    },
    {
      "inputs": [
        {
          "internalType": "address[]",
          "name": "accounts",
          "type": "address[]"
        },
        {
          "internalType": "uint256[]",
          "name": "ids",
          "type": "uint256[]"
        }
      ],
      "name": "balanceOfBatch",
      "outputs": [
        {
          "internalType": "uint256[]",
          "name": "",
          "type": "uint256[]"
        }
      ],
      "stateMutability": "view",
      "type": "function"
    },
    {
      "inputs": [
        {
          "internalType": "uint256",
          "name": "id",
          "type": "uint256"
        }
      ],
      "name": "exists",
      "outputs": [
        {
          "internalType": "bool",
          "name": "",
          "type": "bool"
        }
      ],
      "stateMutability": "view",
      "type": "function"
    },
    {
      "inputs": [
        {
          "internalType": "bytes32",
          "name": "role",
          "type": "bytes32"
        }
      ],
      "name": "getRoleAdmin",
      "outputs": [
        {
          "internalType": "bytes32",
          "name": "",
          "type": "bytes32"
        }
      ],
      "stateMutability": "view",
      "type": "function"
    },
    {
      "inputs": [
        {
          "internalType": "bytes32",
          "name": "role",
          "type": "bytes32"
        },
        {
          "internalType": "address",
          "name": "account",
          "type": "address"
        }
      ],
      "name": "grantRole",
      "outputs": [],
      "stateMutability": "nonpayable",
      "type": "function"
    },
    {
      "inputs": [
        {
          "internalType": "bytes32",
          "name": "role",
          "type": "bytes32"
        },
        {
          "internalType": "address",
          "name": "account",
          "type": "address"
        }
      ],
      "name": "hasRole",
      "outputs": [
        {
          "internalType": "bool",
          "name": "",
          "type": "bool"
        }
      ],
      "stateMutability": "view",
      "type": "function"
    },
    {
      "inputs": [
        {
          "internalType": "address",
          "name": "account",
          "type": "address"
        },
        {
          "internalType": "address",
          "name": "operator",
          "type": "address"
        }
      ],
      "name": "isApprovedForAll",
      "outputs": [
        {
          "internalType": "bool",
          "name": "",
          "type": "bool"
        }
      ],
      "stateMutability": "view",
      "type": "function"
    },
    {
      "inputs": [],
      "name": "paused",
      "outputs": [
        {
          "internalType": "bool",
          "name": "",
          "type": "bool"
        }
      ],
      "stateMutability": "view",
      "type": "function"
    },
    {
      "inputs": [
        {
          "internalType": "bytes32",
          "name": "role",
          "type": "bytes32"
        },
        {
          "internalType": "address",
          "name": "account",
          "type": "address"
        }
      ],
      "name": "renounceRole",
      "outputs": [],
      "stateMutability": "nonpayable",
      "type": "function"
    },
    {
      "inputs": [
        {
          "internalType": "bytes32",
          "name": "role",
          "type": "bytes32"
        },
        {
          "internalType": "address",
          "name": "account",
          "type": "address"
        }
      ],
      "name": "revokeRole",
      "outputs": [],
      "stateMutability": "nonpayable",
      "type": "function"
    },
    {
      "inputs": [
        {
          "internalType": "address",
          "name": "from",
          "type": "address"
        },
        {
          "internalType": "address",
          "name": "to",
          "type": "address"
        },
        {
          "internalType": "uint256[]",
          "name": "ids",
          "type": "uint256[]"
        },
        {
          "internalType": "uint256[]",
          "name": "amounts",
          "type": "uint256[]"
        },
        {
          "internalType": "bytes",
          "name": "data",
          "type": "bytes"
        }
      ],
      "name": "safeBatchTransferFrom",
      "outputs": [],
      "stateMutability": "nonpayable",
      "type": "function"
    },
    {
      "inputs": [
        {
          "internalType": "address",
          "name": "from",
          "type": "address"
        },
        {
          "internalType": "address",
          "name": "to",
          "type": "address"
        },
        {
          "internalType": "uint256",
          "name": "id",
          "type": "uint256"
        },
        {
          "internalType": "uint256",
          "name": "amount",
          "type": "uint256"
        },
        {
          "internalType": "bytes",
          "name": "data",
          "type": "bytes"
        }
      ],
      "name": "safeTransferFrom",
      "outputs": [],
      "stateMutability": "nonpayable",
      "type": "function"
    },
    {
      "inputs": [
        {
          "internalType": "address",
          "name": "operator",
          "type": "address"
        },
        {
          "internalType": "bool",
          "name": "approved",
          "type": "bool"
        }
      ],
      "name": "setApprovalForAll",
      "outputs": [],
      "stateMutability": "nonpayable",
      "type": "function"
    },
    {
      "inputs": [
        {
          "internalType": "uint256",
          "name": "id",
          "type": "uint256"
        }
      ],
      "name": "totalSupply",
      "outputs": [
        {
          "internalType": "uint256",
          "name": "",
          "type": "uint256"
        }
      ],
      "stateMutability": "view",
      "type": "function"
    },
    {
      "inputs": [
        {
          "internalType": "uint256",
          "name": "",
          "type": "uint256"
        }
      ],
      "name": "uri",
      "outputs": [
        {
          "internalType": "string",
          "name": "",
          "type": "string"
        }
      ],
      "stateMutability": "view",
      "type": "function"
    },
    {
      "inputs": [
        {
          "internalType": "string",
          "name": "newuri",
          "type": "string"
        }
      ],
      "name": "setURI",
      "outputs": [],
      "stateMutability": "nonpayable",
      "type": "function"
    },
    {
      "inputs": [],
      "name": "pause",
      "outputs": [],
      "stateMutability": "nonpayable",
      "type": "function"
    },
    {
      "inputs": [],
      "name": "unpause",
      "outputs": [],
      "stateMutability": "nonpayable",
      "type": "function"
    },
    {
      "inputs": [
        {
          "internalType": "address",
          "name": "account",
          "type": "address"
        },
        {
          "internalType": "uint256",
          "name": "id",
          "type": "uint256"
        },
        {
          "internalType": "uint256",
          "name": "amount",
          "type": "uint256"
        },
        {
          "internalType": "bytes",
          "name": "data",
          "type": "bytes"
        }
      ],
      "name": "mint",
      "outputs": [],
      "stateMutability": "nonpayable",
      "type": "function"
    },
    {
      "inputs": [
        {
          "internalType": "address",
          "name": "to",
          "type": "address"
        },
        {
          "internalType": "uint256[]",
          "name": "ids",
          "type": "uint256[]"
        },
        {
          "internalType": "uint256[]",
          "name": "amounts",
          "type": "uint256[]"
        },
        {
          "internalType": "bytes",
          "name": "data",
          "type": "bytes"
        }
      ],
      "name": "mintBatch",
      "outputs": [],
      "stateMutability": "nonpayable",
      "type": "function"
    },
    {
      "inputs": [
        {
          "internalType": "bytes4",
          "name": "interfaceId",
          "type": "bytes4"
        }
      ],
      "name": "supportsInterface",
      "outputs": [
        {
          "internalType": "bool",
          "name": "",
          "type": "bool"
        }
      ],
      "stateMutability": "view",
      "type": "function"
    }
  ],
  "bytecode": "0x60806040523480156200001157600080fd5b506040518060200160405280600081525062000033816200010060201b60201c565b506000600460006101000a81548160ff021916908315150217905550620000646000801b336200011c60201b60201c565b620000967f7804d923f43a17d325d77e781528e0793b2edd9890ab45fc64efd7b4b427744c336200011c60201b60201c565b620000c87f65d7a28e3265b37a6474929f336521b332c1681b933f6cb9f3376673440d862a336200011c60201b60201c565b620000fa7f9f2df0fed2c77648de5860a4cc508cd0818c85b8b8a1ab4ceeef8d981c8956a6336200011c60201b60201c565b62000396565b80600290805190602001906200011892919062000281565b5050565b6200012e82826200020e60201b60201c565b6200020a5760016003600084815260200190815260200160002060000160008373ffffffffffffffffffffffffffffffffffffffff1673ffffffffffffffffffffffffffffffffffffffff16815260200190815260200160002060006101000a81548160ff021916908315150217905550620001af6200027960201b60201c565b73ffffffffffffffffffffffffffffffffffffffff168173ffffffffffffffffffffffffffffffffffffffff16837f2f8788117e7eff1d82e926ec794901d17c78024a50270940304540a733656f0d60405160405180910390a45b5050565b60006003600084815260200190815260200160002060000160008373ffffffffffffffffffffffffffffffffffffffff1673ffffffffffffffffffffffffffffffffffffffff16815260200190815260200160002060009054906101000a900460ff16905092915050565b600033905090565b8280546200028f9062000360565b90600052602060002090601f016020900481019282620002b35760008555620002ff565b82601f10620002ce57805160ff1916838001178555620002ff565b82800160010185558215620002ff579182015b82811115620002fe578251825591602001919060010190620002e1565b5b5090506200030e919062000312565b5090565b5b808211156200032d57600081600090555060010162000313565b5090565b7f4e487b7100000000000000000000000000000000000000000000000000000000600052602260045260246000fd5b600060028204905060018216806200037957607f821691505b6020821081141562000390576200038f62000331565b5b50919050565b613fe180620003a66000396000f3fe608060405234801561001057600080fd5b50600436106101725760003560e01c80635c975abb116100de578063a22cb46511610097578063d547741f11610071578063d547741f14610447578063e63ab1e914610463578063e985e9c514610481578063f242432a146104b157610172565b8063a22cb465146103dd578063bd85b039146103f9578063d53913931461042957610172565b80635c975abb1461032d578063731133e91461034b5780637f345710146103675780638456cb591461038557806391d148541461038f578063a217fddf146103bf57610172565b80632eb2c2d6116101305780632eb2c2d61461026f5780632f2ff15d1461028b57806336568abe146102a75780633f4ba83a146102c35780634e1273f4146102cd5780634f558e79146102fd57610172565b8062fdd58e1461017757806301ffc9a7146101a757806302fe5305146101d75780630e89341c146101f35780631f7fdffa14610223578063248a9ca31461023f575b600080fd5b610191600480360381019061018c9190612697565b6104cd565b60405161019e91906126e6565b60405180910390f35b6101c160048036038101906101bc9190612759565b610596565b6040516101ce91906127a1565b60405180910390f35b6101f160048036038101906101ec9190612902565b6105a8565b005b61020d6004803603810190610208919061294b565b6105e7565b60405161021a9190612a00565b60405180910390f35b61023d60048036038101906102389190612b8b565b61067b565b005b61025960048036038101906102549190612c7c565b6106c0565b6040516102669190612cb8565b60405180910390f35b61028960048036038101906102849190612cd3565b6106e0565b005b6102a560048036038101906102a09190612da2565b610781565b005b6102c160048036038101906102bc9190612da2565b6107aa565b005b6102cb61082d565b005b6102e760048036038101906102e29190612ea5565b61086a565b6040516102f49190612fdb565b60405180910390f35b6103176004803603810190610312919061294b565b610983565b60405161032491906127a1565b60405180910390f35b610335610997565b60405161034291906127a1565b60405180910390f35b61036560048036038101906103609190612ffd565b6109ae565b005b61036f6109f3565b60405161037c9190612cb8565b60405180910390f35b61038d610a17565b005b6103a960048036038101906103a49190612da2565b610a54565b6040516103b691906127a1565b60405180910390f35b6103c7610abf565b6040516103d49190612cb8565b60405180910390f35b6103f760048036038101906103f291906130ac565b610ac6565b005b610413600480360381019061040e919061294b565b610adc565b60405161042091906126e6565b60405180910390f35b610431610af9565b60405161043e9190612cb8565b60405180910390f35b610461600480360381019061045c9190612da2565b610b1d565b005b61046b610b46565b6040516104789190612cb8565b60405180910390f35b61049b600480360381019061049691906130ec565b610b6a565b6040516104a891906127a1565b60405180910390f35b6104cb60048036038101906104c6919061312c565b610bfe565b005b60008073ffffffffffffffffffffffffffffffffffffffff168373ffffffffffffffffffffffffffffffffffffffff16141561053e576040517f08c379a000000000000000000000000000000000000000000000000000000000815260040161053590613235565b60405180910390fd5b60008083815260200190815260200160002060008473ffffffffffffffffffffffffffffffffffffffff1673ffffffffffffffffffffffffffffffffffffffff16815260200190815260200160002054905092915050565b60006105a182610c9f565b9050919050565b7f7804d923f43a17d325d77e781528e0793b2edd9890ab45fc64efd7b4b427744c6105da816105d5610d19565b610d21565b6105e382610dbe565b5050565b6060600280546105f690613284565b80601f016020809104026020016040519081016040528092919081815260200182805461062290613284565b801561066f5780601f106106445761010080835404028352916020019161066f565b820191906000526020600020905b81548152906001019060200180831161065257829003601f168201915b50505050509050919050565b7f9f2df0fed2c77648de5860a4cc508cd0818c85b8b8a1ab4ceeef8d981c8956a66106ad816106a8610d19565b610d21565b6106b985858585610dd8565b5050505050565b600060036000838152602001908152602001600020600101549050919050565b6106e8610d19565b73ffffffffffffffffffffffffffffffffffffffff168573ffffffffffffffffffffffffffffffffffffffff16148061072e575061072d85610728610d19565b610b6a565b5b61076d576040517f08c379a000000000000000000000000000000000000000000000000000000000815260040161076490613328565b60405180910390fd5b61077a8585858585610ff6565b5050505050565b61078a826106c0565b61079b81610796610d19565b610d21565b6107a5838361130a565b505050565b6107b2610d19565b73ffffffffffffffffffffffffffffffffffffffff168173ffffffffffffffffffffffffffffffffffffffff161461081f576040517f08c379a0000000000000000000000000000000000000000000000000000000008152600401610816906133ba565b60405180910390fd5b61082982826113eb565b5050565b7f65d7a28e3265b37a6474929f336521b332c1681b933f6cb9f3376673440d862a61085f8161085a610d19565b610d21565b6108676114cd565b50565b606081518351146108b0576040517f08c379a00000000000000000000000000000000000000000000000000000000081526004016108a79061344c565b60405180910390fd5b6000835167ffffffffffffffff8111156108cd576108cc6127d7565b5b6040519080825280602002602001820160405280156108fb5781602001602082028036833780820191505090505b50905060005b8451811015610978576109488582815181106109205761091f61346c565b5b602002602001015185838151811061093b5761093a61346c565b5b60200260200101516104cd565b82828151811061095b5761095a61346c565b5b60200260200101818152505080610971906134ca565b9050610901565b508091505092915050565b60008061098f83610adc565b119050919050565b6000600460009054906101000a900460ff16905090565b7f9f2df0fed2c77648de5860a4cc508cd0818c85b8b8a1ab4ceeef8d981c8956a66109e0816109db610d19565b610d21565b6109ec8585858561156f565b5050505050565b7f7804d923f43a17d325d77e781528e0793b2edd9890ab45fc64efd7b4b427744c81565b7f65d7a28e3265b37a6474929f336521b332c1681b933f6cb9f3376673440d862a610a4981610a44610d19565b610d21565b610a51611705565b50565b60006003600084815260200190815260200160002060000160008373ffffffffffffffffffffffffffffffffffffffff1673ffffffffffffffffffffffffffffffffffffffff16815260200190815260200160002060009054906101000a900460ff16905092915050565b6000801b81565b610ad8610ad1610d19565b83836117a8565b5050565b600060056000838152602001908152602001600020549050919050565b7f9f2df0fed2c77648de5860a4cc508cd0818c85b8b8a1ab4ceeef8d981c8956a681565b610b26826106c0565b610b3781610b32610d19565b610d21565b610b4183836113eb565b505050565b7f65d7a28e3265b37a6474929f336521b332c1681b933f6cb9f3376673440d862a81565b6000600160008473ffffffffffffffffffffffffffffffffffffffff1673ffffffffffffffffffffffffffffffffffffffff16815260200190815260200160002060008373ffffffffffffffffffffffffffffffffffffffff1673ffffffffffffffffffffffffffffffffffffffff16815260200190815260200160002060009054906101000a900460ff16905092915050565b610c06610d19565b73ffffffffffffffffffffffffffffffffffffffff168573ffffffffffffffffffffffffffffffffffffffff161480610c4c5750610c4b85610c46610d19565b610b6a565b5b610c8b576040517f08c379a0000000000000000000000000000000000000000000000000000000008152600401610c8290613585565b60405180910390fd5b610c988585858585611915565b5050505050565b60007f7965db0b000000000000000000000000000000000000000000000000000000007bffffffffffffffffffffffffffffffffffffffffffffffffffffffff1916827bffffffffffffffffffffffffffffffffffffffffffffffffffffffff19161480610d125750610d1182611b97565b5b9050919050565b600033905090565b610d2b8282610a54565b610dba57610d508173ffffffffffffffffffffffffffffffffffffffff166014611c79565b610d5e8360001c6020611c79565b604051602001610d6f929190613679565b6040516020818303038152906040526040517f08c379a0000000000000000000000000000000000000000000000000000000008152600401610db19190612a00565b60405180910390fd5b5050565b8060029080519060200190610dd492919061254c565b5050565b600073ffffffffffffffffffffffffffffffffffffffff168473ffffffffffffffffffffffffffffffffffffffff161415610e48576040517f08c379a0000000000000000000000000000000000000000000000000000000008152600401610e3f90613725565b60405180910390fd5b8151835114610e8c576040517f08c379a0000000000000000000000000000000000000000000000000000000008152600401610e83906137b7565b60405180910390fd5b6000610e96610d19565b9050610ea781600087878787611eb5565b60005b8451811015610f6057838181518110610ec657610ec561346c565b5b6020026020010151600080878481518110610ee457610ee361346c565b5b6020026020010151815260200190815260200160002060008873ffffffffffffffffffffffffffffffffffffffff1673ffffffffffffffffffffffffffffffffffffffff1681526020019081526020016000206000828254610f4691906137d7565b925050819055508080610f58906134ca565b915050610eaa565b508473ffffffffffffffffffffffffffffffffffffffff16600073ffffffffffffffffffffffffffffffffffffffff168273ffffffffffffffffffffffffffffffffffffffff167f4a39dc06d4c0dbc64b70af90fd698a233a518aa5d07e595d983b8c0526c8f7fb8787604051610fd892919061382d565b60405180910390a4610fef81600087878787611f13565b5050505050565b815183511461103a576040517f08c379a0000000000000000000000000000000000000000000000000000000008152600401611031906137b7565b60405180910390fd5b600073ffffffffffffffffffffffffffffffffffffffff168473ffffffffffffffffffffffffffffffffffffffff1614156110aa576040517f08c379a00000000000000000000000000000000000000000000000000000000081526004016110a1906138d6565b60405180910390fd5b60006110b4610d19565b90506110c4818787878787611eb5565b60005b84518110156112755760008582815181106110e5576110e461346c565b5b6020026020010151905060008583815181106111045761110361346c565b5b60200260200101519050600080600084815260200190815260200160002060008b73ffffffffffffffffffffffffffffffffffffffff1673ffffffffffffffffffffffffffffffffffffffff168152602001908152602001600020549050818110156111a5576040517f08c379a000000000000000000000000000000000000000000000000000000000815260040161119c90613968565b60405180910390fd5b81810360008085815260200190815260200160002060008c73ffffffffffffffffffffffffffffffffffffffff1673ffffffffffffffffffffffffffffffffffffffff168152602001908152602001600020819055508160008085815260200190815260200160002060008b73ffffffffffffffffffffffffffffffffffffffff1673ffffffffffffffffffffffffffffffffffffffff168152602001908152602001600020600082825461125a91906137d7565b925050819055505050508061126e906134ca565b90506110c7565b508473ffffffffffffffffffffffffffffffffffffffff168673ffffffffffffffffffffffffffffffffffffffff168273ffffffffffffffffffffffffffffffffffffffff167f4a39dc06d4c0dbc64b70af90fd698a233a518aa5d07e595d983b8c0526c8f7fb87876040516112ec92919061382d565b60405180910390a4611302818787878787611f13565b505050505050565b6113148282610a54565b6113e75760016003600084815260200190815260200160002060000160008373ffffffffffffffffffffffffffffffffffffffff1673ffffffffffffffffffffffffffffffffffffffff16815260200190815260200160002060006101000a81548160ff02191690831515021790555061138c610d19565b73ffffffffffffffffffffffffffffffffffffffff168173ffffffffffffffffffffffffffffffffffffffff16837f2f8788117e7eff1d82e926ec794901d17c78024a50270940304540a733656f0d60405160405180910390a45b5050565b6113f58282610a54565b156114c95760006003600084815260200190815260200160002060000160008373ffffffffffffffffffffffffffffffffffffffff1673ffffffffffffffffffffffffffffffffffffffff16815260200190815260200160002060006101000a81548160ff02191690831515021790555061146e610d19565b73ffffffffffffffffffffffffffffffffffffffff168173ffffffffffffffffffffffffffffffffffffffff16837ff6391f5c32d9c69d2a47ea670b442974b53935d1edc7fd64eb21e047a839171b60405160405180910390a45b5050565b6114d5610997565b611514576040517f08c379a000000000000000000000000000000000000000000000000000000000815260040161150b906139d4565b60405180910390fd5b6000600460006101000a81548160ff0219169083151502179055507f5db9ee0a495bf2e6ff9c91a7834c1ba4fdd244a5e8aa4e537bd38aeae4b073aa611558610d19565b6040516115659190613a03565b60405180910390a1565b600073ffffffffffffffffffffffffffffffffffffffff168473ffffffffffffffffffffffffffffffffffffffff1614156115df576040517f08c379a00000000000000000000000000000000000000000000000000000000081526004016115d690613725565b60405180910390fd5b60006115e9610d19565b905061160a816000876115fb886120eb565b611604886120eb565b87611eb5565b8260008086815260200190815260200160002060008773ffffffffffffffffffffffffffffffffffffffff1673ffffffffffffffffffffffffffffffffffffffff168152602001908152602001600020600082825461166991906137d7565b925050819055508473ffffffffffffffffffffffffffffffffffffffff16600073ffffffffffffffffffffffffffffffffffffffff168273ffffffffffffffffffffffffffffffffffffffff167fc3d58168c5ae7397731d063d5bbf3d657854427343f4c083240f7aacaa2d0f6287876040516116e7929190613a1e565b60405180910390a46116fe81600087878787612165565b5050505050565b61170d610997565b1561174d576040517f08c379a000000000000000000000000000000000000000000000000000000000815260040161174490613a93565b60405180910390fd5b6001600460006101000a81548160ff0219169083151502179055507f62e78cea01bee320cd4e420270b5ea74000d11b0c9f74754ebdbfc544b05a258611791610d19565b60405161179e9190613a03565b60405180910390a1565b8173ffffffffffffffffffffffffffffffffffffffff168373ffffffffffffffffffffffffffffffffffffffff161415611817576040517f08c379a000000000000000000000000000000000000000000000000000000000815260040161180e90613b25565b60405180910390fd5b80600160008573ffffffffffffffffffffffffffffffffffffffff1673ffffffffffffffffffffffffffffffffffffffff16815260200190815260200160002060008473ffffffffffffffffffffffffffffffffffffffff1673ffffffffffffffffffffffffffffffffffffffff16815260200190815260200160002060006101000a81548160ff0219169083151502179055508173ffffffffffffffffffffffffffffffffffffffff168373ffffffffffffffffffffffffffffffffffffffff167f17307eab39ab6107e8899845ad3d59bd9653f200f220920489ca2b5937696c318360405161190891906127a1565b60405180910390a3505050565b600073ffffffffffffffffffffffffffffffffffffffff168473ffffffffffffffffffffffffffffffffffffffff161415611985576040517f08c379a000000000000000000000000000000000000000000000000000000000815260040161197c906138d6565b60405180910390fd5b600061198f610d19565b90506119af8187876119a0886120eb565b6119a9886120eb565b87611eb5565b600080600086815260200190815260200160002060008873ffffffffffffffffffffffffffffffffffffffff1673ffffffffffffffffffffffffffffffffffffffff16815260200190815260200160002054905083811015611a46576040517f08c379a0000000000000000000000000000000000000000000000000000000008152600401611a3d90613968565b60405180910390fd5b83810360008087815260200190815260200160002060008973ffffffffffffffffffffffffffffffffffffffff1673ffffffffffffffffffffffffffffffffffffffff168152602001908152602001600020819055508360008087815260200190815260200160002060008873ffffffffffffffffffffffffffffffffffffffff1673ffffffffffffffffffffffffffffffffffffffff1681526020019081526020016000206000828254611afb91906137d7565b925050819055508573ffffffffffffffffffffffffffffffffffffffff168773ffffffffffffffffffffffffffffffffffffffff168373ffffffffffffffffffffffffffffffffffffffff167fc3d58168c5ae7397731d063d5bbf3d657854427343f4c083240f7aacaa2d0f628888604051611b78929190613a1e565b60405180910390a4611b8e828888888888612165565b50505050505050565b60007fd9b67a26000000000000000000000000000000000000000000000000000000007bffffffffffffffffffffffffffffffffffffffffffffffffffffffff1916827bffffffffffffffffffffffffffffffffffffffffffffffffffffffff19161480611c6257507f0e89341c000000000000000000000000000000000000000000000000000000007bffffffffffffffffffffffffffffffffffffffffffffffffffffffff1916827bffffffffffffffffffffffffffffffffffffffffffffffffffffffff1916145b80611c725750611c718261233d565b5b9050919050565b606060006002836002611c8c9190613b45565b611c9691906137d7565b67ffffffffffffffff811115611caf57611cae6127d7565b5b6040519080825280601f01601f191660200182016040528015611ce15781602001600182028036833780820191505090505b5090507f300000000000000000000000000000000000000000000000000000000000000081600081518110611d1957611d1861346c565b5b60200101907effffffffffffffffffffffffffffffffffffffffffffffffffffffffffffff1916908160001a9053507f780000000000000000000000000000000000000000000000000000000000000081600181518110611d7d57611d7c61346c565b5b60200101907effffffffffffffffffffffffffffffffffffffffffffffffffffffffffffff1916908160001a90535060006001846002611dbd9190613b45565b611dc791906137d7565b90505b6001811115611e67577f3031323334353637383961626364656600000000000000000000000000000000600f861660108110611e0957611e0861346c565b5b1a60f81b828281518110611e2057611e1f61346c565b5b60200101907effffffffffffffffffffffffffffffffffffffffffffffffffffffffffffff1916908160001a905350600485901c945080611e6090613b9f565b9050611dca565b5060008414611eab576040517f08c379a0000000000000000000000000000000000000000000000000000000008152600401611ea290613c15565b60405180910390fd5b8091505092915050565b611ebd610997565b15611efd576040517f08c379a0000000000000000000000000000000000000000000000000000000008152600401611ef490613a93565b60405180910390fd5b611f0b8686868686866123a7565b505050505050565b611f328473ffffffffffffffffffffffffffffffffffffffff16612521565b156120e3578373ffffffffffffffffffffffffffffffffffffffff1663bc197c8187878686866040518663ffffffff1660e01b8152600401611f78959493929190613c8a565b6020604051808303816000875af1925050508015611fb457506040513d601f19601f82011682018060405250810190611fb19190613d07565b60015b61205a57611fc0613d41565b806308c379a0141561201d5750611fd5613d63565b80611fe0575061201f565b806040517f08c379a00000000000000000000000000000000000000000000000000000000081526004016120149190612a00565b60405180910390fd5b505b6040517f08c379a000000000000000000000000000000000000000000000000000000000815260040161205190613e6b565b60405180910390fd5b63bc197c8160e01b7bffffffffffffffffffffffffffffffffffffffffffffffffffffffff1916817bffffffffffffffffffffffffffffffffffffffffffffffffffffffff1916146120e1576040517f08c379a00000000000000000000000000000000000000000000000000000000081526004016120d890613efd565b60405180910390fd5b505b505050505050565b60606000600167ffffffffffffffff81111561210a576121096127d7565b5b6040519080825280602002602001820160405280156121385781602001602082028036833780820191505090505b50905082816000815181106121505761214f61346c565b5b60200260200101818152505080915050919050565b6121848473ffffffffffffffffffffffffffffffffffffffff16612521565b15612335578373ffffffffffffffffffffffffffffffffffffffff1663f23a6e6187878686866040518663ffffffff1660e01b81526004016121ca959493929190613f1d565b6020604051808303816000875af192505050801561220657506040513d601f19601f820116820180604052508101906122039190613d07565b60015b6122ac57612212613d41565b806308c379a0141561226f5750612227613d63565b806122325750612271565b806040517f08c379a00000000000000000000000000000000000000000000000000000000081526004016122669190612a00565b60405180910390fd5b505b6040517f08c379a00000000000000000000000000000000000000000000000000000000081526004016122a390613e6b565b60405180910390fd5b63f23a6e6160e01b7bffffffffffffffffffffffffffffffffffffffffffffffffffffffff1916817bffffffffffffffffffffffffffffffffffffffffffffffffffffffff191614612333576040517f08c379a000000000000000000000000000000000000000000000000000000000815260040161232a90613efd565b60405180910390fd5b505b505050505050565b60007f01ffc9a7000000000000000000000000000000000000000000000000000000007bffffffffffffffffffffffffffffffffffffffffffffffffffffffff1916827bffffffffffffffffffffffffffffffffffffffffffffffffffffffff1916149050919050565b6123b5868686868686612544565b600073ffffffffffffffffffffffffffffffffffffffff168573ffffffffffffffffffffffffffffffffffffffff1614156124675760005b8351811015612465578281815181106124095761240861346c565b5b6020026020010151600560008684815181106124285761242761346c565b5b60200260200101518152602001908152602001600020600082825461244d91906137d7565b925050819055508061245e906134ca565b90506123ed565b505b600073ffffffffffffffffffffffffffffffffffffffff168473ffffffffffffffffffffffffffffffffffffffff1614156125195760005b8351811015612517578281815181106124bb576124ba61346c565b5b6020026020010151600560008684815181106124da576124d961346c565b5b6020026020010151815260200190815260200160002060008282546124ff9190613f77565b9250508190555080612510906134ca565b905061249f565b505b505050505050565b6000808273ffffffffffffffffffffffffffffffffffffffff163b119050919050565b505050505050565b82805461255890613284565b90600052602060002090601f01602090048101928261257a57600085556125c1565b82601f1061259357805160ff19168380011785556125c1565b828001600101855582156125c1579182015b828111156125c05782518255916020019190600101906125a5565b5b5090506125ce91906125d2565b5090565b5b808211156125eb5760008160009055506001016125d3565b5090565b6000604051905090565b600080fd5b600080fd5b600073ffffffffffffffffffffffffffffffffffffffff82169050919050565b600061262e82612603565b9050919050565b61263e81612623565b811461264957600080fd5b50565b60008135905061265b81612635565b92915050565b6000819050919050565b61267481612661565b811461267f57600080fd5b50565b6000813590506126918161266b565b92915050565b600080604083850312156126ae576126ad6125f9565b5b60006126bc8582860161264c565b92505060206126cd85828601612682565b9150509250929050565b6126e081612661565b82525050565b60006020820190506126fb60008301846126d7565b92915050565b60007fffffffff0000000000000000000000000000000000000000000000000000000082169050919050565b61273681612701565b811461274157600080fd5b50565b6000813590506127538161272d565b92915050565b60006020828403121561276f5761276e6125f9565b5b600061277d84828501612744565b91505092915050565b60008115159050919050565b61279b81612786565b82525050565b60006020820190506127b66000830184612792565b92915050565b600080fd5b600080fd5b6000601f19601f8301169050919050565b7f4e487b7100000000000000000000000000000000000000000000000000000000600052604160045260246000fd5b61280f826127c6565b810181811067ffffffffffffffff8211171561282e5761282d6127d7565b5b80604052505050565b60006128416125ef565b905061284d8282612806565b919050565b600067ffffffffffffffff82111561286d5761286c6127d7565b5b612876826127c6565b9050602081019050919050565b82818337600083830152505050565b60006128a56128a084612852565b612837565b9050828152602081018484840111156128c1576128c06127c1565b5b6128cc848285612883565b509392505050565b600082601f8301126128e9576128e86127bc565b5b81356128f9848260208601612892565b91505092915050565b600060208284031215612918576129176125f9565b5b600082013567ffffffffffffffff811115612936576129356125fe565b5b612942848285016128d4565b91505092915050565b600060208284031215612961576129606125f9565b5b600061296f84828501612682565b91505092915050565b600081519050919050565b600082825260208201905092915050565b60005b838110156129b2578082015181840152602081019050612997565b838111156129c1576000848401525b50505050565b60006129d282612978565b6129dc8185612983565b93506129ec818560208601612994565b6129f5816127c6565b840191505092915050565b60006020820190508181036000830152612a1a81846129c7565b905092915050565b600067ffffffffffffffff821115612a3d57612a3c6127d7565b5b602082029050602081019050919050565b600080fd5b6000612a66612a6184612a22565b612837565b90508083825260208201905060208402830185811115612a8957612a88612a4e565b5b835b81811015612ab25780612a9e8882612682565b845260208401935050602081019050612a8b565b5050509392505050565b600082601f830112612ad157612ad06127bc565b5b8135612ae1848260208601612a53565b91505092915050565b600067ffffffffffffffff821115612b0557612b046127d7565b5b612b0e826127c6565b9050602081019050919050565b6000612b2e612b2984612aea565b612837565b905082815260208101848484011115612b4a57612b496127c1565b5b612b55848285612883565b509392505050565b600082601f830112612b7257612b716127bc565b5b8135612b82848260208601612b1b565b91505092915050565b60008060008060808587031215612ba557612ba46125f9565b5b6000612bb38782880161264c565b945050602085013567ffffffffffffffff811115612bd457612bd36125fe565b5b612be087828801612abc565b935050604085013567ffffffffffffffff811115612c0157612c006125fe565b5b612c0d87828801612abc565b925050606085013567ffffffffffffffff811115612c2e57612c2d6125fe565b5b612c3a87828801612b5d565b91505092959194509250565b6000819050919050565b612c5981612c46565b8114612c6457600080fd5b50565b600081359050612c7681612c50565b92915050565b600060208284031215612c9257612c916125f9565b5b6000612ca084828501612c67565b91505092915050565b612cb281612c46565b82525050565b6000602082019050612ccd6000830184612ca9565b92915050565b600080600080600060a08688031215612cef57612cee6125f9565b5b6000612cfd8882890161264c565b9550506020612d0e8882890161264c565b945050604086013567ffffffffffffffff811115612d2f57612d2e6125fe565b5b612d3b88828901612abc565b935050606086013567ffffffffffffffff811115612d5c57612d5b6125fe565b5b612d6888828901612abc565b925050608086013567ffffffffffffffff811115612d8957612d886125fe565b5b612d9588828901612b5d565b9150509295509295909350565b60008060408385031215612db957612db86125f9565b5b6000612dc785828601612c67565b9250506020612dd88582860161264c565b9150509250929050565b600067ffffffffffffffff821115612dfd57612dfc6127d7565b5b602082029050602081019050919050565b6000612e21612e1c84612de2565b612837565b90508083825260208201905060208402830185811115612e4457612e43612a4e565b5b835b81811015612e6d5780612e59888261264c565b845260208401935050602081019050612e46565b5050509392505050565b600082601f830112612e8c57612e8b6127bc565b5b8135612e9c848260208601612e0e565b91505092915050565b60008060408385031215612ebc57612ebb6125f9565b5b600083013567ffffffffffffffff811115612eda57612ed96125fe565b5b612ee685828601612e77565b925050602083013567ffffffffffffffff811115612f0757612f066125fe565b5b612f1385828601612abc565b9150509250929050565b600081519050919050565b600082825260208201905092915050565b6000819050602082019050919050565b612f5281612661565b82525050565b6000612f648383612f49565b60208301905092915050565b6000602082019050919050565b6000612f8882612f1d565b612f928185612f28565b9350612f9d83612f39565b8060005b83811015612fce578151612fb58882612f58565b9750612fc083612f70565b925050600181019050612fa1565b5085935050505092915050565b60006020820190508181036000830152612ff58184612f7d565b905092915050565b60008060008060808587031215613017576130166125f9565b5b60006130258782880161264c565b945050602061303687828801612682565b935050604061304787828801612682565b925050606085013567ffffffffffffffff811115613068576130676125fe565b5b61307487828801612b5d565b91505092959194509250565b61308981612786565b811461309457600080fd5b50565b6000813590506130a681613080565b92915050565b600080604083850312156130c3576130c26125f9565b5b60006130d18582860161264c565b92505060206130e285828601613097565b9150509250929050565b60008060408385031215613103576131026125f9565b5b60006131118582860161264c565b92505060206131228582860161264c565b9150509250929050565b600080600080600060a08688031215613148576131476125f9565b5b60006131568882890161264c565b95505060206131678882890161264c565b945050604061317888828901612682565b935050606061318988828901612682565b925050608086013567ffffffffffffffff8111156131aa576131a96125fe565b5b6131b688828901612b5d565b9150509295509295909350565b7f455243313135353a2062616c616e636520717565727920666f7220746865207a60008201527f65726f2061646472657373000000000000000000000000000000000000000000602082015250565b600061321f602b83612983565b915061322a826131c3565b604082019050919050565b6000602082019050818103600083015261324e81613212565b9050919050565b7f4e487b7100000000000000000000000000000000000000000000000000000000600052602260045260246000fd5b6000600282049050600182168061329c57607f821691505b602082108114156132b0576132af613255565b5b50919050565b7f455243313135353a207472616e736665722063616c6c6572206973206e6f742060008201527f6f776e6572206e6f7220617070726f7665640000000000000000000000000000602082015250565b6000613312603283612983565b915061331d826132b6565b604082019050919050565b6000602082019050818103600083015261334181613305565b9050919050565b7f416363657373436f6e74726f6c3a2063616e206f6e6c792072656e6f756e636560008201527f20726f6c657320666f722073656c660000000000000000000000000000000000602082015250565b60006133a4602f83612983565b91506133af82613348565b604082019050919050565b600060208201905081810360008301526133d381613397565b9050919050565b7f455243313135353a206163636f756e747320616e6420696473206c656e67746860008201527f206d69736d617463680000000000000000000000000000000000000000000000602082015250565b6000613436602983612983565b9150613441826133da565b604082019050919050565b6000602082019050818103600083015261346581613429565b9050919050565b7f4e487b7100000000000000000000000000000000000000000000000000000000600052603260045260246000fd5b7f4e487b7100000000000000000000000000000000000000000000000000000000600052601160045260246000fd5b60006134d582612661565b91507fffffffffffffffffffffffffffffffffffffffffffffffffffffffffffffffff8214156135085761350761349b565b5b600182019050919050565b7f455243313135353a2063616c6c6572206973206e6f74206f776e6572206e6f7260008201527f20617070726f7665640000000000000000000000000000000000000000000000602082015250565b600061356f602983612983565b915061357a82613513565b604082019050919050565b6000602082019050818103600083015261359e81613562565b9050919050565b600081905092915050565b7f416363657373436f6e74726f6c3a206163636f756e7420000000000000000000600082015250565b60006135e66017836135a5565b91506135f1826135b0565b601782019050919050565b600061360782612978565b61361181856135a5565b9350613621818560208601612994565b80840191505092915050565b7f206973206d697373696e6720726f6c6520000000000000000000000000000000600082015250565b60006136636011836135a5565b915061366e8261362d565b601182019050919050565b6000613684826135d9565b915061369082856135fc565b915061369b82613656565b91506136a782846135fc565b91508190509392505050565b7f455243313135353a206d696e7420746f20746865207a65726f2061646472657360008201527f7300000000000000000000000000000000000000000000000000000000000000602082015250565b600061370f602183612983565b915061371a826136b3565b604082019050919050565b6000602082019050818103600083015261373e81613702565b9050919050565b7f455243313135353a2069647320616e6420616d6f756e7473206c656e6774682060008201527f6d69736d61746368000000000000000000000000000000000000000000000000602082015250565b60006137a1602883612983565b91506137ac82613745565b604082019050919050565b600060208201905081810360008301526137d081613794565b9050919050565b60006137e282612661565b91506137ed83612661565b9250827fffffffffffffffffffffffffffffffffffffffffffffffffffffffffffffffff038211156138225761382161349b565b5b828201905092915050565b600060408201905081810360008301526138478185612f7d565b9050818103602083015261385b8184612f7d565b90509392505050565b7f455243313135353a207472616e7366657220746f20746865207a65726f20616460008201527f6472657373000000000000000000000000000000000000000000000000000000602082015250565b60006138c0602583612983565b91506138cb82613864565b604082019050919050565b600060208201905081810360008301526138ef816138b3565b9050919050565b7f455243313135353a20696e73756666696369656e742062616c616e636520666f60008201527f72207472616e7366657200000000000000000000000000000000000000000000602082015250565b6000613952602a83612983565b915061395d826138f6565b604082019050919050565b6000602082019050818103600083015261398181613945565b9050919050565b7f5061757361626c653a206e6f7420706175736564000000000000000000000000600082015250565b60006139be601483612983565b91506139c982613988565b602082019050919050565b600060208201905081810360008301526139ed816139b1565b9050919050565b6139fd81612623565b82525050565b6000602082019050613a1860008301846139f4565b92915050565b6000604082019050613a3360008301856126d7565b613a4060208301846126d7565b9392505050565b7f5061757361626c653a2070617573656400000000000000000000000000000000600082015250565b6000613a7d601083612983565b9150613a8882613a47565b602082019050919050565b60006020820190508181036000830152613aac81613a70565b9050919050565b7f455243313135353a2073657474696e6720617070726f76616c2073746174757360008201527f20666f722073656c660000000000000000000000000000000000000000000000602082015250565b6000613b0f602983612983565b9150613b1a82613ab3565b604082019050919050565b60006020820190508181036000830152613b3e81613b02565b9050919050565b6000613b5082612661565b9150613b5b83612661565b9250817fffffffffffffffffffffffffffffffffffffffffffffffffffffffffffffffff0483118215151615613b9457613b9361349b565b5b828202905092915050565b6000613baa82612661565b91506000821415613bbe57613bbd61349b565b5b600182039050919050565b7f537472696e67733a20686578206c656e67746820696e73756666696369656e74600082015250565b6000613bff602083612983565b9150613c0a82613bc9565b602082019050919050565b60006020820190508181036000830152613c2e81613bf2565b9050919050565b600081519050919050565b600082825260208201905092915050565b6000613c5c82613c35565b613c668185613c40565b9350613c76818560208601612994565b613c7f816127c6565b840191505092915050565b600060a082019050613c9f60008301886139f4565b613cac60208301876139f4565b8181036040830152613cbe8186612f7d565b90508181036060830152613cd28185612f7d565b90508181036080830152613ce68184613c51565b90509695505050505050565b600081519050613d018161272d565b92915050565b600060208284031215613d1d57613d1c6125f9565b5b6000613d2b84828501613cf2565b91505092915050565b60008160e01c9050919050565b600060033d1115613d605760046000803e613d5d600051613d34565b90505b90565b600060443d1015613d7357613df6565b613d7b6125ef565b60043d036004823e80513d602482011167ffffffffffffffff82111715613da3575050613df6565b808201805167ffffffffffffffff811115613dc15750505050613df6565b80602083010160043d038501811115613dde575050505050613df6565b613ded82602001850186612806565b82955050505050505b90565b7f455243313135353a207472616e7366657220746f206e6f6e204552433131353560008201527f526563656976657220696d706c656d656e746572000000000000000000000000602082015250565b6000613e55603483612983565b9150613e6082613df9565b604082019050919050565b60006020820190508181036000830152613e8481613e48565b9050919050565b7f455243313135353a204552433131353552656365697665722072656a6563746560008201527f6420746f6b656e73000000000000000000000000000000000000000000000000602082015250565b6000613ee7602883612983565b9150613ef282613e8b565b604082019050919050565b60006020820190508181036000830152613f1681613eda565b9050919050565b600060a082019050613f3260008301886139f4565b613f3f60208301876139f4565b613f4c60408301866126d7565b613f5960608301856126d7565b8181036080830152613f6b8184613c51565b90509695505050505050565b6000613f8282612661565b9150613f8d83612661565b925082821015613fa057613f9f61349b565b5b82820390509291505056fea2646970667358221220ed7c780e98f8e1f28c46a8c3975dcda631b4c3d31809c214fbf38b7b02d1a0fd64736f6c634300080b0033",
  "immutableReferences": {},
  "source": "// SPDX-License-Identifier: MIT\npragma solidity ^0.8.4;\n\nimport \"@openzeppelin/contracts/token/ERC1155/ERC1155.sol\";\nimport \"@openzeppelin/contracts/access/AccessControl.sol\";\nimport \"@openzeppelin/contracts/security/Pausable.sol\";\nimport \"@openzeppelin/contracts/token/ERC1155/extensions/ERC1155Supply.sol\";\n\ncontract REDBroadcast is ERC1155, AccessControl, Pausable, ERC1155Supply {\n    bytes32 public constant URI_SETTER_ROLE = keccak256(\"URI_SETTER_ROLE\");\n    bytes32 public constant PAUSER_ROLE = keccak256(\"PAUSER_ROLE\");\n    bytes32 public constant MINTER_ROLE = keccak256(\"MINTER_ROLE\");\n\n    constructor() ERC1155(\"\") {\n        _grantRole(DEFAULT_ADMIN_ROLE, msg.sender);\n        _grantRole(URI_SETTER_ROLE, msg.sender);\n        _grantRole(PAUSER_ROLE, msg.sender);\n        _grantRole(MINTER_ROLE, msg.sender);\n    }\n\n    function setURI(string memory newuri) public onlyRole(URI_SETTER_ROLE) {\n        _setURI(newuri);\n    }\n\n    function pause() public onlyRole(PAUSER_ROLE) {\n        _pause();\n    }\n\n    function unpause() public onlyRole(PAUSER_ROLE) {\n        _unpause();\n    }\n\n    function mint(address account, uint256 id, uint256 amount, bytes memory data)\n        public\n        onlyRole(MINTER_ROLE)\n    {\n        _mint(account, id, amount, data);\n    }\n\n    function mintBatch(address to, uint256[] memory ids, uint256[] memory amounts, bytes memory data)\n        public\n        onlyRole(MINTER_ROLE)\n    {\n        _mintBatch(to, ids, amounts, data);\n    }\n\n    function _beforeTokenTransfer(address operator, address from, address to, uint256[] memory ids, uint256[] memory amounts, bytes memory data)\n        internal\n        whenNotPaused\n        override(ERC1155, ERC1155Supply)\n    {\n        super._beforeTokenTransfer(operator, from, to, ids, amounts, data);\n    }\n\n    // The following functions are overrides required by Solidity.\n\n    function supportsInterface(bytes4 interfaceId)\n        public\n        view\n        override(ERC1155, AccessControl)\n        returns (bool)\n    {\n        return super.supportsInterface(interfaceId);\n    }\n}",
  "sourcePath": "/Users/noel/workspace/manak/RedNFTcontracts/contracts/REDBroadcast.sol",
  "compiler": {
    "name": "solc",
    "version": "0.8.11+commit.d7f03943.Emscripten.clang"
  },
  "schemaVersion": "3.4.5",
  "updatedAt": "2022-04-01T13:58:08.036Z",
  "devdoc": {
    "kind": "dev",
    "methods": {
      "balanceOf(address,uint256)": {
        "details": "See {IERC1155-balanceOf}. Requirements: - `account` cannot be the zero address."
      },
      "balanceOfBatch(address[],uint256[])": {
        "details": "See {IERC1155-balanceOfBatch}. Requirements: - `accounts` and `ids` must have the same length."
      },
      "exists(uint256)": {
        "details": "Indicates whether any token exist with a given id, or not."
      },
      "getRoleAdmin(bytes32)": {
        "details": "Returns the admin role that controls `role`. See {grantRole} and {revokeRole}. To change a role's admin, use {_setRoleAdmin}."
      },
      "grantRole(bytes32,address)": {
        "details": "Grants `role` to `account`. If `account` had not been already granted `role`, emits a {RoleGranted} event. Requirements: - the caller must have ``role``'s admin role."
      },
      "hasRole(bytes32,address)": {
        "details": "Returns `true` if `account` has been granted `role`."
      },
      "isApprovedForAll(address,address)": {
        "details": "See {IERC1155-isApprovedForAll}."
      },
      "paused()": {
        "details": "Returns true if the contract is paused, and false otherwise."
      },
      "renounceRole(bytes32,address)": {
        "details": "Revokes `role` from the calling account. Roles are often managed via {grantRole} and {revokeRole}: this function's purpose is to provide a mechanism for accounts to lose their privileges if they are compromised (such as when a trusted device is misplaced). If the calling account had been revoked `role`, emits a {RoleRevoked} event. Requirements: - the caller must be `account`."
      },
      "revokeRole(bytes32,address)": {
        "details": "Revokes `role` from `account`. If `account` had been granted `role`, emits a {RoleRevoked} event. Requirements: - the caller must have ``role``'s admin role."
      },
      "safeBatchTransferFrom(address,address,uint256[],uint256[],bytes)": {
        "details": "See {IERC1155-safeBatchTransferFrom}."
      },
      "safeTransferFrom(address,address,uint256,uint256,bytes)": {
        "details": "See {IERC1155-safeTransferFrom}."
      },
      "setApprovalForAll(address,bool)": {
        "details": "See {IERC1155-setApprovalForAll}."
      },
      "totalSupply(uint256)": {
        "details": "Total amount of tokens in with a given id."
      },
      "uri(uint256)": {
        "details": "See {IERC1155MetadataURI-uri}. This implementation returns the same URI for *all* token types. It relies on the token type ID substitution mechanism https://eips.ethereum.org/EIPS/eip-1155#metadata[defined in the EIP]. Clients calling this function must replace the `\\{id\\}` substring with the actual token type ID."
      }
    },
    "version": 1
  },
  "userdoc": {
    "kind": "user",
    "methods": {},
    "version": 1
  }
}