{
  "contractName": "RedGovernance",
  "abi": [
    {
      "inputs": [
        {
          "internalType": "address",
          "name": "redTokenAddress",
          "type": "address"
        }
      ],
      "stateMutability": "nonpayable",
      "type": "constructor"
    },
    {
      "inputs": [],
      "name": "vote",
      "outputs": [
        {
          "internalType": "bool",
          "name": "",
          "type": "bool"
        }
      ],
      "stateMutability": "nonpayable",
      "type": "function"
    },
    {
      "inputs": [],
      "name": "claimGovernanceReward",
      "outputs": [
        {
          "internalType": "uint256",
          "name": "",
          "type": "uint256"
        }
      ],
      "stateMutability": "nonpayable",
      "type": "function"
    },
    {
      "inputs": [
        {
          "internalType": "uint256",
          "name": "_amount",
          "type": "uint256"
        }
      ],
      "name": "stake",
      "outputs": [
        {
          "internalType": "bool",
          "name": "",
          "type": "bool"
        }
      ],
      "stateMutability": "nonpayable",
      "type": "function"
    },
    {
      "inputs": [
        {
          "internalType": "uint256",
          "name": "_amount",
          "type": "uint256"
        },
        {
          "internalType": "uint256",
          "name": "index",
          "type": "uint256"
        }
      ],
      "name": "withdrawStake",
      "outputs": [
        {
          "internalType": "bool",
          "name": "",
          "type": "bool"
        }
      ],
      "stateMutability": "nonpayable",
      "type": "function"
    },
    {
      "inputs": [
        {
          "internalType": "address",
          "name": "_staker",
          "type": "address"
        }
      ],
      "name": "hasStake",
      "outputs": [
        {
          "components": [
            {
              "internalType": "uint256",
              "name": "total_amount",
              "type": "uint256"
            },
            {
              "internalType": "uint256",
              "name": "governanceReward",
              "type": "uint256"
            },
            {
              "components": [
                {
                  "internalType": "address",
                  "name": "user",
                  "type": "address"
                },
                {
                  "internalType": "uint256",
                  "name": "amount",
                  "type": "uint256"
                },
                {
                  "internalType": "uint256",
                  "name": "since",
                  "type": "uint256"
                },
                {
                  "internalType": "uint256",
                  "name": "claimable",
                  "type": "uint256"
                }
              ],
              "internalType": "struct RedGovernance.Stake[]",
              "name": "stakes",
              "type": "tuple[]"
            }
          ],
          "internalType": "struct RedGovernance.StakingSummary",
          "name": "",
          "type": "tuple"
        }
      ],
      "stateMutability": "view",
      "type": "function"
    }
  ],
  "bytecode": "0x608060405273c76ebce384181d22de0d5e8f9552c0bbbd2e95cc600160006101000a81548173ffffffffffffffffffffffffffffffffffffffff021916908373ffffffffffffffffffffffffffffffffffffffff16021790555068056bc75e2d6310000060025567d02ab486cedc00006003556103e86004553480156200008557600080fd5b5060405162001536380380620015368339818101604052810190620000ab91906200015c565b806000806101000a81548173ffffffffffffffffffffffffffffffffffffffff021916908373ffffffffffffffffffffffffffffffffffffffff160217905550506200018e565b600080fd5b600073ffffffffffffffffffffffffffffffffffffffff82169050919050565b60006200012482620000f7565b9050919050565b620001368162000117565b81146200014257600080fd5b50565b60008151905062000156816200012b565b92915050565b600060208284031215620001755762000174620000f2565b5b6000620001858482850162000145565b91505092915050565b611398806200019e6000396000f3fe608060405234801561001057600080fd5b50600436106100575760003560e01c80631153958e1461005c578063632a9a521461007a578063a694fc3a14610098578063e73e14bf146100c8578063f1fdf469146100f8575b600080fd5b610064610128565b6040516100719190610c03565b60405180910390f35b610082610307565b60405161008f9190610c39565b60405180910390f35b6100b260048036038101906100ad9190610c85565b61048a565b6040516100bf9190610c39565b60405180910390f35b6100e260048036038101906100dd9190610d10565b6106ae565b6040516100ef9190610eaf565b60405180910390f35b610112600480360381019061010d9190610ed1565b6108a9565b60405161011f9190610c39565b60405180910390f35b600080600560003373ffffffffffffffffffffffffffffffffffffffff1673ffffffffffffffffffffffffffffffffffffffff16815260200190815260200160002060010154116101ae576040517f08c379a00000000000000000000000000000000000000000000000000000000081526004016101a590610f6e565b60405180910390fd5b6000600560003373ffffffffffffffffffffffffffffffffffffffff1673ffffffffffffffffffffffffffffffffffffffff1681526020019081526020016000206001015490506000600560003373ffffffffffffffffffffffffffffffffffffffff1673ffffffffffffffffffffffffffffffffffffffff1681526020019081526020016000206001018190555060008054906101000a900473ffffffffffffffffffffffffffffffffffffffff1673ffffffffffffffffffffffffffffffffffffffff166323b872dd600160009054906101000a900473ffffffffffffffffffffffffffffffffffffffff1633846040518463ffffffff1660e01b81526004016102bc93929190610f9d565b6020604051808303816000875af11580156102db573d6000803e3d6000fd5b505050506040513d601f19601f820116820180604052508101906102ff9190611000565b508091505090565b600080610313336106ae565b90506a084595161401484a00000081600001511015610367576040517f08c379a000000000000000000000000000000000000000000000000000000000815260040161035e9061109f565b60405180910390fd5b60008054906101000a900473ffffffffffffffffffffffffffffffffffffffff1673ffffffffffffffffffffffffffffffffffffffff1663a9059cbb600160009054906101000a900473ffffffffffffffffffffffffffffffffffffffff166002546040518363ffffffff1660e01b81526004016103e69291906110bf565b6020604051808303816000875af1158015610405573d6000803e3d6000fd5b505050506040513d601f19601f820116820180604052508101906104299190611000565b50600354816020015161043c9190611117565b600560003373ffffffffffffffffffffffffffffffffffffffff1673ffffffffffffffffffffffffffffffffffffffff16815260200190815260200160002060010181905550600191505090565b60008082116104ce576040517f08c379a00000000000000000000000000000000000000000000000000000000081526004016104c5906111b9565b60405180910390fd5b60008054906101000a900473ffffffffffffffffffffffffffffffffffffffff1673ffffffffffffffffffffffffffffffffffffffff1663a9059cbb600160009054906101000a900473ffffffffffffffffffffffffffffffffffffffff16846040518363ffffffff1660e01b815260040161054b9291906110bf565b6020604051808303816000875af115801561056a573d6000803e3d6000fd5b505050506040513d601f19601f8201168201806040525081019061058e9190611000565b506000429050600060405180608001604052803373ffffffffffffffffffffffffffffffffffffffff16815260200185815260200183815260200160008152509050600560003373ffffffffffffffffffffffffffffffffffffffff1673ffffffffffffffffffffffffffffffffffffffff16815260200190815260200160002060020181908060018154018082558091505060019003906000526020600020906004020160009091909190915060008201518160000160006101000a81548173ffffffffffffffffffffffffffffffffffffffff021916908373ffffffffffffffffffffffffffffffffffffffff1602179055506020820151816001015560408201518160020155606082015181600301555050600192505050919050565b6106b6610bc9565b600080600560008573ffffffffffffffffffffffffffffffffffffffff1673ffffffffffffffffffffffffffffffffffffffff168152602001908152602001600020604051806060016040529081600082015481526020016001820154815260200160028201805480602002602001604051908101604052809291908181526020016000905b828210156107e257838290600052602060002090600402016040518060800160405290816000820160009054906101000a900473ffffffffffffffffffffffffffffffffffffffff1673ffffffffffffffffffffffffffffffffffffffff1673ffffffffffffffffffffffffffffffffffffffff16815260200160018201548152602001600282015481526020016003820154815250508152602001906001019061073c565b5050505081525050905060005b81604001515181101561089457600061082583604001518381518110610818576108176111d9565b5b6020026020010151610b87565b9050808360400151838151811061083f5761083e6111d9565b5b6020026020010151606001818152505082604001518281518110610866576108656111d9565b5b6020026020010151602001518461087d9190611117565b93505060018161088d9190611117565b90506107ef565b50818160000181815250508092505050919050565b60008083116108ed576040517f08c379a00000000000000000000000000000000000000000000000000000000081526004016108e490611254565b60405180910390fd5b6000600560003373ffffffffffffffffffffffffffffffffffffffff1673ffffffffffffffffffffffffffffffffffffffff1681526020019081526020016000206002018381548110610943576109426111d9565b5b90600052602060002090600402016040518060800160405290816000820160009054906101000a900473ffffffffffffffffffffffffffffffffffffffff1673ffffffffffffffffffffffffffffffffffffffff1673ffffffffffffffffffffffffffffffffffffffff168152602001600182015481526020016002820154815260200160038201548152505090508060200151841115610a19576040517f08c379a0000000000000000000000000000000000000000000000000000000008152600401610a10906111b9565b60405180910390fd5b6000610a2482610b87565b9050848260200151610a369190611274565b8260200181815250508160200151600560003373ffffffffffffffffffffffffffffffffffffffff1673ffffffffffffffffffffffffffffffffffffffff1681526020019081526020016000206002018581548110610a9857610a976111d9565b5b90600052602060002090600402016001018190555060008054906101000a900473ffffffffffffffffffffffffffffffffffffffff1673ffffffffffffffffffffffffffffffffffffffff166323b872dd600160009054906101000a900473ffffffffffffffffffffffffffffffffffffffff16338489610b199190611117565b6040518463ffffffff1660e01b8152600401610b3793929190610f9d565b6020604051808303816000875af1158015610b56573d6000803e3d6000fd5b505050506040513d601f19601f82011682018060405250810190610b7a9190611000565b5060019250505092915050565b60006004548260200151610e10846040015142610ba49190611274565b610bae91906112d7565b610bb89190611308565b610bc291906112d7565b9050919050565b60405180606001604052806000815260200160008152602001606081525090565b6000819050919050565b610bfd81610bea565b82525050565b6000602082019050610c186000830184610bf4565b92915050565b60008115159050919050565b610c3381610c1e565b82525050565b6000602082019050610c4e6000830184610c2a565b92915050565b600080fd5b610c6281610bea565b8114610c6d57600080fd5b50565b600081359050610c7f81610c59565b92915050565b600060208284031215610c9b57610c9a610c54565b5b6000610ca984828501610c70565b91505092915050565b600073ffffffffffffffffffffffffffffffffffffffff82169050919050565b6000610cdd82610cb2565b9050919050565b610ced81610cd2565b8114610cf857600080fd5b50565b600081359050610d0a81610ce4565b92915050565b600060208284031215610d2657610d25610c54565b5b6000610d3484828501610cfb565b91505092915050565b610d4681610bea565b82525050565b600081519050919050565b600082825260208201905092915050565b6000819050602082019050919050565b610d8181610cd2565b82525050565b608082016000820151610d9d6000850182610d78565b506020820151610db06020850182610d3d565b506040820151610dc36040850182610d3d565b506060820151610dd66060850182610d3d565b50505050565b6000610de88383610d87565b60808301905092915050565b6000602082019050919050565b6000610e0c82610d4c565b610e168185610d57565b9350610e2183610d68565b8060005b83811015610e52578151610e398882610ddc565b9750610e4483610df4565b925050600181019050610e25565b5085935050505092915050565b6000606083016000830151610e776000860182610d3d565b506020830151610e8a6020860182610d3d565b5060408301518482036040860152610ea28282610e01565b9150508091505092915050565b60006020820190508181036000830152610ec98184610e5f565b905092915050565b60008060408385031215610ee857610ee7610c54565b5b6000610ef685828601610c70565b9250506020610f0785828601610c70565b9150509250929050565b600082825260208201905092915050565b7f496e73756666696369656e7420676f7665726e616e6365207265776172640000600082015250565b6000610f58601e83610f11565b9150610f6382610f22565b602082019050919050565b60006020820190508181036000830152610f8781610f4b565b9050919050565b610f9781610cd2565b82525050565b6000606082019050610fb26000830186610f8e565b610fbf6020830185610f8e565b610fcc6040830184610bf4565b949350505050565b610fdd81610c1e565b8114610fe857600080fd5b50565b600081519050610ffa81610fd4565b92915050565b60006020828403121561101657611015610c54565b5b600061102484828501610feb565b91505092915050565b7f506c65617365207374616b652061746c656173742031304d2052656420746f6b60008201527f656e7320746f20766f7465000000000000000000000000000000000000000000602082015250565b6000611089602b83610f11565b91506110948261102d565b604082019050919050565b600060208201905081810360008301526110b88161107c565b9050919050565b60006040820190506110d46000830185610f8e565b6110e16020830184610bf4565b9392505050565b7f4e487b7100000000000000000000000000000000000000000000000000000000600052601160045260246000fd5b600061112282610bea565b915061112d83610bea565b9250827fffffffffffffffffffffffffffffffffffffffffffffffffffffffffffffffff03821115611162576111616110e8565b5b828201905092915050565b7f496e73756666696369656e74207374616b696e6720616d6f756e740000000000600082015250565b60006111a3601b83610f11565b91506111ae8261116d565b602082019050919050565b600060208201905081810360008301526111d281611196565b9050919050565b7f4e487b7100000000000000000000000000000000000000000000000000000000600052603260045260246000fd5b7f496e76616c696420616d6f756e74000000000000000000000000000000000000600082015250565b600061123e600e83610f11565b915061124982611208565b602082019050919050565b6000602082019050818103600083015261126d81611231565b9050919050565b600061127f82610bea565b915061128a83610bea565b92508282101561129d5761129c6110e8565b5b828203905092915050565b7f4e487b7100000000000000000000000000000000000000000000000000000000600052601260045260246000fd5b60006112e282610bea565b91506112ed83610bea565b9250826112fd576112fc6112a8565b5b828204905092915050565b600061131382610bea565b915061131e83610bea565b9250817fffffffffffffffffffffffffffffffffffffffffffffffffffffffffffffffff0483118215151615611357576113566110e8565b5b82820290509291505056fea2646970667358221220ecc895f8bde56615f423002706ed35c7c35c03531a716fb2d8c32d508db9a2d364736f6c634300080b0033",
  "immutableReferences": {},
  "source": "// SPDX-License-Identifier: MIT\npragma solidity ^0.8.4;\n\nimport \"@openzeppelin/contracts/token/ERC20/ERC20.sol\";\nimport \"@openzeppelin/contracts/token/ERC20/IERC20.sol\";\n\ncontract RedGovernance {\n    IERC20 redToken;\n    address admin = 0xC76EBCe384181d22de0d5E8f9552c0bbbd2E95cc; // TODO\n    uint256 votingFee = 100 * 10**18; // TODO\n    uint256 votingReward = 15 * 10**18; // TODO\n    uint256 internal rewardPerHour = 1000; // TODO\n\n    struct Stake {\n        address user;\n        uint256 amount;\n        uint256 since;\n        uint256 claimable;\n    }\n\n    struct StakingSummary {\n        uint256 total_amount;\n        uint256 governanceReward;\n        Stake[] stakes;\n    }\n\n    mapping(address => StakingSummary) private StakingInfo;\n\n    constructor(address redTokenAddress) {\n        redToken = IERC20(redTokenAddress); // Token Address\n    }\n\n    function vote() external returns (bool) {\n        StakingSummary memory summary = hasStake(msg.sender);\n        require(\n            summary.total_amount >= 10000000 * (10**18),\n            \"Please stake atleast 10M Red tokens to vote\"\n        );\n        redToken.transfer(admin, votingFee);\n        StakingInfo[msg.sender].governanceReward =\n            summary.governanceReward +\n            votingReward;\n        return true;\n    }\n\n    function claimGovernanceReward() external returns (uint256) {\n        require(\n            StakingInfo[msg.sender].governanceReward > 0,\n            \"Insufficient governance reward\"\n        );\n        uint256 governanceReward = StakingInfo[msg.sender].governanceReward;\n        StakingInfo[msg.sender].governanceReward = 0;\n        redToken.transferFrom(admin, msg.sender, governanceReward);\n        return governanceReward;\n    }\n\n    function stake(uint256 _amount) external returns (bool) {\n        require(_amount > 0, \"Insufficient staking amount\");\n        redToken.transfer(admin, _amount);\n        uint256 timestamp = block.timestamp;\n        Stake memory newStake = Stake(msg.sender, _amount, timestamp, 0);\n        StakingInfo[msg.sender].stakes.push(newStake);\n        return true;\n    }\n\n    function withdrawStake(uint256 _amount, uint256 index)\n        external\n        returns (bool)\n    {\n        require(_amount > 0, \"Invalid amount\");\n        Stake memory current_stake = StakingInfo[msg.sender].stakes[index];\n        require(_amount <= current_stake.amount, \"Insufficient staking amount\");\n        uint256 reward = calculateStakeReward(current_stake);\n        current_stake.amount = current_stake.amount - _amount;\n        StakingInfo[msg.sender].stakes[index].amount = current_stake.amount;\n        redToken.transferFrom(admin, msg.sender, _amount + reward);\n        return true;\n    }\n\n    function calculateStakeReward(Stake memory _current_stake)\n        internal\n        view\n        returns (uint256)\n    {\n        return\n            (((block.timestamp - _current_stake.since) / 1 hours) *\n                _current_stake.amount) / rewardPerHour;\n    }\n\n    function hasStake(address _staker)\n        public\n        view\n        returns (StakingSummary memory)\n    {\n        uint256 totalStakeAmount;\n        StakingSummary memory summary = StakingInfo[_staker];\n        for (uint256 s = 0; s < summary.stakes.length; s += 1) {\n            uint256 availableReward = calculateStakeReward(summary.stakes[s]);\n            summary.stakes[s].claimable = availableReward;\n            totalStakeAmount = totalStakeAmount + summary.stakes[s].amount;\n        }\n        summary.total_amount = totalStakeAmount;\n        return summary;\n    }\n}\n",
  "sourcePath": "/Users/noel/workspace/manak/RedNFTcontracts/contracts/RedGovernance.sol",
  "compiler": {
    "name": "solc",
    "version": "0.8.11+commit.d7f03943.Emscripten.clang"
  },
  "schemaVersion": "3.4.5",
  "updatedAt": "2022-04-25T18:19:10.439Z",
  "networkType": "ethereum",
  "devdoc": {
    "kind": "dev",
    "methods": {},
    "version": 1
  },
  "userdoc": {
    "kind": "user",
    "methods": {},
    "version": 1
  }
}