{
  "contractName": "RedGovernance",
  "abi": [
    {
      "inputs": [
        {
          "internalType": "address",
          "name": "redTokenAddress",
          "type": "address"
        }
      ],
      "stateMutability": "nonpayable",
      "type": "constructor"
    },
    {
      "inputs": [],
      "name": "vote",
      "outputs": [
        {
          "internalType": "bool",
          "name": "",
          "type": "bool"
        }
      ],
      "stateMutability": "nonpayable",
      "type": "function"
    },
    {
      "inputs": [],
      "name": "claimGovernanceReward",
      "outputs": [
        {
          "internalType": "uint256",
          "name": "",
          "type": "uint256"
        }
      ],
      "stateMutability": "nonpayable",
      "type": "function"
    },
    {
      "inputs": [
        {
          "internalType": "uint256",
          "name": "_amount",
          "type": "uint256"
        }
      ],
      "name": "stake",
      "outputs": [
        {
          "internalType": "bool",
          "name": "",
          "type": "bool"
        }
      ],
      "stateMutability": "nonpayable",
      "type": "function"
    },
    {
      "inputs": [
        {
          "internalType": "uint256",
          "name": "_amount",
          "type": "uint256"
        },
        {
          "internalType": "uint256",
          "name": "index",
          "type": "uint256"
        }
      ],
      "name": "withdrawStake",
      "outputs": [
        {
          "internalType": "bool",
          "name": "",
          "type": "bool"
        }
      ],
      "stateMutability": "nonpayable",
      "type": "function"
    },
    {
      "inputs": [
        {
          "internalType": "address",
          "name": "_staker",
          "type": "address"
        }
      ],
      "name": "hasStake",
      "outputs": [
        {
          "components": [
            {
              "internalType": "uint256",
              "name": "total_amount",
              "type": "uint256"
            },
            {
              "internalType": "uint256",
              "name": "governanceReward",
              "type": "uint256"
            },
            {
              "components": [
                {
                  "internalType": "address",
                  "name": "user",
                  "type": "address"
                },
                {
                  "internalType": "uint256",
                  "name": "amount",
                  "type": "uint256"
                },
                {
                  "internalType": "uint256",
                  "name": "since",
                  "type": "uint256"
                },
                {
                  "internalType": "uint256",
                  "name": "claimable",
                  "type": "uint256"
                }
              ],
              "internalType": "struct RedGovernance.Stake[]",
              "name": "stakes",
              "type": "tuple[]"
            }
          ],
          "internalType": "struct RedGovernance.StakingSummary",
          "name": "",
          "type": "tuple"
        }
      ],
      "stateMutability": "view",
      "type": "function",
      "constant": true
    }
  ],
  "bytecode": "0x608060405230600160006101000a81548173ffffffffffffffffffffffffffffffffffffffff021916908373ffffffffffffffffffffffffffffffffffffffff1602179055506064600255600f6003556103e86004553480156200006257600080fd5b50604051620014e4380380620014e4833981810160405281019062000088919062000139565b806000806101000a81548173ffffffffffffffffffffffffffffffffffffffff021916908373ffffffffffffffffffffffffffffffffffffffff160217905550506200016b565b600080fd5b600073ffffffffffffffffffffffffffffffffffffffff82169050919050565b60006200010182620000d4565b9050919050565b6200011381620000f4565b81146200011f57600080fd5b50565b600081519050620001338162000108565b92915050565b600060208284031215620001525762000151620000cf565b5b6000620001628482850162000122565b91505092915050565b611369806200017b6000396000f3fe608060405234801561001057600080fd5b50600436106100575760003560e01c80631153958e1461005c578063632a9a521461007a578063a694fc3a14610098578063e73e14bf146100c8578063f1fdf469146100f8575b600080fd5b610064610128565b6040516100719190610bfd565b60405180910390f35b610082610307565b60405161008f9190610c33565b60405180910390f35b6100b260048036038101906100ad9190610c7f565b610482565b6040516100bf9190610c33565b60405180910390f35b6100e260048036038101906100dd9190610d0a565b6106a8565b6040516100ef9190610ea9565b60405180910390f35b610112600480360381019061010d9190610ecb565b6108a3565b60405161011f9190610c33565b60405180910390f35b600080600560003373ffffffffffffffffffffffffffffffffffffffff1673ffffffffffffffffffffffffffffffffffffffff16815260200190815260200160002060010154116101ae576040517f08c379a00000000000000000000000000000000000000000000000000000000081526004016101a590610f68565b60405180910390fd5b6000600560003373ffffffffffffffffffffffffffffffffffffffff1673ffffffffffffffffffffffffffffffffffffffff1681526020019081526020016000206001015490506000600560003373ffffffffffffffffffffffffffffffffffffffff1673ffffffffffffffffffffffffffffffffffffffff1681526020019081526020016000206001018190555060008054906101000a900473ffffffffffffffffffffffffffffffffffffffff1673ffffffffffffffffffffffffffffffffffffffff166323b872dd600160009054906101000a900473ffffffffffffffffffffffffffffffffffffffff1633846040518463ffffffff1660e01b81526004016102bc93929190610f97565b6020604051808303816000875af11580156102db573d6000803e3d6000fd5b505050506040513d601f19601f820116820180604052508101906102ff9190610ffa565b508091505090565b600080610313336106a8565b9050600a8160000151101561035d576040517f08c379a000000000000000000000000000000000000000000000000000000000815260040161035490611099565b60405180910390fd5b60008054906101000a900473ffffffffffffffffffffffffffffffffffffffff1673ffffffffffffffffffffffffffffffffffffffff166323b872dd33600160009054906101000a900473ffffffffffffffffffffffffffffffffffffffff166002546040518463ffffffff1660e01b81526004016103de93929190610f97565b6020604051808303816000875af11580156103fd573d6000803e3d6000fd5b505050506040513d601f19601f820116820180604052508101906104219190610ffa565b50600354816020015161043491906110e8565b600560003373ffffffffffffffffffffffffffffffffffffffff1673ffffffffffffffffffffffffffffffffffffffff16815260200190815260200160002060010181905550600191505090565b60008082116104c6576040517f08c379a00000000000000000000000000000000000000000000000000000000081526004016104bd9061118a565b60405180910390fd5b60008054906101000a900473ffffffffffffffffffffffffffffffffffffffff1673ffffffffffffffffffffffffffffffffffffffff166323b872dd33600160009054906101000a900473ffffffffffffffffffffffffffffffffffffffff16856040518463ffffffff1660e01b815260040161054593929190610f97565b6020604051808303816000875af1158015610564573d6000803e3d6000fd5b505050506040513d601f19601f820116820180604052508101906105889190610ffa565b506000429050600060405180608001604052803373ffffffffffffffffffffffffffffffffffffffff16815260200185815260200183815260200160008152509050600560003373ffffffffffffffffffffffffffffffffffffffff1673ffffffffffffffffffffffffffffffffffffffff16815260200190815260200160002060020181908060018154018082558091505060019003906000526020600020906004020160009091909190915060008201518160000160006101000a81548173ffffffffffffffffffffffffffffffffffffffff021916908373ffffffffffffffffffffffffffffffffffffffff1602179055506020820151816001015560408201518160020155606082015181600301555050600192505050919050565b6106b0610bc3565b600080600560008573ffffffffffffffffffffffffffffffffffffffff1673ffffffffffffffffffffffffffffffffffffffff168152602001908152602001600020604051806060016040529081600082015481526020016001820154815260200160028201805480602002602001604051908101604052809291908181526020016000905b828210156107dc57838290600052602060002090600402016040518060800160405290816000820160009054906101000a900473ffffffffffffffffffffffffffffffffffffffff1673ffffffffffffffffffffffffffffffffffffffff1673ffffffffffffffffffffffffffffffffffffffff168152602001600182015481526020016002820154815260200160038201548152505081526020019060010190610736565b5050505081525050905060005b81604001515181101561088e57600061081f83604001518381518110610812576108116111aa565b5b6020026020010151610b81565b90508083604001518381518110610839576108386111aa565b5b60200260200101516060018181525050826040015182815181106108605761085f6111aa565b5b6020026020010151602001518461087791906110e8565b93505060018161088791906110e8565b90506107e9565b50818160000181815250508092505050919050565b60008083116108e7576040517f08c379a00000000000000000000000000000000000000000000000000000000081526004016108de90611225565b60405180910390fd5b6000600560003373ffffffffffffffffffffffffffffffffffffffff1673ffffffffffffffffffffffffffffffffffffffff168152602001908152602001600020600201838154811061093d5761093c6111aa565b5b90600052602060002090600402016040518060800160405290816000820160009054906101000a900473ffffffffffffffffffffffffffffffffffffffff1673ffffffffffffffffffffffffffffffffffffffff1673ffffffffffffffffffffffffffffffffffffffff168152602001600182015481526020016002820154815260200160038201548152505090508060200151841115610a13576040517f08c379a0000000000000000000000000000000000000000000000000000000008152600401610a0a9061118a565b60405180910390fd5b6000610a1e82610b81565b9050848260200151610a309190611245565b8260200181815250508160200151600560003373ffffffffffffffffffffffffffffffffffffffff1673ffffffffffffffffffffffffffffffffffffffff1681526020019081526020016000206002018581548110610a9257610a916111aa565b5b90600052602060002090600402016001018190555060008054906101000a900473ffffffffffffffffffffffffffffffffffffffff1673ffffffffffffffffffffffffffffffffffffffff166323b872dd600160009054906101000a900473ffffffffffffffffffffffffffffffffffffffff16338489610b1391906110e8565b6040518463ffffffff1660e01b8152600401610b3193929190610f97565b6020604051808303816000875af1158015610b50573d6000803e3d6000fd5b505050506040513d601f19601f82011682018060405250810190610b749190610ffa565b5060019250505092915050565b60006004548260200151610e10846040015142610b9e9190611245565b610ba891906112a8565b610bb291906112d9565b610bbc91906112a8565b9050919050565b60405180606001604052806000815260200160008152602001606081525090565b6000819050919050565b610bf781610be4565b82525050565b6000602082019050610c126000830184610bee565b92915050565b60008115159050919050565b610c2d81610c18565b82525050565b6000602082019050610c486000830184610c24565b92915050565b600080fd5b610c5c81610be4565b8114610c6757600080fd5b50565b600081359050610c7981610c53565b92915050565b600060208284031215610c9557610c94610c4e565b5b6000610ca384828501610c6a565b91505092915050565b600073ffffffffffffffffffffffffffffffffffffffff82169050919050565b6000610cd782610cac565b9050919050565b610ce781610ccc565b8114610cf257600080fd5b50565b600081359050610d0481610cde565b92915050565b600060208284031215610d2057610d1f610c4e565b5b6000610d2e84828501610cf5565b91505092915050565b610d4081610be4565b82525050565b600081519050919050565b600082825260208201905092915050565b6000819050602082019050919050565b610d7b81610ccc565b82525050565b608082016000820151610d976000850182610d72565b506020820151610daa6020850182610d37565b506040820151610dbd6040850182610d37565b506060820151610dd06060850182610d37565b50505050565b6000610de28383610d81565b60808301905092915050565b6000602082019050919050565b6000610e0682610d46565b610e108185610d51565b9350610e1b83610d62565b8060005b83811015610e4c578151610e338882610dd6565b9750610e3e83610dee565b925050600181019050610e1f565b5085935050505092915050565b6000606083016000830151610e716000860182610d37565b506020830151610e846020860182610d37565b5060408301518482036040860152610e9c8282610dfb565b9150508091505092915050565b60006020820190508181036000830152610ec38184610e59565b905092915050565b60008060408385031215610ee257610ee1610c4e565b5b6000610ef085828601610c6a565b9250506020610f0185828601610c6a565b9150509250929050565b600082825260208201905092915050565b7f496e73756666696369656e7420676f7665726e616e6365207265776172640000600082015250565b6000610f52601e83610f0b565b9150610f5d82610f1c565b602082019050919050565b60006020820190508181036000830152610f8181610f45565b9050919050565b610f9181610ccc565b82525050565b6000606082019050610fac6000830186610f88565b610fb96020830185610f88565b610fc66040830184610bee565b949350505050565b610fd781610c18565b8114610fe257600080fd5b50565b600081519050610ff481610fce565b92915050565b6000602082840312156110105761100f610c4e565b5b600061101e84828501610fe5565b91505092915050565b7f506c65617365207374616b652061746c656173742031304d2052656420746f6b60008201527f656e7320746f20766f7465000000000000000000000000000000000000000000602082015250565b6000611083602b83610f0b565b915061108e82611027565b604082019050919050565b600060208201905081810360008301526110b281611076565b9050919050565b7f4e487b7100000000000000000000000000000000000000000000000000000000600052601160045260246000fd5b60006110f382610be4565b91506110fe83610be4565b9250827fffffffffffffffffffffffffffffffffffffffffffffffffffffffffffffffff03821115611133576111326110b9565b5b828201905092915050565b7f496e73756666696369656e74207374616b696e6720616d6f756e740000000000600082015250565b6000611174601b83610f0b565b915061117f8261113e565b602082019050919050565b600060208201905081810360008301526111a381611167565b9050919050565b7f4e487b7100000000000000000000000000000000000000000000000000000000600052603260045260246000fd5b7f496e76616c696420616d6f756e74000000000000000000000000000000000000600082015250565b600061120f600e83610f0b565b915061121a826111d9565b602082019050919050565b6000602082019050818103600083015261123e81611202565b9050919050565b600061125082610be4565b915061125b83610be4565b92508282101561126e5761126d6110b9565b5b828203905092915050565b7f4e487b7100000000000000000000000000000000000000000000000000000000600052601260045260246000fd5b60006112b382610be4565b91506112be83610be4565b9250826112ce576112cd611279565b5b828204905092915050565b60006112e482610be4565b91506112ef83610be4565b9250817fffffffffffffffffffffffffffffffffffffffffffffffffffffffffffffffff0483118215151615611328576113276110b9565b5b82820290509291505056fea2646970667358221220594d30f87a67f312fbd95b60feb1db467159c992ddba5996b0fd176b5df3bc2b64736f6c634300080b0033",
  "immutableReferences": {},
  "source": "// SPDX-License-Identifier: MIT\npragma solidity ^0.8.4;\n\nimport \"@openzeppelin/contracts/token/ERC20/ERC20.sol\";\nimport \"@openzeppelin/contracts/token/ERC20/IERC20.sol\";\n\ncontract RedGovernance {\n    IERC20 redToken;\n    address admin = address(this); // TODO\n    uint256 votingFee = 100; // TODO\n    uint256 votingReward = 15; // TODO\n    uint256 internal rewardPerHour = 1000; // TODO\n\n    struct Stake {\n        address user;\n        uint256 amount;\n        uint256 since;\n        uint256 claimable;\n    }\n\n    struct StakingSummary {\n        uint256 total_amount;\n        uint256 governanceReward;\n        Stake[] stakes;\n    }\n\n    mapping(address => StakingSummary) private StakingInfo;\n\n    constructor(address redTokenAddress) {\n        redToken = IERC20(redTokenAddress); // Token Address\n    }\n\n    function vote() external returns (bool) {\n        StakingSummary memory summary = hasStake(msg.sender);\n        require(\n            summary.total_amount >= 10,\n            \"Please stake atleast 10M Red tokens to vote\"\n        );\n        redToken.transferFrom(msg.sender, admin, votingFee);\n        StakingInfo[msg.sender].governanceReward =\n            summary.governanceReward +\n            votingReward;\n        return true;\n    }\n\n    function claimGovernanceReward() external returns (uint256) {\n        require(\n            StakingInfo[msg.sender].governanceReward > 0,\n            \"Insufficient governance reward\"\n        );\n        uint256 governanceReward = StakingInfo[msg.sender].governanceReward;\n        StakingInfo[msg.sender].governanceReward = 0;\n        redToken.transferFrom(admin, msg.sender, governanceReward);\n        return governanceReward;\n    }\n\n    function stake(uint256 _amount) external returns (bool) {\n        require(_amount > 0, \"Insufficient staking amount\");\n        redToken.transferFrom(msg.sender, admin, _amount);\n        uint256 timestamp = block.timestamp;\n        Stake memory newStake = Stake(msg.sender, _amount, timestamp, 0);\n        StakingInfo[msg.sender].stakes.push(newStake);\n        return true;\n    }\n\n    function withdrawStake(uint256 _amount, uint256 index)\n        external\n        returns (bool)\n    {\n        require(_amount > 0, \"Invalid amount\");\n        Stake memory current_stake = StakingInfo[msg.sender].stakes[index];\n        require(_amount <= current_stake.amount, \"Insufficient staking amount\");\n        uint256 reward = calculateStakeReward(current_stake);\n        current_stake.amount = current_stake.amount - _amount;\n        StakingInfo[msg.sender].stakes[index].amount = current_stake.amount;\n        redToken.transferFrom(admin, msg.sender, _amount + reward);\n        return true;\n    }\n\n    function calculateStakeReward(Stake memory _current_stake)\n        internal\n        view\n        returns (uint256)\n    {\n        return\n            (((block.timestamp - _current_stake.since) / 1 hours) *\n                _current_stake.amount) / rewardPerHour;\n    }\n\n    function hasStake(address _staker)\n        public\n        view\n        returns (StakingSummary memory)\n    {\n        uint256 totalStakeAmount;\n        StakingSummary memory summary = StakingInfo[_staker];\n        for (uint256 s = 0; s < summary.stakes.length; s += 1) {\n            uint256 availableReward = calculateStakeReward(summary.stakes[s]);\n            summary.stakes[s].claimable = availableReward;\n            totalStakeAmount = totalStakeAmount + summary.stakes[s].amount;\n        }\n        summary.total_amount = totalStakeAmount;\n        return summary;\n    }\n}\n",
  "sourcePath": "/Users/noel/workspace/manak/RedNFTcontracts/contracts/RedGovernance.sol",
  "compiler": {
    "name": "solc",
    "version": "0.8.11+commit.d7f03943.Emscripten.clang"
  },
  "schemaVersion": "3.4.5",
  "updatedAt": "2022-04-26T14:52:09.957Z",
  "networkType": "ethereum",
  "devdoc": {
    "kind": "dev",
    "methods": {},
    "version": 1
  },
  "userdoc": {
    "kind": "user",
    "methods": {},
    "version": 1
  }
}