{
  "contractName": "RedMarketplace",
  "abi": [
    {
      "inputs": [
        {
          "internalType": "address",
          "name": "redTokenAddress",
          "type": "address"
        }
      ],
      "stateMutability": "nonpayable",
      "type": "constructor"
    },
    {
      "anonymous": false,
      "inputs": [
        {
          "components": [
            {
              "internalType": "uint256",
              "name": "itemId",
              "type": "uint256"
            },
            {
              "internalType": "address",
              "name": "tokenAddress",
              "type": "address"
            },
            {
              "internalType": "uint256",
              "name": "tokenId",
              "type": "uint256"
            },
            {
              "internalType": "address payable",
              "name": "owner",
              "type": "address"
            },
            {
              "internalType": "uint256",
              "name": "askingPrice",
              "type": "uint256"
            },
            {
              "internalType": "bool",
              "name": "isForSale",
              "type": "bool"
            },
            {
              "internalType": "uint256",
              "name": "listingFee",
              "type": "uint256"
            }
          ],
          "indexed": false,
          "internalType": "struct RedMarketplace.ListingItem",
          "name": "item",
          "type": "tuple"
        }
      ],
      "name": "itemAdded",
      "type": "event"
    },
    {
      "anonymous": false,
      "inputs": [
        {
          "components": [
            {
              "internalType": "uint256",
              "name": "itemId",
              "type": "uint256"
            },
            {
              "internalType": "address",
              "name": "tokenAddress",
              "type": "address"
            },
            {
              "internalType": "uint256",
              "name": "tokenId",
              "type": "uint256"
            },
            {
              "internalType": "address payable",
              "name": "owner",
              "type": "address"
            },
            {
              "internalType": "uint256",
              "name": "askingPrice",
              "type": "uint256"
            },
            {
              "internalType": "bool",
              "name": "isForSale",
              "type": "bool"
            },
            {
              "internalType": "uint256",
              "name": "listingFee",
              "type": "uint256"
            }
          ],
          "indexed": false,
          "internalType": "struct RedMarketplace.ListingItem",
          "name": "item",
          "type": "tuple"
        }
      ],
      "name": "itemSold",
      "type": "event"
    },
    {
      "anonymous": false,
      "inputs": [
        {
          "components": [
            {
              "internalType": "uint256",
              "name": "itemId",
              "type": "uint256"
            },
            {
              "internalType": "address",
              "name": "tokenAddress",
              "type": "address"
            },
            {
              "internalType": "uint256",
              "name": "tokenId",
              "type": "uint256"
            },
            {
              "internalType": "address payable",
              "name": "owner",
              "type": "address"
            },
            {
              "internalType": "uint256",
              "name": "askingPrice",
              "type": "uint256"
            },
            {
              "internalType": "bool",
              "name": "isForSale",
              "type": "bool"
            },
            {
              "internalType": "uint256",
              "name": "listingFee",
              "type": "uint256"
            }
          ],
          "indexed": false,
          "internalType": "struct RedMarketplace.ListingItem",
          "name": "item",
          "type": "tuple"
        }
      ],
      "name": "listingUpdated",
      "type": "event"
    },
    {
      "anonymous": false,
      "inputs": [
        {
          "components": [
            {
              "internalType": "uint256",
              "name": "offerId",
              "type": "uint256"
            },
            {
              "internalType": "address",
              "name": "creator",
              "type": "address"
            },
            {
              "internalType": "uint256",
              "name": "itemId",
              "type": "uint256"
            },
            {
              "internalType": "uint256",
              "name": "amount",
              "type": "uint256"
            },
            {
              "internalType": "bool",
              "name": "isOfferOpen",
              "type": "bool"
            }
          ],
          "indexed": false,
          "internalType": "struct RedMarketplace.Offer",
          "name": "offer",
          "type": "tuple"
        }
      ],
      "name": "offerAccepted",
      "type": "event"
    },
    {
      "anonymous": false,
      "inputs": [
        {
          "components": [
            {
              "internalType": "uint256",
              "name": "offerId",
              "type": "uint256"
            },
            {
              "internalType": "address",
              "name": "creator",
              "type": "address"
            },
            {
              "internalType": "uint256",
              "name": "itemId",
              "type": "uint256"
            },
            {
              "internalType": "uint256",
              "name": "amount",
              "type": "uint256"
            },
            {
              "internalType": "bool",
              "name": "isOfferOpen",
              "type": "bool"
            }
          ],
          "indexed": false,
          "internalType": "struct RedMarketplace.Offer",
          "name": "offer",
          "type": "tuple"
        }
      ],
      "name": "offerCancelled",
      "type": "event"
    },
    {
      "anonymous": false,
      "inputs": [
        {
          "components": [
            {
              "internalType": "uint256",
              "name": "offerId",
              "type": "uint256"
            },
            {
              "internalType": "address",
              "name": "creator",
              "type": "address"
            },
            {
              "internalType": "uint256",
              "name": "itemId",
              "type": "uint256"
            },
            {
              "internalType": "uint256",
              "name": "amount",
              "type": "uint256"
            },
            {
              "internalType": "bool",
              "name": "isOfferOpen",
              "type": "bool"
            }
          ],
          "indexed": false,
          "internalType": "struct RedMarketplace.Offer",
          "name": "offer",
          "type": "tuple"
        }
      ],
      "name": "offerCreated",
      "type": "event"
    },
    {
      "inputs": [],
      "name": "getRedMinterAddress",
      "outputs": [
        {
          "internalType": "address",
          "name": "",
          "type": "address"
        }
      ],
      "stateMutability": "view",
      "type": "function",
      "constant": true
    },
    {
      "inputs": [
        {
          "internalType": "uint256",
          "name": "tokenId",
          "type": "uint256"
        },
        {
          "internalType": "address",
          "name": "tokenAddress",
          "type": "address"
        },
        {
          "internalType": "uint256",
          "name": "askingPrice",
          "type": "uint256"
        },
        {
          "internalType": "bool",
          "name": "isForSale",
          "type": "bool"
        },
        {
          "internalType": "address",
          "name": "owner",
          "type": "address"
        }
      ],
      "name": "listItem",
      "outputs": [],
      "stateMutability": "nonpayable",
      "type": "function"
    },
    {
      "inputs": [
        {
          "internalType": "uint256",
          "name": "listingId",
          "type": "uint256"
        },
        {
          "internalType": "uint256",
          "name": "askingPrice",
          "type": "uint256"
        }
      ],
      "name": "updateAskingPrice",
      "outputs": [],
      "stateMutability": "nonpayable",
      "type": "function"
    },
    {
      "inputs": [
        {
          "internalType": "uint256",
          "name": "listingId",
          "type": "uint256"
        },
        {
          "internalType": "bool",
          "name": "listingStatus",
          "type": "bool"
        },
        {
          "internalType": "uint256",
          "name": "askingPrice",
          "type": "uint256"
        }
      ],
      "name": "updateListingStatus",
      "outputs": [],
      "stateMutability": "nonpayable",
      "type": "function"
    },
    {
      "inputs": [
        {
          "internalType": "uint256",
          "name": "listingId",
          "type": "uint256"
        },
        {
          "internalType": "uint256",
          "name": "amount",
          "type": "uint256"
        }
      ],
      "name": "createOffer",
      "outputs": [],
      "stateMutability": "nonpayable",
      "type": "function"
    },
    {
      "inputs": [
        {
          "internalType": "uint256",
          "name": "offerId",
          "type": "uint256"
        }
      ],
      "name": "cancelOffer",
      "outputs": [],
      "stateMutability": "nonpayable",
      "type": "function"
    },
    {
      "inputs": [
        {
          "internalType": "address",
          "name": "_nftContract",
          "type": "address"
        },
        {
          "internalType": "uint256",
          "name": "offerId",
          "type": "uint256"
        }
      ],
      "name": "acceptOffer",
      "outputs": [],
      "stateMutability": "nonpayable",
      "type": "function"
    },
    {
      "inputs": [
        {
          "internalType": "address",
          "name": "_nftContract",
          "type": "address"
        },
        {
          "internalType": "uint256",
          "name": "listingId",
          "type": "uint256"
        },
        {
          "internalType": "uint256",
          "name": "amount",
          "type": "uint256"
        }
      ],
      "name": "buyNow",
      "outputs": [],
      "stateMutability": "nonpayable",
      "type": "function"
    },
    {
      "inputs": [
        {
          "internalType": "uint256",
          "name": "listingId",
          "type": "uint256"
        }
      ],
      "name": "getListingById",
      "outputs": [
        {
          "components": [
            {
              "internalType": "uint256",
              "name": "itemId",
              "type": "uint256"
            },
            {
              "internalType": "address",
              "name": "tokenAddress",
              "type": "address"
            },
            {
              "internalType": "uint256",
              "name": "tokenId",
              "type": "uint256"
            },
            {
              "internalType": "address payable",
              "name": "owner",
              "type": "address"
            },
            {
              "internalType": "uint256",
              "name": "askingPrice",
              "type": "uint256"
            },
            {
              "internalType": "bool",
              "name": "isForSale",
              "type": "bool"
            },
            {
              "internalType": "uint256",
              "name": "listingFee",
              "type": "uint256"
            }
          ],
          "internalType": "struct RedMarketplace.ListingItem",
          "name": "",
          "type": "tuple"
        }
      ],
      "stateMutability": "view",
      "type": "function",
      "constant": true
    },
    {
      "inputs": [
        {
          "internalType": "uint256",
          "name": "offerId",
          "type": "uint256"
        }
      ],
      "name": "getOfferById",
      "outputs": [
        {
          "components": [
            {
              "internalType": "uint256",
              "name": "offerId",
              "type": "uint256"
            },
            {
              "internalType": "address",
              "name": "creator",
              "type": "address"
            },
            {
              "internalType": "uint256",
              "name": "itemId",
              "type": "uint256"
            },
            {
              "internalType": "uint256",
              "name": "amount",
              "type": "uint256"
            },
            {
              "internalType": "bool",
              "name": "isOfferOpen",
              "type": "bool"
            }
          ],
          "internalType": "struct RedMarketplace.Offer",
          "name": "",
          "type": "tuple"
        }
      ],
      "stateMutability": "view",
      "type": "function",
      "constant": true
    }
  ],
  "bytecode": "0x60806040527301dc00e095788275224187812b3f92f5ef8dd069600160006101000a81548173ffffffffffffffffffffffffffffffffffffffff021916908373ffffffffffffffffffffffffffffffffffffffff1602179055503480156200006657600080fd5b5060405162002b0a38038062002b0a83398181016040528101906200008c91906200013d565b806000806101000a81548173ffffffffffffffffffffffffffffffffffffffff021916908373ffffffffffffffffffffffffffffffffffffffff160217905550506200016f565b600080fd5b600073ffffffffffffffffffffffffffffffffffffffff82169050919050565b60006200010582620000d8565b9050919050565b6200011781620000f8565b81146200012357600080fd5b50565b60008151905062000137816200010c565b92915050565b600060208284031215620001565762000155620000d3565b5b6000620001668482850162000126565b91505092915050565b61298b806200017f6000396000f3fe608060405234801561001057600080fd5b506004361061009e5760003560e01c80635071c51f116100665780635071c51f14610157578063b1b9e78d14610175578063df7ed27914610191578063ef706adf146101ad578063f8b7ae0c146101c95761009e565b80631afed875146100a357806329d0eb34146100bf57806338931883146100db5780634f85310f1461010b5780634f97df961461013b575b600080fd5b6100bd60048036038101906100b89190611ad8565b6101e5565b005b6100d960048036038101906100d49190611ad8565b6105d7565b005b6100f560048036038101906100f09190611b18565b6106dd565b6040516101029190611c18565b60405180910390f35b61012560048036038101906101209190611b18565b610799565b6040516101329190611ce2565b60405180910390f35b61015560048036038101906101509190611d29565b6108b5565b005b61015f610a33565b60405161016c9190611d8b565b60405180910390f35b61018f600480360381019061018a9190611dd2565b610a5d565b005b6101ab60048036038101906101a69190611e12565b610faa565b005b6101c760048036038101906101c29190611b18565b61143d565b005b6101e360048036038101906101de9190611e65565b61155c565b005b60006004600084815260200190815260200160002090508060050160009054906101000a900460ff1661024d576040517f08c379a000000000000000000000000000000000000000000000000000000000815260040161024490611f63565b60405180910390fd5b3373ffffffffffffffffffffffffffffffffffffffff168160030160009054906101000a900473ffffffffffffffffffffffffffffffffffffffff1673ffffffffffffffffffffffffffffffffffffffff1614156102e0576040517f08c379a00000000000000000000000000000000000000000000000000000000081526004016102d790611fcf565b60405180910390fd5b806004015460008054906101000a900473ffffffffffffffffffffffffffffffffffffffff1673ffffffffffffffffffffffffffffffffffffffff166370a08231336040518263ffffffff1660e01b815260040161033e9190611d8b565b602060405180830381865afa15801561035b573d6000803e3d6000fd5b505050506040513d601f19601f8201168201806040525081019061037f9190612004565b10156103c0576040517f08c379a00000000000000000000000000000000000000000000000000000000081526004016103b79061207d565b60405180910390fd5b60006103cc6003611921565b90506103d8600361192f565b60006040518060a001604052808381526020013373ffffffffffffffffffffffffffffffffffffffff16815260200186815260200185815260200160011515815250905080600560008481526020019081526020016000206000820151816000015560208201518160010160006101000a81548173ffffffffffffffffffffffffffffffffffffffff021916908373ffffffffffffffffffffffffffffffffffffffff160217905550604082015181600201556060820151816003015560808201518160040160006101000a81548160ff0219169083151502179055509050508360008054906101000a900473ffffffffffffffffffffffffffffffffffffffff1673ffffffffffffffffffffffffffffffffffffffff1663dd62ed3e8360200151306040518363ffffffff1660e01b815260040161051892919061209d565b602060405180830381865afa158015610535573d6000803e3d6000fd5b505050506040513d601f19601f820116820180604052508101906105599190612004565b11610599576040517f08c379a000000000000000000000000000000000000000000000000000000000815260040161059090612138565b60405180910390fd5b7f34789e06f24fa565512b9bb51cce0b6e65c86ca55bffb772a10342676140202d816040516105c89190611c18565b60405180910390a15050505050565b3373ffffffffffffffffffffffffffffffffffffffff166004600084815260200190815260200160002060030160009054906101000a900473ffffffffffffffffffffffffffffffffffffffff1673ffffffffffffffffffffffffffffffffffffffff161461067b576040517f08c379a0000000000000000000000000000000000000000000000000000000008152600401610672906121a4565b60405180910390fd5b600081116106be576040517f08c379a00000000000000000000000000000000000000000000000000000000081526004016106b590612210565b60405180910390fd5b8060046000848152602001908152602001600020600401819055505050565b6106e56119eb565b600560008381526020019081526020016000206040518060a0016040529081600082015481526020016001820160009054906101000a900473ffffffffffffffffffffffffffffffffffffffff1673ffffffffffffffffffffffffffffffffffffffff1673ffffffffffffffffffffffffffffffffffffffff16815260200160028201548152602001600382015481526020016004820160009054906101000a900460ff1615151515815250509050919050565b6107a1611a32565b600460008381526020019081526020016000206040518060e0016040529081600082015481526020016001820160009054906101000a900473ffffffffffffffffffffffffffffffffffffffff1673ffffffffffffffffffffffffffffffffffffffff1673ffffffffffffffffffffffffffffffffffffffff168152602001600282015481526020016003820160009054906101000a900473ffffffffffffffffffffffffffffffffffffffff1673ffffffffffffffffffffffffffffffffffffffff1673ffffffffffffffffffffffffffffffffffffffff168152602001600482015481526020016005820160009054906101000a900460ff161515151581526020016006820154815250509050919050565b3373ffffffffffffffffffffffffffffffffffffffff166004600085815260200190815260200160002060030160009054906101000a900473ffffffffffffffffffffffffffffffffffffffff1673ffffffffffffffffffffffffffffffffffffffff1614610959576040517f08c379a0000000000000000000000000000000000000000000000000000000008152600401610950906121a4565b60405180910390fd5b6000811161099c576040517f08c379a000000000000000000000000000000000000000000000000000000000815260040161099390612210565b60405180910390fd5b816004600085815260200190815260200160002060050160006101000a81548160ff0219169083151502179055508060046000858152602001908152602001600020600401819055507f872e712a215bd5c02884ce4d357f3a4689e5eaa73e7d35fc9ad684ac3b59c39160046000858152602001908152602001600020604051610a2691906123d9565b60405180910390a1505050565b6000600160009054906101000a900473ffffffffffffffffffffffffffffffffffffffff16905090565b60006005600083815260200190815260200160002090506000600460008360020154815260200190815260200160002090503373ffffffffffffffffffffffffffffffffffffffff168160030160009054906101000a900473ffffffffffffffffffffffffffffffffffffffff1673ffffffffffffffffffffffffffffffffffffffff1614610b21576040517f08c379a0000000000000000000000000000000000000000000000000000000008152600401610b18906121a4565b60405180910390fd5b8160040160009054906101000a900460ff16610b72576040517f08c379a0000000000000000000000000000000000000000000000000000000008152600401610b6990612440565b60405180910390fd5b610b9f8260010160009054906101000a900473ffffffffffffffffffffffffffffffffffffffff16611945565b82600301541115610be5576040517f08c379a0000000000000000000000000000000000000000000000000000000008152600401610bdc906124d2565b60405180910390fd5b6000606482600601548460030154610bfd9190612521565b610c0791906125aa565b905060008054906101000a900473ffffffffffffffffffffffffffffffffffffffff1673ffffffffffffffffffffffffffffffffffffffff166323b872dd8460010160009054906101000a900473ffffffffffffffffffffffffffffffffffffffff168460030160009054906101000a900473ffffffffffffffffffffffffffffffffffffffff16848760030154610c9f91906125db565b6040518463ffffffff1660e01b8152600401610cbd9392919061267d565b6020604051808303816000875af1158015610cdc573d6000803e3d6000fd5b505050506040513d601f19601f82011682018060405250810190610d0091906126c9565b5060008054906101000a900473ffffffffffffffffffffffffffffffffffffffff1673ffffffffffffffffffffffffffffffffffffffff166323b872dd8460010160009054906101000a900473ffffffffffffffffffffffffffffffffffffffff1630846040518463ffffffff1660e01b8152600401610d82939291906126f6565b6020604051808303816000875af1158015610da1573d6000803e3d6000fd5b505050506040513d601f19601f82011682018060405250810190610dc591906126c9565b508473ffffffffffffffffffffffffffffffffffffffff166342842e0e338560010160009054906101000a900473ffffffffffffffffffffffffffffffffffffffff1685600201546040518463ffffffff1660e01b8152600401610e2b939291906126f6565b600060405180830381600087803b158015610e4557600080fd5b505af1158015610e59573d6000803e3d6000fd5b505050508260010160009054906101000a900473ffffffffffffffffffffffffffffffffffffffff16600460008560020154815260200190815260200160002060030160006101000a81548173ffffffffffffffffffffffffffffffffffffffff021916908373ffffffffffffffffffffffffffffffffffffffff1602179055506000600460008560020154815260200190815260200160002060050160006101000a81548160ff0219169083151502179055507f709b84a3460fbf463071fb2ee858d2e5dec0792679f6ba748f96e8736f0bc32f6004600085600201548152602001908152602001600020604051610f5291906123d9565b60405180910390a17f12ff224db97c010c6692e43c2fc8cf291791618c0125cb65094e1a8c365bb61c60056000868152602001908152602001600020604051610f9b91906127ce565b60405180910390a15050505050565b60006004600084815260200190815260200160002090508060050160009054906101000a900460ff16611012576040517f08c379a000000000000000000000000000000000000000000000000000000000815260040161100990612835565b60405180910390fd5b8060040154821015611059576040517f08c379a0000000000000000000000000000000000000000000000000000000008152600401611050906128a1565b60405180910390fd5b806004015460008054906101000a900473ffffffffffffffffffffffffffffffffffffffff1673ffffffffffffffffffffffffffffffffffffffff166370a08231336040518263ffffffff1660e01b81526004016110b79190611d8b565b602060405180830381865afa1580156110d4573d6000803e3d6000fd5b505050506040513d601f19601f820116820180604052508101906110f89190612004565b1015611139576040517f08c379a00000000000000000000000000000000000000000000000000000000081526004016111309061207d565b60405180910390fd5b60006064826006015483600401546111519190612521565b61115b91906125aa565b905060008054906101000a900473ffffffffffffffffffffffffffffffffffffffff1673ffffffffffffffffffffffffffffffffffffffff166323b872dd338460030160009054906101000a900473ffffffffffffffffffffffffffffffffffffffff168486600401546111cf91906125db565b6040518463ffffffff1660e01b81526004016111ed9392919061267d565b6020604051808303816000875af115801561120c573d6000803e3d6000fd5b505050506040513d601f19601f8201168201806040525081019061123091906126c9565b5060008054906101000a900473ffffffffffffffffffffffffffffffffffffffff1673ffffffffffffffffffffffffffffffffffffffff166323b872dd3330846040518463ffffffff1660e01b815260040161128e939291906126f6565b6020604051808303816000875af11580156112ad573d6000803e3d6000fd5b505050506040513d601f19601f820116820180604052508101906112d191906126c9565b508473ffffffffffffffffffffffffffffffffffffffff166342842e0e8360030160009054906101000a900473ffffffffffffffffffffffffffffffffffffffff163385600201546040518463ffffffff1660e01b8152600401611337939291906128c1565b600060405180830381600087803b15801561135157600080fd5b505af1158015611365573d6000803e3d6000fd5b50505050336004600086815260200190815260200160002060030160006101000a81548173ffffffffffffffffffffffffffffffffffffffff021916908373ffffffffffffffffffffffffffffffffffffffff16021790555060006004600086815260200190815260200160002060050160006101000a81548160ff0219169083151502179055507f709b84a3460fbf463071fb2ee858d2e5dec0792679f6ba748f96e8736f0bc32f6004600086815260200190815260200160002060405161142e91906123d9565b60405180910390a15050505050565b3373ffffffffffffffffffffffffffffffffffffffff166005600083815260200190815260200160002060010160009054906101000a900473ffffffffffffffffffffffffffffffffffffffff1673ffffffffffffffffffffffffffffffffffffffff16146114e1576040517f08c379a00000000000000000000000000000000000000000000000000000000081526004016114d8906121a4565b60405180910390fd5b60006005600083815260200190815260200160002060040160006101000a81548160ff0219169083151502179055507fc1234f35a1e1e3326c0695929ca16fedd3a111be416dc7726efdac73277a81ab6005600083815260200190815260200160002060405161155191906127ce565b60405180910390a150565b838560008290503373ffffffffffffffffffffffffffffffffffffffff168173ffffffffffffffffffffffffffffffffffffffff16636352211e846040518263ffffffff1660e01b81526004016115b391906128f8565b602060405180830381865afa1580156115d0573d6000803e3d6000fd5b505050506040513d601f19601f820116820180604052508101906115f49190612928565b73ffffffffffffffffffffffffffffffffffffffff161461161457600080fd5b868860008290503073ffffffffffffffffffffffffffffffffffffffff168173ffffffffffffffffffffffffffffffffffffffff1663081812fc846040518263ffffffff1660e01b815260040161166b91906128f8565b602060405180830381865afa158015611688573d6000803e3d6000fd5b505050506040513d601f19601f820116820180604052508101906116ac9190612928565b73ffffffffffffffffffffffffffffffffffffffff16146116cc57600080fd5b6000891161170f576040517f08c379a000000000000000000000000000000000000000000000000000000000815260040161170690612210565b60405180910390fd5b600061171b6002611921565b90506000600a9050600160009054906101000a900473ffffffffffffffffffffffffffffffffffffffff1673ffffffffffffffffffffffffffffffffffffffff163373ffffffffffffffffffffffffffffffffffffffff16141561177e57601e90505b60006040518060e001604052808481526020018e73ffffffffffffffffffffffffffffffffffffffff1681526020018f81526020018b73ffffffffffffffffffffffffffffffffffffffff1681526020018d81526020018c1515815260200183815250905080600460008581526020019081526020016000206000820151816000015560208201518160010160006101000a81548173ffffffffffffffffffffffffffffffffffffffff021916908373ffffffffffffffffffffffffffffffffffffffff1602179055506040820151816002015560608201518160030160006101000a81548173ffffffffffffffffffffffffffffffffffffffff021916908373ffffffffffffffffffffffffffffffffffffffff1602179055506080820151816004015560a08201518160050160006101000a81548160ff02191690831515021790555060c082015181600601559050506118da600261192f565b7f41b861adba3bf38ed2a070632996c17d9cfbb82a9199c192494e9c9558066372816040516119099190611ce2565b60405180910390a15050505050505050505050505050565b600081600001549050919050565b6001816000016000828254019250508190555050565b60008060009054906101000a900473ffffffffffffffffffffffffffffffffffffffff1673ffffffffffffffffffffffffffffffffffffffff1663dd62ed3e83306040518363ffffffff1660e01b81526004016119a392919061209d565b602060405180830381865afa1580156119c0573d6000803e3d6000fd5b505050506040513d601f19601f820116820180604052508101906119e49190612004565b9050919050565b6040518060a0016040528060008152602001600073ffffffffffffffffffffffffffffffffffffffff16815260200160008152602001600081526020016000151581525090565b6040518060e0016040528060008152602001600073ffffffffffffffffffffffffffffffffffffffff16815260200160008152602001600073ffffffffffffffffffffffffffffffffffffffff16815260200160008152602001600015158152602001600081525090565b600080fd5b6000819050919050565b611ab581611aa2565b8114611ac057600080fd5b50565b600081359050611ad281611aac565b92915050565b60008060408385031215611aef57611aee611a9d565b5b6000611afd85828601611ac3565b9250506020611b0e85828601611ac3565b9150509250929050565b600060208284031215611b2e57611b2d611a9d565b5b6000611b3c84828501611ac3565b91505092915050565b611b4e81611aa2565b82525050565b600073ffffffffffffffffffffffffffffffffffffffff82169050919050565b6000611b7f82611b54565b9050919050565b611b8f81611b74565b82525050565b60008115159050919050565b611baa81611b95565b82525050565b60a082016000820151611bc66000850182611b45565b506020820151611bd96020850182611b86565b506040820151611bec6040850182611b45565b506060820151611bff6060850182611b45565b506080820151611c126080850182611ba1565b50505050565b600060a082019050611c2d6000830184611bb0565b92915050565b6000611c3e82611b54565b9050919050565b611c4e81611c33565b82525050565b60e082016000820151611c6a6000850182611b45565b506020820151611c7d6020850182611b86565b506040820151611c906040850182611b45565b506060820151611ca36060850182611c45565b506080820151611cb66080850182611b45565b5060a0820151611cc960a0850182611ba1565b5060c0820151611cdc60c0850182611b45565b50505050565b600060e082019050611cf76000830184611c54565b92915050565b611d0681611b95565b8114611d1157600080fd5b50565b600081359050611d2381611cfd565b92915050565b600080600060608486031215611d4257611d41611a9d565b5b6000611d5086828701611ac3565b9350506020611d6186828701611d14565b9250506040611d7286828701611ac3565b9150509250925092565b611d8581611b74565b82525050565b6000602082019050611da06000830184611d7c565b92915050565b611daf81611b74565b8114611dba57600080fd5b50565b600081359050611dcc81611da6565b92915050565b60008060408385031215611de957611de8611a9d565b5b6000611df785828601611dbd565b9250506020611e0885828601611ac3565b9150509250929050565b600080600060608486031215611e2b57611e2a611a9d565b5b6000611e3986828701611dbd565b9350506020611e4a86828701611ac3565b9250506040611e5b86828701611ac3565b9150509250925092565b600080600080600060a08688031215611e8157611e80611a9d565b5b6000611e8f88828901611ac3565b9550506020611ea088828901611dbd565b9450506040611eb188828901611ac3565b9350506060611ec288828901611d14565b9250506080611ed388828901611dbd565b9150509295509295909350565b600082825260208201905092915050565b7f4c6973746564206974656d206973204e4f5420616363657074696e67206f666660008201527f6572730000000000000000000000000000000000000000000000000000000000602082015250565b6000611f4d602383611ee0565b9150611f5882611ef1565b604082019050919050565b60006020820190508181036000830152611f7c81611f40565b9050919050565b7f4f776e65722063616e6e6f7420637265617465206f6666657200000000000000600082015250565b6000611fb9601983611ee0565b9150611fc482611f83565b602082019050919050565b60006020820190508181036000830152611fe881611fac565b9050919050565b600081519050611ffe81611aac565b92915050565b60006020828403121561201a57612019611a9d565b5b600061202884828501611fef565b91505092915050565b7f496e73756666696369656e742052454420746f6b656e2062616c616e63650000600082015250565b6000612067601e83611ee0565b915061207282612031565b602082019050919050565b600060208201905081810360008301526120968161205a565b9050919050565b60006040820190506120b26000830185611d7c565b6120bf6020830184611d7c565b9392505050565b7f696e73756666696369656e7420616c6c6f77616e63652c2072652d696e69746960008201527f616c697a652077616c6c65740000000000000000000000000000000000000000602082015250565b6000612122602c83611ee0565b915061212d826120c6565b604082019050919050565b6000602082019050818103600083015261215181612115565b9050919050565b7f556e617574686f72697a65642075736572000000000000000000000000000000600082015250565b600061218e601183611ee0565b915061219982612158565b602082019050919050565b600060208201905081810360008301526121bd81612181565b9050919050565b7f5072696365206d757374206265206174206c6561737420312052454400000000600082015250565b60006121fa601c83611ee0565b9150612205826121c4565b602082019050919050565b60006020820190508181036000830152612229816121ed565b9050919050565b60008160001c9050919050565b6000819050919050565b600061225a61225583612230565b61223d565b9050919050565b600073ffffffffffffffffffffffffffffffffffffffff82169050919050565b600061229461228f83612230565b612261565b9050919050565b600073ffffffffffffffffffffffffffffffffffffffff82169050919050565b60006122ce6122c983612230565b61229b565b9050919050565b600060ff82169050919050565b60006122f56122f083612230565b6122d5565b9050919050565b60e08201600080830154905061231181612247565b61231e6000860182611b45565b506001830154905061232f81612281565b61233c6020860182611b86565b506002830154905061234d81612247565b61235a6040860182611b45565b506003830154905061236b816122bb565b6123786060860182611c45565b506004830154905061238981612247565b6123966080860182611b45565b50600583015490506123a7816122e2565b6123b460a0860182611ba1565b50600683015490506123c581612247565b6123d260c0860182611b45565b5050505050565b600060e0820190506123ee60008301846122fc565b92915050565b7f4f6666657220697320636c6f7365640000000000000000000000000000000000600082015250565b600061242a600f83611ee0565b9150612435826123f4565b602082019050919050565b600060208201905081810360008301526124598161241d565b9050919050565b7f546f6b656e207472616e73666572206e6f7420617070726f766564206279207460008201527f6865206f666665722063726561746f7200000000000000000000000000000000602082015250565b60006124bc603083611ee0565b91506124c782612460565b604082019050919050565b600060208201905081810360008301526124eb816124af565b9050919050565b7f4e487b7100000000000000000000000000000000000000000000000000000000600052601160045260246000fd5b600061252c82611aa2565b915061253783611aa2565b9250817fffffffffffffffffffffffffffffffffffffffffffffffffffffffffffffffff04831182151516156125705761256f6124f2565b5b828202905092915050565b7f4e487b7100000000000000000000000000000000000000000000000000000000600052601260045260246000fd5b60006125b582611aa2565b91506125c083611aa2565b9250826125d0576125cf61257b565b5b828204905092915050565b60006125e682611aa2565b91506125f183611aa2565b925082821015612604576126036124f2565b5b828203905092915050565b6000819050919050565b600061263461262f61262a84611b54565b61260f565b611b54565b9050919050565b600061264682612619565b9050919050565b60006126588261263b565b9050919050565b6126688161264d565b82525050565b61267781611aa2565b82525050565b60006060820190506126926000830186611d7c565b61269f602083018561265f565b6126ac604083018461266e565b949350505050565b6000815190506126c381611cfd565b92915050565b6000602082840312156126df576126de611a9d565b5b60006126ed848285016126b4565b91505092915050565b600060608201905061270b6000830186611d7c565b6127186020830185611d7c565b612725604083018461266e565b949350505050565b60a08201600080830154905061274281612247565b61274f6000860182611b45565b506001830154905061276081612281565b61276d6020860182611b86565b506002830154905061277e81612247565b61278b6040860182611b45565b506003830154905061279c81612247565b6127a96060860182611b45565b50600483015490506127ba816122e2565b6127c76080860182611ba1565b5050505050565b600060a0820190506127e3600083018461272d565b92915050565b7f4c6973746564206974656d206973204e4f5420666f722073616c650000000000600082015250565b600061281f601b83611ee0565b915061282a826127e9565b602082019050919050565b6000602082019050818103600083015261284e81612812565b9050919050565b7f496e73756666696369656e742052454420746f6b656e20616d6f756e74000000600082015250565b600061288b601d83611ee0565b915061289682612855565b602082019050919050565b600060208201905081810360008301526128ba8161287e565b9050919050565b60006060820190506128d6600083018661265f565b6128e36020830185611d7c565b6128f0604083018461266e565b949350505050565b600060208201905061290d600083018461266e565b92915050565b60008151905061292281611da6565b92915050565b60006020828403121561293e5761293d611a9d565b5b600061294c84828501612913565b9150509291505056fea2646970667358221220a124bfab6eefce5b41db829bec3e6c53aa44d361d39fd0b23ea09754d557a9bd64736f6c634300080b0033",
  "immutableReferences": {},
  "source": "// SPDX-License-Identifier: MIT\npragma solidity ^0.8.4;\n\nimport \"@openzeppelin/contracts/token/ERC721/IERC721.sol\";\nimport \"@openzeppelin/contracts/utils/Counters.sol\";\nimport \"@openzeppelin/contracts/token/ERC20/ERC20.sol\";\nimport \"@openzeppelin/contracts/token/ERC20/IERC20.sol\";\n\ncontract RedMarketplace {\n    using Counters for Counters.Counter;\n\n    IERC20 redToken;\n    address redMinterAddress = 0x01Dc00E095788275224187812B3f92f5eF8dD069; // TODO\n\n    struct ListingItem {\n        uint256 itemId;\n        address tokenAddress;\n        uint256 tokenId;\n        address payable owner;\n        uint256 askingPrice;\n        bool isForSale;\n        uint256 listingFee;\n    }\n\n    struct Offer {\n        uint256 offerId;\n        address creator;\n        uint256 itemId;\n        uint256 amount;\n        bool isOfferOpen;\n    }\n\n    constructor(address redTokenAddress) {\n        redToken = IERC20(redTokenAddress); // Token Address\n    }\n\n    Counters.Counter private _listingIdCounter;\n    Counters.Counter private _offerIdCounter;\n    mapping(uint256 => ListingItem) private items;\n    mapping(uint256 => Offer) private offers;\n\n    event itemAdded(ListingItem item);\n    event listingUpdated(ListingItem item);\n    event itemSold(ListingItem item);\n    event offerCreated(Offer offer);\n    event offerAccepted(Offer offer);\n    event offerCancelled(Offer offer);\n\n    modifier OnlyItemOwner(address tokenAddress, uint256 tokenId) {\n        IERC721 nftContract = IERC721(tokenAddress);\n        require(nftContract.ownerOf(tokenId) == msg.sender);\n        _;\n    }\n\n    modifier HasTransferApproval(address tokenAddress, uint256 tokenId) {\n        IERC721 nftContract = IERC721(tokenAddress);\n        require(nftContract.getApproved(tokenId) == address(this));\n        _;\n    }\n\n    function getRedMinterAddress() public view returns (address) {\n        return redMinterAddress;\n    }\n\n    function listItem(\n        uint256 tokenId,\n        address tokenAddress,\n        uint256 askingPrice,\n        bool isForSale,\n        address owner\n    )\n        external\n        OnlyItemOwner(tokenAddress, tokenId)\n        HasTransferApproval(tokenAddress, tokenId)\n    {\n        require(askingPrice > 0, \"Price must be at least 1 RED\");\n        uint256 listingId = _listingIdCounter.current();\n        uint256 listingFee = 10;\n        if (msg.sender == redMinterAddress) {\n            listingFee = 30;\n        }\n        ListingItem memory listing = ListingItem(\n            listingId,\n            tokenAddress,\n            tokenId,\n            payable(owner),\n            askingPrice,\n            isForSale,\n            listingFee\n        );\n        items[listingId] = listing;\n        _listingIdCounter.increment();\n        emit itemAdded(listing);\n    }\n\n    function updateAskingPrice(uint256 listingId, uint256 askingPrice)\n        external\n    {\n        require(items[listingId].owner == msg.sender, \"Unauthorized user\");\n        require(askingPrice > 0, \"Price must be at least 1 RED\");\n        items[listingId].askingPrice = askingPrice;\n    }\n\n    function updateListingStatus(\n        uint256 listingId,\n        bool listingStatus,\n        uint256 askingPrice\n    ) external {\n        require(items[listingId].owner == msg.sender, \"Unauthorized user\");\n        require(askingPrice > 0, \"Price must be at least 1 RED\");\n\n        items[listingId].isForSale = listingStatus;\n        items[listingId].askingPrice = askingPrice;\n\n        emit listingUpdated(items[listingId]);\n    }\n\n    function createOffer(uint256 listingId, uint256 amount) external {\n        ListingItem storage listing = items[listingId];\n        require(listing.isForSale, \"Listed item is NOT accepting offers\");\n        require(listing.owner != msg.sender, \"Owner cannot create offer\");\n        require(\n            redToken.balanceOf(msg.sender) >= listing.askingPrice,\n            \"Insufficient RED token balance\"\n        );\n        uint256 offerId = _offerIdCounter.current();\n        _offerIdCounter.increment();\n        Offer memory offer = Offer(\n            offerId,\n            msg.sender,\n            listingId,\n            amount,\n            true\n        );\n        offers[offerId] = offer;\n        //uint256 listingFee = (amount * listing.listingFee) / 100;\n        require(\n            redToken.allowance(offer.creator, address(this)) > amount,\n            \"insufficient allowance, re-initialize wallet\"\n        );\n        //redToken.approve(redMinterAddress, listingFee);\n        emit offerCreated(offer);\n    }\n\n    function cancelOffer(uint256 offerId) external {\n        require(offers[offerId].creator == msg.sender, \"Unauthorized user\");\n        offers[offerId].isOfferOpen = false;\n        emit offerCancelled(offers[offerId]);\n    }\n\n    function getAllowance(address offerCreator)\n        internal\n        view\n        returns (uint256)\n    {\n        return redToken.allowance(offerCreator, address(this));\n    }\n\n    function acceptOffer(address _nftContract, uint256 offerId) external {\n        Offer storage offer = offers[offerId];\n        ListingItem storage listing = items[offer.itemId];\n        require(listing.owner == msg.sender, \"Unauthorized user\");\n        require(offer.isOfferOpen, \"Offer is closed\");\n        require(\n            offer.amount <= getAllowance(offer.creator),\n            \"Token transfer not approved by the offer creator\"\n        );\n        uint256 listingFee = (offer.amount * listing.listingFee) / 100;\n        redToken.transferFrom(\n            offer.creator,\n            listing.owner,\n            offer.amount - listingFee\n        );\n        redToken.transferFrom(offer.creator, address(this), listingFee);\n        IERC721(_nftContract).safeTransferFrom(\n            msg.sender,\n            offer.creator,\n            listing.tokenId\n        );\n        items[offer.itemId].owner = payable(offer.creator);\n        items[offer.itemId].isForSale = false;\n        emit itemSold(items[offer.itemId]);\n        emit offerAccepted(offers[offerId]);\n    }\n\n    function buyNow(\n        address _nftContract,\n        uint256 listingId,\n        uint256 amount\n    ) external {\n        ListingItem storage listing = items[listingId];\n        require(listing.isForSale, \"Listed item is NOT for sale\");\n        require(amount >= listing.askingPrice, \"Insufficient RED token amount\");\n        require(\n            redToken.balanceOf(msg.sender) >= listing.askingPrice,\n            \"Insufficient RED token balance\"\n        );\n        uint256 listingFee = (listing.askingPrice * listing.listingFee) / 100;\n        redToken.transferFrom(\n            msg.sender,\n            listing.owner,\n            listing.askingPrice - listingFee\n        );\n        redToken.transferFrom(msg.sender, address(this), listingFee);\n\n        IERC721(_nftContract).safeTransferFrom(\n            listing.owner,\n            msg.sender,\n            listing.tokenId\n        );\n        items[listingId].owner = payable(msg.sender);\n        items[listingId].isForSale = false;\n        emit itemSold(items[listingId]);\n    }\n\n    function getListingById(uint256 listingId)\n        public\n        view\n        returns (ListingItem memory)\n    {\n        return items[listingId];\n    }\n\n    function getOfferById(uint256 offerId) public view returns (Offer memory) {\n        return offers[offerId];\n    }\n}\n",
  "sourcePath": "/Users/noel/workspace/manak/RedNFTcontracts/contracts/RedMarketplace.sol",
  "compiler": {
    "name": "solc",
    "version": "0.8.11+commit.d7f03943.Emscripten.clang"
  },
  "schemaVersion": "3.4.5",
  "updatedAt": "2022-04-26T18:01:45.458Z",
  "networkType": "ethereum",
  "devdoc": {
    "kind": "dev",
    "methods": {},
    "version": 1
  },
  "userdoc": {
    "kind": "user",
    "methods": {},
    "version": 1
  }
}