{
  "contractName": "RedMarketplace",
  "abi": [
    {
      "inputs": [],
      "stateMutability": "nonpayable",
      "type": "constructor"
    },
    {
      "anonymous": false,
      "inputs": [],
      "name": "itemAdded",
      "type": "event"
    },
    {
      "anonymous": false,
      "inputs": [],
      "name": "itemSold",
      "type": "event"
    },
    {
      "inputs": [
        {
          "internalType": "uint256",
          "name": "tokenId",
          "type": "uint256"
        },
        {
          "internalType": "address",
          "name": "tokenAddress",
          "type": "address"
        },
        {
          "internalType": "uint256",
          "name": "askingPrice",
          "type": "uint256"
        },
        {
          "internalType": "bool",
          "name": "isForSale",
          "type": "bool"
        },
        {
          "internalType": "address",
          "name": "owner",
          "type": "address"
        }
      ],
      "name": "listItem",
      "outputs": [],
      "stateMutability": "nonpayable",
      "type": "function"
    },
    {
      "inputs": [
        {
          "internalType": "uint256",
          "name": "listingId",
          "type": "uint256"
        }
      ],
      "name": "cancelListing",
      "outputs": [],
      "stateMutability": "nonpayable",
      "type": "function"
    },
    {
      "inputs": [
        {
          "internalType": "uint256",
          "name": "listingId",
          "type": "uint256"
        },
        {
          "internalType": "uint256",
          "name": "amount",
          "type": "uint256"
        }
      ],
      "name": "createOffer",
      "outputs": [],
      "stateMutability": "nonpayable",
      "type": "function"
    },
    {
      "inputs": [
        {
          "internalType": "uint256",
          "name": "offerId",
          "type": "uint256"
        }
      ],
      "name": "cancelOffer",
      "outputs": [],
      "stateMutability": "nonpayable",
      "type": "function"
    },
    {
      "inputs": [
        {
          "internalType": "address",
          "name": "offerCreator",
          "type": "address"
        }
      ],
      "name": "getAllowance",
      "outputs": [
        {
          "internalType": "uint256",
          "name": "",
          "type": "uint256"
        }
      ],
      "stateMutability": "view",
      "type": "function",
      "constant": true
    },
    {
      "inputs": [
        {
          "internalType": "address",
          "name": "_nftContract",
          "type": "address"
        },
        {
          "internalType": "uint256",
          "name": "offerId",
          "type": "uint256"
        }
      ],
      "name": "acceptOffer",
      "outputs": [],
      "stateMutability": "nonpayable",
      "type": "function"
    }
  ],
  "bytecode": "0x6080604052732d001a055b29504d6c029fd4f46470b18d74bd17600160006101000a81548173ffffffffffffffffffffffffffffffffffffffff021916908373ffffffffffffffffffffffffffffffffffffffff16021790555034801561006557600080fd5b50732d001a055b29504d6c029fd4f46470b18d74bd176000806101000a81548173ffffffffffffffffffffffffffffffffffffffff021916908373ffffffffffffffffffffffffffffffffffffffff1602179055506117e5806100c96000396000f3fe608060405234801561001057600080fd5b50600436106100625760003560e01c80631afed87514610067578063305a67a814610083578063b1b9e78d1461009f578063eb5a662e146100bb578063ef706adf146100eb578063f8b7ae0c14610107575b600080fd5b610081600480360381019061007c9190610f97565b610123565b005b61009d60048036038101906100989190610fd7565b610522565b005b6100b960048036038101906100b49190611062565b6105f8565b005b6100d560048036038101906100d091906110a2565b610a2e565b6040516100e291906110de565b60405180910390f35b61010560048036038101906101009190610fd7565b610ad4565b005b610121600480360381019061011c9190611131565b610baa565b005b60006004600084815260200190815260200160002090508060050160009054906101000a900460ff1661018b576040517f08c379a00000000000000000000000000000000000000000000000000000000081526004016101829061122f565b60405180910390fd5b806004015460008054906101000a900473ffffffffffffffffffffffffffffffffffffffff1673ffffffffffffffffffffffffffffffffffffffff166370a08231336040518263ffffffff1660e01b81526004016101e9919061125e565b602060405180830381865afa158015610206573d6000803e3d6000fd5b505050506040513d601f19601f8201168201806040525081019061022a919061128e565b101561026b576040517f08c379a000000000000000000000000000000000000000000000000000000000815260040161026290611307565b60405180910390fd5b60006102776003610f38565b905060006040518060a001604052808381526020013373ffffffffffffffffffffffffffffffffffffffff16815260200186815260200185815260200160011515815250905080600560008481526020019081526020016000206000820151816000015560208201518160010160006101000a81548173ffffffffffffffffffffffffffffffffffffffff021916908373ffffffffffffffffffffffffffffffffffffffff160217905550604082015181600201556060820151816003015560808201518160040160006101000a81548160ff0219169083151502179055509050506000606484600601548661036d9190611356565b61037791906113df565b905060008054906101000a900473ffffffffffffffffffffffffffffffffffffffff1673ffffffffffffffffffffffffffffffffffffffff1663095ea7b36004600089815260200190815260200160002060030160009054906101000a900473ffffffffffffffffffffffffffffffffffffffff1683886103f89190611410565b6040518363ffffffff1660e01b81526004016104159291906114a3565b6020604051808303816000875af1158015610434573d6000803e3d6000fd5b505050506040513d601f19601f8201168201806040525081019061045891906114e1565b5060008054906101000a900473ffffffffffffffffffffffffffffffffffffffff1673ffffffffffffffffffffffffffffffffffffffff1663095ea7b3600160009054906101000a900473ffffffffffffffffffffffffffffffffffffffff16836040518363ffffffff1660e01b81526004016104d692919061150e565b6020604051808303816000875af11580156104f5573d6000803e3d6000fd5b505050506040513d601f19601f8201168201806040525081019061051991906114e1565b50505050505050565b3373ffffffffffffffffffffffffffffffffffffffff166004600083815260200190815260200160002060030160009054906101000a900473ffffffffffffffffffffffffffffffffffffffff1673ffffffffffffffffffffffffffffffffffffffff16146105c6576040517f08c379a00000000000000000000000000000000000000000000000000000000081526004016105bd90611583565b60405180910390fd5b60006004600083815260200190815260200160002060050160006101000a81548160ff02191690831515021790555050565b60006005600083815260200190815260200160002090506000600460008360020154815260200190815260200160002090503373ffffffffffffffffffffffffffffffffffffffff168160030160009054906101000a900473ffffffffffffffffffffffffffffffffffffffff1673ffffffffffffffffffffffffffffffffffffffff16146106bc576040517f08c379a00000000000000000000000000000000000000000000000000000000081526004016106b390611583565b60405180910390fd5b8160040160009054906101000a900460ff1661070d576040517f08c379a0000000000000000000000000000000000000000000000000000000008152600401610704906115ef565b60405180910390fd5b61073a8260010160009054906101000a900473ffffffffffffffffffffffffffffffffffffffff16610a2e565b82600301541015610780576040517f08c379a000000000000000000000000000000000000000000000000000000000815260040161077790611681565b60405180910390fd5b60006064826006015484600301546107989190611356565b6107a291906113df565b905060008054906101000a900473ffffffffffffffffffffffffffffffffffffffff1673ffffffffffffffffffffffffffffffffffffffff1663a9059cbb338386600301546107f19190611410565b6040518363ffffffff1660e01b815260040161080e92919061150e565b6020604051808303816000875af115801561082d573d6000803e3d6000fd5b505050506040513d601f19601f8201168201806040525081019061085191906114e1565b5060008054906101000a900473ffffffffffffffffffffffffffffffffffffffff1673ffffffffffffffffffffffffffffffffffffffff1663a9059cbb600160009054906101000a900473ffffffffffffffffffffffffffffffffffffffff16836040518363ffffffff1660e01b81526004016108cf92919061150e565b6020604051808303816000875af11580156108ee573d6000803e3d6000fd5b505050506040513d601f19601f8201168201806040525081019061091291906114e1565b508473ffffffffffffffffffffffffffffffffffffffff166342842e0e338560010160009054906101000a900473ffffffffffffffffffffffffffffffffffffffff1685600201546040518463ffffffff1660e01b8152600401610978939291906116a1565b600060405180830381600087803b15801561099257600080fd5b505af11580156109a6573d6000803e3d6000fd5b505050508260010160009054906101000a900473ffffffffffffffffffffffffffffffffffffffff16600460008560020154815260200190815260200160002060030160006101000a81548173ffffffffffffffffffffffffffffffffffffffff021916908373ffffffffffffffffffffffffffffffffffffffff1602179055505050505050565b60008060009054906101000a900473ffffffffffffffffffffffffffffffffffffffff1673ffffffffffffffffffffffffffffffffffffffff1663dd62ed3e83336040518363ffffffff1660e01b8152600401610a8c9291906116d8565b602060405180830381865afa158015610aa9573d6000803e3d6000fd5b505050506040513d601f19601f82011682018060405250810190610acd919061128e565b9050919050565b3373ffffffffffffffffffffffffffffffffffffffff166005600083815260200190815260200160002060010160009054906101000a900473ffffffffffffffffffffffffffffffffffffffff1673ffffffffffffffffffffffffffffffffffffffff1614610b78576040517f08c379a0000000000000000000000000000000000000000000000000000000008152600401610b6f90611583565b60405180910390fd5b60006005600083815260200190815260200160002060040160006101000a81548160ff02191690831515021790555050565b838560008290503373ffffffffffffffffffffffffffffffffffffffff168173ffffffffffffffffffffffffffffffffffffffff16636352211e846040518263ffffffff1660e01b8152600401610c0191906110de565b602060405180830381865afa158015610c1e573d6000803e3d6000fd5b505050506040513d601f19601f82011682018060405250810190610c429190611716565b73ffffffffffffffffffffffffffffffffffffffff1614610c6257600080fd5b868860008290503373ffffffffffffffffffffffffffffffffffffffff168173ffffffffffffffffffffffffffffffffffffffff1663081812fc846040518263ffffffff1660e01b8152600401610cb991906110de565b602060405180830381865afa158015610cd6573d6000803e3d6000fd5b505050506040513d601f19601f82011682018060405250810190610cfa9190611716565b73ffffffffffffffffffffffffffffffffffffffff1614610d1a57600080fd5b60008911610d5d576040517f08c379a0000000000000000000000000000000000000000000000000000000008152600401610d549061178f565b60405180910390fd5b6000610d696002610f38565b90506000600a9050600160009054906101000a900473ffffffffffffffffffffffffffffffffffffffff1673ffffffffffffffffffffffffffffffffffffffff163373ffffffffffffffffffffffffffffffffffffffff161415610dcc57601e90505b60006040518060e001604052808481526020018e73ffffffffffffffffffffffffffffffffffffffff1681526020018f81526020018b73ffffffffffffffffffffffffffffffffffffffff1681526020018d81526020018c1515815260200183815250905080600460008581526020019081526020016000206000820151816000015560208201518160010160006101000a81548173ffffffffffffffffffffffffffffffffffffffff021916908373ffffffffffffffffffffffffffffffffffffffff1602179055506040820151816002015560608201518160030160006101000a81548173ffffffffffffffffffffffffffffffffffffffff021916908373ffffffffffffffffffffffffffffffffffffffff1602179055506080820151816004015560a08201518160050160006101000a81548160ff02191690831515021790555060c08201518160060155905050610f286002610f46565b5050505050505050505050505050565b600081600001549050919050565b6001816000016000828254019250508190555050565b600080fd5b6000819050919050565b610f7481610f61565b8114610f7f57600080fd5b50565b600081359050610f9181610f6b565b92915050565b60008060408385031215610fae57610fad610f5c565b5b6000610fbc85828601610f82565b9250506020610fcd85828601610f82565b9150509250929050565b600060208284031215610fed57610fec610f5c565b5b6000610ffb84828501610f82565b91505092915050565b600073ffffffffffffffffffffffffffffffffffffffff82169050919050565b600061102f82611004565b9050919050565b61103f81611024565b811461104a57600080fd5b50565b60008135905061105c81611036565b92915050565b6000806040838503121561107957611078610f5c565b5b60006110878582860161104d565b925050602061109885828601610f82565b9150509250929050565b6000602082840312156110b8576110b7610f5c565b5b60006110c68482850161104d565b91505092915050565b6110d881610f61565b82525050565b60006020820190506110f360008301846110cf565b92915050565b60008115159050919050565b61110e816110f9565b811461111957600080fd5b50565b60008135905061112b81611105565b92915050565b600080600080600060a0868803121561114d5761114c610f5c565b5b600061115b88828901610f82565b955050602061116c8882890161104d565b945050604061117d88828901610f82565b935050606061118e8882890161111c565b925050608061119f8882890161104d565b9150509295509295909350565b600082825260208201905092915050565b7f4c6973746564206974656d206973204e4f5420616363657074696e67206f666660008201527f6572730000000000000000000000000000000000000000000000000000000000602082015250565b60006112196023836111ac565b9150611224826111bd565b604082019050919050565b600060208201905081810360008301526112488161120c565b9050919050565b61125881611024565b82525050565b6000602082019050611273600083018461124f565b92915050565b60008151905061128881610f6b565b92915050565b6000602082840312156112a4576112a3610f5c565b5b60006112b284828501611279565b91505092915050565b7f496e73756666696369656e742052454420746f6b656e2062616c616e63650000600082015250565b60006112f1601e836111ac565b91506112fc826112bb565b602082019050919050565b60006020820190508181036000830152611320816112e4565b9050919050565b7f4e487b7100000000000000000000000000000000000000000000000000000000600052601160045260246000fd5b600061136182610f61565b915061136c83610f61565b9250817fffffffffffffffffffffffffffffffffffffffffffffffffffffffffffffffff04831182151516156113a5576113a4611327565b5b828202905092915050565b7f4e487b7100000000000000000000000000000000000000000000000000000000600052601260045260246000fd5b60006113ea82610f61565b91506113f583610f61565b925082611405576114046113b0565b5b828204905092915050565b600061141b82610f61565b915061142683610f61565b92508282101561143957611438611327565b5b828203905092915050565b6000819050919050565b600061146961146461145f84611004565b611444565b611004565b9050919050565b600061147b8261144e565b9050919050565b600061148d82611470565b9050919050565b61149d81611482565b82525050565b60006040820190506114b86000830185611494565b6114c560208301846110cf565b9392505050565b6000815190506114db81611105565b92915050565b6000602082840312156114f7576114f6610f5c565b5b6000611505848285016114cc565b91505092915050565b6000604082019050611523600083018561124f565b61153060208301846110cf565b9392505050565b7f556e617574686f72697a65642075736572000000000000000000000000000000600082015250565b600061156d6011836111ac565b915061157882611537565b602082019050919050565b6000602082019050818103600083015261159c81611560565b9050919050565b7f4f6666657220697320636c6f7365640000000000000000000000000000000000600082015250565b60006115d9600f836111ac565b91506115e4826115a3565b602082019050919050565b60006020820190508181036000830152611608816115cc565b9050919050565b7f546f6b656e207472616e73666572206e6f7420617070726f766564206279207460008201527f6865206f666665722063726561746f7200000000000000000000000000000000602082015250565b600061166b6030836111ac565b91506116768261160f565b604082019050919050565b6000602082019050818103600083015261169a8161165e565b9050919050565b60006060820190506116b6600083018661124f565b6116c3602083018561124f565b6116d060408301846110cf565b949350505050565b60006040820190506116ed600083018561124f565b6116fa602083018461124f565b9392505050565b60008151905061171081611036565b92915050565b60006020828403121561172c5761172b610f5c565b5b600061173a84828501611701565b91505092915050565b7f5072696365206d757374206265206174206c6561737420312052454400000000600082015250565b6000611779601c836111ac565b915061178482611743565b602082019050919050565b600060208201905081810360008301526117a88161176c565b905091905056fea2646970667358221220108d106eb1d3d7ab2ac7a00ebc9b87de9f859563749942e446c675732b5c811c64736f6c634300080b0033",
  "immutableReferences": {},
  "source": "// SPDX-License-Identifier: MIT\npragma solidity ^0.8.4;\n\nimport \"@openzeppelin/contracts/token/ERC721/IERC721.sol\";\nimport \"@openzeppelin/contracts/utils/Counters.sol\";\nimport \"@openzeppelin/contracts/token/ERC20/ERC20.sol\";\nimport \"@openzeppelin/contracts/token/ERC20/IERC20.sol\";\n\ncontract RedMarketplace {\n    using Counters for Counters.Counter;\n\n    IERC20 redToken;\n    address redMinterAddress = 0x2D001A055B29504D6C029fd4f46470b18D74bd17; // TODO\n\n    struct ListingItem {\n        uint256 itemId;\n        address tokenAddress;\n        uint256 tokenId;\n        address payable owner;\n        uint256 askingPrice;\n        bool isForSale;\n        uint256 royalty;\n    }\n\n    struct Offer {\n        uint256 offerId;\n        address creator;\n        uint256 itemId;\n        uint256 amount;\n        bool isOfferOpen;\n    }\n\n    constructor() {\n        redToken = IERC20(0x2D001A055B29504D6C029fd4f46470b18D74bd17); // Token Address\n    }\n\n    Counters.Counter private _listingIdCounter;\n    Counters.Counter private _offerIdCounter;\n    mapping(uint256 => ListingItem) private items;\n    mapping(uint256 => Offer) private offers;\n\n    event itemAdded();\n    event itemSold();\n\n    modifier OnlyItemOwner(address tokenAddress, uint256 tokenId) {\n        IERC721 nftContract = IERC721(tokenAddress);\n        require(nftContract.ownerOf(tokenId) == msg.sender);\n        _;\n    }\n\n    modifier HasTransferApproval(address tokenAddress, uint256 tokenId) {\n        IERC721 nftContract = IERC721(tokenAddress);\n        require(nftContract.getApproved(tokenId) == msg.sender);\n        _;\n    }\n\n    function listItem(\n        uint256 tokenId,\n        address tokenAddress,\n        uint256 askingPrice,\n        bool isForSale,\n        address owner\n    )\n        external\n        OnlyItemOwner(tokenAddress, tokenId)\n        HasTransferApproval(tokenAddress, tokenId)\n    {\n        require(askingPrice > 0, \"Price must be at least 1 RED\");\n        uint256 listingId = _listingIdCounter.current();\n        uint256 royalty = 10;\n        if (msg.sender == redMinterAddress) {\n            royalty = 30;\n        }\n        ListingItem memory listing = ListingItem(\n            listingId,\n            tokenAddress,\n            tokenId,\n            payable(owner),\n            askingPrice,\n            isForSale,\n            royalty\n        );\n        items[listingId] = listing;\n        _listingIdCounter.increment();\n    }\n\n    function cancelListing(uint256 listingId) external {\n        require(items[listingId].owner == msg.sender, \"Unauthorized user\");\n        items[listingId].isForSale = false;\n    }\n\n    function createOffer(uint256 listingId, uint256 amount) external {\n        ListingItem storage listing = items[listingId];\n        require(listing.isForSale, \"Listed item is NOT accepting offers\");\n        require(\n            redToken.balanceOf(msg.sender) >= listing.askingPrice,\n            \"Insufficient RED token balance\"\n        );\n        uint256 offerId = _offerIdCounter.current();\n        Offer memory offer = Offer(\n            offerId,\n            msg.sender,\n            listingId,\n            amount,\n            true\n        );\n        offers[offerId] = offer;\n        uint256 royalty = (amount * listing.royalty) / 100;\n        redToken.approve(items[listingId].owner, amount - royalty);\n        redToken.approve(redMinterAddress, royalty);\n    }\n\n    function cancelOffer(uint256 offerId) external {\n        require(offers[offerId].creator == msg.sender, \"Unauthorized user\");\n        offers[offerId].isOfferOpen = false;\n    }\n\n    function getAllowance(address offerCreator) public view returns (uint256) {\n        return redToken.allowance(offerCreator, msg.sender);\n    }\n\n    function acceptOffer(address _nftContract, uint256 offerId) external {\n        Offer storage offer = offers[offerId];\n        ListingItem storage listing = items[offer.itemId];\n        require(listing.owner == msg.sender, \"Unauthorized user\");\n        require(offer.isOfferOpen, \"Offer is closed\");\n        require(\n            offer.amount >= getAllowance(offer.creator),\n            \"Token transfer not approved by the offer creator\"\n        );\n        uint256 royalty = (offer.amount * listing.royalty) / 100;\n        redToken.transfer(msg.sender, offer.amount - royalty);\n        redToken.transfer(redMinterAddress, royalty);\n        IERC721(_nftContract).safeTransferFrom(\n            msg.sender,\n            offer.creator,\n            listing.tokenId\n        );\n        items[offer.itemId].owner = payable(offer.creator);\n    }\n}\n",
  "sourcePath": "/Users/noel/workspace/manak/RedNFTcontracts/contracts/RedMarketplace.sol",
  "compiler": {
    "name": "solc",
    "version": "0.8.11+commit.d7f03943.Emscripten.clang"
  },
  "schemaVersion": "3.4.5",
  "updatedAt": "2022-04-08T18:14:15.838Z",
  "networkType": "ethereum",
  "devdoc": {
    "kind": "dev",
    "methods": {},
    "version": 1
  },
  "userdoc": {
    "kind": "user",
    "methods": {},
    "version": 1
  }
}