{
  "contractName": "RedMarketplace",
  "abi": [
    {
      "inputs": [
        {
          "internalType": "address",
          "name": "redTokenAddress",
          "type": "address"
        }
      ],
      "stateMutability": "nonpayable",
      "type": "constructor"
    },
    {
      "anonymous": false,
      "inputs": [
        {
          "components": [
            {
              "internalType": "uint256",
              "name": "itemId",
              "type": "uint256"
            },
            {
              "internalType": "address",
              "name": "tokenAddress",
              "type": "address"
            },
            {
              "internalType": "uint256",
              "name": "tokenId",
              "type": "uint256"
            },
            {
              "internalType": "address payable",
              "name": "owner",
              "type": "address"
            },
            {
              "internalType": "uint256",
              "name": "askingPrice",
              "type": "uint256"
            },
            {
              "internalType": "bool",
              "name": "isForSale",
              "type": "bool"
            },
            {
              "internalType": "uint256",
              "name": "listingFee",
              "type": "uint256"
            }
          ],
          "indexed": false,
          "internalType": "struct RedMarketplace.ListingItem",
          "name": "item",
          "type": "tuple"
        }
      ],
      "name": "itemAdded",
      "type": "event"
    },
    {
      "anonymous": false,
      "inputs": [
        {
          "components": [
            {
              "internalType": "uint256",
              "name": "itemId",
              "type": "uint256"
            },
            {
              "internalType": "address",
              "name": "tokenAddress",
              "type": "address"
            },
            {
              "internalType": "uint256",
              "name": "tokenId",
              "type": "uint256"
            },
            {
              "internalType": "address payable",
              "name": "owner",
              "type": "address"
            },
            {
              "internalType": "uint256",
              "name": "askingPrice",
              "type": "uint256"
            },
            {
              "internalType": "bool",
              "name": "isForSale",
              "type": "bool"
            },
            {
              "internalType": "uint256",
              "name": "listingFee",
              "type": "uint256"
            }
          ],
          "indexed": false,
          "internalType": "struct RedMarketplace.ListingItem",
          "name": "item",
          "type": "tuple"
        }
      ],
      "name": "itemSold",
      "type": "event"
    },
    {
      "anonymous": false,
      "inputs": [
        {
          "components": [
            {
              "internalType": "uint256",
              "name": "itemId",
              "type": "uint256"
            },
            {
              "internalType": "address",
              "name": "tokenAddress",
              "type": "address"
            },
            {
              "internalType": "uint256",
              "name": "tokenId",
              "type": "uint256"
            },
            {
              "internalType": "address payable",
              "name": "owner",
              "type": "address"
            },
            {
              "internalType": "uint256",
              "name": "askingPrice",
              "type": "uint256"
            },
            {
              "internalType": "bool",
              "name": "isForSale",
              "type": "bool"
            },
            {
              "internalType": "uint256",
              "name": "listingFee",
              "type": "uint256"
            }
          ],
          "indexed": false,
          "internalType": "struct RedMarketplace.ListingItem",
          "name": "item",
          "type": "tuple"
        }
      ],
      "name": "listingUpdated",
      "type": "event"
    },
    {
      "anonymous": false,
      "inputs": [
        {
          "components": [
            {
              "internalType": "uint256",
              "name": "offerId",
              "type": "uint256"
            },
            {
              "internalType": "address",
              "name": "creator",
              "type": "address"
            },
            {
              "internalType": "uint256",
              "name": "itemId",
              "type": "uint256"
            },
            {
              "internalType": "uint256",
              "name": "amount",
              "type": "uint256"
            },
            {
              "internalType": "bool",
              "name": "isOfferOpen",
              "type": "bool"
            }
          ],
          "indexed": false,
          "internalType": "struct RedMarketplace.Offer",
          "name": "offer",
          "type": "tuple"
        }
      ],
      "name": "offerAccepted",
      "type": "event"
    },
    {
      "anonymous": false,
      "inputs": [
        {
          "components": [
            {
              "internalType": "uint256",
              "name": "offerId",
              "type": "uint256"
            },
            {
              "internalType": "address",
              "name": "creator",
              "type": "address"
            },
            {
              "internalType": "uint256",
              "name": "itemId",
              "type": "uint256"
            },
            {
              "internalType": "uint256",
              "name": "amount",
              "type": "uint256"
            },
            {
              "internalType": "bool",
              "name": "isOfferOpen",
              "type": "bool"
            }
          ],
          "indexed": false,
          "internalType": "struct RedMarketplace.Offer",
          "name": "offer",
          "type": "tuple"
        }
      ],
      "name": "offerCancelled",
      "type": "event"
    },
    {
      "anonymous": false,
      "inputs": [
        {
          "components": [
            {
              "internalType": "uint256",
              "name": "offerId",
              "type": "uint256"
            },
            {
              "internalType": "address",
              "name": "creator",
              "type": "address"
            },
            {
              "internalType": "uint256",
              "name": "itemId",
              "type": "uint256"
            },
            {
              "internalType": "uint256",
              "name": "amount",
              "type": "uint256"
            },
            {
              "internalType": "bool",
              "name": "isOfferOpen",
              "type": "bool"
            }
          ],
          "indexed": false,
          "internalType": "struct RedMarketplace.Offer",
          "name": "offer",
          "type": "tuple"
        }
      ],
      "name": "offerCreated",
      "type": "event"
    },
    {
      "inputs": [],
      "name": "getRedMinterAddress",
      "outputs": [
        {
          "internalType": "address",
          "name": "",
          "type": "address"
        }
      ],
      "stateMutability": "view",
      "type": "function",
      "constant": true
    },
    {
      "inputs": [
        {
          "internalType": "uint256",
          "name": "tokenId",
          "type": "uint256"
        },
        {
          "internalType": "address",
          "name": "tokenAddress",
          "type": "address"
        },
        {
          "internalType": "uint256",
          "name": "askingPrice",
          "type": "uint256"
        },
        {
          "internalType": "bool",
          "name": "isForSale",
          "type": "bool"
        },
        {
          "internalType": "address",
          "name": "owner",
          "type": "address"
        }
      ],
      "name": "listItem",
      "outputs": [],
      "stateMutability": "nonpayable",
      "type": "function"
    },
    {
      "inputs": [
        {
          "internalType": "uint256",
          "name": "listingId",
          "type": "uint256"
        },
        {
          "internalType": "uint256",
          "name": "askingPrice",
          "type": "uint256"
        }
      ],
      "name": "updateAskingPrice",
      "outputs": [],
      "stateMutability": "nonpayable",
      "type": "function"
    },
    {
      "inputs": [
        {
          "internalType": "uint256",
          "name": "listingId",
          "type": "uint256"
        },
        {
          "internalType": "bool",
          "name": "listingStatus",
          "type": "bool"
        },
        {
          "internalType": "uint256",
          "name": "askingPrice",
          "type": "uint256"
        }
      ],
      "name": "updateListingStatus",
      "outputs": [],
      "stateMutability": "nonpayable",
      "type": "function"
    },
    {
      "inputs": [
        {
          "internalType": "uint256",
          "name": "listingId",
          "type": "uint256"
        },
        {
          "internalType": "uint256",
          "name": "amount",
          "type": "uint256"
        }
      ],
      "name": "createOffer",
      "outputs": [],
      "stateMutability": "nonpayable",
      "type": "function"
    },
    {
      "inputs": [
        {
          "internalType": "uint256",
          "name": "offerId",
          "type": "uint256"
        }
      ],
      "name": "cancelOffer",
      "outputs": [],
      "stateMutability": "nonpayable",
      "type": "function"
    },
    {
      "inputs": [
        {
          "internalType": "address",
          "name": "_nftContract",
          "type": "address"
        },
        {
          "internalType": "uint256",
          "name": "offerId",
          "type": "uint256"
        }
      ],
      "name": "acceptOffer",
      "outputs": [],
      "stateMutability": "nonpayable",
      "type": "function"
    },
    {
      "inputs": [
        {
          "internalType": "address",
          "name": "_nftContract",
          "type": "address"
        },
        {
          "internalType": "uint256",
          "name": "listingId",
          "type": "uint256"
        },
        {
          "internalType": "uint256",
          "name": "amount",
          "type": "uint256"
        }
      ],
      "name": "buyNow",
      "outputs": [],
      "stateMutability": "nonpayable",
      "type": "function"
    },
    {
      "inputs": [
        {
          "internalType": "address",
          "name": "userAddress",
          "type": "address"
        },
        {
          "internalType": "bool",
          "name": "status",
          "type": "bool"
        }
      ],
      "name": "updateBlacklistUser",
      "outputs": [],
      "stateMutability": "nonpayable",
      "type": "function"
    },
    {
      "inputs": [
        {
          "internalType": "address",
          "name": "walletAddress",
          "type": "address"
        }
      ],
      "name": "updateFeeCollectorAccount",
      "outputs": [],
      "stateMutability": "nonpayable",
      "type": "function"
    },
    {
      "inputs": [],
      "name": "getFeeCollectorAccount",
      "outputs": [
        {
          "internalType": "address",
          "name": "",
          "type": "address"
        }
      ],
      "stateMutability": "view",
      "type": "function",
      "constant": true
    },
    {
      "inputs": [
        {
          "internalType": "uint256",
          "name": "listingId",
          "type": "uint256"
        }
      ],
      "name": "getListingById",
      "outputs": [
        {
          "components": [
            {
              "internalType": "uint256",
              "name": "itemId",
              "type": "uint256"
            },
            {
              "internalType": "address",
              "name": "tokenAddress",
              "type": "address"
            },
            {
              "internalType": "uint256",
              "name": "tokenId",
              "type": "uint256"
            },
            {
              "internalType": "address payable",
              "name": "owner",
              "type": "address"
            },
            {
              "internalType": "uint256",
              "name": "askingPrice",
              "type": "uint256"
            },
            {
              "internalType": "bool",
              "name": "isForSale",
              "type": "bool"
            },
            {
              "internalType": "uint256",
              "name": "listingFee",
              "type": "uint256"
            }
          ],
          "internalType": "struct RedMarketplace.ListingItem",
          "name": "",
          "type": "tuple"
        }
      ],
      "stateMutability": "view",
      "type": "function",
      "constant": true
    },
    {
      "inputs": [
        {
          "internalType": "uint256",
          "name": "offerId",
          "type": "uint256"
        }
      ],
      "name": "getOfferById",
      "outputs": [
        {
          "components": [
            {
              "internalType": "uint256",
              "name": "offerId",
              "type": "uint256"
            },
            {
              "internalType": "address",
              "name": "creator",
              "type": "address"
            },
            {
              "internalType": "uint256",
              "name": "itemId",
              "type": "uint256"
            },
            {
              "internalType": "uint256",
              "name": "amount",
              "type": "uint256"
            },
            {
              "internalType": "bool",
              "name": "isOfferOpen",
              "type": "bool"
            }
          ],
          "internalType": "struct RedMarketplace.Offer",
          "name": "",
          "type": "tuple"
        }
      ],
      "stateMutability": "view",
      "type": "function",
      "constant": true
    }
  ],
  "bytecode": "0x60806040523480156200001157600080fd5b50604051620033573803806200335783398181016040528101906200003791906200016a565b806000806101000a81548173ffffffffffffffffffffffffffffffffffffffff021916908373ffffffffffffffffffffffffffffffffffffffff16021790555033600160006101000a81548173ffffffffffffffffffffffffffffffffffffffff021916908373ffffffffffffffffffffffffffffffffffffffff16021790555033600260006101000a81548173ffffffffffffffffffffffffffffffffffffffff021916908373ffffffffffffffffffffffffffffffffffffffff160217905550506200019c565b600080fd5b600073ffffffffffffffffffffffffffffffffffffffff82169050919050565b6000620001328262000105565b9050919050565b620001448162000125565b81146200015057600080fd5b50565b600081519050620001648162000139565b92915050565b60006020828403121562000183576200018262000100565b5b6000620001938482850162000153565b91505092915050565b6131ab80620001ac6000396000f3fe608060405234801561001057600080fd5b50600436106100cf5760003560e01c80635071c51f1161008c578063b1b9e78d11610066578063b1b9e78d146101fc578063df7ed27914610218578063ef706adf14610234578063f8b7ae0c14610250576100cf565b80635071c51f146101a45780638d2fcb2a146101c25780638f1b2628146101e0576100cf565b80630b6988c6146100d45780631afed875146100f057806329d0eb341461010c57806338931883146101285780634f85310f146101585780634f97df9614610188575b600080fd5b6100ee60048036038101906100e991906121db565b61026c565b005b61010a6004803603810190610105919061223e565b610340565b005b6101266004803603810190610121919061223e565b6107bc565b005b610142600480360381019061013d919061227e565b61094f565b60405161014f919061234c565b60405180910390f35b610172600480360381019061016d919061227e565b610a0b565b60405161017f9190612416565b60405180910390f35b6101a2600480360381019061019d919061245d565b610b27565b005b6101ac610d32565b6040516101b991906124bf565b60405180910390f35b6101ca610d5c565b6040516101d791906124bf565b60405180910390f35b6101fa60048036038101906101f591906124da565b610d86565b005b6102166004803603810190610211919061251a565b610e71565b005b610232600480360381019061022d919061255a565b61146d565b005b61024e6004803603810190610249919061227e565b6119fe565b005b61026a600480360381019061026591906125ad565b611baa565b005b3373ffffffffffffffffffffffffffffffffffffffff16600160009054906101000a900473ffffffffffffffffffffffffffffffffffffffff1673ffffffffffffffffffffffffffffffffffffffff16146102fc576040517f08c379a00000000000000000000000000000000000000000000000000000000081526004016102f390612685565b60405180910390fd5b80600260006101000a81548173ffffffffffffffffffffffffffffffffffffffff021916908373ffffffffffffffffffffffffffffffffffffffff16021790555050565b600760003373ffffffffffffffffffffffffffffffffffffffff1673ffffffffffffffffffffffffffffffffffffffff16815260200190815260200160002060009054906101000a900460ff16156103cd576040517f08c379a00000000000000000000000000000000000000000000000000000000081526004016103c4906126f1565b60405180910390fd5b60006005600084815260200190815260200160002090508060050160009054906101000a900460ff16610435576040517f08c379a000000000000000000000000000000000000000000000000000000000815260040161042c90612783565b60405180910390fd5b3373ffffffffffffffffffffffffffffffffffffffff168160030160009054906101000a900473ffffffffffffffffffffffffffffffffffffffff1673ffffffffffffffffffffffffffffffffffffffff1614156104c8576040517f08c379a00000000000000000000000000000000000000000000000000000000081526004016104bf906127ef565b60405180910390fd5b806004015460008054906101000a900473ffffffffffffffffffffffffffffffffffffffff1673ffffffffffffffffffffffffffffffffffffffff166370a08231336040518263ffffffff1660e01b815260040161052691906124bf565b602060405180830381865afa158015610543573d6000803e3d6000fd5b505050506040513d601f19601f820116820180604052508101906105679190612824565b10156105a8576040517f08c379a000000000000000000000000000000000000000000000000000000000815260040161059f9061289d565b60405180910390fd5b8160008054906101000a900473ffffffffffffffffffffffffffffffffffffffff1673ffffffffffffffffffffffffffffffffffffffff1663dd62ed3e33306040518363ffffffff1660e01b81526004016106049291906128bd565b602060405180830381865afa158015610621573d6000803e3d6000fd5b505050506040513d601f19601f820116820180604052508101906106459190612824565b1015610686576040517f08c379a000000000000000000000000000000000000000000000000000000000815260040161067d90612958565b60405180910390fd5b60006106926004611ffc565b905061069e600461200a565b60006040518060a001604052808381526020013373ffffffffffffffffffffffffffffffffffffffff16815260200186815260200185815260200160011515815250905080600660008481526020019081526020016000206000820151816000015560208201518160010160006101000a81548173ffffffffffffffffffffffffffffffffffffffff021916908373ffffffffffffffffffffffffffffffffffffffff160217905550604082015181600201556060820151816003015560808201518160040160006101000a81548160ff0219169083151502179055509050507f34789e06f24fa565512b9bb51cce0b6e65c86ca55bffb772a10342676140202d816040516107ad919061234c565b60405180910390a15050505050565b600760003373ffffffffffffffffffffffffffffffffffffffff1673ffffffffffffffffffffffffffffffffffffffff16815260200190815260200160002060009054906101000a900460ff1615610849576040517f08c379a0000000000000000000000000000000000000000000000000000000008152600401610840906126f1565b60405180910390fd5b3373ffffffffffffffffffffffffffffffffffffffff166005600084815260200190815260200160002060030160009054906101000a900473ffffffffffffffffffffffffffffffffffffffff1673ffffffffffffffffffffffffffffffffffffffff16146108ed576040517f08c379a00000000000000000000000000000000000000000000000000000000081526004016108e4906129c4565b60405180910390fd5b60008111610930576040517f08c379a000000000000000000000000000000000000000000000000000000000815260040161092790612a30565b60405180910390fd5b8060056000848152602001908152602001600020600401819055505050565b6109576120c6565b600660008381526020019081526020016000206040518060a0016040529081600082015481526020016001820160009054906101000a900473ffffffffffffffffffffffffffffffffffffffff1673ffffffffffffffffffffffffffffffffffffffff1673ffffffffffffffffffffffffffffffffffffffff16815260200160028201548152602001600382015481526020016004820160009054906101000a900460ff1615151515815250509050919050565b610a1361210d565b600560008381526020019081526020016000206040518060e0016040529081600082015481526020016001820160009054906101000a900473ffffffffffffffffffffffffffffffffffffffff1673ffffffffffffffffffffffffffffffffffffffff1673ffffffffffffffffffffffffffffffffffffffff168152602001600282015481526020016003820160009054906101000a900473ffffffffffffffffffffffffffffffffffffffff1673ffffffffffffffffffffffffffffffffffffffff1673ffffffffffffffffffffffffffffffffffffffff168152602001600482015481526020016005820160009054906101000a900460ff161515151581526020016006820154815250509050919050565b600760003373ffffffffffffffffffffffffffffffffffffffff1673ffffffffffffffffffffffffffffffffffffffff16815260200190815260200160002060009054906101000a900460ff1615610bb4576040517f08c379a0000000000000000000000000000000000000000000000000000000008152600401610bab906126f1565b60405180910390fd5b3373ffffffffffffffffffffffffffffffffffffffff166005600085815260200190815260200160002060030160009054906101000a900473ffffffffffffffffffffffffffffffffffffffff1673ffffffffffffffffffffffffffffffffffffffff1614610c58576040517f08c379a0000000000000000000000000000000000000000000000000000000008152600401610c4f906129c4565b60405180910390fd5b60008111610c9b576040517f08c379a0000000000000000000000000000000000000000000000000000000008152600401610c9290612a30565b60405180910390fd5b816005600085815260200190815260200160002060050160006101000a81548160ff0219169083151502179055508060056000858152602001908152602001600020600401819055507f872e712a215bd5c02884ce4d357f3a4689e5eaa73e7d35fc9ad684ac3b59c39160056000858152602001908152602001600020604051610d259190612bf9565b60405180910390a1505050565b6000600160009054906101000a900473ffffffffffffffffffffffffffffffffffffffff16905090565b6000600260009054906101000a900473ffffffffffffffffffffffffffffffffffffffff16905090565b3373ffffffffffffffffffffffffffffffffffffffff16600160009054906101000a900473ffffffffffffffffffffffffffffffffffffffff1673ffffffffffffffffffffffffffffffffffffffff1614610e16576040517f08c379a0000000000000000000000000000000000000000000000000000000008152600401610e0d90612685565b60405180910390fd5b80600760008473ffffffffffffffffffffffffffffffffffffffff1673ffffffffffffffffffffffffffffffffffffffff16815260200190815260200160002060006101000a81548160ff0219169083151502179055505050565b600760003373ffffffffffffffffffffffffffffffffffffffff1673ffffffffffffffffffffffffffffffffffffffff16815260200190815260200160002060009054906101000a900460ff1615610efe576040517f08c379a0000000000000000000000000000000000000000000000000000000008152600401610ef5906126f1565b60405180910390fd5b60006006600083815260200190815260200160002090506000600560008360020154815260200190815260200160002090503373ffffffffffffffffffffffffffffffffffffffff168160030160009054906101000a900473ffffffffffffffffffffffffffffffffffffffff1673ffffffffffffffffffffffffffffffffffffffff1614610fc2576040517f08c379a0000000000000000000000000000000000000000000000000000000008152600401610fb9906129c4565b60405180910390fd5b8160040160009054906101000a900460ff16611013576040517f08c379a000000000000000000000000000000000000000000000000000000000815260040161100a90612c60565b60405180910390fd5b6110408260010160009054906101000a900473ffffffffffffffffffffffffffffffffffffffff16612020565b82600301541115611086576040517f08c379a000000000000000000000000000000000000000000000000000000000815260040161107d90612cf2565b60405180910390fd5b600060648260060154846003015461109e9190612d41565b6110a89190612dca565b905060008054906101000a900473ffffffffffffffffffffffffffffffffffffffff1673ffffffffffffffffffffffffffffffffffffffff166323b872dd8460010160009054906101000a900473ffffffffffffffffffffffffffffffffffffffff168460030160009054906101000a900473ffffffffffffffffffffffffffffffffffffffff168487600301546111409190612dfb565b6040518463ffffffff1660e01b815260040161115e93929190612e9d565b6020604051808303816000875af115801561117d573d6000803e3d6000fd5b505050506040513d601f19601f820116820180604052508101906111a19190612ee9565b5060008054906101000a900473ffffffffffffffffffffffffffffffffffffffff1673ffffffffffffffffffffffffffffffffffffffff166323b872dd8460010160009054906101000a900473ffffffffffffffffffffffffffffffffffffffff16600260009054906101000a900473ffffffffffffffffffffffffffffffffffffffff16846040518463ffffffff1660e01b815260040161124593929190612f16565b6020604051808303816000875af1158015611264573d6000803e3d6000fd5b505050506040513d601f19601f820116820180604052508101906112889190612ee9565b508473ffffffffffffffffffffffffffffffffffffffff166342842e0e338560010160009054906101000a900473ffffffffffffffffffffffffffffffffffffffff1685600201546040518463ffffffff1660e01b81526004016112ee93929190612f16565b600060405180830381600087803b15801561130857600080fd5b505af115801561131c573d6000803e3d6000fd5b505050508260010160009054906101000a900473ffffffffffffffffffffffffffffffffffffffff16600560008560020154815260200190815260200160002060030160006101000a81548173ffffffffffffffffffffffffffffffffffffffff021916908373ffffffffffffffffffffffffffffffffffffffff1602179055506000600560008560020154815260200190815260200160002060050160006101000a81548160ff0219169083151502179055507f709b84a3460fbf463071fb2ee858d2e5dec0792679f6ba748f96e8736f0bc32f60056000856002015481526020019081526020016000206040516114159190612bf9565b60405180910390a17f12ff224db97c010c6692e43c2fc8cf291791618c0125cb65094e1a8c365bb61c6006600086815260200190815260200160002060405161145e9190612fee565b60405180910390a15050505050565b600760003373ffffffffffffffffffffffffffffffffffffffff1673ffffffffffffffffffffffffffffffffffffffff16815260200190815260200160002060009054906101000a900460ff16156114fa576040517f08c379a00000000000000000000000000000000000000000000000000000000081526004016114f1906126f1565b60405180910390fd5b60006005600084815260200190815260200160002090508060050160009054906101000a900460ff16611562576040517f08c379a000000000000000000000000000000000000000000000000000000000815260040161155990613055565b60405180910390fd5b80600401548210156115a9576040517f08c379a00000000000000000000000000000000000000000000000000000000081526004016115a0906130c1565b60405180910390fd5b806004015460008054906101000a900473ffffffffffffffffffffffffffffffffffffffff1673ffffffffffffffffffffffffffffffffffffffff166370a08231336040518263ffffffff1660e01b815260040161160791906124bf565b602060405180830381865afa158015611624573d6000803e3d6000fd5b505050506040513d601f19601f820116820180604052508101906116489190612824565b1015611689576040517f08c379a00000000000000000000000000000000000000000000000000000000081526004016116809061289d565b60405180910390fd5b61169233612020565b816004015411156116d8576040517f08c379a00000000000000000000000000000000000000000000000000000000081526004016116cf90612cf2565b60405180910390fd5b60006064826006015483600401546116f09190612d41565b6116fa9190612dca565b905060008054906101000a900473ffffffffffffffffffffffffffffffffffffffff1673ffffffffffffffffffffffffffffffffffffffff166323b872dd338460030160009054906101000a900473ffffffffffffffffffffffffffffffffffffffff1684866004015461176e9190612dfb565b6040518463ffffffff1660e01b815260040161178c93929190612e9d565b6020604051808303816000875af11580156117ab573d6000803e3d6000fd5b505050506040513d601f19601f820116820180604052508101906117cf9190612ee9565b5060008054906101000a900473ffffffffffffffffffffffffffffffffffffffff1673ffffffffffffffffffffffffffffffffffffffff166323b872dd33600260009054906101000a900473ffffffffffffffffffffffffffffffffffffffff16846040518463ffffffff1660e01b815260040161184f93929190612f16565b6020604051808303816000875af115801561186e573d6000803e3d6000fd5b505050506040513d601f19601f820116820180604052508101906118929190612ee9565b508473ffffffffffffffffffffffffffffffffffffffff166342842e0e8360030160009054906101000a900473ffffffffffffffffffffffffffffffffffffffff163385600201546040518463ffffffff1660e01b81526004016118f8939291906130e1565b600060405180830381600087803b15801561191257600080fd5b505af1158015611926573d6000803e3d6000fd5b50505050336005600086815260200190815260200160002060030160006101000a81548173ffffffffffffffffffffffffffffffffffffffff021916908373ffffffffffffffffffffffffffffffffffffffff16021790555060006005600086815260200190815260200160002060050160006101000a81548160ff0219169083151502179055507f709b84a3460fbf463071fb2ee858d2e5dec0792679f6ba748f96e8736f0bc32f600560008681526020019081526020016000206040516119ef9190612bf9565b60405180910390a15050505050565b600760003373ffffffffffffffffffffffffffffffffffffffff1673ffffffffffffffffffffffffffffffffffffffff16815260200190815260200160002060009054906101000a900460ff1615611a8b576040517f08c379a0000000000000000000000000000000000000000000000000000000008152600401611a82906126f1565b60405180910390fd5b3373ffffffffffffffffffffffffffffffffffffffff166006600083815260200190815260200160002060010160009054906101000a900473ffffffffffffffffffffffffffffffffffffffff1673ffffffffffffffffffffffffffffffffffffffff1614611b2f576040517f08c379a0000000000000000000000000000000000000000000000000000000008152600401611b26906129c4565b60405180910390fd5b60006006600083815260200190815260200160002060040160006101000a81548160ff0219169083151502179055507fc1234f35a1e1e3326c0695929ca16fedd3a111be416dc7726efdac73277a81ab60066000838152602001908152602001600020604051611b9f9190612fee565b60405180910390a150565b838560008290503373ffffffffffffffffffffffffffffffffffffffff168173ffffffffffffffffffffffffffffffffffffffff16636352211e846040518263ffffffff1660e01b8152600401611c019190613118565b602060405180830381865afa158015611c1e573d6000803e3d6000fd5b505050506040513d601f19601f82011682018060405250810190611c429190613148565b73ffffffffffffffffffffffffffffffffffffffff1614611c6257600080fd5b868860008290503073ffffffffffffffffffffffffffffffffffffffff168173ffffffffffffffffffffffffffffffffffffffff1663081812fc846040518263ffffffff1660e01b8152600401611cb99190613118565b602060405180830381865afa158015611cd6573d6000803e3d6000fd5b505050506040513d601f19601f82011682018060405250810190611cfa9190613148565b73ffffffffffffffffffffffffffffffffffffffff1614611d1a57600080fd5b600760003373ffffffffffffffffffffffffffffffffffffffff1673ffffffffffffffffffffffffffffffffffffffff16815260200190815260200160002060009054906101000a900460ff1615611da7576040517f08c379a0000000000000000000000000000000000000000000000000000000008152600401611d9e906126f1565b60405180910390fd5b60008911611dea576040517f08c379a0000000000000000000000000000000000000000000000000000000008152600401611de190612a30565b60405180910390fd5b6000611df66003611ffc565b90506000600a9050600160009054906101000a900473ffffffffffffffffffffffffffffffffffffffff1673ffffffffffffffffffffffffffffffffffffffff163373ffffffffffffffffffffffffffffffffffffffff161415611e5957601e90505b60006040518060e001604052808481526020018e73ffffffffffffffffffffffffffffffffffffffff1681526020018f81526020018b73ffffffffffffffffffffffffffffffffffffffff1681526020018d81526020018c1515815260200183815250905080600560008581526020019081526020016000206000820151816000015560208201518160010160006101000a81548173ffffffffffffffffffffffffffffffffffffffff021916908373ffffffffffffffffffffffffffffffffffffffff1602179055506040820151816002015560608201518160030160006101000a81548173ffffffffffffffffffffffffffffffffffffffff021916908373ffffffffffffffffffffffffffffffffffffffff1602179055506080820151816004015560a08201518160050160006101000a81548160ff02191690831515021790555060c08201518160060155905050611fb5600361200a565b7f41b861adba3bf38ed2a070632996c17d9cfbb82a9199c192494e9c955806637281604051611fe49190612416565b60405180910390a15050505050505050505050505050565b600081600001549050919050565b6001816000016000828254019250508190555050565b60008060009054906101000a900473ffffffffffffffffffffffffffffffffffffffff1673ffffffffffffffffffffffffffffffffffffffff1663dd62ed3e83306040518363ffffffff1660e01b815260040161207e9291906128bd565b602060405180830381865afa15801561209b573d6000803e3d6000fd5b505050506040513d601f19601f820116820180604052508101906120bf9190612824565b9050919050565b6040518060a0016040528060008152602001600073ffffffffffffffffffffffffffffffffffffffff16815260200160008152602001600081526020016000151581525090565b6040518060e0016040528060008152602001600073ffffffffffffffffffffffffffffffffffffffff16815260200160008152602001600073ffffffffffffffffffffffffffffffffffffffff16815260200160008152602001600015158152602001600081525090565b600080fd5b600073ffffffffffffffffffffffffffffffffffffffff82169050919050565b60006121a88261217d565b9050919050565b6121b88161219d565b81146121c357600080fd5b50565b6000813590506121d5816121af565b92915050565b6000602082840312156121f1576121f0612178565b5b60006121ff848285016121c6565b91505092915050565b6000819050919050565b61221b81612208565b811461222657600080fd5b50565b60008135905061223881612212565b92915050565b6000806040838503121561225557612254612178565b5b600061226385828601612229565b925050602061227485828601612229565b9150509250929050565b60006020828403121561229457612293612178565b5b60006122a284828501612229565b91505092915050565b6122b481612208565b82525050565b6122c38161219d565b82525050565b60008115159050919050565b6122de816122c9565b82525050565b60a0820160008201516122fa60008501826122ab565b50602082015161230d60208501826122ba565b50604082015161232060408501826122ab565b50606082015161233360608501826122ab565b50608082015161234660808501826122d5565b50505050565b600060a08201905061236160008301846122e4565b92915050565b60006123728261217d565b9050919050565b61238281612367565b82525050565b60e08201600082015161239e60008501826122ab565b5060208201516123b160208501826122ba565b5060408201516123c460408501826122ab565b5060608201516123d76060850182612379565b5060808201516123ea60808501826122ab565b5060a08201516123fd60a08501826122d5565b5060c082015161241060c08501826122ab565b50505050565b600060e08201905061242b6000830184612388565b92915050565b61243a816122c9565b811461244557600080fd5b50565b60008135905061245781612431565b92915050565b60008060006060848603121561247657612475612178565b5b600061248486828701612229565b935050602061249586828701612448565b92505060406124a686828701612229565b9150509250925092565b6124b98161219d565b82525050565b60006020820190506124d460008301846124b0565b92915050565b600080604083850312156124f1576124f0612178565b5b60006124ff858286016121c6565b925050602061251085828601612448565b9150509250929050565b6000806040838503121561253157612530612178565b5b600061253f858286016121c6565b925050602061255085828601612229565b9150509250929050565b60008060006060848603121561257357612572612178565b5b6000612581868287016121c6565b935050602061259286828701612229565b92505060406125a386828701612229565b9150509250925092565b600080600080600060a086880312156125c9576125c8612178565b5b60006125d788828901612229565b95505060206125e8888289016121c6565b94505060406125f988828901612229565b935050606061260a88828901612448565b925050608061261b888289016121c6565b9150509295509295909350565b600082825260208201905092915050565b7f556e617574686f72697a6564206163636f756e74000000000000000000000000600082015250565b600061266f601483612628565b915061267a82612639565b602082019050919050565b6000602082019050818103600083015261269e81612662565b9050919050565b7f5573657220697320626c61636b6c697374656400000000000000000000000000600082015250565b60006126db601383612628565b91506126e6826126a5565b602082019050919050565b6000602082019050818103600083015261270a816126ce565b9050919050565b7f4c6973746564206974656d206973204e4f5420616363657074696e67206f666660008201527f6572730000000000000000000000000000000000000000000000000000000000602082015250565b600061276d602383612628565b915061277882612711565b604082019050919050565b6000602082019050818103600083015261279c81612760565b9050919050565b7f4f776e65722063616e6e6f7420637265617465206f6666657200000000000000600082015250565b60006127d9601983612628565b91506127e4826127a3565b602082019050919050565b60006020820190508181036000830152612808816127cc565b9050919050565b60008151905061281e81612212565b92915050565b60006020828403121561283a57612839612178565b5b60006128488482850161280f565b91505092915050565b7f496e73756666696369656e742052454420746f6b656e2062616c616e63650000600082015250565b6000612887601e83612628565b915061289282612851565b602082019050919050565b600060208201905081810360008301526128b68161287a565b9050919050565b60006040820190506128d260008301856124b0565b6128df60208301846124b0565b9392505050565b7f696e73756666696369656e7420616c6c6f77616e63652c2072652d696e69746960008201527f616c697a652077616c6c65740000000000000000000000000000000000000000602082015250565b6000612942602c83612628565b915061294d826128e6565b604082019050919050565b6000602082019050818103600083015261297181612935565b9050919050565b7f556e617574686f72697a65642075736572000000000000000000000000000000600082015250565b60006129ae601183612628565b91506129b982612978565b602082019050919050565b600060208201905081810360008301526129dd816129a1565b9050919050565b7f5072696365206d757374206265206174206c6561737420312052454400000000600082015250565b6000612a1a601c83612628565b9150612a25826129e4565b602082019050919050565b60006020820190508181036000830152612a4981612a0d565b9050919050565b60008160001c9050919050565b6000819050919050565b6000612a7a612a7583612a50565b612a5d565b9050919050565b600073ffffffffffffffffffffffffffffffffffffffff82169050919050565b6000612ab4612aaf83612a50565b612a81565b9050919050565b600073ffffffffffffffffffffffffffffffffffffffff82169050919050565b6000612aee612ae983612a50565b612abb565b9050919050565b600060ff82169050919050565b6000612b15612b1083612a50565b612af5565b9050919050565b60e082016000808301549050612b3181612a67565b612b3e60008601826122ab565b5060018301549050612b4f81612aa1565b612b5c60208601826122ba565b5060028301549050612b6d81612a67565b612b7a60408601826122ab565b5060038301549050612b8b81612adb565b612b986060860182612379565b5060048301549050612ba981612a67565b612bb660808601826122ab565b5060058301549050612bc781612b02565b612bd460a08601826122d5565b5060068301549050612be581612a67565b612bf260c08601826122ab565b5050505050565b600060e082019050612c0e6000830184612b1c565b92915050565b7f4f6666657220697320636c6f7365640000000000000000000000000000000000600082015250565b6000612c4a600f83612628565b9150612c5582612c14565b602082019050919050565b60006020820190508181036000830152612c7981612c3d565b9050919050565b7f546f6b656e207472616e73666572206e6f7420617070726f766564206279207460008201527f6865206f666665722063726561746f7200000000000000000000000000000000602082015250565b6000612cdc603083612628565b9150612ce782612c80565b604082019050919050565b60006020820190508181036000830152612d0b81612ccf565b9050919050565b7f4e487b7100000000000000000000000000000000000000000000000000000000600052601160045260246000fd5b6000612d4c82612208565b9150612d5783612208565b9250817fffffffffffffffffffffffffffffffffffffffffffffffffffffffffffffffff0483118215151615612d9057612d8f612d12565b5b828202905092915050565b7f4e487b7100000000000000000000000000000000000000000000000000000000600052601260045260246000fd5b6000612dd582612208565b9150612de083612208565b925082612df057612def612d9b565b5b828204905092915050565b6000612e0682612208565b9150612e1183612208565b925082821015612e2457612e23612d12565b5b828203905092915050565b6000819050919050565b6000612e54612e4f612e4a8461217d565b612e2f565b61217d565b9050919050565b6000612e6682612e39565b9050919050565b6000612e7882612e5b565b9050919050565b612e8881612e6d565b82525050565b612e9781612208565b82525050565b6000606082019050612eb260008301866124b0565b612ebf6020830185612e7f565b612ecc6040830184612e8e565b949350505050565b600081519050612ee381612431565b92915050565b600060208284031215612eff57612efe612178565b5b6000612f0d84828501612ed4565b91505092915050565b6000606082019050612f2b60008301866124b0565b612f3860208301856124b0565b612f456040830184612e8e565b949350505050565b60a082016000808301549050612f6281612a67565b612f6f60008601826122ab565b5060018301549050612f8081612aa1565b612f8d60208601826122ba565b5060028301549050612f9e81612a67565b612fab60408601826122ab565b5060038301549050612fbc81612a67565b612fc960608601826122ab565b5060048301549050612fda81612b02565b612fe760808601826122d5565b5050505050565b600060a0820190506130036000830184612f4d565b92915050565b7f4c6973746564206974656d206973204e4f5420666f722073616c650000000000600082015250565b600061303f601b83612628565b915061304a82613009565b602082019050919050565b6000602082019050818103600083015261306e81613032565b9050919050565b7f496e73756666696369656e742052454420746f6b656e20616d6f756e74000000600082015250565b60006130ab601d83612628565b91506130b682613075565b602082019050919050565b600060208201905081810360008301526130da8161309e565b9050919050565b60006060820190506130f66000830186612e7f565b61310360208301856124b0565b6131106040830184612e8e565b949350505050565b600060208201905061312d6000830184612e8e565b92915050565b600081519050613142816121af565b92915050565b60006020828403121561315e5761315d612178565b5b600061316c84828501613133565b9150509291505056fea264697066735822122093ca7c2393a2e17238255318b05826668b43e1326253a5fa087d37b4e5c9637f64736f6c634300080b0033",
  "immutableReferences": {},
  "source": "// SPDX-License-Identifier: MIT\npragma solidity ^0.8.4;\n\nimport \"@openzeppelin/contracts/token/ERC721/IERC721.sol\";\nimport \"@openzeppelin/contracts/utils/Counters.sol\";\nimport \"@openzeppelin/contracts/token/ERC20/ERC20.sol\";\nimport \"@openzeppelin/contracts/token/ERC20/IERC20.sol\";\n\ncontract RedMarketplace {\n    using Counters for Counters.Counter;\n\n    IERC20 redToken;\n\n    struct ListingItem {\n        uint256 itemId;\n        address tokenAddress;\n        uint256 tokenId;\n        address payable owner;\n        uint256 askingPrice;\n        bool isForSale;\n        uint256 listingFee;\n    }\n\n    struct Offer {\n        uint256 offerId;\n        address creator;\n        uint256 itemId;\n        uint256 amount;\n        bool isOfferOpen;\n    }\n\n    address deployerAccount;\n    address feeCollectorAccount;\n\n    constructor(address redTokenAddress) {\n        redToken = IERC20(redTokenAddress); // Token Address\n        deployerAccount = msg.sender;\n        feeCollectorAccount = msg.sender;\n    }\n\n    Counters.Counter private _listingIdCounter;\n    Counters.Counter private _offerIdCounter;\n    mapping(uint256 => ListingItem) private items;\n    mapping(uint256 => Offer) private offers;\n    mapping(address => bool) private isBlacklisted;\n\n    event itemAdded(ListingItem item);\n    event listingUpdated(ListingItem item);\n    event itemSold(ListingItem item);\n    event offerCreated(Offer offer);\n    event offerAccepted(Offer offer);\n    event offerCancelled(Offer offer);\n\n    modifier OnlyItemOwner(address tokenAddress, uint256 tokenId) {\n        IERC721 nftContract = IERC721(tokenAddress);\n        require(nftContract.ownerOf(tokenId) == msg.sender);\n        _;\n    }\n\n    modifier HasTransferApproval(address tokenAddress, uint256 tokenId) {\n        IERC721 nftContract = IERC721(tokenAddress);\n        require(nftContract.getApproved(tokenId) == address(this));\n        _;\n    }\n\n    function getRedMinterAddress() public view returns (address) {\n        return deployerAccount;\n    }\n\n    function listItem(\n        uint256 tokenId,\n        address tokenAddress,\n        uint256 askingPrice,\n        bool isForSale,\n        address owner\n    )\n        external\n        OnlyItemOwner(tokenAddress, tokenId)\n        HasTransferApproval(tokenAddress, tokenId)\n    {\n        require(!isBlacklisted[msg.sender], \"User is blacklisted\");\n        require(askingPrice > 0, \"Price must be at least 1 RED\");\n        uint256 listingId = _listingIdCounter.current();\n        uint256 listingFee = 10;\n        if (msg.sender == deployerAccount) {\n            listingFee = 30;\n        }\n        ListingItem memory listing = ListingItem(\n            listingId,\n            tokenAddress,\n            tokenId,\n            payable(owner),\n            askingPrice,\n            isForSale,\n            listingFee\n        );\n        items[listingId] = listing;\n        _listingIdCounter.increment();\n        emit itemAdded(listing);\n    }\n\n    function updateAskingPrice(uint256 listingId, uint256 askingPrice)\n        external\n    {\n        require(!isBlacklisted[msg.sender], \"User is blacklisted\");\n        require(items[listingId].owner == msg.sender, \"Unauthorized user\");\n        require(askingPrice > 0, \"Price must be at least 1 RED\");\n        items[listingId].askingPrice = askingPrice;\n    }\n\n    function updateListingStatus(\n        uint256 listingId,\n        bool listingStatus,\n        uint256 askingPrice\n    ) external {\n        require(!isBlacklisted[msg.sender], \"User is blacklisted\");\n        require(items[listingId].owner == msg.sender, \"Unauthorized user\");\n        require(askingPrice > 0, \"Price must be at least 1 RED\");\n\n        items[listingId].isForSale = listingStatus;\n        items[listingId].askingPrice = askingPrice;\n\n        emit listingUpdated(items[listingId]);\n    }\n\n    function createOffer(uint256 listingId, uint256 amount) external {\n        require(!isBlacklisted[msg.sender], \"User is blacklisted\");\n        ListingItem storage listing = items[listingId];\n        require(listing.isForSale, \"Listed item is NOT accepting offers\");\n        require(listing.owner != msg.sender, \"Owner cannot create offer\");\n        require(\n            redToken.balanceOf(msg.sender) >= listing.askingPrice,\n            \"Insufficient RED token balance\"\n        );\n        require(\n            redToken.allowance(msg.sender, address(this)) >= amount,\n            \"insufficient allowance, re-initialize wallet\"\n        );\n        uint256 offerId = _offerIdCounter.current();\n        _offerIdCounter.increment();\n        Offer memory offer = Offer(\n            offerId,\n            msg.sender,\n            listingId,\n            amount,\n            true\n        );\n        offers[offerId] = offer;\n        emit offerCreated(offer);\n    }\n\n    function cancelOffer(uint256 offerId) external {\n        require(!isBlacklisted[msg.sender], \"User is blacklisted\");\n        require(offers[offerId].creator == msg.sender, \"Unauthorized user\");\n        offers[offerId].isOfferOpen = false;\n        emit offerCancelled(offers[offerId]);\n    }\n\n    function getAllowance(address offerCreator)\n        internal\n        view\n        returns (uint256)\n    {\n        return redToken.allowance(offerCreator, address(this));\n    }\n\n    function acceptOffer(address _nftContract, uint256 offerId) external {\n        require(!isBlacklisted[msg.sender], \"User is blacklisted\");\n        Offer storage offer = offers[offerId];\n        ListingItem storage listing = items[offer.itemId];\n        require(listing.owner == msg.sender, \"Unauthorized user\");\n        require(offer.isOfferOpen, \"Offer is closed\");\n        require(\n            offer.amount <= getAllowance(offer.creator),\n            \"Token transfer not approved by the offer creator\"\n        );\n        uint256 listingFee = (offer.amount * listing.listingFee) / 100;\n        redToken.transferFrom(\n            offer.creator,\n            listing.owner,\n            offer.amount - listingFee\n        );\n        redToken.transferFrom(offer.creator, feeCollectorAccount, listingFee);\n        IERC721(_nftContract).safeTransferFrom(\n            msg.sender,\n            offer.creator,\n            listing.tokenId\n        );\n        items[offer.itemId].owner = payable(offer.creator);\n        items[offer.itemId].isForSale = false;\n        emit itemSold(items[offer.itemId]);\n        emit offerAccepted(offers[offerId]);\n    }\n\n    function buyNow(\n        address _nftContract,\n        uint256 listingId,\n        uint256 amount\n    ) external {\n        require(!isBlacklisted[msg.sender], \"User is blacklisted\");\n        ListingItem storage listing = items[listingId];\n        require(listing.isForSale, \"Listed item is NOT for sale\");\n        require(amount >= listing.askingPrice, \"Insufficient RED token amount\");\n        require(\n            redToken.balanceOf(msg.sender) >= listing.askingPrice,\n            \"Insufficient RED token balance\"\n        );\n        require(\n            listing.askingPrice <= getAllowance(msg.sender),\n            \"Token transfer not approved by the offer creator\"\n        );\n        uint256 listingFee = (listing.askingPrice * listing.listingFee) / 100;\n        redToken.transferFrom(\n            msg.sender,\n            listing.owner,\n            listing.askingPrice - listingFee\n        );\n        redToken.transferFrom(msg.sender, feeCollectorAccount, listingFee);\n        IERC721(_nftContract).safeTransferFrom(\n            listing.owner,\n            msg.sender,\n            listing.tokenId\n        );\n        items[listingId].owner = payable(msg.sender);\n        items[listingId].isForSale = false;\n        emit itemSold(items[listingId]);\n    }\n\n    function updateBlacklistUser(address userAddress, bool status) external {\n        require(deployerAccount == msg.sender, \"Unauthorized account\");\n        isBlacklisted[userAddress] = status;\n    }\n\n    function updateFeeCollectorAccount(address walletAddress) external {\n        require(deployerAccount == msg.sender, \"Unauthorized account\");\n        feeCollectorAccount = walletAddress;\n    }\n\n    function getFeeCollectorAccount() public view returns (address) {\n        return feeCollectorAccount;\n    }\n\n    function getListingById(uint256 listingId)\n        public\n        view\n        returns (ListingItem memory)\n    {\n        return items[listingId];\n    }\n\n    function getOfferById(uint256 offerId) public view returns (Offer memory) {\n        return offers[offerId];\n    }\n}\n",
  "sourcePath": "/Users/bigmadcode/Desktop/RED Broadcast NFT Contract/contracts/RedMarketplace.sol",
  "compiler": {
    "name": "solc",
    "version": "0.8.11+commit.d7f03943.Emscripten.clang"
  },
  "schemaVersion": "3.4.6",
  "updatedAt": "2022-04-30T16:12:07.131Z",
  "networkType": "ethereum",
  "devdoc": {
    "kind": "dev",
    "methods": {},
    "version": 1
  },
  "userdoc": {
    "kind": "user",
    "methods": {},
    "version": 1
  }
}