{
  "contractName": "RedMarketplace",
  "abi": [
    {
      "inputs": [
        {
          "internalType": "address",
          "name": "redTokenAddress",
          "type": "address"
        }
      ],
      "stateMutability": "nonpayable",
      "type": "constructor"
    },
    {
      "anonymous": false,
      "inputs": [
        {
          "components": [
            {
              "internalType": "uint256",
              "name": "itemId",
              "type": "uint256"
            },
            {
              "internalType": "address",
              "name": "tokenAddress",
              "type": "address"
            },
            {
              "internalType": "uint256",
              "name": "tokenId",
              "type": "uint256"
            },
            {
              "internalType": "address payable",
              "name": "owner",
              "type": "address"
            },
            {
              "internalType": "uint256",
              "name": "askingPrice",
              "type": "uint256"
            },
            {
              "internalType": "bool",
              "name": "isForSale",
              "type": "bool"
            },
            {
              "internalType": "uint256",
              "name": "listingFee",
              "type": "uint256"
            }
          ],
          "indexed": false,
          "internalType": "struct RedMarketplace.ListingItem",
          "name": "item",
          "type": "tuple"
        }
      ],
      "name": "itemAdded",
      "type": "event"
    },
    {
      "anonymous": false,
      "inputs": [
        {
          "components": [
            {
              "internalType": "uint256",
              "name": "itemId",
              "type": "uint256"
            },
            {
              "internalType": "address",
              "name": "tokenAddress",
              "type": "address"
            },
            {
              "internalType": "uint256",
              "name": "tokenId",
              "type": "uint256"
            },
            {
              "internalType": "address payable",
              "name": "owner",
              "type": "address"
            },
            {
              "internalType": "uint256",
              "name": "askingPrice",
              "type": "uint256"
            },
            {
              "internalType": "bool",
              "name": "isForSale",
              "type": "bool"
            },
            {
              "internalType": "uint256",
              "name": "listingFee",
              "type": "uint256"
            }
          ],
          "indexed": false,
          "internalType": "struct RedMarketplace.ListingItem",
          "name": "item",
          "type": "tuple"
        }
      ],
      "name": "itemSold",
      "type": "event"
    },
    {
      "anonymous": false,
      "inputs": [
        {
          "components": [
            {
              "internalType": "uint256",
              "name": "itemId",
              "type": "uint256"
            },
            {
              "internalType": "address",
              "name": "tokenAddress",
              "type": "address"
            },
            {
              "internalType": "uint256",
              "name": "tokenId",
              "type": "uint256"
            },
            {
              "internalType": "address payable",
              "name": "owner",
              "type": "address"
            },
            {
              "internalType": "uint256",
              "name": "askingPrice",
              "type": "uint256"
            },
            {
              "internalType": "bool",
              "name": "isForSale",
              "type": "bool"
            },
            {
              "internalType": "uint256",
              "name": "listingFee",
              "type": "uint256"
            }
          ],
          "indexed": false,
          "internalType": "struct RedMarketplace.ListingItem",
          "name": "item",
          "type": "tuple"
        }
      ],
      "name": "listingUpdated",
      "type": "event"
    },
    {
      "anonymous": false,
      "inputs": [
        {
          "components": [
            {
              "internalType": "uint256",
              "name": "offerId",
              "type": "uint256"
            },
            {
              "internalType": "address",
              "name": "creator",
              "type": "address"
            },
            {
              "internalType": "uint256",
              "name": "itemId",
              "type": "uint256"
            },
            {
              "internalType": "uint256",
              "name": "amount",
              "type": "uint256"
            },
            {
              "internalType": "bool",
              "name": "isOfferOpen",
              "type": "bool"
            }
          ],
          "indexed": false,
          "internalType": "struct RedMarketplace.Offer",
          "name": "offer",
          "type": "tuple"
        }
      ],
      "name": "offerAccepted",
      "type": "event"
    },
    {
      "anonymous": false,
      "inputs": [
        {
          "components": [
            {
              "internalType": "uint256",
              "name": "offerId",
              "type": "uint256"
            },
            {
              "internalType": "address",
              "name": "creator",
              "type": "address"
            },
            {
              "internalType": "uint256",
              "name": "itemId",
              "type": "uint256"
            },
            {
              "internalType": "uint256",
              "name": "amount",
              "type": "uint256"
            },
            {
              "internalType": "bool",
              "name": "isOfferOpen",
              "type": "bool"
            }
          ],
          "indexed": false,
          "internalType": "struct RedMarketplace.Offer",
          "name": "offer",
          "type": "tuple"
        }
      ],
      "name": "offerCancelled",
      "type": "event"
    },
    {
      "anonymous": false,
      "inputs": [
        {
          "components": [
            {
              "internalType": "uint256",
              "name": "offerId",
              "type": "uint256"
            },
            {
              "internalType": "address",
              "name": "creator",
              "type": "address"
            },
            {
              "internalType": "uint256",
              "name": "itemId",
              "type": "uint256"
            },
            {
              "internalType": "uint256",
              "name": "amount",
              "type": "uint256"
            },
            {
              "internalType": "bool",
              "name": "isOfferOpen",
              "type": "bool"
            }
          ],
          "indexed": false,
          "internalType": "struct RedMarketplace.Offer",
          "name": "offer",
          "type": "tuple"
        }
      ],
      "name": "offerCreated",
      "type": "event"
    },
    {
      "inputs": [],
      "name": "getRedMinterAddress",
      "outputs": [
        {
          "internalType": "address",
          "name": "",
          "type": "address"
        }
      ],
      "stateMutability": "view",
      "type": "function",
      "constant": true
    },
    {
      "inputs": [
        {
          "internalType": "uint256",
          "name": "tokenId",
          "type": "uint256"
        },
        {
          "internalType": "address",
          "name": "tokenAddress",
          "type": "address"
        },
        {
          "internalType": "uint256",
          "name": "askingPrice",
          "type": "uint256"
        },
        {
          "internalType": "bool",
          "name": "isForSale",
          "type": "bool"
        },
        {
          "internalType": "address",
          "name": "owner",
          "type": "address"
        }
      ],
      "name": "listItem",
      "outputs": [],
      "stateMutability": "nonpayable",
      "type": "function"
    },
    {
      "inputs": [
        {
          "internalType": "uint256",
          "name": "listingId",
          "type": "uint256"
        },
        {
          "internalType": "uint256",
          "name": "askingPrice",
          "type": "uint256"
        }
      ],
      "name": "updateAskingPrice",
      "outputs": [],
      "stateMutability": "nonpayable",
      "type": "function"
    },
    {
      "inputs": [
        {
          "internalType": "uint256",
          "name": "listingId",
          "type": "uint256"
        },
        {
          "internalType": "bool",
          "name": "listingStatus",
          "type": "bool"
        }
      ],
      "name": "updateListingStatus",
      "outputs": [],
      "stateMutability": "nonpayable",
      "type": "function"
    },
    {
      "inputs": [
        {
          "internalType": "uint256",
          "name": "listingId",
          "type": "uint256"
        },
        {
          "internalType": "uint256",
          "name": "amount",
          "type": "uint256"
        }
      ],
      "name": "createOffer",
      "outputs": [],
      "stateMutability": "nonpayable",
      "type": "function"
    },
    {
      "inputs": [
        {
          "internalType": "uint256",
          "name": "offerId",
          "type": "uint256"
        }
      ],
      "name": "cancelOffer",
      "outputs": [],
      "stateMutability": "nonpayable",
      "type": "function"
    },
    {
      "inputs": [
        {
          "internalType": "address",
          "name": "_nftContract",
          "type": "address"
        },
        {
          "internalType": "uint256",
          "name": "offerId",
          "type": "uint256"
        }
      ],
      "name": "acceptOffer",
      "outputs": [],
      "stateMutability": "nonpayable",
      "type": "function"
    },
    {
      "inputs": [
        {
          "internalType": "address",
          "name": "_nftContract",
          "type": "address"
        },
        {
          "internalType": "uint256",
          "name": "listingId",
          "type": "uint256"
        },
        {
          "internalType": "uint256",
          "name": "amount",
          "type": "uint256"
        }
      ],
      "name": "buyNow",
      "outputs": [],
      "stateMutability": "nonpayable",
      "type": "function"
    },
    {
      "inputs": [
        {
          "internalType": "uint256",
          "name": "listingId",
          "type": "uint256"
        }
      ],
      "name": "getListingById",
      "outputs": [
        {
          "components": [
            {
              "internalType": "uint256",
              "name": "itemId",
              "type": "uint256"
            },
            {
              "internalType": "address",
              "name": "tokenAddress",
              "type": "address"
            },
            {
              "internalType": "uint256",
              "name": "tokenId",
              "type": "uint256"
            },
            {
              "internalType": "address payable",
              "name": "owner",
              "type": "address"
            },
            {
              "internalType": "uint256",
              "name": "askingPrice",
              "type": "uint256"
            },
            {
              "internalType": "bool",
              "name": "isForSale",
              "type": "bool"
            },
            {
              "internalType": "uint256",
              "name": "listingFee",
              "type": "uint256"
            }
          ],
          "internalType": "struct RedMarketplace.ListingItem",
          "name": "",
          "type": "tuple"
        }
      ],
      "stateMutability": "view",
      "type": "function",
      "constant": true
    },
    {
      "inputs": [
        {
          "internalType": "uint256",
          "name": "offerId",
          "type": "uint256"
        }
      ],
      "name": "getOfferById",
      "outputs": [
        {
          "components": [
            {
              "internalType": "uint256",
              "name": "offerId",
              "type": "uint256"
            },
            {
              "internalType": "address",
              "name": "creator",
              "type": "address"
            },
            {
              "internalType": "uint256",
              "name": "itemId",
              "type": "uint256"
            },
            {
              "internalType": "uint256",
              "name": "amount",
              "type": "uint256"
            },
            {
              "internalType": "bool",
              "name": "isOfferOpen",
              "type": "bool"
            }
          ],
          "internalType": "struct RedMarketplace.Offer",
          "name": "",
          "type": "tuple"
        }
      ],
      "stateMutability": "view",
      "type": "function",
      "constant": true
    }
  ],
  "bytecode": "0x60806040527301dc00e095788275224187812b3f92f5ef8dd069600160006101000a81548173ffffffffffffffffffffffffffffffffffffffff021916908373ffffffffffffffffffffffffffffffffffffffff1602179055503480156200006657600080fd5b5060405162002a3638038062002a3683398181016040528101906200008c91906200013d565b806000806101000a81548173ffffffffffffffffffffffffffffffffffffffff021916908373ffffffffffffffffffffffffffffffffffffffff160217905550506200016f565b600080fd5b600073ffffffffffffffffffffffffffffffffffffffff82169050919050565b60006200010582620000d8565b9050919050565b6200011781620000f8565b81146200012357600080fd5b50565b60008151905062000137816200010c565b92915050565b600060208284031215620001565762000155620000d3565b5b6000620001668482850162000126565b91505092915050565b6128b7806200017f6000396000f3fe608060405234801561001057600080fd5b506004361061009e5760003560e01c806398214bcb1161006657806398214bcb14610159578063b1b9e78d14610175578063df7ed27914610191578063ef706adf146101ad578063f8b7ae0c146101c95761009e565b80631afed875146100a357806329d0eb34146100bf57806338931883146100db5780634f85310f1461010b5780635071c51f1461013b575b600080fd5b6100bd60048036038101906100b89190611a17565b6101e5565b005b6100d960048036038101906100d49190611a17565b6105d7565b005b6100f560048036038101906100f09190611a57565b6106dd565b6040516101029190611b57565b60405180910390f35b61012560048036038101906101209190611a57565b610799565b6040516101329190611c21565b60405180910390f35b6101436108b5565b6040516101509190611c4b565b60405180910390f35b610173600480360381019061016e9190611c92565b6108df565b005b61018f600480360381019061018a9190611cfe565b6109fe565b005b6101ab60048036038101906101a69190611d3e565b610f18565b005b6101c760048036038101906101c29190611a57565b61137c565b005b6101e360048036038101906101de9190611d91565b61149b565b005b60006004600084815260200190815260200160002090508060050160009054906101000a900460ff1661024d576040517f08c379a000000000000000000000000000000000000000000000000000000000815260040161024490611e8f565b60405180910390fd5b3373ffffffffffffffffffffffffffffffffffffffff168160030160009054906101000a900473ffffffffffffffffffffffffffffffffffffffff1673ffffffffffffffffffffffffffffffffffffffff1614156102e0576040517f08c379a00000000000000000000000000000000000000000000000000000000081526004016102d790611efb565b60405180910390fd5b806004015460008054906101000a900473ffffffffffffffffffffffffffffffffffffffff1673ffffffffffffffffffffffffffffffffffffffff166370a08231336040518263ffffffff1660e01b815260040161033e9190611c4b565b602060405180830381865afa15801561035b573d6000803e3d6000fd5b505050506040513d601f19601f8201168201806040525081019061037f9190611f30565b10156103c0576040517f08c379a00000000000000000000000000000000000000000000000000000000081526004016103b790611fa9565b60405180910390fd5b60006103cc6003611860565b90506103d8600361186e565b60006040518060a001604052808381526020013373ffffffffffffffffffffffffffffffffffffffff16815260200186815260200185815260200160011515815250905080600560008481526020019081526020016000206000820151816000015560208201518160010160006101000a81548173ffffffffffffffffffffffffffffffffffffffff021916908373ffffffffffffffffffffffffffffffffffffffff160217905550604082015181600201556060820151816003015560808201518160040160006101000a81548160ff0219169083151502179055509050508360008054906101000a900473ffffffffffffffffffffffffffffffffffffffff1673ffffffffffffffffffffffffffffffffffffffff1663dd62ed3e8360200151306040518363ffffffff1660e01b8152600401610518929190611fc9565b602060405180830381865afa158015610535573d6000803e3d6000fd5b505050506040513d601f19601f820116820180604052508101906105599190611f30565b11610599576040517f08c379a000000000000000000000000000000000000000000000000000000000815260040161059090612064565b60405180910390fd5b7f34789e06f24fa565512b9bb51cce0b6e65c86ca55bffb772a10342676140202d816040516105c89190611b57565b60405180910390a15050505050565b3373ffffffffffffffffffffffffffffffffffffffff166004600084815260200190815260200160002060030160009054906101000a900473ffffffffffffffffffffffffffffffffffffffff1673ffffffffffffffffffffffffffffffffffffffff161461067b576040517f08c379a0000000000000000000000000000000000000000000000000000000008152600401610672906120d0565b60405180910390fd5b600081116106be576040517f08c379a00000000000000000000000000000000000000000000000000000000081526004016106b59061213c565b60405180910390fd5b8060046000848152602001908152602001600020600401819055505050565b6106e561192a565b600560008381526020019081526020016000206040518060a0016040529081600082015481526020016001820160009054906101000a900473ffffffffffffffffffffffffffffffffffffffff1673ffffffffffffffffffffffffffffffffffffffff1673ffffffffffffffffffffffffffffffffffffffff16815260200160028201548152602001600382015481526020016004820160009054906101000a900460ff1615151515815250509050919050565b6107a1611971565b600460008381526020019081526020016000206040518060e0016040529081600082015481526020016001820160009054906101000a900473ffffffffffffffffffffffffffffffffffffffff1673ffffffffffffffffffffffffffffffffffffffff1673ffffffffffffffffffffffffffffffffffffffff168152602001600282015481526020016003820160009054906101000a900473ffffffffffffffffffffffffffffffffffffffff1673ffffffffffffffffffffffffffffffffffffffff1673ffffffffffffffffffffffffffffffffffffffff168152602001600482015481526020016005820160009054906101000a900460ff161515151581526020016006820154815250509050919050565b6000600160009054906101000a900473ffffffffffffffffffffffffffffffffffffffff16905090565b3373ffffffffffffffffffffffffffffffffffffffff166004600084815260200190815260200160002060030160009054906101000a900473ffffffffffffffffffffffffffffffffffffffff1673ffffffffffffffffffffffffffffffffffffffff1614610983576040517f08c379a000000000000000000000000000000000000000000000000000000000815260040161097a906120d0565b60405180910390fd5b806004600084815260200190815260200160002060050160006101000a81548160ff0219169083151502179055507f872e712a215bd5c02884ce4d357f3a4689e5eaa73e7d35fc9ad684ac3b59c391600460008481526020019081526020016000206040516109f29190612305565b60405180910390a15050565b60006005600083815260200190815260200160002090506000600460008360020154815260200190815260200160002090503373ffffffffffffffffffffffffffffffffffffffff168160030160009054906101000a900473ffffffffffffffffffffffffffffffffffffffff1673ffffffffffffffffffffffffffffffffffffffff1614610ac2576040517f08c379a0000000000000000000000000000000000000000000000000000000008152600401610ab9906120d0565b60405180910390fd5b8160040160009054906101000a900460ff16610b13576040517f08c379a0000000000000000000000000000000000000000000000000000000008152600401610b0a9061236c565b60405180910390fd5b610b408260010160009054906101000a900473ffffffffffffffffffffffffffffffffffffffff16611884565b82600301541115610b86576040517f08c379a0000000000000000000000000000000000000000000000000000000008152600401610b7d906123fe565b60405180910390fd5b6000606482600601548460030154610b9e919061244d565b610ba891906124d6565b905060008054906101000a900473ffffffffffffffffffffffffffffffffffffffff1673ffffffffffffffffffffffffffffffffffffffff166323b872dd8460010160009054906101000a900473ffffffffffffffffffffffffffffffffffffffff168460030160009054906101000a900473ffffffffffffffffffffffffffffffffffffffff16848760030154610c409190612507565b6040518463ffffffff1660e01b8152600401610c5e939291906125a9565b6020604051808303816000875af1158015610c7d573d6000803e3d6000fd5b505050506040513d601f19601f82011682018060405250810190610ca191906125f5565b5060008054906101000a900473ffffffffffffffffffffffffffffffffffffffff1673ffffffffffffffffffffffffffffffffffffffff166323b872dd8460010160009054906101000a900473ffffffffffffffffffffffffffffffffffffffff1630846040518463ffffffff1660e01b8152600401610d2393929190612622565b6020604051808303816000875af1158015610d42573d6000803e3d6000fd5b505050506040513d601f19601f82011682018060405250810190610d6691906125f5565b508473ffffffffffffffffffffffffffffffffffffffff166342842e0e338560010160009054906101000a900473ffffffffffffffffffffffffffffffffffffffff1685600201546040518463ffffffff1660e01b8152600401610dcc93929190612622565b600060405180830381600087803b158015610de657600080fd5b505af1158015610dfa573d6000803e3d6000fd5b505050508260010160009054906101000a900473ffffffffffffffffffffffffffffffffffffffff16600460008560020154815260200190815260200160002060030160006101000a81548173ffffffffffffffffffffffffffffffffffffffff021916908373ffffffffffffffffffffffffffffffffffffffff1602179055507f709b84a3460fbf463071fb2ee858d2e5dec0792679f6ba748f96e8736f0bc32f6004600085600201548152602001908152602001600020604051610ec09190612305565b60405180910390a17f12ff224db97c010c6692e43c2fc8cf291791618c0125cb65094e1a8c365bb61c60056000868152602001908152602001600020604051610f0991906126fa565b60405180910390a15050505050565b60006004600084815260200190815260200160002090508060050160009054906101000a900460ff16610f80576040517f08c379a0000000000000000000000000000000000000000000000000000000008152600401610f7790612761565b60405180910390fd5b8060040154821015610fc7576040517f08c379a0000000000000000000000000000000000000000000000000000000008152600401610fbe906127cd565b60405180910390fd5b806004015460008054906101000a900473ffffffffffffffffffffffffffffffffffffffff1673ffffffffffffffffffffffffffffffffffffffff166370a08231336040518263ffffffff1660e01b81526004016110259190611c4b565b602060405180830381865afa158015611042573d6000803e3d6000fd5b505050506040513d601f19601f820116820180604052508101906110669190611f30565b10156110a7576040517f08c379a000000000000000000000000000000000000000000000000000000000815260040161109e90611fa9565b60405180910390fd5b60006064826006015483600401546110bf919061244d565b6110c991906124d6565b905060008054906101000a900473ffffffffffffffffffffffffffffffffffffffff1673ffffffffffffffffffffffffffffffffffffffff166323b872dd338460030160009054906101000a900473ffffffffffffffffffffffffffffffffffffffff1684866004015461113d9190612507565b6040518463ffffffff1660e01b815260040161115b939291906125a9565b6020604051808303816000875af115801561117a573d6000803e3d6000fd5b505050506040513d601f19601f8201168201806040525081019061119e91906125f5565b5060008054906101000a900473ffffffffffffffffffffffffffffffffffffffff1673ffffffffffffffffffffffffffffffffffffffff166323b872dd3330846040518463ffffffff1660e01b81526004016111fc93929190612622565b6020604051808303816000875af115801561121b573d6000803e3d6000fd5b505050506040513d601f19601f8201168201806040525081019061123f91906125f5565b508473ffffffffffffffffffffffffffffffffffffffff166342842e0e8360030160009054906101000a900473ffffffffffffffffffffffffffffffffffffffff163385600201546040518463ffffffff1660e01b81526004016112a5939291906127ed565b600060405180830381600087803b1580156112bf57600080fd5b505af11580156112d3573d6000803e3d6000fd5b50505050336004600086815260200190815260200160002060030160006101000a81548173ffffffffffffffffffffffffffffffffffffffff021916908373ffffffffffffffffffffffffffffffffffffffff1602179055507f709b84a3460fbf463071fb2ee858d2e5dec0792679f6ba748f96e8736f0bc32f6004600086815260200190815260200160002060405161136d9190612305565b60405180910390a15050505050565b3373ffffffffffffffffffffffffffffffffffffffff166005600083815260200190815260200160002060010160009054906101000a900473ffffffffffffffffffffffffffffffffffffffff1673ffffffffffffffffffffffffffffffffffffffff1614611420576040517f08c379a0000000000000000000000000000000000000000000000000000000008152600401611417906120d0565b60405180910390fd5b60006005600083815260200190815260200160002060040160006101000a81548160ff0219169083151502179055507fc1234f35a1e1e3326c0695929ca16fedd3a111be416dc7726efdac73277a81ab6005600083815260200190815260200160002060405161149091906126fa565b60405180910390a150565b838560008290503373ffffffffffffffffffffffffffffffffffffffff168173ffffffffffffffffffffffffffffffffffffffff16636352211e846040518263ffffffff1660e01b81526004016114f29190612824565b602060405180830381865afa15801561150f573d6000803e3d6000fd5b505050506040513d601f19601f820116820180604052508101906115339190612854565b73ffffffffffffffffffffffffffffffffffffffff161461155357600080fd5b868860008290503073ffffffffffffffffffffffffffffffffffffffff168173ffffffffffffffffffffffffffffffffffffffff1663081812fc846040518263ffffffff1660e01b81526004016115aa9190612824565b602060405180830381865afa1580156115c7573d6000803e3d6000fd5b505050506040513d601f19601f820116820180604052508101906115eb9190612854565b73ffffffffffffffffffffffffffffffffffffffff161461160b57600080fd5b6000891161164e576040517f08c379a00000000000000000000000000000000000000000000000000000000081526004016116459061213c565b60405180910390fd5b600061165a6002611860565b90506000600a9050600160009054906101000a900473ffffffffffffffffffffffffffffffffffffffff1673ffffffffffffffffffffffffffffffffffffffff163373ffffffffffffffffffffffffffffffffffffffff1614156116bd57601e90505b60006040518060e001604052808481526020018e73ffffffffffffffffffffffffffffffffffffffff1681526020018f81526020018b73ffffffffffffffffffffffffffffffffffffffff1681526020018d81526020018c1515815260200183815250905080600460008581526020019081526020016000206000820151816000015560208201518160010160006101000a81548173ffffffffffffffffffffffffffffffffffffffff021916908373ffffffffffffffffffffffffffffffffffffffff1602179055506040820151816002015560608201518160030160006101000a81548173ffffffffffffffffffffffffffffffffffffffff021916908373ffffffffffffffffffffffffffffffffffffffff1602179055506080820151816004015560a08201518160050160006101000a81548160ff02191690831515021790555060c08201518160060155905050611819600261186e565b7f41b861adba3bf38ed2a070632996c17d9cfbb82a9199c192494e9c9558066372816040516118489190611c21565b60405180910390a15050505050505050505050505050565b600081600001549050919050565b6001816000016000828254019250508190555050565b60008060009054906101000a900473ffffffffffffffffffffffffffffffffffffffff1673ffffffffffffffffffffffffffffffffffffffff1663dd62ed3e83306040518363ffffffff1660e01b81526004016118e2929190611fc9565b602060405180830381865afa1580156118ff573d6000803e3d6000fd5b505050506040513d601f19601f820116820180604052508101906119239190611f30565b9050919050565b6040518060a0016040528060008152602001600073ffffffffffffffffffffffffffffffffffffffff16815260200160008152602001600081526020016000151581525090565b6040518060e0016040528060008152602001600073ffffffffffffffffffffffffffffffffffffffff16815260200160008152602001600073ffffffffffffffffffffffffffffffffffffffff16815260200160008152602001600015158152602001600081525090565b600080fd5b6000819050919050565b6119f4816119e1565b81146119ff57600080fd5b50565b600081359050611a11816119eb565b92915050565b60008060408385031215611a2e57611a2d6119dc565b5b6000611a3c85828601611a02565b9250506020611a4d85828601611a02565b9150509250929050565b600060208284031215611a6d57611a6c6119dc565b5b6000611a7b84828501611a02565b91505092915050565b611a8d816119e1565b82525050565b600073ffffffffffffffffffffffffffffffffffffffff82169050919050565b6000611abe82611a93565b9050919050565b611ace81611ab3565b82525050565b60008115159050919050565b611ae981611ad4565b82525050565b60a082016000820151611b056000850182611a84565b506020820151611b186020850182611ac5565b506040820151611b2b6040850182611a84565b506060820151611b3e6060850182611a84565b506080820151611b516080850182611ae0565b50505050565b600060a082019050611b6c6000830184611aef565b92915050565b6000611b7d82611a93565b9050919050565b611b8d81611b72565b82525050565b60e082016000820151611ba96000850182611a84565b506020820151611bbc6020850182611ac5565b506040820151611bcf6040850182611a84565b506060820151611be26060850182611b84565b506080820151611bf56080850182611a84565b5060a0820151611c0860a0850182611ae0565b5060c0820151611c1b60c0850182611a84565b50505050565b600060e082019050611c366000830184611b93565b92915050565b611c4581611ab3565b82525050565b6000602082019050611c606000830184611c3c565b92915050565b611c6f81611ad4565b8114611c7a57600080fd5b50565b600081359050611c8c81611c66565b92915050565b60008060408385031215611ca957611ca86119dc565b5b6000611cb785828601611a02565b9250506020611cc885828601611c7d565b9150509250929050565b611cdb81611ab3565b8114611ce657600080fd5b50565b600081359050611cf881611cd2565b92915050565b60008060408385031215611d1557611d146119dc565b5b6000611d2385828601611ce9565b9250506020611d3485828601611a02565b9150509250929050565b600080600060608486031215611d5757611d566119dc565b5b6000611d6586828701611ce9565b9350506020611d7686828701611a02565b9250506040611d8786828701611a02565b9150509250925092565b600080600080600060a08688031215611dad57611dac6119dc565b5b6000611dbb88828901611a02565b9550506020611dcc88828901611ce9565b9450506040611ddd88828901611a02565b9350506060611dee88828901611c7d565b9250506080611dff88828901611ce9565b9150509295509295909350565b600082825260208201905092915050565b7f4c6973746564206974656d206973204e4f5420616363657074696e67206f666660008201527f6572730000000000000000000000000000000000000000000000000000000000602082015250565b6000611e79602383611e0c565b9150611e8482611e1d565b604082019050919050565b60006020820190508181036000830152611ea881611e6c565b9050919050565b7f4f776e65722063616e6e6f7420637265617465206f6666657200000000000000600082015250565b6000611ee5601983611e0c565b9150611ef082611eaf565b602082019050919050565b60006020820190508181036000830152611f1481611ed8565b9050919050565b600081519050611f2a816119eb565b92915050565b600060208284031215611f4657611f456119dc565b5b6000611f5484828501611f1b565b91505092915050565b7f496e73756666696369656e742052454420746f6b656e2062616c616e63650000600082015250565b6000611f93601e83611e0c565b9150611f9e82611f5d565b602082019050919050565b60006020820190508181036000830152611fc281611f86565b9050919050565b6000604082019050611fde6000830185611c3c565b611feb6020830184611c3c565b9392505050565b7f696e73756666696369656e7420616c6c6f77616e63652c2072652d696e69746960008201527f616c697a652077616c6c65740000000000000000000000000000000000000000602082015250565b600061204e602c83611e0c565b915061205982611ff2565b604082019050919050565b6000602082019050818103600083015261207d81612041565b9050919050565b7f556e617574686f72697a65642075736572000000000000000000000000000000600082015250565b60006120ba601183611e0c565b91506120c582612084565b602082019050919050565b600060208201905081810360008301526120e9816120ad565b9050919050565b7f5072696365206d757374206265206174206c6561737420312052454400000000600082015250565b6000612126601c83611e0c565b9150612131826120f0565b602082019050919050565b6000602082019050818103600083015261215581612119565b9050919050565b60008160001c9050919050565b6000819050919050565b60006121866121818361215c565b612169565b9050919050565b600073ffffffffffffffffffffffffffffffffffffffff82169050919050565b60006121c06121bb8361215c565b61218d565b9050919050565b600073ffffffffffffffffffffffffffffffffffffffff82169050919050565b60006121fa6121f58361215c565b6121c7565b9050919050565b600060ff82169050919050565b600061222161221c8361215c565b612201565b9050919050565b60e08201600080830154905061223d81612173565b61224a6000860182611a84565b506001830154905061225b816121ad565b6122686020860182611ac5565b506002830154905061227981612173565b6122866040860182611a84565b5060038301549050612297816121e7565b6122a46060860182611b84565b50600483015490506122b581612173565b6122c26080860182611a84565b50600583015490506122d38161220e565b6122e060a0860182611ae0565b50600683015490506122f181612173565b6122fe60c0860182611a84565b5050505050565b600060e08201905061231a6000830184612228565b92915050565b7f4f6666657220697320636c6f7365640000000000000000000000000000000000600082015250565b6000612356600f83611e0c565b915061236182612320565b602082019050919050565b6000602082019050818103600083015261238581612349565b9050919050565b7f546f6b656e207472616e73666572206e6f7420617070726f766564206279207460008201527f6865206f666665722063726561746f7200000000000000000000000000000000602082015250565b60006123e8603083611e0c565b91506123f38261238c565b604082019050919050565b60006020820190508181036000830152612417816123db565b9050919050565b7f4e487b7100000000000000000000000000000000000000000000000000000000600052601160045260246000fd5b6000612458826119e1565b9150612463836119e1565b9250817fffffffffffffffffffffffffffffffffffffffffffffffffffffffffffffffff048311821515161561249c5761249b61241e565b5b828202905092915050565b7f4e487b7100000000000000000000000000000000000000000000000000000000600052601260045260246000fd5b60006124e1826119e1565b91506124ec836119e1565b9250826124fc576124fb6124a7565b5b828204905092915050565b6000612512826119e1565b915061251d836119e1565b9250828210156125305761252f61241e565b5b828203905092915050565b6000819050919050565b600061256061255b61255684611a93565b61253b565b611a93565b9050919050565b600061257282612545565b9050919050565b600061258482612567565b9050919050565b61259481612579565b82525050565b6125a3816119e1565b82525050565b60006060820190506125be6000830186611c3c565b6125cb602083018561258b565b6125d8604083018461259a565b949350505050565b6000815190506125ef81611c66565b92915050565b60006020828403121561260b5761260a6119dc565b5b6000612619848285016125e0565b91505092915050565b60006060820190506126376000830186611c3c565b6126446020830185611c3c565b612651604083018461259a565b949350505050565b60a08201600080830154905061266e81612173565b61267b6000860182611a84565b506001830154905061268c816121ad565b6126996020860182611ac5565b50600283015490506126aa81612173565b6126b76040860182611a84565b50600383015490506126c881612173565b6126d56060860182611a84565b50600483015490506126e68161220e565b6126f36080860182611ae0565b5050505050565b600060a08201905061270f6000830184612659565b92915050565b7f4c6973746564206974656d206973204e4f5420666f722073616c650000000000600082015250565b600061274b601b83611e0c565b915061275682612715565b602082019050919050565b6000602082019050818103600083015261277a8161273e565b9050919050565b7f496e73756666696369656e742052454420746f6b656e20616d6f756e74000000600082015250565b60006127b7601d83611e0c565b91506127c282612781565b602082019050919050565b600060208201905081810360008301526127e6816127aa565b9050919050565b6000606082019050612802600083018661258b565b61280f6020830185611c3c565b61281c604083018461259a565b949350505050565b6000602082019050612839600083018461259a565b92915050565b60008151905061284e81611cd2565b92915050565b60006020828403121561286a576128696119dc565b5b60006128788482850161283f565b9150509291505056fea2646970667358221220265baddbbd009ed4596be49902d2b14fe2b5f44ff5ad1b007eba2eaa9833b56f64736f6c634300080b0033",
  "immutableReferences": {},
  "source": "// SPDX-License-Identifier: MIT\npragma solidity ^0.8.4;\n\nimport \"@openzeppelin/contracts/token/ERC721/IERC721.sol\";\nimport \"@openzeppelin/contracts/utils/Counters.sol\";\nimport \"@openzeppelin/contracts/token/ERC20/ERC20.sol\";\nimport \"@openzeppelin/contracts/token/ERC20/IERC20.sol\";\n\ncontract RedMarketplace {\n    using Counters for Counters.Counter;\n\n    IERC20 redToken;\n    address redMinterAddress = 0x01Dc00E095788275224187812B3f92f5eF8dD069; // TODO\n\n    struct ListingItem {\n        uint256 itemId;\n        address tokenAddress;\n        uint256 tokenId;\n        address payable owner;\n        uint256 askingPrice;\n        bool isForSale;\n        uint256 listingFee;\n    }\n\n    struct Offer {\n        uint256 offerId;\n        address creator;\n        uint256 itemId;\n        uint256 amount;\n        bool isOfferOpen;\n    }\n\n    constructor(address redTokenAddress) {\n        redToken = IERC20(redTokenAddress); // Token Address\n    }\n\n    Counters.Counter private _listingIdCounter;\n    Counters.Counter private _offerIdCounter;\n    mapping(uint256 => ListingItem) private items;\n    mapping(uint256 => Offer) private offers;\n\n    event itemAdded(ListingItem item);\n    event listingUpdated(ListingItem item);\n    event itemSold(ListingItem item);\n    event offerCreated(Offer offer);\n    event offerAccepted(Offer offer);\n    event offerCancelled(Offer offer);\n\n    modifier OnlyItemOwner(address tokenAddress, uint256 tokenId) {\n        IERC721 nftContract = IERC721(tokenAddress);\n        require(nftContract.ownerOf(tokenId) == msg.sender);\n        _;\n    }\n\n    modifier HasTransferApproval(address tokenAddress, uint256 tokenId) {\n        IERC721 nftContract = IERC721(tokenAddress);\n        require(nftContract.getApproved(tokenId) == address(this));\n        _;\n    }\n\n    function getRedMinterAddress() public view returns (address) {\n        return redMinterAddress;\n    }\n\n    function listItem(\n        uint256 tokenId,\n        address tokenAddress,\n        uint256 askingPrice,\n        bool isForSale,\n        address owner\n    )\n        external\n        OnlyItemOwner(tokenAddress, tokenId)\n        HasTransferApproval(tokenAddress, tokenId)\n    {\n        require(askingPrice > 0, \"Price must be at least 1 RED\");\n        uint256 listingId = _listingIdCounter.current();\n        uint256 listingFee = 10;\n        if (msg.sender == redMinterAddress) {\n            listingFee = 30;\n        }\n        ListingItem memory listing = ListingItem(\n            listingId,\n            tokenAddress,\n            tokenId,\n            payable(owner),\n            askingPrice,\n            isForSale,\n            listingFee\n        );\n        items[listingId] = listing;\n        _listingIdCounter.increment();\n        emit itemAdded(listing);\n    }\n\n    function updateAskingPrice(uint256 listingId, uint256 askingPrice)\n        external\n    {\n        require(items[listingId].owner == msg.sender, \"Unauthorized user\");\n        require(askingPrice > 0, \"Price must be at least 1 RED\");\n        items[listingId].askingPrice = askingPrice;\n    }\n\n    function updateListingStatus(uint256 listingId, bool listingStatus)\n        external\n    {\n        require(items[listingId].owner == msg.sender, \"Unauthorized user\");\n        items[listingId].isForSale = listingStatus;\n        emit listingUpdated(items[listingId]);\n    }\n\n    function createOffer(uint256 listingId, uint256 amount) external {\n        ListingItem storage listing = items[listingId];\n        require(listing.isForSale, \"Listed item is NOT accepting offers\");\n        require(listing.owner != msg.sender, \"Owner cannot create offer\");\n        require(\n            redToken.balanceOf(msg.sender) >= listing.askingPrice,\n            \"Insufficient RED token balance\"\n        );\n        uint256 offerId = _offerIdCounter.current();\n        _offerIdCounter.increment();\n        Offer memory offer = Offer(\n            offerId,\n            msg.sender,\n            listingId,\n            amount,\n            true\n        );\n        offers[offerId] = offer;\n        //uint256 listingFee = (amount * listing.listingFee) / 100;\n        require(\n            redToken.allowance(offer.creator, address(this)) > amount,\n            \"insufficient allowance, re-initialize wallet\"\n        );\n        //redToken.approve(redMinterAddress, listingFee);\n        emit offerCreated(offer);\n    }\n\n    function cancelOffer(uint256 offerId) external {\n        require(offers[offerId].creator == msg.sender, \"Unauthorized user\");\n        offers[offerId].isOfferOpen = false;\n        emit offerCancelled(offers[offerId]);\n    }\n\n    function getAllowance(address offerCreator)\n        internal\n        view\n        returns (uint256)\n    {\n        return redToken.allowance(offerCreator, address(this));\n    }\n\n    function acceptOffer(address _nftContract, uint256 offerId) external {\n        Offer storage offer = offers[offerId];\n        ListingItem storage listing = items[offer.itemId];\n        require(listing.owner == msg.sender, \"Unauthorized user\");\n        require(offer.isOfferOpen, \"Offer is closed\");\n        require(\n            offer.amount <= getAllowance(offer.creator),\n            \"Token transfer not approved by the offer creator\"\n        );\n        uint256 listingFee = (offer.amount * listing.listingFee) / 100;\n        redToken.transferFrom(\n            offer.creator,\n            listing.owner,\n            offer.amount - listingFee\n        );\n        redToken.transferFrom(offer.creator, address(this), listingFee);\n        IERC721(_nftContract).safeTransferFrom(\n            msg.sender,\n            offer.creator,\n            listing.tokenId\n        );\n        items[offer.itemId].owner = payable(offer.creator);\n        emit itemSold(items[offer.itemId]);\n        emit offerAccepted(offers[offerId]);\n    }\n\n    function buyNow(\n        address _nftContract,\n        uint256 listingId,\n        uint256 amount\n    ) external {\n        ListingItem storage listing = items[listingId];\n        require(listing.isForSale, \"Listed item is NOT for sale\");\n        require(amount >= listing.askingPrice, \"Insufficient RED token amount\");\n        require(\n            redToken.balanceOf(msg.sender) >= listing.askingPrice,\n            \"Insufficient RED token balance\"\n        );\n        uint256 listingFee = (listing.askingPrice * listing.listingFee) / 100;\n        redToken.transferFrom(\n            msg.sender,\n            listing.owner,\n            listing.askingPrice - listingFee\n        );\n        redToken.transferFrom(msg.sender, address(this), listingFee);\n\n        IERC721(_nftContract).safeTransferFrom(\n            listing.owner,\n            msg.sender,\n            listing.tokenId\n        );\n        items[listingId].owner = payable(msg.sender);\n        emit itemSold(items[listingId]);\n    }\n\n    function getListingById(uint256 listingId)\n        public\n        view\n        returns (ListingItem memory)\n    {\n        return items[listingId];\n    }\n\n    function getOfferById(uint256 offerId) public view returns (Offer memory) {\n        return offers[offerId];\n    }\n}\n",
  "sourcePath": "/Users/noel/workspace/manak/RedNFTcontracts/contracts/RedMarketplace.sol",
  "compiler": {
    "name": "solc",
    "version": "0.8.11+commit.d7f03943.Emscripten.clang"
  },
  "schemaVersion": "3.4.5",
  "updatedAt": "2022-04-26T14:52:09.938Z",
  "networkType": "ethereum",
  "devdoc": {
    "kind": "dev",
    "methods": {},
    "version": 1
  },
  "userdoc": {
    "kind": "user",
    "methods": {},
    "version": 1
  }
}