{
  "contractName": "RedMarketplace",
  "abi": [
    {
      "inputs": [
        {
          "internalType": "address",
          "name": "redTokenAddress",
          "type": "address"
        }
      ],
      "stateMutability": "nonpayable",
      "type": "constructor"
    },
    {
      "anonymous": false,
      "inputs": [
        {
          "components": [
            {
              "internalType": "uint256",
              "name": "itemId",
              "type": "uint256"
            },
            {
              "internalType": "address",
              "name": "tokenAddress",
              "type": "address"
            },
            {
              "internalType": "uint256",
              "name": "tokenId",
              "type": "uint256"
            },
            {
              "internalType": "address payable",
              "name": "owner",
              "type": "address"
            },
            {
              "internalType": "uint256",
              "name": "askingPrice",
              "type": "uint256"
            },
            {
              "internalType": "bool",
              "name": "isForSale",
              "type": "bool"
            },
            {
              "internalType": "uint256",
              "name": "listingFee",
              "type": "uint256"
            }
          ],
          "indexed": false,
          "internalType": "struct RedMarketplace.ListingItem",
          "name": "item",
          "type": "tuple"
        }
      ],
      "name": "itemAdded",
      "type": "event"
    },
    {
      "anonymous": false,
      "inputs": [
        {
          "components": [
            {
              "internalType": "uint256",
              "name": "itemId",
              "type": "uint256"
            },
            {
              "internalType": "address",
              "name": "tokenAddress",
              "type": "address"
            },
            {
              "internalType": "uint256",
              "name": "tokenId",
              "type": "uint256"
            },
            {
              "internalType": "address payable",
              "name": "owner",
              "type": "address"
            },
            {
              "internalType": "uint256",
              "name": "askingPrice",
              "type": "uint256"
            },
            {
              "internalType": "bool",
              "name": "isForSale",
              "type": "bool"
            },
            {
              "internalType": "uint256",
              "name": "listingFee",
              "type": "uint256"
            }
          ],
          "indexed": false,
          "internalType": "struct RedMarketplace.ListingItem",
          "name": "item",
          "type": "tuple"
        }
      ],
      "name": "itemSold",
      "type": "event"
    },
    {
      "anonymous": false,
      "inputs": [
        {
          "components": [
            {
              "internalType": "uint256",
              "name": "itemId",
              "type": "uint256"
            },
            {
              "internalType": "address",
              "name": "tokenAddress",
              "type": "address"
            },
            {
              "internalType": "uint256",
              "name": "tokenId",
              "type": "uint256"
            },
            {
              "internalType": "address payable",
              "name": "owner",
              "type": "address"
            },
            {
              "internalType": "uint256",
              "name": "askingPrice",
              "type": "uint256"
            },
            {
              "internalType": "bool",
              "name": "isForSale",
              "type": "bool"
            },
            {
              "internalType": "uint256",
              "name": "listingFee",
              "type": "uint256"
            }
          ],
          "indexed": false,
          "internalType": "struct RedMarketplace.ListingItem",
          "name": "item",
          "type": "tuple"
        }
      ],
      "name": "listingUpdated",
      "type": "event"
    },
    {
      "anonymous": false,
      "inputs": [
        {
          "components": [
            {
              "internalType": "uint256",
              "name": "offerId",
              "type": "uint256"
            },
            {
              "internalType": "address",
              "name": "creator",
              "type": "address"
            },
            {
              "internalType": "uint256",
              "name": "itemId",
              "type": "uint256"
            },
            {
              "internalType": "uint256",
              "name": "amount",
              "type": "uint256"
            },
            {
              "internalType": "bool",
              "name": "isOfferOpen",
              "type": "bool"
            }
          ],
          "indexed": false,
          "internalType": "struct RedMarketplace.Offer",
          "name": "offer",
          "type": "tuple"
        }
      ],
      "name": "offerAccepted",
      "type": "event"
    },
    {
      "anonymous": false,
      "inputs": [
        {
          "components": [
            {
              "internalType": "uint256",
              "name": "offerId",
              "type": "uint256"
            },
            {
              "internalType": "address",
              "name": "creator",
              "type": "address"
            },
            {
              "internalType": "uint256",
              "name": "itemId",
              "type": "uint256"
            },
            {
              "internalType": "uint256",
              "name": "amount",
              "type": "uint256"
            },
            {
              "internalType": "bool",
              "name": "isOfferOpen",
              "type": "bool"
            }
          ],
          "indexed": false,
          "internalType": "struct RedMarketplace.Offer",
          "name": "offer",
          "type": "tuple"
        }
      ],
      "name": "offerCancelled",
      "type": "event"
    },
    {
      "anonymous": false,
      "inputs": [
        {
          "components": [
            {
              "internalType": "uint256",
              "name": "offerId",
              "type": "uint256"
            },
            {
              "internalType": "address",
              "name": "creator",
              "type": "address"
            },
            {
              "internalType": "uint256",
              "name": "itemId",
              "type": "uint256"
            },
            {
              "internalType": "uint256",
              "name": "amount",
              "type": "uint256"
            },
            {
              "internalType": "bool",
              "name": "isOfferOpen",
              "type": "bool"
            }
          ],
          "indexed": false,
          "internalType": "struct RedMarketplace.Offer",
          "name": "offer",
          "type": "tuple"
        }
      ],
      "name": "offerCreated",
      "type": "event"
    },
    {
      "inputs": [],
      "name": "getRedMinterAddress",
      "outputs": [
        {
          "internalType": "address",
          "name": "",
          "type": "address"
        }
      ],
      "stateMutability": "view",
      "type": "function",
      "constant": true
    },
    {
      "inputs": [
        {
          "internalType": "uint256",
          "name": "tokenId",
          "type": "uint256"
        },
        {
          "internalType": "address",
          "name": "tokenAddress",
          "type": "address"
        },
        {
          "internalType": "uint256",
          "name": "askingPrice",
          "type": "uint256"
        },
        {
          "internalType": "bool",
          "name": "isForSale",
          "type": "bool"
        },
        {
          "internalType": "address",
          "name": "owner",
          "type": "address"
        }
      ],
      "name": "listItem",
      "outputs": [],
      "stateMutability": "nonpayable",
      "type": "function"
    },
    {
      "inputs": [
        {
          "internalType": "uint256",
          "name": "listingId",
          "type": "uint256"
        },
        {
          "internalType": "uint256",
          "name": "askingPrice",
          "type": "uint256"
        }
      ],
      "name": "updateAskingPrice",
      "outputs": [],
      "stateMutability": "nonpayable",
      "type": "function"
    },
    {
      "inputs": [
        {
          "internalType": "uint256",
          "name": "listingId",
          "type": "uint256"
        },
        {
          "internalType": "bool",
          "name": "listingStatus",
          "type": "bool"
        },
        {
          "internalType": "uint256",
          "name": "askingPrice",
          "type": "uint256"
        }
      ],
      "name": "updateListingStatus",
      "outputs": [],
      "stateMutability": "nonpayable",
      "type": "function"
    },
    {
      "inputs": [
        {
          "internalType": "uint256",
          "name": "listingId",
          "type": "uint256"
        },
        {
          "internalType": "uint256",
          "name": "amount",
          "type": "uint256"
        }
      ],
      "name": "createOffer",
      "outputs": [],
      "stateMutability": "nonpayable",
      "type": "function"
    },
    {
      "inputs": [
        {
          "internalType": "uint256",
          "name": "offerId",
          "type": "uint256"
        }
      ],
      "name": "cancelOffer",
      "outputs": [],
      "stateMutability": "nonpayable",
      "type": "function"
    },
    {
      "inputs": [
        {
          "internalType": "address",
          "name": "_nftContract",
          "type": "address"
        },
        {
          "internalType": "uint256",
          "name": "offerId",
          "type": "uint256"
        }
      ],
      "name": "acceptOffer",
      "outputs": [],
      "stateMutability": "nonpayable",
      "type": "function"
    },
    {
      "inputs": [
        {
          "internalType": "address",
          "name": "_nftContract",
          "type": "address"
        },
        {
          "internalType": "uint256",
          "name": "listingId",
          "type": "uint256"
        },
        {
          "internalType": "uint256",
          "name": "amount",
          "type": "uint256"
        }
      ],
      "name": "buyNow",
      "outputs": [],
      "stateMutability": "nonpayable",
      "type": "function"
    },
    {
      "inputs": [
        {
          "internalType": "address",
          "name": "userAddress",
          "type": "address"
        },
        {
          "internalType": "bool",
          "name": "status",
          "type": "bool"
        }
      ],
      "name": "updateBlacklistUser",
      "outputs": [],
      "stateMutability": "nonpayable",
      "type": "function"
    },
    {
      "inputs": [
        {
          "internalType": "uint256",
          "name": "listingId",
          "type": "uint256"
        }
      ],
      "name": "getListingById",
      "outputs": [
        {
          "components": [
            {
              "internalType": "uint256",
              "name": "itemId",
              "type": "uint256"
            },
            {
              "internalType": "address",
              "name": "tokenAddress",
              "type": "address"
            },
            {
              "internalType": "uint256",
              "name": "tokenId",
              "type": "uint256"
            },
            {
              "internalType": "address payable",
              "name": "owner",
              "type": "address"
            },
            {
              "internalType": "uint256",
              "name": "askingPrice",
              "type": "uint256"
            },
            {
              "internalType": "bool",
              "name": "isForSale",
              "type": "bool"
            },
            {
              "internalType": "uint256",
              "name": "listingFee",
              "type": "uint256"
            }
          ],
          "internalType": "struct RedMarketplace.ListingItem",
          "name": "",
          "type": "tuple"
        }
      ],
      "stateMutability": "view",
      "type": "function",
      "constant": true
    },
    {
      "inputs": [
        {
          "internalType": "uint256",
          "name": "offerId",
          "type": "uint256"
        }
      ],
      "name": "getOfferById",
      "outputs": [
        {
          "components": [
            {
              "internalType": "uint256",
              "name": "offerId",
              "type": "uint256"
            },
            {
              "internalType": "address",
              "name": "creator",
              "type": "address"
            },
            {
              "internalType": "uint256",
              "name": "itemId",
              "type": "uint256"
            },
            {
              "internalType": "uint256",
              "name": "amount",
              "type": "uint256"
            },
            {
              "internalType": "bool",
              "name": "isOfferOpen",
              "type": "bool"
            }
          ],
          "internalType": "struct RedMarketplace.Offer",
          "name": "",
          "type": "tuple"
        }
      ],
      "stateMutability": "view",
      "type": "function",
      "constant": true
    }
  ],
  "bytecode": "0x60806040523480156200001157600080fd5b50604051620030f7380380620030f7833981810160405281019062000037919062000129565b806000806101000a81548173ffffffffffffffffffffffffffffffffffffffff021916908373ffffffffffffffffffffffffffffffffffffffff16021790555033600160006101000a81548173ffffffffffffffffffffffffffffffffffffffff021916908373ffffffffffffffffffffffffffffffffffffffff160217905550506200015b565b600080fd5b600073ffffffffffffffffffffffffffffffffffffffff82169050919050565b6000620000f182620000c4565b9050919050565b6200010381620000e4565b81146200010f57600080fd5b50565b6000815190506200012381620000f8565b92915050565b600060208284031215620001425762000141620000bf565b5b6000620001528482850162000112565b91505092915050565b612f8c806200016b6000396000f3fe608060405234801561001057600080fd5b50600436106100a95760003560e01c80635071c51f116100715780635071c51f146101625780638f1b262814610180578063b1b9e78d1461019c578063df7ed279146101b8578063ef706adf146101d4578063f8b7ae0c146101f0576100a9565b80631afed875146100ae57806329d0eb34146100ca57806338931883146100e65780634f85310f146101165780634f97df9614610146575b600080fd5b6100c860048036038101906100c39190611fc1565b61020c565b005b6100e460048036038101906100df9190611fc1565b610687565b005b61010060048036038101906100fb9190612001565b61081a565b60405161010d9190612101565b60405180910390f35b610130600480360381019061012b9190612001565b6108d6565b60405161013d91906121cb565b60405180910390f35b610160600480360381019061015b9190612212565b6109f2565b005b61016a610bfd565b6040516101779190612274565b60405180910390f35b61019a600480360381019061019591906122bb565b610c27565b005b6101b660048036038101906101b191906122fb565b610d12565b005b6101d260048036038101906101cd919061233b565b6112ec565b005b6101ee60048036038101906101e99190612001565b61180c565b005b61020a6004803603810190610205919061238e565b6119b8565b005b600660003373ffffffffffffffffffffffffffffffffffffffff1673ffffffffffffffffffffffffffffffffffffffff16815260200190815260200160002060009054906101000a900460ff1615610299576040517f08c379a000000000000000000000000000000000000000000000000000000000815260040161029090612466565b60405180910390fd5b60006004600084815260200190815260200160002090508060050160009054906101000a900460ff16610301576040517f08c379a00000000000000000000000000000000000000000000000000000000081526004016102f8906124f8565b60405180910390fd5b3373ffffffffffffffffffffffffffffffffffffffff168160030160009054906101000a900473ffffffffffffffffffffffffffffffffffffffff1673ffffffffffffffffffffffffffffffffffffffff161415610394576040517f08c379a000000000000000000000000000000000000000000000000000000000815260040161038b90612564565b60405180910390fd5b806004015460008054906101000a900473ffffffffffffffffffffffffffffffffffffffff1673ffffffffffffffffffffffffffffffffffffffff166370a08231336040518263ffffffff1660e01b81526004016103f29190612274565b602060405180830381865afa15801561040f573d6000803e3d6000fd5b505050506040513d601f19601f820116820180604052508101906104339190612599565b1015610474576040517f08c379a000000000000000000000000000000000000000000000000000000000815260040161046b90612612565b60405180910390fd5b8160008054906101000a900473ffffffffffffffffffffffffffffffffffffffff1673ffffffffffffffffffffffffffffffffffffffff1663dd62ed3e33306040518363ffffffff1660e01b81526004016104d0929190612632565b602060405180830381865afa1580156104ed573d6000803e3d6000fd5b505050506040513d601f19601f820116820180604052508101906105119190612599565b11610551576040517f08c379a0000000000000000000000000000000000000000000000000000000008152600401610548906126cd565b60405180910390fd5b600061055d6003611e0a565b90506105696003611e18565b60006040518060a001604052808381526020013373ffffffffffffffffffffffffffffffffffffffff16815260200186815260200185815260200160011515815250905080600560008481526020019081526020016000206000820151816000015560208201518160010160006101000a81548173ffffffffffffffffffffffffffffffffffffffff021916908373ffffffffffffffffffffffffffffffffffffffff160217905550604082015181600201556060820151816003015560808201518160040160006101000a81548160ff0219169083151502179055509050507f34789e06f24fa565512b9bb51cce0b6e65c86ca55bffb772a10342676140202d816040516106789190612101565b60405180910390a15050505050565b600660003373ffffffffffffffffffffffffffffffffffffffff1673ffffffffffffffffffffffffffffffffffffffff16815260200190815260200160002060009054906101000a900460ff1615610714576040517f08c379a000000000000000000000000000000000000000000000000000000000815260040161070b90612466565b60405180910390fd5b3373ffffffffffffffffffffffffffffffffffffffff166004600084815260200190815260200160002060030160009054906101000a900473ffffffffffffffffffffffffffffffffffffffff1673ffffffffffffffffffffffffffffffffffffffff16146107b8576040517f08c379a00000000000000000000000000000000000000000000000000000000081526004016107af90612739565b60405180910390fd5b600081116107fb576040517f08c379a00000000000000000000000000000000000000000000000000000000081526004016107f2906127a5565b60405180910390fd5b8060046000848152602001908152602001600020600401819055505050565b610822611ed4565b600560008381526020019081526020016000206040518060a0016040529081600082015481526020016001820160009054906101000a900473ffffffffffffffffffffffffffffffffffffffff1673ffffffffffffffffffffffffffffffffffffffff1673ffffffffffffffffffffffffffffffffffffffff16815260200160028201548152602001600382015481526020016004820160009054906101000a900460ff1615151515815250509050919050565b6108de611f1b565b600460008381526020019081526020016000206040518060e0016040529081600082015481526020016001820160009054906101000a900473ffffffffffffffffffffffffffffffffffffffff1673ffffffffffffffffffffffffffffffffffffffff1673ffffffffffffffffffffffffffffffffffffffff168152602001600282015481526020016003820160009054906101000a900473ffffffffffffffffffffffffffffffffffffffff1673ffffffffffffffffffffffffffffffffffffffff1673ffffffffffffffffffffffffffffffffffffffff168152602001600482015481526020016005820160009054906101000a900460ff161515151581526020016006820154815250509050919050565b600660003373ffffffffffffffffffffffffffffffffffffffff1673ffffffffffffffffffffffffffffffffffffffff16815260200190815260200160002060009054906101000a900460ff1615610a7f576040517f08c379a0000000000000000000000000000000000000000000000000000000008152600401610a7690612466565b60405180910390fd5b3373ffffffffffffffffffffffffffffffffffffffff166004600085815260200190815260200160002060030160009054906101000a900473ffffffffffffffffffffffffffffffffffffffff1673ffffffffffffffffffffffffffffffffffffffff1614610b23576040517f08c379a0000000000000000000000000000000000000000000000000000000008152600401610b1a90612739565b60405180910390fd5b60008111610b66576040517f08c379a0000000000000000000000000000000000000000000000000000000008152600401610b5d906127a5565b60405180910390fd5b816004600085815260200190815260200160002060050160006101000a81548160ff0219169083151502179055508060046000858152602001908152602001600020600401819055507f872e712a215bd5c02884ce4d357f3a4689e5eaa73e7d35fc9ad684ac3b59c39160046000858152602001908152602001600020604051610bf0919061296e565b60405180910390a1505050565b6000600160009054906101000a900473ffffffffffffffffffffffffffffffffffffffff16905090565b3373ffffffffffffffffffffffffffffffffffffffff16600160009054906101000a900473ffffffffffffffffffffffffffffffffffffffff1673ffffffffffffffffffffffffffffffffffffffff1614610cb7576040517f08c379a0000000000000000000000000000000000000000000000000000000008152600401610cae906129d5565b60405180910390fd5b80600660008473ffffffffffffffffffffffffffffffffffffffff1673ffffffffffffffffffffffffffffffffffffffff16815260200190815260200160002060006101000a81548160ff0219169083151502179055505050565b600660003373ffffffffffffffffffffffffffffffffffffffff1673ffffffffffffffffffffffffffffffffffffffff16815260200190815260200160002060009054906101000a900460ff1615610d9f576040517f08c379a0000000000000000000000000000000000000000000000000000000008152600401610d9690612466565b60405180910390fd5b60006005600083815260200190815260200160002090506000600460008360020154815260200190815260200160002090503373ffffffffffffffffffffffffffffffffffffffff168160030160009054906101000a900473ffffffffffffffffffffffffffffffffffffffff1673ffffffffffffffffffffffffffffffffffffffff1614610e63576040517f08c379a0000000000000000000000000000000000000000000000000000000008152600401610e5a90612739565b60405180910390fd5b8160040160009054906101000a900460ff16610eb4576040517f08c379a0000000000000000000000000000000000000000000000000000000008152600401610eab90612a41565b60405180910390fd5b610ee18260010160009054906101000a900473ffffffffffffffffffffffffffffffffffffffff16611e2e565b82600301541115610f27576040517f08c379a0000000000000000000000000000000000000000000000000000000008152600401610f1e90612ad3565b60405180910390fd5b6000606482600601548460030154610f3f9190612b22565b610f499190612bab565b905060008054906101000a900473ffffffffffffffffffffffffffffffffffffffff1673ffffffffffffffffffffffffffffffffffffffff166323b872dd8460010160009054906101000a900473ffffffffffffffffffffffffffffffffffffffff168460030160009054906101000a900473ffffffffffffffffffffffffffffffffffffffff16848760030154610fe19190612bdc565b6040518463ffffffff1660e01b8152600401610fff93929190612c7e565b6020604051808303816000875af115801561101e573d6000803e3d6000fd5b505050506040513d601f19601f820116820180604052508101906110429190612cca565b5060008054906101000a900473ffffffffffffffffffffffffffffffffffffffff1673ffffffffffffffffffffffffffffffffffffffff166323b872dd8460010160009054906101000a900473ffffffffffffffffffffffffffffffffffffffff1630846040518463ffffffff1660e01b81526004016110c493929190612cf7565b6020604051808303816000875af11580156110e3573d6000803e3d6000fd5b505050506040513d601f19601f820116820180604052508101906111079190612cca565b508473ffffffffffffffffffffffffffffffffffffffff166342842e0e338560010160009054906101000a900473ffffffffffffffffffffffffffffffffffffffff1685600201546040518463ffffffff1660e01b815260040161116d93929190612cf7565b600060405180830381600087803b15801561118757600080fd5b505af115801561119b573d6000803e3d6000fd5b505050508260010160009054906101000a900473ffffffffffffffffffffffffffffffffffffffff16600460008560020154815260200190815260200160002060030160006101000a81548173ffffffffffffffffffffffffffffffffffffffff021916908373ffffffffffffffffffffffffffffffffffffffff1602179055506000600460008560020154815260200190815260200160002060050160006101000a81548160ff0219169083151502179055507f709b84a3460fbf463071fb2ee858d2e5dec0792679f6ba748f96e8736f0bc32f6004600085600201548152602001908152602001600020604051611294919061296e565b60405180910390a17f12ff224db97c010c6692e43c2fc8cf291791618c0125cb65094e1a8c365bb61c600560008681526020019081526020016000206040516112dd9190612dcf565b60405180910390a15050505050565b600660003373ffffffffffffffffffffffffffffffffffffffff1673ffffffffffffffffffffffffffffffffffffffff16815260200190815260200160002060009054906101000a900460ff1615611379576040517f08c379a000000000000000000000000000000000000000000000000000000000815260040161137090612466565b60405180910390fd5b60006004600084815260200190815260200160002090508060050160009054906101000a900460ff166113e1576040517f08c379a00000000000000000000000000000000000000000000000000000000081526004016113d890612e36565b60405180910390fd5b8060040154821015611428576040517f08c379a000000000000000000000000000000000000000000000000000000000815260040161141f90612ea2565b60405180910390fd5b806004015460008054906101000a900473ffffffffffffffffffffffffffffffffffffffff1673ffffffffffffffffffffffffffffffffffffffff166370a08231336040518263ffffffff1660e01b81526004016114869190612274565b602060405180830381865afa1580156114a3573d6000803e3d6000fd5b505050506040513d601f19601f820116820180604052508101906114c79190612599565b1015611508576040517f08c379a00000000000000000000000000000000000000000000000000000000081526004016114ff90612612565b60405180910390fd5b60006064826006015483600401546115209190612b22565b61152a9190612bab565b905060008054906101000a900473ffffffffffffffffffffffffffffffffffffffff1673ffffffffffffffffffffffffffffffffffffffff166323b872dd338460030160009054906101000a900473ffffffffffffffffffffffffffffffffffffffff1684866004015461159e9190612bdc565b6040518463ffffffff1660e01b81526004016115bc93929190612c7e565b6020604051808303816000875af11580156115db573d6000803e3d6000fd5b505050506040513d601f19601f820116820180604052508101906115ff9190612cca565b5060008054906101000a900473ffffffffffffffffffffffffffffffffffffffff1673ffffffffffffffffffffffffffffffffffffffff166323b872dd3330846040518463ffffffff1660e01b815260040161165d93929190612cf7565b6020604051808303816000875af115801561167c573d6000803e3d6000fd5b505050506040513d601f19601f820116820180604052508101906116a09190612cca565b508473ffffffffffffffffffffffffffffffffffffffff166342842e0e8360030160009054906101000a900473ffffffffffffffffffffffffffffffffffffffff163385600201546040518463ffffffff1660e01b815260040161170693929190612ec2565b600060405180830381600087803b15801561172057600080fd5b505af1158015611734573d6000803e3d6000fd5b50505050336004600086815260200190815260200160002060030160006101000a81548173ffffffffffffffffffffffffffffffffffffffff021916908373ffffffffffffffffffffffffffffffffffffffff16021790555060006004600086815260200190815260200160002060050160006101000a81548160ff0219169083151502179055507f709b84a3460fbf463071fb2ee858d2e5dec0792679f6ba748f96e8736f0bc32f600460008681526020019081526020016000206040516117fd919061296e565b60405180910390a15050505050565b600660003373ffffffffffffffffffffffffffffffffffffffff1673ffffffffffffffffffffffffffffffffffffffff16815260200190815260200160002060009054906101000a900460ff1615611899576040517f08c379a000000000000000000000000000000000000000000000000000000000815260040161189090612466565b60405180910390fd5b3373ffffffffffffffffffffffffffffffffffffffff166005600083815260200190815260200160002060010160009054906101000a900473ffffffffffffffffffffffffffffffffffffffff1673ffffffffffffffffffffffffffffffffffffffff161461193d576040517f08c379a000000000000000000000000000000000000000000000000000000000815260040161193490612739565b60405180910390fd5b60006005600083815260200190815260200160002060040160006101000a81548160ff0219169083151502179055507fc1234f35a1e1e3326c0695929ca16fedd3a111be416dc7726efdac73277a81ab600560008381526020019081526020016000206040516119ad9190612dcf565b60405180910390a150565b838560008290503373ffffffffffffffffffffffffffffffffffffffff168173ffffffffffffffffffffffffffffffffffffffff16636352211e846040518263ffffffff1660e01b8152600401611a0f9190612ef9565b602060405180830381865afa158015611a2c573d6000803e3d6000fd5b505050506040513d601f19601f82011682018060405250810190611a509190612f29565b73ffffffffffffffffffffffffffffffffffffffff1614611a7057600080fd5b868860008290503073ffffffffffffffffffffffffffffffffffffffff168173ffffffffffffffffffffffffffffffffffffffff1663081812fc846040518263ffffffff1660e01b8152600401611ac79190612ef9565b602060405180830381865afa158015611ae4573d6000803e3d6000fd5b505050506040513d601f19601f82011682018060405250810190611b089190612f29565b73ffffffffffffffffffffffffffffffffffffffff1614611b2857600080fd5b600660003373ffffffffffffffffffffffffffffffffffffffff1673ffffffffffffffffffffffffffffffffffffffff16815260200190815260200160002060009054906101000a900460ff1615611bb5576040517f08c379a0000000000000000000000000000000000000000000000000000000008152600401611bac90612466565b60405180910390fd5b60008911611bf8576040517f08c379a0000000000000000000000000000000000000000000000000000000008152600401611bef906127a5565b60405180910390fd5b6000611c046002611e0a565b90506000600a9050600160009054906101000a900473ffffffffffffffffffffffffffffffffffffffff1673ffffffffffffffffffffffffffffffffffffffff163373ffffffffffffffffffffffffffffffffffffffff161415611c6757601e90505b60006040518060e001604052808481526020018e73ffffffffffffffffffffffffffffffffffffffff1681526020018f81526020018b73ffffffffffffffffffffffffffffffffffffffff1681526020018d81526020018c1515815260200183815250905080600460008581526020019081526020016000206000820151816000015560208201518160010160006101000a81548173ffffffffffffffffffffffffffffffffffffffff021916908373ffffffffffffffffffffffffffffffffffffffff1602179055506040820151816002015560608201518160030160006101000a81548173ffffffffffffffffffffffffffffffffffffffff021916908373ffffffffffffffffffffffffffffffffffffffff1602179055506080820151816004015560a08201518160050160006101000a81548160ff02191690831515021790555060c08201518160060155905050611dc36002611e18565b7f41b861adba3bf38ed2a070632996c17d9cfbb82a9199c192494e9c955806637281604051611df291906121cb565b60405180910390a15050505050505050505050505050565b600081600001549050919050565b6001816000016000828254019250508190555050565b60008060009054906101000a900473ffffffffffffffffffffffffffffffffffffffff1673ffffffffffffffffffffffffffffffffffffffff1663dd62ed3e83306040518363ffffffff1660e01b8152600401611e8c929190612632565b602060405180830381865afa158015611ea9573d6000803e3d6000fd5b505050506040513d601f19601f82011682018060405250810190611ecd9190612599565b9050919050565b6040518060a0016040528060008152602001600073ffffffffffffffffffffffffffffffffffffffff16815260200160008152602001600081526020016000151581525090565b6040518060e0016040528060008152602001600073ffffffffffffffffffffffffffffffffffffffff16815260200160008152602001600073ffffffffffffffffffffffffffffffffffffffff16815260200160008152602001600015158152602001600081525090565b600080fd5b6000819050919050565b611f9e81611f8b565b8114611fa957600080fd5b50565b600081359050611fbb81611f95565b92915050565b60008060408385031215611fd857611fd7611f86565b5b6000611fe685828601611fac565b9250506020611ff785828601611fac565b9150509250929050565b60006020828403121561201757612016611f86565b5b600061202584828501611fac565b91505092915050565b61203781611f8b565b82525050565b600073ffffffffffffffffffffffffffffffffffffffff82169050919050565b60006120688261203d565b9050919050565b6120788161205d565b82525050565b60008115159050919050565b6120938161207e565b82525050565b60a0820160008201516120af600085018261202e565b5060208201516120c2602085018261206f565b5060408201516120d5604085018261202e565b5060608201516120e8606085018261202e565b5060808201516120fb608085018261208a565b50505050565b600060a0820190506121166000830184612099565b92915050565b60006121278261203d565b9050919050565b6121378161211c565b82525050565b60e082016000820151612153600085018261202e565b506020820151612166602085018261206f565b506040820151612179604085018261202e565b50606082015161218c606085018261212e565b50608082015161219f608085018261202e565b5060a08201516121b260a085018261208a565b5060c08201516121c560c085018261202e565b50505050565b600060e0820190506121e0600083018461213d565b92915050565b6121ef8161207e565b81146121fa57600080fd5b50565b60008135905061220c816121e6565b92915050565b60008060006060848603121561222b5761222a611f86565b5b600061223986828701611fac565b935050602061224a868287016121fd565b925050604061225b86828701611fac565b9150509250925092565b61226e8161205d565b82525050565b60006020820190506122896000830184612265565b92915050565b6122988161205d565b81146122a357600080fd5b50565b6000813590506122b58161228f565b92915050565b600080604083850312156122d2576122d1611f86565b5b60006122e0858286016122a6565b92505060206122f1858286016121fd565b9150509250929050565b6000806040838503121561231257612311611f86565b5b6000612320858286016122a6565b925050602061233185828601611fac565b9150509250929050565b60008060006060848603121561235457612353611f86565b5b6000612362868287016122a6565b935050602061237386828701611fac565b925050604061238486828701611fac565b9150509250925092565b600080600080600060a086880312156123aa576123a9611f86565b5b60006123b888828901611fac565b95505060206123c9888289016122a6565b94505060406123da88828901611fac565b93505060606123eb888289016121fd565b92505060806123fc888289016122a6565b9150509295509295909350565b600082825260208201905092915050565b7f5573657220697320626c61636b6c697374656400000000000000000000000000600082015250565b6000612450601383612409565b915061245b8261241a565b602082019050919050565b6000602082019050818103600083015261247f81612443565b9050919050565b7f4c6973746564206974656d206973204e4f5420616363657074696e67206f666660008201527f6572730000000000000000000000000000000000000000000000000000000000602082015250565b60006124e2602383612409565b91506124ed82612486565b604082019050919050565b60006020820190508181036000830152612511816124d5565b9050919050565b7f4f776e65722063616e6e6f7420637265617465206f6666657200000000000000600082015250565b600061254e601983612409565b915061255982612518565b602082019050919050565b6000602082019050818103600083015261257d81612541565b9050919050565b60008151905061259381611f95565b92915050565b6000602082840312156125af576125ae611f86565b5b60006125bd84828501612584565b91505092915050565b7f496e73756666696369656e742052454420746f6b656e2062616c616e63650000600082015250565b60006125fc601e83612409565b9150612607826125c6565b602082019050919050565b6000602082019050818103600083015261262b816125ef565b9050919050565b60006040820190506126476000830185612265565b6126546020830184612265565b9392505050565b7f696e73756666696369656e7420616c6c6f77616e63652c2072652d696e69746960008201527f616c697a652077616c6c65740000000000000000000000000000000000000000602082015250565b60006126b7602c83612409565b91506126c28261265b565b604082019050919050565b600060208201905081810360008301526126e6816126aa565b9050919050565b7f556e617574686f72697a65642075736572000000000000000000000000000000600082015250565b6000612723601183612409565b915061272e826126ed565b602082019050919050565b6000602082019050818103600083015261275281612716565b9050919050565b7f5072696365206d757374206265206174206c6561737420312052454400000000600082015250565b600061278f601c83612409565b915061279a82612759565b602082019050919050565b600060208201905081810360008301526127be81612782565b9050919050565b60008160001c9050919050565b6000819050919050565b60006127ef6127ea836127c5565b6127d2565b9050919050565b600073ffffffffffffffffffffffffffffffffffffffff82169050919050565b6000612829612824836127c5565b6127f6565b9050919050565b600073ffffffffffffffffffffffffffffffffffffffff82169050919050565b600061286361285e836127c5565b612830565b9050919050565b600060ff82169050919050565b600061288a612885836127c5565b61286a565b9050919050565b60e0820160008083015490506128a6816127dc565b6128b3600086018261202e565b50600183015490506128c481612816565b6128d1602086018261206f565b50600283015490506128e2816127dc565b6128ef604086018261202e565b506003830154905061290081612850565b61290d606086018261212e565b506004830154905061291e816127dc565b61292b608086018261202e565b506005830154905061293c81612877565b61294960a086018261208a565b506006830154905061295a816127dc565b61296760c086018261202e565b5050505050565b600060e0820190506129836000830184612891565b92915050565b7f556e617574686f72697a6564206163636f756e74000000000000000000000000600082015250565b60006129bf601483612409565b91506129ca82612989565b602082019050919050565b600060208201905081810360008301526129ee816129b2565b9050919050565b7f4f6666657220697320636c6f7365640000000000000000000000000000000000600082015250565b6000612a2b600f83612409565b9150612a36826129f5565b602082019050919050565b60006020820190508181036000830152612a5a81612a1e565b9050919050565b7f546f6b656e207472616e73666572206e6f7420617070726f766564206279207460008201527f6865206f666665722063726561746f7200000000000000000000000000000000602082015250565b6000612abd603083612409565b9150612ac882612a61565b604082019050919050565b60006020820190508181036000830152612aec81612ab0565b9050919050565b7f4e487b7100000000000000000000000000000000000000000000000000000000600052601160045260246000fd5b6000612b2d82611f8b565b9150612b3883611f8b565b9250817fffffffffffffffffffffffffffffffffffffffffffffffffffffffffffffffff0483118215151615612b7157612b70612af3565b5b828202905092915050565b7f4e487b7100000000000000000000000000000000000000000000000000000000600052601260045260246000fd5b6000612bb682611f8b565b9150612bc183611f8b565b925082612bd157612bd0612b7c565b5b828204905092915050565b6000612be782611f8b565b9150612bf283611f8b565b925082821015612c0557612c04612af3565b5b828203905092915050565b6000819050919050565b6000612c35612c30612c2b8461203d565b612c10565b61203d565b9050919050565b6000612c4782612c1a565b9050919050565b6000612c5982612c3c565b9050919050565b612c6981612c4e565b82525050565b612c7881611f8b565b82525050565b6000606082019050612c936000830186612265565b612ca06020830185612c60565b612cad6040830184612c6f565b949350505050565b600081519050612cc4816121e6565b92915050565b600060208284031215612ce057612cdf611f86565b5b6000612cee84828501612cb5565b91505092915050565b6000606082019050612d0c6000830186612265565b612d196020830185612265565b612d266040830184612c6f565b949350505050565b60a082016000808301549050612d43816127dc565b612d50600086018261202e565b5060018301549050612d6181612816565b612d6e602086018261206f565b5060028301549050612d7f816127dc565b612d8c604086018261202e565b5060038301549050612d9d816127dc565b612daa606086018261202e565b5060048301549050612dbb81612877565b612dc8608086018261208a565b5050505050565b600060a082019050612de46000830184612d2e565b92915050565b7f4c6973746564206974656d206973204e4f5420666f722073616c650000000000600082015250565b6000612e20601b83612409565b9150612e2b82612dea565b602082019050919050565b60006020820190508181036000830152612e4f81612e13565b9050919050565b7f496e73756666696369656e742052454420746f6b656e20616d6f756e74000000600082015250565b6000612e8c601d83612409565b9150612e9782612e56565b602082019050919050565b60006020820190508181036000830152612ebb81612e7f565b9050919050565b6000606082019050612ed76000830186612c60565b612ee46020830185612265565b612ef16040830184612c6f565b949350505050565b6000602082019050612f0e6000830184612c6f565b92915050565b600081519050612f238161228f565b92915050565b600060208284031215612f3f57612f3e611f86565b5b6000612f4d84828501612f14565b9150509291505056fea26469706673582212201edbfe355f11728fca36ed4a44594f1202f247a570cf6cf0fe5e3a89edfd7e7864736f6c634300080b0033",
  "immutableReferences": {},
  "source": "// SPDX-License-Identifier: MIT\npragma solidity ^0.8.4;\n\nimport \"@openzeppelin/contracts/token/ERC721/IERC721.sol\";\nimport \"@openzeppelin/contracts/utils/Counters.sol\";\nimport \"@openzeppelin/contracts/token/ERC20/ERC20.sol\";\nimport \"@openzeppelin/contracts/token/ERC20/IERC20.sol\";\n\ncontract RedMarketplace {\n    using Counters for Counters.Counter;\n\n    IERC20 redToken;\n\n    struct ListingItem {\n        uint256 itemId;\n        address tokenAddress;\n        uint256 tokenId;\n        address payable owner;\n        uint256 askingPrice;\n        bool isForSale;\n        uint256 listingFee;\n    }\n\n    struct Offer {\n        uint256 offerId;\n        address creator;\n        uint256 itemId;\n        uint256 amount;\n        bool isOfferOpen;\n    }\n\n    address deployerAccount;\n\n    constructor(address redTokenAddress) {\n        redToken = IERC20(redTokenAddress); // Token Address\n        deployerAccount = msg.sender;\n    }\n\n    Counters.Counter private _listingIdCounter;\n    Counters.Counter private _offerIdCounter;\n    mapping(uint256 => ListingItem) private items;\n    mapping(uint256 => Offer) private offers;\n    mapping(address => bool) private isBlacklisted;\n\n    event itemAdded(ListingItem item);\n    event listingUpdated(ListingItem item);\n    event itemSold(ListingItem item);\n    event offerCreated(Offer offer);\n    event offerAccepted(Offer offer);\n    event offerCancelled(Offer offer);\n\n    modifier OnlyItemOwner(address tokenAddress, uint256 tokenId) {\n        IERC721 nftContract = IERC721(tokenAddress);\n        require(nftContract.ownerOf(tokenId) == msg.sender);\n        _;\n    }\n\n    modifier HasTransferApproval(address tokenAddress, uint256 tokenId) {\n        IERC721 nftContract = IERC721(tokenAddress);\n        require(nftContract.getApproved(tokenId) == address(this));\n        _;\n    }\n\n    function getRedMinterAddress() public view returns (address) {\n        return deployerAccount;\n    }\n\n    function listItem(\n        uint256 tokenId,\n        address tokenAddress,\n        uint256 askingPrice,\n        bool isForSale,\n        address owner\n    )\n        external\n        OnlyItemOwner(tokenAddress, tokenId)\n        HasTransferApproval(tokenAddress, tokenId)\n    {\n        require(!isBlacklisted[msg.sender], \"User is blacklisted\");\n        require(askingPrice > 0, \"Price must be at least 1 RED\");\n        uint256 listingId = _listingIdCounter.current();\n        uint256 listingFee = 10;\n        if (msg.sender == deployerAccount) {\n            listingFee = 30;\n        }\n        ListingItem memory listing = ListingItem(\n            listingId,\n            tokenAddress,\n            tokenId,\n            payable(owner),\n            askingPrice,\n            isForSale,\n            listingFee\n        );\n        items[listingId] = listing;\n        _listingIdCounter.increment();\n        emit itemAdded(listing);\n    }\n\n    function updateAskingPrice(uint256 listingId, uint256 askingPrice)\n        external\n    {\n        require(!isBlacklisted[msg.sender], \"User is blacklisted\");\n        require(items[listingId].owner == msg.sender, \"Unauthorized user\");\n        require(askingPrice > 0, \"Price must be at least 1 RED\");\n        items[listingId].askingPrice = askingPrice;\n    }\n\n    function updateListingStatus(\n        uint256 listingId,\n        bool listingStatus,\n        uint256 askingPrice\n    ) external {\n        require(!isBlacklisted[msg.sender], \"User is blacklisted\");\n        require(items[listingId].owner == msg.sender, \"Unauthorized user\");\n        require(askingPrice > 0, \"Price must be at least 1 RED\");\n\n        items[listingId].isForSale = listingStatus;\n        items[listingId].askingPrice = askingPrice;\n\n        emit listingUpdated(items[listingId]);\n    }\n\n    function createOffer(uint256 listingId, uint256 amount) external {\n        require(!isBlacklisted[msg.sender], \"User is blacklisted\");\n        ListingItem storage listing = items[listingId];\n        require(listing.isForSale, \"Listed item is NOT accepting offers\");\n        require(listing.owner != msg.sender, \"Owner cannot create offer\");\n        require(\n            redToken.balanceOf(msg.sender) >= listing.askingPrice,\n            \"Insufficient RED token balance\"\n        );\n        require(\n            redToken.allowance(msg.sender, address(this)) > amount,\n            \"insufficient allowance, re-initialize wallet\"\n        );\n        uint256 offerId = _offerIdCounter.current();\n        _offerIdCounter.increment();\n        Offer memory offer = Offer(\n            offerId,\n            msg.sender,\n            listingId,\n            amount,\n            true\n        );\n        offers[offerId] = offer;\n        emit offerCreated(offer);\n    }\n\n    function cancelOffer(uint256 offerId) external {\n        require(!isBlacklisted[msg.sender], \"User is blacklisted\");\n        require(offers[offerId].creator == msg.sender, \"Unauthorized user\");\n        offers[offerId].isOfferOpen = false;\n        emit offerCancelled(offers[offerId]);\n    }\n\n    function getAllowance(address offerCreator)\n        internal\n        view\n        returns (uint256)\n    {\n        return redToken.allowance(offerCreator, address(this));\n    }\n\n    function acceptOffer(address _nftContract, uint256 offerId) external {\n        require(!isBlacklisted[msg.sender], \"User is blacklisted\");\n        Offer storage offer = offers[offerId];\n        ListingItem storage listing = items[offer.itemId];\n        require(listing.owner == msg.sender, \"Unauthorized user\");\n        require(offer.isOfferOpen, \"Offer is closed\");\n        require(\n            offer.amount <= getAllowance(offer.creator),\n            \"Token transfer not approved by the offer creator\"\n        );\n        uint256 listingFee = (offer.amount * listing.listingFee) / 100;\n        redToken.transferFrom(\n            offer.creator,\n            listing.owner,\n            offer.amount - listingFee\n        );\n        redToken.transferFrom(offer.creator, address(this), listingFee);\n        IERC721(_nftContract).safeTransferFrom(\n            msg.sender,\n            offer.creator,\n            listing.tokenId\n        );\n        items[offer.itemId].owner = payable(offer.creator);\n        items[offer.itemId].isForSale = false;\n        emit itemSold(items[offer.itemId]);\n        emit offerAccepted(offers[offerId]);\n    }\n\n    function buyNow(\n        address _nftContract,\n        uint256 listingId,\n        uint256 amount\n    ) external {\n        require(!isBlacklisted[msg.sender], \"User is blacklisted\");\n        ListingItem storage listing = items[listingId];\n        require(listing.isForSale, \"Listed item is NOT for sale\");\n        require(amount >= listing.askingPrice, \"Insufficient RED token amount\");\n        require(\n            redToken.balanceOf(msg.sender) >= listing.askingPrice,\n            \"Insufficient RED token balance\"\n        );\n        uint256 listingFee = (listing.askingPrice * listing.listingFee) / 100;\n        redToken.transferFrom(\n            msg.sender,\n            listing.owner,\n            listing.askingPrice - listingFee\n        );\n        redToken.transferFrom(msg.sender, address(this), listingFee);\n\n        IERC721(_nftContract).safeTransferFrom(\n            listing.owner,\n            msg.sender,\n            listing.tokenId\n        );\n        items[listingId].owner = payable(msg.sender);\n        items[listingId].isForSale = false;\n        emit itemSold(items[listingId]);\n    }\n\n    function updateBlacklistUser(address userAddress, bool status) external {\n        require(deployerAccount == msg.sender, \"Unauthorized account\");\n        isBlacklisted[userAddress] = status;\n    }\n\n    function getListingById(uint256 listingId)\n        public\n        view\n        returns (ListingItem memory)\n    {\n        return items[listingId];\n    }\n\n    function getOfferById(uint256 offerId) public view returns (Offer memory) {\n        return offers[offerId];\n    }\n}\n",
  "sourcePath": "/Users/noel/workspace/manak/RedNFTcontracts/contracts/RedMarketplace.sol",
  "compiler": {
    "name": "solc",
    "version": "0.8.11+commit.d7f03943.Emscripten.clang"
  },
  "schemaVersion": "3.4.5",
  "updatedAt": "2022-04-29T15:39:20.238Z",
  "networkType": "ethereum",
  "devdoc": {
    "kind": "dev",
    "methods": {},
    "version": 1
  },
  "userdoc": {
    "kind": "user",
    "methods": {},
    "version": 1
  }
}