{
  "contractName": "RedMarketplace",
  "abi": [
    {
      "inputs": [
        {
          "internalType": "address",
          "name": "redTokenAddress",
          "type": "address"
        }
      ],
      "stateMutability": "nonpayable",
      "type": "constructor"
    },
    {
      "anonymous": false,
      "inputs": [
        {
          "components": [
            {
              "internalType": "uint256",
              "name": "itemId",
              "type": "uint256"
            },
            {
              "internalType": "address",
              "name": "tokenAddress",
              "type": "address"
            },
            {
              "internalType": "uint256",
              "name": "tokenId",
              "type": "uint256"
            },
            {
              "internalType": "address payable",
              "name": "owner",
              "type": "address"
            },
            {
              "internalType": "uint256",
              "name": "askingPrice",
              "type": "uint256"
            },
            {
              "internalType": "bool",
              "name": "isForSale",
              "type": "bool"
            },
            {
              "internalType": "uint256",
              "name": "royalty",
              "type": "uint256"
            }
          ],
          "indexed": false,
          "internalType": "struct RedMarketplace.ListingItem",
          "name": "item",
          "type": "tuple"
        }
      ],
      "name": "itemAdded",
      "type": "event"
    },
    {
      "anonymous": false,
      "inputs": [],
      "name": "itemSold",
      "type": "event"
    },
    {
      "inputs": [],
      "name": "getRedMinterAddress",
      "outputs": [
        {
          "internalType": "address",
          "name": "",
          "type": "address"
        }
      ],
      "stateMutability": "view",
      "type": "function",
      "constant": true
    },
    {
      "inputs": [
        {
          "internalType": "uint256",
          "name": "tokenId",
          "type": "uint256"
        },
        {
          "internalType": "address",
          "name": "tokenAddress",
          "type": "address"
        },
        {
          "internalType": "uint256",
          "name": "askingPrice",
          "type": "uint256"
        },
        {
          "internalType": "bool",
          "name": "isForSale",
          "type": "bool"
        },
        {
          "internalType": "address",
          "name": "owner",
          "type": "address"
        }
      ],
      "name": "listItem",
      "outputs": [],
      "stateMutability": "nonpayable",
      "type": "function"
    },
    {
      "inputs": [
        {
          "internalType": "uint256",
          "name": "listingId",
          "type": "uint256"
        },
        {
          "internalType": "uint256",
          "name": "askingPrice",
          "type": "uint256"
        }
      ],
      "name": "updateAskingPrice",
      "outputs": [],
      "stateMutability": "nonpayable",
      "type": "function"
    },
    {
      "inputs": [
        {
          "internalType": "uint256",
          "name": "listingId",
          "type": "uint256"
        }
      ],
      "name": "cancelListing",
      "outputs": [],
      "stateMutability": "nonpayable",
      "type": "function"
    },
    {
      "inputs": [
        {
          "internalType": "uint256",
          "name": "listingId",
          "type": "uint256"
        },
        {
          "internalType": "uint256",
          "name": "amount",
          "type": "uint256"
        }
      ],
      "name": "createOffer",
      "outputs": [],
      "stateMutability": "nonpayable",
      "type": "function"
    },
    {
      "inputs": [
        {
          "internalType": "uint256",
          "name": "offerId",
          "type": "uint256"
        }
      ],
      "name": "cancelOffer",
      "outputs": [],
      "stateMutability": "nonpayable",
      "type": "function"
    },
    {
      "inputs": [
        {
          "internalType": "address",
          "name": "offerCreator",
          "type": "address"
        }
      ],
      "name": "getAllowance",
      "outputs": [
        {
          "internalType": "uint256",
          "name": "",
          "type": "uint256"
        }
      ],
      "stateMutability": "view",
      "type": "function",
      "constant": true
    },
    {
      "inputs": [
        {
          "internalType": "address",
          "name": "_nftContract",
          "type": "address"
        },
        {
          "internalType": "uint256",
          "name": "offerId",
          "type": "uint256"
        }
      ],
      "name": "acceptOffer",
      "outputs": [],
      "stateMutability": "nonpayable",
      "type": "function"
    },
    {
      "inputs": [
        {
          "internalType": "address",
          "name": "_nftContract",
          "type": "address"
        },
        {
          "internalType": "uint256",
          "name": "listingId",
          "type": "uint256"
        },
        {
          "internalType": "uint256",
          "name": "amount",
          "type": "uint256"
        }
      ],
      "name": "buyNow",
      "outputs": [],
      "stateMutability": "nonpayable",
      "type": "function"
    },
    {
      "inputs": [
        {
          "internalType": "uint256",
          "name": "listingId",
          "type": "uint256"
        }
      ],
      "name": "getListingById",
      "outputs": [
        {
          "components": [
            {
              "internalType": "uint256",
              "name": "itemId",
              "type": "uint256"
            },
            {
              "internalType": "address",
              "name": "tokenAddress",
              "type": "address"
            },
            {
              "internalType": "uint256",
              "name": "tokenId",
              "type": "uint256"
            },
            {
              "internalType": "address payable",
              "name": "owner",
              "type": "address"
            },
            {
              "internalType": "uint256",
              "name": "askingPrice",
              "type": "uint256"
            },
            {
              "internalType": "bool",
              "name": "isForSale",
              "type": "bool"
            },
            {
              "internalType": "uint256",
              "name": "royalty",
              "type": "uint256"
            }
          ],
          "internalType": "struct RedMarketplace.ListingItem",
          "name": "",
          "type": "tuple"
        }
      ],
      "stateMutability": "view",
      "type": "function",
      "constant": true
    }
  ],
  "bytecode": "0x60806040527301dc00e095788275224187812b3f92f5ef8dd069600160006101000a81548173ffffffffffffffffffffffffffffffffffffffff021916908373ffffffffffffffffffffffffffffffffffffffff1602179055503480156200006657600080fd5b50604051620024513803806200245183398181016040528101906200008c91906200013d565b806000806101000a81548173ffffffffffffffffffffffffffffffffffffffff021916908373ffffffffffffffffffffffffffffffffffffffff160217905550506200016f565b600080fd5b600073ffffffffffffffffffffffffffffffffffffffff82169050919050565b60006200010582620000d8565b9050919050565b6200011781620000f8565b81146200012357600080fd5b50565b60008151905062000137816200010c565b92915050565b600060208284031215620001565762000155620000d3565b5b6000620001668482850162000126565b91505092915050565b6122d2806200017f6000396000f3fe608060405234801561001057600080fd5b506004361061009e5760003560e01c8063b1b9e78d11610066578063b1b9e78d14610145578063df7ed27914610161578063eb5a662e1461017d578063ef706adf146101ad578063f8b7ae0c146101c95761009e565b80631afed875146100a357806329d0eb34146100bf578063305a67a8146100db5780634f85310f146100f75780635071c51f14610127575b600080fd5b6100bd60048036038101906100b891906117f4565b6101e5565b005b6100d960048036038101906100d491906117f4565b6105e4565b005b6100f560048036038101906100f09190611834565b6106ea565b005b610111600480360381019061010c9190611834565b6107c0565b60405161011e919061197b565b60405180910390f35b61012f6108dc565b60405161013c91906119a5565b60405180910390f35b61015f600480360381019061015a91906119ec565b610906565b005b61017b60048036038101906101769190611a2c565b610dac565b005b61019760048036038101906101929190611a7f565b6111e9565b6040516101a49190611abb565b60405180910390f35b6101c760048036038101906101c29190611834565b61128f565b005b6101e360048036038101906101de9190611b02565b611365565b005b60006004600084815260200190815260200160002090508060050160009054906101000a900460ff1661024d576040517f08c379a000000000000000000000000000000000000000000000000000000000815260040161024490611c00565b60405180910390fd5b806004015460008054906101000a900473ffffffffffffffffffffffffffffffffffffffff1673ffffffffffffffffffffffffffffffffffffffff166370a08231336040518263ffffffff1660e01b81526004016102ab91906119a5565b602060405180830381865afa1580156102c8573d6000803e3d6000fd5b505050506040513d601f19601f820116820180604052508101906102ec9190611c35565b101561032d576040517f08c379a000000000000000000000000000000000000000000000000000000000815260040161032490611cae565b60405180910390fd5b6000610339600361172a565b905060006040518060a001604052808381526020013373ffffffffffffffffffffffffffffffffffffffff16815260200186815260200185815260200160011515815250905080600560008481526020019081526020016000206000820151816000015560208201518160010160006101000a81548173ffffffffffffffffffffffffffffffffffffffff021916908373ffffffffffffffffffffffffffffffffffffffff160217905550604082015181600201556060820151816003015560808201518160040160006101000a81548160ff0219169083151502179055509050506000606484600601548661042f9190611cfd565b6104399190611d86565b905060008054906101000a900473ffffffffffffffffffffffffffffffffffffffff1673ffffffffffffffffffffffffffffffffffffffff1663095ea7b36004600089815260200190815260200160002060030160009054906101000a900473ffffffffffffffffffffffffffffffffffffffff1683886104ba9190611db7565b6040518363ffffffff1660e01b81526004016104d7929190611e4a565b6020604051808303816000875af11580156104f6573d6000803e3d6000fd5b505050506040513d601f19601f8201168201806040525081019061051a9190611e88565b5060008054906101000a900473ffffffffffffffffffffffffffffffffffffffff1673ffffffffffffffffffffffffffffffffffffffff1663095ea7b3600160009054906101000a900473ffffffffffffffffffffffffffffffffffffffff16836040518363ffffffff1660e01b8152600401610598929190611eb5565b6020604051808303816000875af11580156105b7573d6000803e3d6000fd5b505050506040513d601f19601f820116820180604052508101906105db9190611e88565b50505050505050565b3373ffffffffffffffffffffffffffffffffffffffff166004600084815260200190815260200160002060030160009054906101000a900473ffffffffffffffffffffffffffffffffffffffff1673ffffffffffffffffffffffffffffffffffffffff1614610688576040517f08c379a000000000000000000000000000000000000000000000000000000000815260040161067f90611f2a565b60405180910390fd5b600081116106cb576040517f08c379a00000000000000000000000000000000000000000000000000000000081526004016106c290611f96565b60405180910390fd5b8060046000848152602001908152602001600020600401819055505050565b3373ffffffffffffffffffffffffffffffffffffffff166004600083815260200190815260200160002060030160009054906101000a900473ffffffffffffffffffffffffffffffffffffffff1673ffffffffffffffffffffffffffffffffffffffff161461078e576040517f08c379a000000000000000000000000000000000000000000000000000000000815260040161078590611f2a565b60405180910390fd5b60006004600083815260200190815260200160002060050160006101000a81548160ff02191690831515021790555050565b6107c861174e565b600460008381526020019081526020016000206040518060e0016040529081600082015481526020016001820160009054906101000a900473ffffffffffffffffffffffffffffffffffffffff1673ffffffffffffffffffffffffffffffffffffffff1673ffffffffffffffffffffffffffffffffffffffff168152602001600282015481526020016003820160009054906101000a900473ffffffffffffffffffffffffffffffffffffffff1673ffffffffffffffffffffffffffffffffffffffff1673ffffffffffffffffffffffffffffffffffffffff168152602001600482015481526020016005820160009054906101000a900460ff161515151581526020016006820154815250509050919050565b6000600160009054906101000a900473ffffffffffffffffffffffffffffffffffffffff16905090565b60006005600083815260200190815260200160002090506000600460008360020154815260200190815260200160002090503373ffffffffffffffffffffffffffffffffffffffff168160030160009054906101000a900473ffffffffffffffffffffffffffffffffffffffff1673ffffffffffffffffffffffffffffffffffffffff16146109ca576040517f08c379a00000000000000000000000000000000000000000000000000000000081526004016109c190611f2a565b60405180910390fd5b8160040160009054906101000a900460ff16610a1b576040517f08c379a0000000000000000000000000000000000000000000000000000000008152600401610a1290612002565b60405180910390fd5b610a488260010160009054906101000a900473ffffffffffffffffffffffffffffffffffffffff166111e9565b82600301541015610a8e576040517f08c379a0000000000000000000000000000000000000000000000000000000008152600401610a8590612094565b60405180910390fd5b6000606482600601548460030154610aa69190611cfd565b610ab09190611d86565b905060008054906101000a900473ffffffffffffffffffffffffffffffffffffffff1673ffffffffffffffffffffffffffffffffffffffff166323b872dd8460010160009054906101000a900473ffffffffffffffffffffffffffffffffffffffff168460030160009054906101000a900473ffffffffffffffffffffffffffffffffffffffff16848760030154610b489190611db7565b6040518463ffffffff1660e01b8152600401610b66939291906120b4565b6020604051808303816000875af1158015610b85573d6000803e3d6000fd5b505050506040513d601f19601f82011682018060405250810190610ba99190611e88565b5060008054906101000a900473ffffffffffffffffffffffffffffffffffffffff1673ffffffffffffffffffffffffffffffffffffffff166323b872dd8460010160009054906101000a900473ffffffffffffffffffffffffffffffffffffffff16600160009054906101000a900473ffffffffffffffffffffffffffffffffffffffff16846040518463ffffffff1660e01b8152600401610c4d939291906120eb565b6020604051808303816000875af1158015610c6c573d6000803e3d6000fd5b505050506040513d601f19601f82011682018060405250810190610c909190611e88565b508473ffffffffffffffffffffffffffffffffffffffff166342842e0e338560010160009054906101000a900473ffffffffffffffffffffffffffffffffffffffff1685600201546040518463ffffffff1660e01b8152600401610cf6939291906120eb565b600060405180830381600087803b158015610d1057600080fd5b505af1158015610d24573d6000803e3d6000fd5b505050508260010160009054906101000a900473ffffffffffffffffffffffffffffffffffffffff16600460008560020154815260200190815260200160002060030160006101000a81548173ffffffffffffffffffffffffffffffffffffffff021916908373ffffffffffffffffffffffffffffffffffffffff1602179055505050505050565b60006004600084815260200190815260200160002090508060050160009054906101000a900460ff16610e14576040517f08c379a0000000000000000000000000000000000000000000000000000000008152600401610e0b9061216e565b60405180910390fd5b8060040154821015610e5b576040517f08c379a0000000000000000000000000000000000000000000000000000000008152600401610e52906121da565b60405180910390fd5b806004015460008054906101000a900473ffffffffffffffffffffffffffffffffffffffff1673ffffffffffffffffffffffffffffffffffffffff166370a08231336040518263ffffffff1660e01b8152600401610eb991906119a5565b602060405180830381865afa158015610ed6573d6000803e3d6000fd5b505050506040513d601f19601f82011682018060405250810190610efa9190611c35565b1015610f3b576040517f08c379a0000000000000000000000000000000000000000000000000000000008152600401610f3290611cae565b60405180910390fd5b6000606482600601548360040154610f539190611cfd565b610f5d9190611d86565b905060008054906101000a900473ffffffffffffffffffffffffffffffffffffffff1673ffffffffffffffffffffffffffffffffffffffff166323b872dd338460030160009054906101000a900473ffffffffffffffffffffffffffffffffffffffff16848660040154610fd19190611db7565b6040518463ffffffff1660e01b8152600401610fef939291906120b4565b6020604051808303816000875af115801561100e573d6000803e3d6000fd5b505050506040513d601f19601f820116820180604052508101906110329190611e88565b5060008054906101000a900473ffffffffffffffffffffffffffffffffffffffff1673ffffffffffffffffffffffffffffffffffffffff166323b872dd33600160009054906101000a900473ffffffffffffffffffffffffffffffffffffffff16846040518463ffffffff1660e01b81526004016110b2939291906120eb565b6020604051808303816000875af11580156110d1573d6000803e3d6000fd5b505050506040513d601f19601f820116820180604052508101906110f59190611e88565b508473ffffffffffffffffffffffffffffffffffffffff166342842e0e8360030160009054906101000a900473ffffffffffffffffffffffffffffffffffffffff163385600201546040518463ffffffff1660e01b815260040161115b939291906121fa565b600060405180830381600087803b15801561117557600080fd5b505af1158015611189573d6000803e3d6000fd5b50505050336004600086815260200190815260200160002060030160006101000a81548173ffffffffffffffffffffffffffffffffffffffff021916908373ffffffffffffffffffffffffffffffffffffffff1602179055505050505050565b60008060009054906101000a900473ffffffffffffffffffffffffffffffffffffffff1673ffffffffffffffffffffffffffffffffffffffff1663dd62ed3e83336040518363ffffffff1660e01b8152600401611247929190612231565b602060405180830381865afa158015611264573d6000803e3d6000fd5b505050506040513d601f19601f820116820180604052508101906112889190611c35565b9050919050565b3373ffffffffffffffffffffffffffffffffffffffff166005600083815260200190815260200160002060010160009054906101000a900473ffffffffffffffffffffffffffffffffffffffff1673ffffffffffffffffffffffffffffffffffffffff1614611333576040517f08c379a000000000000000000000000000000000000000000000000000000000815260040161132a90611f2a565b60405180910390fd5b60006005600083815260200190815260200160002060040160006101000a81548160ff02191690831515021790555050565b838560008290503373ffffffffffffffffffffffffffffffffffffffff168173ffffffffffffffffffffffffffffffffffffffff16636352211e846040518263ffffffff1660e01b81526004016113bc9190611abb565b602060405180830381865afa1580156113d9573d6000803e3d6000fd5b505050506040513d601f19601f820116820180604052508101906113fd919061226f565b73ffffffffffffffffffffffffffffffffffffffff161461141d57600080fd5b868860008290503073ffffffffffffffffffffffffffffffffffffffff168173ffffffffffffffffffffffffffffffffffffffff1663081812fc846040518263ffffffff1660e01b81526004016114749190611abb565b602060405180830381865afa158015611491573d6000803e3d6000fd5b505050506040513d601f19601f820116820180604052508101906114b5919061226f565b73ffffffffffffffffffffffffffffffffffffffff16146114d557600080fd5b60008911611518576040517f08c379a000000000000000000000000000000000000000000000000000000000815260040161150f90611f96565b60405180910390fd5b6000611524600261172a565b90506000600a9050600160009054906101000a900473ffffffffffffffffffffffffffffffffffffffff1673ffffffffffffffffffffffffffffffffffffffff163373ffffffffffffffffffffffffffffffffffffffff16141561158757601e90505b60006040518060e001604052808481526020018e73ffffffffffffffffffffffffffffffffffffffff1681526020018f81526020018b73ffffffffffffffffffffffffffffffffffffffff1681526020018d81526020018c1515815260200183815250905080600460008581526020019081526020016000206000820151816000015560208201518160010160006101000a81548173ffffffffffffffffffffffffffffffffffffffff021916908373ffffffffffffffffffffffffffffffffffffffff1602179055506040820151816002015560608201518160030160006101000a81548173ffffffffffffffffffffffffffffffffffffffff021916908373ffffffffffffffffffffffffffffffffffffffff1602179055506080820151816004015560a08201518160050160006101000a81548160ff02191690831515021790555060c082015181600601559050506116e36002611738565b7f41b861adba3bf38ed2a070632996c17d9cfbb82a9199c192494e9c955806637281604051611712919061197b565b60405180910390a15050505050505050505050505050565b600081600001549050919050565b6001816000016000828254019250508190555050565b6040518060e0016040528060008152602001600073ffffffffffffffffffffffffffffffffffffffff16815260200160008152602001600073ffffffffffffffffffffffffffffffffffffffff16815260200160008152602001600015158152602001600081525090565b600080fd5b6000819050919050565b6117d1816117be565b81146117dc57600080fd5b50565b6000813590506117ee816117c8565b92915050565b6000806040838503121561180b5761180a6117b9565b5b6000611819858286016117df565b925050602061182a858286016117df565b9150509250929050565b60006020828403121561184a576118496117b9565b5b6000611858848285016117df565b91505092915050565b61186a816117be565b82525050565b600073ffffffffffffffffffffffffffffffffffffffff82169050919050565b600061189b82611870565b9050919050565b6118ab81611890565b82525050565b60006118bc82611870565b9050919050565b6118cc816118b1565b82525050565b60008115159050919050565b6118e7816118d2565b82525050565b60e0820160008201516119036000850182611861565b50602082015161191660208501826118a2565b5060408201516119296040850182611861565b50606082015161193c60608501826118c3565b50608082015161194f6080850182611861565b5060a082015161196260a08501826118de565b5060c082015161197560c0850182611861565b50505050565b600060e08201905061199060008301846118ed565b92915050565b61199f81611890565b82525050565b60006020820190506119ba6000830184611996565b92915050565b6119c981611890565b81146119d457600080fd5b50565b6000813590506119e6816119c0565b92915050565b60008060408385031215611a0357611a026117b9565b5b6000611a11858286016119d7565b9250506020611a22858286016117df565b9150509250929050565b600080600060608486031215611a4557611a446117b9565b5b6000611a53868287016119d7565b9350506020611a64868287016117df565b9250506040611a75868287016117df565b9150509250925092565b600060208284031215611a9557611a946117b9565b5b6000611aa3848285016119d7565b91505092915050565b611ab5816117be565b82525050565b6000602082019050611ad06000830184611aac565b92915050565b611adf816118d2565b8114611aea57600080fd5b50565b600081359050611afc81611ad6565b92915050565b600080600080600060a08688031215611b1e57611b1d6117b9565b5b6000611b2c888289016117df565b9550506020611b3d888289016119d7565b9450506040611b4e888289016117df565b9350506060611b5f88828901611aed565b9250506080611b70888289016119d7565b9150509295509295909350565b600082825260208201905092915050565b7f4c6973746564206974656d206973204e4f5420616363657074696e67206f666660008201527f6572730000000000000000000000000000000000000000000000000000000000602082015250565b6000611bea602383611b7d565b9150611bf582611b8e565b604082019050919050565b60006020820190508181036000830152611c1981611bdd565b9050919050565b600081519050611c2f816117c8565b92915050565b600060208284031215611c4b57611c4a6117b9565b5b6000611c5984828501611c20565b91505092915050565b7f496e73756666696369656e742052454420746f6b656e2062616c616e63650000600082015250565b6000611c98601e83611b7d565b9150611ca382611c62565b602082019050919050565b60006020820190508181036000830152611cc781611c8b565b9050919050565b7f4e487b7100000000000000000000000000000000000000000000000000000000600052601160045260246000fd5b6000611d08826117be565b9150611d13836117be565b9250817fffffffffffffffffffffffffffffffffffffffffffffffffffffffffffffffff0483118215151615611d4c57611d4b611cce565b5b828202905092915050565b7f4e487b7100000000000000000000000000000000000000000000000000000000600052601260045260246000fd5b6000611d91826117be565b9150611d9c836117be565b925082611dac57611dab611d57565b5b828204905092915050565b6000611dc2826117be565b9150611dcd836117be565b925082821015611de057611ddf611cce565b5b828203905092915050565b6000819050919050565b6000611e10611e0b611e0684611870565b611deb565b611870565b9050919050565b6000611e2282611df5565b9050919050565b6000611e3482611e17565b9050919050565b611e4481611e29565b82525050565b6000604082019050611e5f6000830185611e3b565b611e6c6020830184611aac565b9392505050565b600081519050611e8281611ad6565b92915050565b600060208284031215611e9e57611e9d6117b9565b5b6000611eac84828501611e73565b91505092915050565b6000604082019050611eca6000830185611996565b611ed76020830184611aac565b9392505050565b7f556e617574686f72697a65642075736572000000000000000000000000000000600082015250565b6000611f14601183611b7d565b9150611f1f82611ede565b602082019050919050565b60006020820190508181036000830152611f4381611f07565b9050919050565b7f5072696365206d757374206265206174206c6561737420312052454400000000600082015250565b6000611f80601c83611b7d565b9150611f8b82611f4a565b602082019050919050565b60006020820190508181036000830152611faf81611f73565b9050919050565b7f4f6666657220697320636c6f7365640000000000000000000000000000000000600082015250565b6000611fec600f83611b7d565b9150611ff782611fb6565b602082019050919050565b6000602082019050818103600083015261201b81611fdf565b9050919050565b7f546f6b656e207472616e73666572206e6f7420617070726f766564206279207460008201527f6865206f666665722063726561746f7200000000000000000000000000000000602082015250565b600061207e603083611b7d565b915061208982612022565b604082019050919050565b600060208201905081810360008301526120ad81612071565b9050919050565b60006060820190506120c96000830186611996565b6120d66020830185611e3b565b6120e36040830184611aac565b949350505050565b60006060820190506121006000830186611996565b61210d6020830185611996565b61211a6040830184611aac565b949350505050565b7f4c6973746564206974656d206973204e4f5420666f722073616c650000000000600082015250565b6000612158601b83611b7d565b915061216382612122565b602082019050919050565b600060208201905081810360008301526121878161214b565b9050919050565b7f496e73756666696369656e742052454420746f6b656e20616d6f756e74000000600082015250565b60006121c4601d83611b7d565b91506121cf8261218e565b602082019050919050565b600060208201905081810360008301526121f3816121b7565b9050919050565b600060608201905061220f6000830186611e3b565b61221c6020830185611996565b6122296040830184611aac565b949350505050565b60006040820190506122466000830185611996565b6122536020830184611996565b9392505050565b600081519050612269816119c0565b92915050565b600060208284031215612285576122846117b9565b5b60006122938482850161225a565b9150509291505056fea2646970667358221220a155683dce5fc0fca18a6fd61cfdfb8a5570beeb024fb9f57071af3a8cbca09064736f6c634300080b0033",
  "immutableReferences": {},
  "source": "// SPDX-License-Identifier: MIT\npragma solidity ^0.8.4;\n\nimport \"@openzeppelin/contracts/token/ERC721/IERC721.sol\";\nimport \"@openzeppelin/contracts/utils/Counters.sol\";\nimport \"@openzeppelin/contracts/token/ERC20/ERC20.sol\";\nimport \"@openzeppelin/contracts/token/ERC20/IERC20.sol\";\n\ncontract RedMarketplace {\n    using Counters for Counters.Counter;\n\n    IERC20 redToken;\n    address redMinterAddress = 0x01Dc00E095788275224187812B3f92f5eF8dD069; // TODO\n\n    struct ListingItem {\n        uint256 itemId;\n        address tokenAddress;\n        uint256 tokenId;\n        address payable owner;\n        uint256 askingPrice;\n        bool isForSale;\n        uint256 royalty;\n    }\n\n    struct Offer {\n        uint256 offerId;\n        address creator;\n        uint256 itemId;\n        uint256 amount;\n        bool isOfferOpen;\n    }\n\n    constructor(address redTokenAddress) {\n        redToken = IERC20(redTokenAddress); // Token Address\n    }\n\n    Counters.Counter private _listingIdCounter;\n    Counters.Counter private _offerIdCounter;\n    mapping(uint256 => ListingItem) private items;\n    mapping(uint256 => Offer) private offers;\n\n    event itemAdded(ListingItem item);\n    event itemSold();\n\n    modifier OnlyItemOwner(address tokenAddress, uint256 tokenId) {\n        IERC721 nftContract = IERC721(tokenAddress);\n        require(nftContract.ownerOf(tokenId) == msg.sender);\n        _;\n    }\n\n    modifier HasTransferApproval(address tokenAddress, uint256 tokenId) {\n        IERC721 nftContract = IERC721(tokenAddress);\n        require(nftContract.getApproved(tokenId) == address(this));\n        _;\n    }\n\n    function getRedMinterAddress() public view returns (address) {\n        return redMinterAddress;\n    }\n\n    function listItem(\n        uint256 tokenId,\n        address tokenAddress,\n        uint256 askingPrice,\n        bool isForSale,\n        address owner\n    )\n        external\n        OnlyItemOwner(tokenAddress, tokenId)\n        HasTransferApproval(tokenAddress, tokenId)\n    {\n        require(askingPrice > 0, \"Price must be at least 1 RED\");\n        uint256 listingId = _listingIdCounter.current();\n        uint256 royalty = 10;\n        if (msg.sender == redMinterAddress) {\n            royalty = 30;\n        }\n        ListingItem memory listing = ListingItem(\n            listingId,\n            tokenAddress,\n            tokenId,\n            payable(owner),\n            askingPrice,\n            isForSale,\n            royalty\n        );\n        items[listingId] = listing;\n        _listingIdCounter.increment();\n        emit itemAdded(listing);\n    }\n\n    function updateAskingPrice(uint256 listingId, uint256 askingPrice)\n        external\n    {\n        require(items[listingId].owner == msg.sender, \"Unauthorized user\");\n        require(askingPrice > 0, \"Price must be at least 1 RED\");\n        items[listingId].askingPrice = askingPrice;\n    }\n\n    function cancelListing(uint256 listingId) external {\n        require(items[listingId].owner == msg.sender, \"Unauthorized user\");\n        items[listingId].isForSale = false;\n    }\n\n    function createOffer(uint256 listingId, uint256 amount) external {\n        ListingItem storage listing = items[listingId];\n        require(listing.isForSale, \"Listed item is NOT accepting offers\");\n        require(\n            redToken.balanceOf(msg.sender) >= listing.askingPrice,\n            \"Insufficient RED token balance\"\n        );\n        uint256 offerId = _offerIdCounter.current();\n        Offer memory offer = Offer(\n            offerId,\n            msg.sender,\n            listingId,\n            amount,\n            true\n        );\n        offers[offerId] = offer;\n        uint256 royalty = (amount * listing.royalty) / 100;\n        redToken.approve(items[listingId].owner, amount - royalty);\n        redToken.approve(redMinterAddress, royalty);\n    }\n\n    function cancelOffer(uint256 offerId) external {\n        require(offers[offerId].creator == msg.sender, \"Unauthorized user\");\n        offers[offerId].isOfferOpen = false;\n    }\n\n    function getAllowance(address offerCreator) public view returns (uint256) {\n        return redToken.allowance(offerCreator, msg.sender);\n    }\n\n    function acceptOffer(address _nftContract, uint256 offerId) external {\n        Offer storage offer = offers[offerId];\n        ListingItem storage listing = items[offer.itemId];\n        require(listing.owner == msg.sender, \"Unauthorized user\");\n        require(offer.isOfferOpen, \"Offer is closed\");\n        require(\n            offer.amount >= getAllowance(offer.creator),\n            \"Token transfer not approved by the offer creator\"\n        );\n        uint256 royalty = (offer.amount * listing.royalty) / 100;\n        redToken.transferFrom(\n            offer.creator,\n            listing.owner,\n            offer.amount - royalty\n        );\n        redToken.transferFrom(offer.creator, redMinterAddress, royalty);\n        IERC721(_nftContract).safeTransferFrom(\n            msg.sender,\n            offer.creator,\n            listing.tokenId\n        );\n        items[offer.itemId].owner = payable(offer.creator);\n    }\n\n    function buyNow(\n        address _nftContract,\n        uint256 listingId,\n        uint256 amount\n    ) external {\n        ListingItem storage listing = items[listingId];\n        require(listing.isForSale, \"Listed item is NOT for sale\");\n        require(amount >= listing.askingPrice, \"Insufficient RED token amount\");\n        require(\n            redToken.balanceOf(msg.sender) >= listing.askingPrice,\n            \"Insufficient RED token balance\"\n        );\n        uint256 royalty = (listing.askingPrice * listing.royalty) / 100;\n        redToken.transferFrom(\n            msg.sender,\n            listing.owner,\n            listing.askingPrice - royalty\n        );\n        redToken.transferFrom(msg.sender, redMinterAddress, royalty);\n\n        IERC721(_nftContract).safeTransferFrom(\n            listing.owner,\n            msg.sender,\n            listing.tokenId\n        );\n        items[listingId].owner = payable(msg.sender);\n    }\n\n    function getListingById(uint256 listingId)\n        public\n        view\n        returns (ListingItem memory)\n    {\n        return items[listingId];\n    }\n}\n",
  "sourcePath": "/Users/bigmadcode/Desktop/RED Broadcast NFT Contract/contracts/RedMarketplace.sol",
  "compiler": {
    "name": "solc",
    "version": "0.8.11+commit.d7f03943.Emscripten.clang"
  },
  "schemaVersion": "3.4.6",
  "updatedAt": "2022-04-19T04:38:10.937Z",
  "networkType": "ethereum",
  "devdoc": {
    "kind": "dev",
    "methods": {},
    "version": 1
  },
  "userdoc": {
    "kind": "user",
    "methods": {},
    "version": 1
  }
}