{
  "contractName": "RedMarketplace",
  "abi": [
    {
      "inputs": [],
      "stateMutability": "nonpayable",
      "type": "constructor"
    },
    {
      "anonymous": false,
      "inputs": [],
      "name": "itemAdded",
      "type": "event"
    },
    {
      "anonymous": false,
      "inputs": [],
      "name": "itemSold",
      "type": "event"
    },
    {
      "inputs": [
        {
          "internalType": "uint256",
          "name": "tokenId",
          "type": "uint256"
        },
        {
          "internalType": "address",
          "name": "tokenAddress",
          "type": "address"
        },
        {
          "internalType": "uint256",
          "name": "askingPrice",
          "type": "uint256"
        },
        {
          "internalType": "bool",
          "name": "isForSale",
          "type": "bool"
        }
      ],
      "name": "listItem",
      "outputs": [],
      "stateMutability": "nonpayable",
      "type": "function"
    },
    {
      "inputs": [
        {
          "internalType": "uint256",
          "name": "listingId",
          "type": "uint256"
        }
      ],
      "name": "cancelListing",
      "outputs": [],
      "stateMutability": "nonpayable",
      "type": "function"
    },
    {
      "inputs": [
        {
          "internalType": "uint256",
          "name": "listingId",
          "type": "uint256"
        },
        {
          "internalType": "uint256",
          "name": "amount",
          "type": "uint256"
        }
      ],
      "name": "createOffer",
      "outputs": [],
      "stateMutability": "nonpayable",
      "type": "function"
    },
    {
      "inputs": [
        {
          "internalType": "uint256",
          "name": "offerId",
          "type": "uint256"
        }
      ],
      "name": "cancelOffer",
      "outputs": [],
      "stateMutability": "nonpayable",
      "type": "function"
    },
    {
      "inputs": [
        {
          "internalType": "address",
          "name": "offerCreator",
          "type": "address"
        }
      ],
      "name": "getAllowance",
      "outputs": [
        {
          "internalType": "uint256",
          "name": "",
          "type": "uint256"
        }
      ],
      "stateMutability": "view",
      "type": "function",
      "constant": true
    },
    {
      "inputs": [
        {
          "internalType": "address",
          "name": "_nftContract",
          "type": "address"
        },
        {
          "internalType": "uint256",
          "name": "offerId",
          "type": "uint256"
        }
      ],
      "name": "acceptOffer",
      "outputs": [],
      "stateMutability": "nonpayable",
      "type": "function"
    }
  ],
  "bytecode": "0x608060405234801561001057600080fd5b50732d001a055b29504d6c029fd4f46470b18d74bd176000806101000a81548173ffffffffffffffffffffffffffffffffffffffff021916908373ffffffffffffffffffffffffffffffffffffffff160217905550611463806100746000396000f3fe608060405234801561001057600080fd5b50600436106100625760003560e01c80631afed87514610067578063305a67a814610083578063b1b9e78d1461009f578063dcff0152146100bb578063eb5a662e146100d7578063ef706adf14610107575b600080fd5b610081600480360381019061007c9190610d46565b610123565b005b61009d60048036038101906100989190610d86565b610435565b005b6100b960048036038101906100b49190610e11565b61050b565b005b6100d560048036038101906100d09190610e89565b610850565b005b6100f160048036038101906100ec9190610ef0565b610b6b565b6040516100fe9190610f2c565b60405180910390f35b610121600480360381019061011c9190610d86565b610c11565b005b60006003600084815260200190815260200160002090508060050160009054906101000a900460ff1661018b576040517f08c379a000000000000000000000000000000000000000000000000000000000815260040161018290610fca565b60405180910390fd5b806004015460008054906101000a900473ffffffffffffffffffffffffffffffffffffffff1673ffffffffffffffffffffffffffffffffffffffff166370a08231336040518263ffffffff1660e01b81526004016101e99190610ff9565b602060405180830381865afa158015610206573d6000803e3d6000fd5b505050506040513d601f19601f8201168201806040525081019061022a9190611029565b101561026b576040517f08c379a0000000000000000000000000000000000000000000000000000000008152600401610262906110a2565b60405180910390fd5b60006102776002610ce7565b905060006040518060a001604052808381526020013373ffffffffffffffffffffffffffffffffffffffff16815260200186815260200185815260200160011515815250905080600460008481526020019081526020016000206000820151816000015560208201518160010160006101000a81548173ffffffffffffffffffffffffffffffffffffffff021916908373ffffffffffffffffffffffffffffffffffffffff160217905550604082015181600201556060820151816003015560808201518160040160006101000a81548160ff02191690831515021790555090505060008054906101000a900473ffffffffffffffffffffffffffffffffffffffff1673ffffffffffffffffffffffffffffffffffffffff1663095ea7b36003600088815260200190815260200160002060030160009054906101000a900473ffffffffffffffffffffffffffffffffffffffff16866040518363ffffffff1660e01b81526004016103ea929190611121565b6020604051808303816000875af1158015610409573d6000803e3d6000fd5b505050506040513d601f19601f8201168201806040525081019061042d919061115f565b505050505050565b3373ffffffffffffffffffffffffffffffffffffffff166003600083815260200190815260200160002060030160009054906101000a900473ffffffffffffffffffffffffffffffffffffffff1673ffffffffffffffffffffffffffffffffffffffff16146104d9576040517f08c379a00000000000000000000000000000000000000000000000000000000081526004016104d0906111d8565b60405180910390fd5b60006003600083815260200190815260200160002060050160006101000a81548160ff02191690831515021790555050565b60006004600083815260200190815260200160002090506000600360008360020154815260200190815260200160002090503373ffffffffffffffffffffffffffffffffffffffff168160030160009054906101000a900473ffffffffffffffffffffffffffffffffffffffff1673ffffffffffffffffffffffffffffffffffffffff16146105cf576040517f08c379a00000000000000000000000000000000000000000000000000000000081526004016105c6906111d8565b60405180910390fd5b8160040160009054906101000a900460ff16610620576040517f08c379a000000000000000000000000000000000000000000000000000000000815260040161061790611244565b60405180910390fd5b61064d8260010160009054906101000a900473ffffffffffffffffffffffffffffffffffffffff16610b6b565b82600301541015610693576040517f08c379a000000000000000000000000000000000000000000000000000000000815260040161068a906112d6565b60405180910390fd5b60008054906101000a900473ffffffffffffffffffffffffffffffffffffffff1673ffffffffffffffffffffffffffffffffffffffff1663a9059cbb3384600301546040518363ffffffff1660e01b81526004016106f29291906112f6565b6020604051808303816000875af1158015610711573d6000803e3d6000fd5b505050506040513d601f19601f82011682018060405250810190610735919061115f565b508373ffffffffffffffffffffffffffffffffffffffff166342842e0e338460010160009054906101000a900473ffffffffffffffffffffffffffffffffffffffff1684600201546040518463ffffffff1660e01b815260040161079b9392919061131f565b600060405180830381600087803b1580156107b557600080fd5b505af11580156107c9573d6000803e3d6000fd5b505050508160010160009054906101000a900473ffffffffffffffffffffffffffffffffffffffff16600360008460020154815260200190815260200160002060030160006101000a81548173ffffffffffffffffffffffffffffffffffffffff021916908373ffffffffffffffffffffffffffffffffffffffff16021790555050505050565b828460008290503373ffffffffffffffffffffffffffffffffffffffff168173ffffffffffffffffffffffffffffffffffffffff16636352211e846040518263ffffffff1660e01b81526004016108a79190610f2c565b602060405180830381865afa1580156108c4573d6000803e3d6000fd5b505050506040513d601f19601f820116820180604052508101906108e8919061136b565b73ffffffffffffffffffffffffffffffffffffffff161461090857600080fd5b858760008290503373ffffffffffffffffffffffffffffffffffffffff168173ffffffffffffffffffffffffffffffffffffffff1663081812fc846040518263ffffffff1660e01b815260040161095f9190610f2c565b602060405180830381865afa15801561097c573d6000803e3d6000fd5b505050506040513d601f19601f820116820180604052508101906109a0919061136b565b73ffffffffffffffffffffffffffffffffffffffff16146109c057600080fd5b60008811610a03576040517f08c379a00000000000000000000000000000000000000000000000000000000081526004016109fa906113e4565b60405180910390fd5b6000610a0f6001610ce7565b905060006040518060c001604052808381526020018c73ffffffffffffffffffffffffffffffffffffffff1681526020018d81526020013373ffffffffffffffffffffffffffffffffffffffff1681526020018b81526020018a1515815250905080600360008481526020019081526020016000206000820151816000015560208201518160010160006101000a81548173ffffffffffffffffffffffffffffffffffffffff021916908373ffffffffffffffffffffffffffffffffffffffff1602179055506040820151816002015560608201518160030160006101000a81548173ffffffffffffffffffffffffffffffffffffffff021916908373ffffffffffffffffffffffffffffffffffffffff1602179055506080820151816004015560a08201518160050160006101000a81548160ff021916908315150217905550905050610b5d6001610cf5565b505050505050505050505050565b60008060009054906101000a900473ffffffffffffffffffffffffffffffffffffffff1673ffffffffffffffffffffffffffffffffffffffff1663dd62ed3e83336040518363ffffffff1660e01b8152600401610bc9929190611404565b602060405180830381865afa158015610be6573d6000803e3d6000fd5b505050506040513d601f19601f82011682018060405250810190610c0a9190611029565b9050919050565b3373ffffffffffffffffffffffffffffffffffffffff166004600083815260200190815260200160002060010160009054906101000a900473ffffffffffffffffffffffffffffffffffffffff1673ffffffffffffffffffffffffffffffffffffffff1614610cb5576040517f08c379a0000000000000000000000000000000000000000000000000000000008152600401610cac906111d8565b60405180910390fd5b60006004600083815260200190815260200160002060040160006101000a81548160ff02191690831515021790555050565b600081600001549050919050565b6001816000016000828254019250508190555050565b600080fd5b6000819050919050565b610d2381610d10565b8114610d2e57600080fd5b50565b600081359050610d4081610d1a565b92915050565b60008060408385031215610d5d57610d5c610d0b565b5b6000610d6b85828601610d31565b9250506020610d7c85828601610d31565b9150509250929050565b600060208284031215610d9c57610d9b610d0b565b5b6000610daa84828501610d31565b91505092915050565b600073ffffffffffffffffffffffffffffffffffffffff82169050919050565b6000610dde82610db3565b9050919050565b610dee81610dd3565b8114610df957600080fd5b50565b600081359050610e0b81610de5565b92915050565b60008060408385031215610e2857610e27610d0b565b5b6000610e3685828601610dfc565b9250506020610e4785828601610d31565b9150509250929050565b60008115159050919050565b610e6681610e51565b8114610e7157600080fd5b50565b600081359050610e8381610e5d565b92915050565b60008060008060808587031215610ea357610ea2610d0b565b5b6000610eb187828801610d31565b9450506020610ec287828801610dfc565b9350506040610ed387828801610d31565b9250506060610ee487828801610e74565b91505092959194509250565b600060208284031215610f0657610f05610d0b565b5b6000610f1484828501610dfc565b91505092915050565b610f2681610d10565b82525050565b6000602082019050610f416000830184610f1d565b92915050565b600082825260208201905092915050565b7f4c6973746564206974656d206973204e4f5420616363657074696e67206f666660008201527f6572730000000000000000000000000000000000000000000000000000000000602082015250565b6000610fb4602383610f47565b9150610fbf82610f58565b604082019050919050565b60006020820190508181036000830152610fe381610fa7565b9050919050565b610ff381610dd3565b82525050565b600060208201905061100e6000830184610fea565b92915050565b60008151905061102381610d1a565b92915050565b60006020828403121561103f5761103e610d0b565b5b600061104d84828501611014565b91505092915050565b7f496e73756666696369656e742052454420746f6b656e2062616c616e63650000600082015250565b600061108c601e83610f47565b915061109782611056565b602082019050919050565b600060208201905081810360008301526110bb8161107f565b9050919050565b6000819050919050565b60006110e76110e26110dd84610db3565b6110c2565b610db3565b9050919050565b60006110f9826110cc565b9050919050565b600061110b826110ee565b9050919050565b61111b81611100565b82525050565b60006040820190506111366000830185611112565b6111436020830184610f1d565b9392505050565b60008151905061115981610e5d565b92915050565b60006020828403121561117557611174610d0b565b5b60006111838482850161114a565b91505092915050565b7f556e617574686f72697a65642075736572000000000000000000000000000000600082015250565b60006111c2601183610f47565b91506111cd8261118c565b602082019050919050565b600060208201905081810360008301526111f1816111b5565b9050919050565b7f4f6666657220697320636c6f7365640000000000000000000000000000000000600082015250565b600061122e600f83610f47565b9150611239826111f8565b602082019050919050565b6000602082019050818103600083015261125d81611221565b9050919050565b7f546f6b656e207472616e73666572206e6f7420617070726f766564206279207460008201527f6865206f666665722063726561746f7200000000000000000000000000000000602082015250565b60006112c0603083610f47565b91506112cb82611264565b604082019050919050565b600060208201905081810360008301526112ef816112b3565b9050919050565b600060408201905061130b6000830185610fea565b6113186020830184610f1d565b9392505050565b60006060820190506113346000830186610fea565b6113416020830185610fea565b61134e6040830184610f1d565b949350505050565b60008151905061136581610de5565b92915050565b60006020828403121561138157611380610d0b565b5b600061138f84828501611356565b91505092915050565b7f5072696365206d757374206265206174206c6561737420312052454400000000600082015250565b60006113ce601c83610f47565b91506113d982611398565b602082019050919050565b600060208201905081810360008301526113fd816113c1565b9050919050565b60006040820190506114196000830185610fea565b6114266020830184610fea565b939250505056fea26469706673582212205bb71198226a52d1b8c744d7987f8410387fcb88a56810545e0a7eb57138df1564736f6c634300080b0033",
  "immutableReferences": {},
  "source": "// SPDX-License-Identifier: MIT\npragma solidity ^0.8.4;\n\nimport \"@openzeppelin/contracts/token/ERC721/IERC721.sol\";\nimport \"@openzeppelin/contracts/utils/Counters.sol\";\nimport \"@openzeppelin/contracts/token/ERC20/ERC20.sol\";\nimport \"@openzeppelin/contracts/token/ERC20/IERC20.sol\";\n\ncontract RedMarketplace {\n    using Counters for Counters.Counter;\n\n    IERC20 redToken;\n    struct ListingItem {\n        uint256 itemId;\n        address tokenAddress;\n        uint256 tokenId;\n        address payable owner;\n        uint256 askingPrice;\n        bool isForSale;\n    }\n\n    struct Offer {\n        uint256 offerId;\n        address creator;\n        uint256 itemId;\n        uint256 amount;\n        bool isOfferOpen;\n    }\n\n    constructor() {\n        redToken = IERC20(0x2D001A055B29504D6C029fd4f46470b18D74bd17); // Token Address\n    }\n\n    Counters.Counter private _listingIdCounter;\n    Counters.Counter private _offerIdCounter;\n    mapping(uint256 => ListingItem) private items;\n    mapping(uint256 => Offer) private offers;\n\n    event itemAdded();\n    event itemSold();\n\n    modifier OnlyItemOwner(address tokenAddress, uint256 tokenId) {\n        IERC721 nftContract = IERC721(tokenAddress);\n        require(nftContract.ownerOf(tokenId) == msg.sender);\n        _;\n    }\n\n    modifier HasTransferApproval(address tokenAddress, uint256 tokenId) {\n        IERC721 nftContract = IERC721(tokenAddress);\n        require(nftContract.getApproved(tokenId) == msg.sender);\n        _;\n    }\n\n    function listItem(\n        uint256 tokenId,\n        address tokenAddress,\n        uint256 askingPrice,\n        bool isForSale\n    )\n        external\n        OnlyItemOwner(tokenAddress, tokenId)\n        HasTransferApproval(tokenAddress, tokenId)\n    {\n        require(askingPrice > 0, \"Price must be at least 1 RED\");\n        uint256 listingId = _listingIdCounter.current();\n        ListingItem memory listing = ListingItem(\n            listingId,\n            tokenAddress,\n            tokenId,\n            payable(msg.sender),\n            askingPrice,\n            isForSale\n        );\n        items[listingId] = listing;\n        _listingIdCounter.increment();\n    }\n\n    function cancelListing(uint256 listingId) external {\n        require(items[listingId].owner == msg.sender, \"Unauthorized user\");\n        items[listingId].isForSale = false;\n    }\n\n    function createOffer(uint256 listingId, uint256 amount) external {\n        ListingItem storage listing = items[listingId];\n        require(listing.isForSale, \"Listed item is NOT accepting offers\");\n        require(\n            redToken.balanceOf(msg.sender) >= listing.askingPrice,\n            \"Insufficient RED token balance\"\n        );\n        uint256 offerId = _offerIdCounter.current();\n        Offer memory offer = Offer(\n            offerId,\n            msg.sender,\n            listingId,\n            amount,\n            true\n        );\n        offers[offerId] = offer;\n        redToken.approve(items[listingId].owner, amount);\n    }\n\n    function cancelOffer(uint256 offerId) external {\n        require(offers[offerId].creator == msg.sender, \"Unauthorized user\");\n        offers[offerId].isOfferOpen = false;\n    }\n\n    function getAllowance(address offerCreator) public view returns (uint256) {\n        return redToken.allowance(offerCreator, msg.sender);\n    }\n\n    function acceptOffer(address _nftContract, uint256 offerId) external {\n        Offer storage offer = offers[offerId];\n        ListingItem storage listing = items[offer.itemId];\n        require(listing.owner == msg.sender, \"Unauthorized user\");\n        require(offer.isOfferOpen, \"Offer is closed\");\n        require(\n            offer.amount >= getAllowance(offer.creator),\n            \"Token transfer not approved by the offer creator\"\n        );\n\n        redToken.transfer(msg.sender, offer.amount);\n        IERC721(_nftContract).safeTransferFrom(\n            msg.sender,\n            offer.creator,\n            listing.tokenId\n        );\n        items[offer.itemId].owner = payable(offer.creator);\n    }\n}\n",
  "sourcePath": "/Users/noel/workspace/manak/RedNFTcontracts/contracts/RedMarketplace.sol",
  "compiler": {
    "name": "solc",
    "version": "0.8.11+commit.d7f03943.Emscripten.clang"
  },
  "schemaVersion": "3.4.5",
  "updatedAt": "2022-04-06T11:21:21.056Z",
  "networkType": "ethereum",
  "devdoc": {
    "kind": "dev",
    "methods": {},
    "version": 1
  },
  "userdoc": {
    "kind": "user",
    "methods": {},
    "version": 1
  }
}