{
  "contractName": "RedMarketplace",
  "abi": [
    {
      "inputs": [
        {
          "internalType": "address",
          "name": "redTokenAddress",
          "type": "address"
        }
      ],
      "stateMutability": "nonpayable",
      "type": "constructor"
    },
    {
      "anonymous": false,
      "inputs": [
        {
          "components": [
            {
              "internalType": "uint256",
              "name": "itemId",
              "type": "uint256"
            },
            {
              "internalType": "address",
              "name": "tokenAddress",
              "type": "address"
            },
            {
              "internalType": "uint256",
              "name": "tokenId",
              "type": "uint256"
            },
            {
              "internalType": "address payable",
              "name": "owner",
              "type": "address"
            },
            {
              "internalType": "uint256",
              "name": "askingPrice",
              "type": "uint256"
            },
            {
              "internalType": "bool",
              "name": "isForSale",
              "type": "bool"
            },
            {
              "internalType": "uint256",
              "name": "royalty",
              "type": "uint256"
            }
          ],
          "indexed": false,
          "internalType": "struct RedMarketplace.ListingItem",
          "name": "item",
          "type": "tuple"
        }
      ],
      "name": "itemAdded",
      "type": "event"
    },
    {
      "anonymous": false,
      "inputs": [
        {
          "components": [
            {
              "internalType": "uint256",
              "name": "itemId",
              "type": "uint256"
            },
            {
              "internalType": "address",
              "name": "tokenAddress",
              "type": "address"
            },
            {
              "internalType": "uint256",
              "name": "tokenId",
              "type": "uint256"
            },
            {
              "internalType": "address payable",
              "name": "owner",
              "type": "address"
            },
            {
              "internalType": "uint256",
              "name": "askingPrice",
              "type": "uint256"
            },
            {
              "internalType": "bool",
              "name": "isForSale",
              "type": "bool"
            },
            {
              "internalType": "uint256",
              "name": "royalty",
              "type": "uint256"
            }
          ],
          "indexed": false,
          "internalType": "struct RedMarketplace.ListingItem",
          "name": "item",
          "type": "tuple"
        }
      ],
      "name": "itemSold",
      "type": "event"
    },
    {
      "anonymous": false,
      "inputs": [
        {
          "components": [
            {
              "internalType": "uint256",
              "name": "itemId",
              "type": "uint256"
            },
            {
              "internalType": "address",
              "name": "tokenAddress",
              "type": "address"
            },
            {
              "internalType": "uint256",
              "name": "tokenId",
              "type": "uint256"
            },
            {
              "internalType": "address payable",
              "name": "owner",
              "type": "address"
            },
            {
              "internalType": "uint256",
              "name": "askingPrice",
              "type": "uint256"
            },
            {
              "internalType": "bool",
              "name": "isForSale",
              "type": "bool"
            },
            {
              "internalType": "uint256",
              "name": "royalty",
              "type": "uint256"
            }
          ],
          "indexed": false,
          "internalType": "struct RedMarketplace.ListingItem",
          "name": "item",
          "type": "tuple"
        }
      ],
      "name": "listingUpdated",
      "type": "event"
    },
    {
      "anonymous": false,
      "inputs": [
        {
          "components": [
            {
              "internalType": "uint256",
              "name": "offerId",
              "type": "uint256"
            },
            {
              "internalType": "address",
              "name": "creator",
              "type": "address"
            },
            {
              "internalType": "uint256",
              "name": "itemId",
              "type": "uint256"
            },
            {
              "internalType": "uint256",
              "name": "amount",
              "type": "uint256"
            },
            {
              "internalType": "bool",
              "name": "isOfferOpen",
              "type": "bool"
            }
          ],
          "indexed": false,
          "internalType": "struct RedMarketplace.Offer",
          "name": "offer",
          "type": "tuple"
        }
      ],
      "name": "offerAccepted",
      "type": "event"
    },
    {
      "anonymous": false,
      "inputs": [
        {
          "components": [
            {
              "internalType": "uint256",
              "name": "offerId",
              "type": "uint256"
            },
            {
              "internalType": "address",
              "name": "creator",
              "type": "address"
            },
            {
              "internalType": "uint256",
              "name": "itemId",
              "type": "uint256"
            },
            {
              "internalType": "uint256",
              "name": "amount",
              "type": "uint256"
            },
            {
              "internalType": "bool",
              "name": "isOfferOpen",
              "type": "bool"
            }
          ],
          "indexed": false,
          "internalType": "struct RedMarketplace.Offer",
          "name": "offer",
          "type": "tuple"
        }
      ],
      "name": "offerCancelled",
      "type": "event"
    },
    {
      "anonymous": false,
      "inputs": [
        {
          "components": [
            {
              "internalType": "uint256",
              "name": "offerId",
              "type": "uint256"
            },
            {
              "internalType": "address",
              "name": "creator",
              "type": "address"
            },
            {
              "internalType": "uint256",
              "name": "itemId",
              "type": "uint256"
            },
            {
              "internalType": "uint256",
              "name": "amount",
              "type": "uint256"
            },
            {
              "internalType": "bool",
              "name": "isOfferOpen",
              "type": "bool"
            }
          ],
          "indexed": false,
          "internalType": "struct RedMarketplace.Offer",
          "name": "offer",
          "type": "tuple"
        }
      ],
      "name": "offerCreated",
      "type": "event"
    },
    {
      "inputs": [],
      "name": "getRedMinterAddress",
      "outputs": [
        {
          "internalType": "address",
          "name": "",
          "type": "address"
        }
      ],
      "stateMutability": "view",
      "type": "function",
      "constant": true
    },
    {
      "inputs": [
        {
          "internalType": "uint256",
          "name": "tokenId",
          "type": "uint256"
        },
        {
          "internalType": "address",
          "name": "tokenAddress",
          "type": "address"
        },
        {
          "internalType": "uint256",
          "name": "askingPrice",
          "type": "uint256"
        },
        {
          "internalType": "bool",
          "name": "isForSale",
          "type": "bool"
        },
        {
          "internalType": "address",
          "name": "owner",
          "type": "address"
        }
      ],
      "name": "listItem",
      "outputs": [],
      "stateMutability": "nonpayable",
      "type": "function"
    },
    {
      "inputs": [
        {
          "internalType": "uint256",
          "name": "listingId",
          "type": "uint256"
        },
        {
          "internalType": "uint256",
          "name": "askingPrice",
          "type": "uint256"
        }
      ],
      "name": "updateAskingPrice",
      "outputs": [],
      "stateMutability": "nonpayable",
      "type": "function"
    },
    {
      "inputs": [
        {
          "internalType": "uint256",
          "name": "listingId",
          "type": "uint256"
        },
        {
          "internalType": "bool",
          "name": "listingStatus",
          "type": "bool"
        }
      ],
      "name": "updateListingStatus",
      "outputs": [],
      "stateMutability": "nonpayable",
      "type": "function"
    },
    {
      "inputs": [
        {
          "internalType": "uint256",
          "name": "listingId",
          "type": "uint256"
        },
        {
          "internalType": "uint256",
          "name": "amount",
          "type": "uint256"
        }
      ],
      "name": "createOffer",
      "outputs": [],
      "stateMutability": "nonpayable",
      "type": "function"
    },
    {
      "inputs": [
        {
          "internalType": "uint256",
          "name": "offerId",
          "type": "uint256"
        }
      ],
      "name": "cancelOffer",
      "outputs": [],
      "stateMutability": "nonpayable",
      "type": "function"
    },
    {
      "inputs": [
        {
          "internalType": "address",
          "name": "offerCreator",
          "type": "address"
        }
      ],
      "name": "getAllowance",
      "outputs": [
        {
          "internalType": "uint256",
          "name": "",
          "type": "uint256"
        }
      ],
      "stateMutability": "view",
      "type": "function",
      "constant": true
    },
    {
      "inputs": [
        {
          "internalType": "address",
          "name": "_nftContract",
          "type": "address"
        },
        {
          "internalType": "uint256",
          "name": "offerId",
          "type": "uint256"
        }
      ],
      "name": "acceptOffer",
      "outputs": [],
      "stateMutability": "nonpayable",
      "type": "function"
    },
    {
      "inputs": [
        {
          "internalType": "address",
          "name": "_nftContract",
          "type": "address"
        },
        {
          "internalType": "uint256",
          "name": "listingId",
          "type": "uint256"
        },
        {
          "internalType": "uint256",
          "name": "amount",
          "type": "uint256"
        }
      ],
      "name": "buyNow",
      "outputs": [],
      "stateMutability": "nonpayable",
      "type": "function"
    },
    {
      "inputs": [
        {
          "internalType": "uint256",
          "name": "listingId",
          "type": "uint256"
        }
      ],
      "name": "getListingById",
      "outputs": [
        {
          "components": [
            {
              "internalType": "uint256",
              "name": "itemId",
              "type": "uint256"
            },
            {
              "internalType": "address",
              "name": "tokenAddress",
              "type": "address"
            },
            {
              "internalType": "uint256",
              "name": "tokenId",
              "type": "uint256"
            },
            {
              "internalType": "address payable",
              "name": "owner",
              "type": "address"
            },
            {
              "internalType": "uint256",
              "name": "askingPrice",
              "type": "uint256"
            },
            {
              "internalType": "bool",
              "name": "isForSale",
              "type": "bool"
            },
            {
              "internalType": "uint256",
              "name": "royalty",
              "type": "uint256"
            }
          ],
          "internalType": "struct RedMarketplace.ListingItem",
          "name": "",
          "type": "tuple"
        }
      ],
      "stateMutability": "view",
      "type": "function",
      "constant": true
    },
    {
      "inputs": [
        {
          "internalType": "uint256",
          "name": "offerId",
          "type": "uint256"
        }
      ],
      "name": "getOfferById",
      "outputs": [
        {
          "components": [
            {
              "internalType": "uint256",
              "name": "offerId",
              "type": "uint256"
            },
            {
              "internalType": "address",
              "name": "creator",
              "type": "address"
            },
            {
              "internalType": "uint256",
              "name": "itemId",
              "type": "uint256"
            },
            {
              "internalType": "uint256",
              "name": "amount",
              "type": "uint256"
            },
            {
              "internalType": "bool",
              "name": "isOfferOpen",
              "type": "bool"
            }
          ],
          "internalType": "struct RedMarketplace.Offer",
          "name": "",
          "type": "tuple"
        }
      ],
      "stateMutability": "view",
      "type": "function",
      "constant": true
    }
  ],
  "bytecode": "0x60806040527301dc00e095788275224187812b3f92f5ef8dd069600160006101000a81548173ffffffffffffffffffffffffffffffffffffffff021916908373ffffffffffffffffffffffffffffffffffffffff1602179055503480156200006657600080fd5b50604051620029953803806200299583398181016040528101906200008c91906200013d565b806000806101000a81548173ffffffffffffffffffffffffffffffffffffffff021916908373ffffffffffffffffffffffffffffffffffffffff160217905550506200016f565b600080fd5b600073ffffffffffffffffffffffffffffffffffffffff82169050919050565b60006200010582620000d8565b9050919050565b6200011781620000f8565b81146200012357600080fd5b50565b60008151905062000137816200010c565b92915050565b600060208284031215620001565762000155620000d3565b5b6000620001668482850162000126565b91505092915050565b612816806200017f6000396000f3fe608060405234801561001057600080fd5b50600436106100a95760003560e01c806398214bcb1161007157806398214bcb14610164578063b1b9e78d14610180578063df7ed2791461019c578063eb5a662e146101b8578063ef706adf146101e8578063f8b7ae0c14610204576100a9565b80631afed875146100ae57806329d0eb34146100ca57806338931883146100e65780634f85310f146101165780635071c51f14610146575b600080fd5b6100c860048036038101906100c391906119b5565b610220565b005b6100e460048036038101906100df91906119b5565b610575565b005b61010060048036038101906100fb91906119f5565b61067b565b60405161010d9190611af5565b60405180910390f35b610130600480360381019061012b91906119f5565b610737565b60405161013d9190611bbf565b60405180910390f35b61014e610853565b60405161015b9190611be9565b60405180910390f35b61017e60048036038101906101799190611c30565b61087d565b005b61019a60048036038101906101959190611c9c565b61099c565b005b6101b660048036038101906101b19190611cdc565b610eb6565b005b6101d260048036038101906101cd9190611d2f565b61131a565b6040516101df9190611d6b565b60405180910390f35b61020260048036038101906101fd91906119f5565b6113c0565b005b61021e60048036038101906102199190611d86565b6114df565b005b60006004600084815260200190815260200160002090508060050160009054906101000a900460ff16610288576040517f08c379a000000000000000000000000000000000000000000000000000000000815260040161027f90611e84565b60405180910390fd5b806004015460008054906101000a900473ffffffffffffffffffffffffffffffffffffffff1673ffffffffffffffffffffffffffffffffffffffff166370a08231336040518263ffffffff1660e01b81526004016102e69190611be9565b602060405180830381865afa158015610303573d6000803e3d6000fd5b505050506040513d601f19601f820116820180604052508101906103279190611eb9565b1015610368576040517f08c379a000000000000000000000000000000000000000000000000000000000815260040161035f90611f32565b60405180910390fd5b600061037460036118a4565b905060006040518060a001604052808381526020013373ffffffffffffffffffffffffffffffffffffffff16815260200186815260200185815260200160011515815250905080600560008481526020019081526020016000206000820151816000015560208201518160010160006101000a81548173ffffffffffffffffffffffffffffffffffffffff021916908373ffffffffffffffffffffffffffffffffffffffff160217905550604082015181600201556060820151816003015560808201518160040160006101000a81548160ff0219169083151502179055509050508360008054906101000a900473ffffffffffffffffffffffffffffffffffffffff1673ffffffffffffffffffffffffffffffffffffffff1663dd62ed3e8360200151306040518363ffffffff1660e01b81526004016104b6929190611f52565b602060405180830381865afa1580156104d3573d6000803e3d6000fd5b505050506040513d601f19601f820116820180604052508101906104f79190611eb9565b11610537576040517f08c379a000000000000000000000000000000000000000000000000000000000815260040161052e90611fed565b60405180910390fd5b7f34789e06f24fa565512b9bb51cce0b6e65c86ca55bffb772a10342676140202d816040516105669190611af5565b60405180910390a15050505050565b3373ffffffffffffffffffffffffffffffffffffffff166004600084815260200190815260200160002060030160009054906101000a900473ffffffffffffffffffffffffffffffffffffffff1673ffffffffffffffffffffffffffffffffffffffff1614610619576040517f08c379a000000000000000000000000000000000000000000000000000000000815260040161061090612059565b60405180910390fd5b6000811161065c576040517f08c379a0000000000000000000000000000000000000000000000000000000008152600401610653906120c5565b60405180910390fd5b8060046000848152602001908152602001600020600401819055505050565b6106836118c8565b600560008381526020019081526020016000206040518060a0016040529081600082015481526020016001820160009054906101000a900473ffffffffffffffffffffffffffffffffffffffff1673ffffffffffffffffffffffffffffffffffffffff1673ffffffffffffffffffffffffffffffffffffffff16815260200160028201548152602001600382015481526020016004820160009054906101000a900460ff1615151515815250509050919050565b61073f61190f565b600460008381526020019081526020016000206040518060e0016040529081600082015481526020016001820160009054906101000a900473ffffffffffffffffffffffffffffffffffffffff1673ffffffffffffffffffffffffffffffffffffffff1673ffffffffffffffffffffffffffffffffffffffff168152602001600282015481526020016003820160009054906101000a900473ffffffffffffffffffffffffffffffffffffffff1673ffffffffffffffffffffffffffffffffffffffff1673ffffffffffffffffffffffffffffffffffffffff168152602001600482015481526020016005820160009054906101000a900460ff161515151581526020016006820154815250509050919050565b6000600160009054906101000a900473ffffffffffffffffffffffffffffffffffffffff16905090565b3373ffffffffffffffffffffffffffffffffffffffff166004600084815260200190815260200160002060030160009054906101000a900473ffffffffffffffffffffffffffffffffffffffff1673ffffffffffffffffffffffffffffffffffffffff1614610921576040517f08c379a000000000000000000000000000000000000000000000000000000000815260040161091890612059565b60405180910390fd5b806004600084815260200190815260200160002060050160006101000a81548160ff0219169083151502179055507f872e712a215bd5c02884ce4d357f3a4689e5eaa73e7d35fc9ad684ac3b59c39160046000848152602001908152602001600020604051610990919061228e565b60405180910390a15050565b60006005600083815260200190815260200160002090506000600460008360020154815260200190815260200160002090503373ffffffffffffffffffffffffffffffffffffffff168160030160009054906101000a900473ffffffffffffffffffffffffffffffffffffffff1673ffffffffffffffffffffffffffffffffffffffff1614610a60576040517f08c379a0000000000000000000000000000000000000000000000000000000008152600401610a5790612059565b60405180910390fd5b8160040160009054906101000a900460ff16610ab1576040517f08c379a0000000000000000000000000000000000000000000000000000000008152600401610aa8906122f5565b60405180910390fd5b610ade8260010160009054906101000a900473ffffffffffffffffffffffffffffffffffffffff1661131a565b82600301541115610b24576040517f08c379a0000000000000000000000000000000000000000000000000000000008152600401610b1b90612387565b60405180910390fd5b6000606482600601548460030154610b3c91906123d6565b610b46919061245f565b905060008054906101000a900473ffffffffffffffffffffffffffffffffffffffff1673ffffffffffffffffffffffffffffffffffffffff166323b872dd8460010160009054906101000a900473ffffffffffffffffffffffffffffffffffffffff168460030160009054906101000a900473ffffffffffffffffffffffffffffffffffffffff16848760030154610bde9190612490565b6040518463ffffffff1660e01b8152600401610bfc93929190612523565b6020604051808303816000875af1158015610c1b573d6000803e3d6000fd5b505050506040513d601f19601f82011682018060405250810190610c3f919061256f565b5060008054906101000a900473ffffffffffffffffffffffffffffffffffffffff1673ffffffffffffffffffffffffffffffffffffffff166323b872dd8460010160009054906101000a900473ffffffffffffffffffffffffffffffffffffffff1630846040518463ffffffff1660e01b8152600401610cc19392919061259c565b6020604051808303816000875af1158015610ce0573d6000803e3d6000fd5b505050506040513d601f19601f82011682018060405250810190610d04919061256f565b508473ffffffffffffffffffffffffffffffffffffffff166342842e0e338560010160009054906101000a900473ffffffffffffffffffffffffffffffffffffffff1685600201546040518463ffffffff1660e01b8152600401610d6a9392919061259c565b600060405180830381600087803b158015610d8457600080fd5b505af1158015610d98573d6000803e3d6000fd5b505050508260010160009054906101000a900473ffffffffffffffffffffffffffffffffffffffff16600460008560020154815260200190815260200160002060030160006101000a81548173ffffffffffffffffffffffffffffffffffffffff021916908373ffffffffffffffffffffffffffffffffffffffff1602179055507f709b84a3460fbf463071fb2ee858d2e5dec0792679f6ba748f96e8736f0bc32f6004600085600201548152602001908152602001600020604051610e5e919061228e565b60405180910390a17f12ff224db97c010c6692e43c2fc8cf291791618c0125cb65094e1a8c365bb61c60056000868152602001908152602001600020604051610ea79190612674565b60405180910390a15050505050565b60006004600084815260200190815260200160002090508060050160009054906101000a900460ff16610f1e576040517f08c379a0000000000000000000000000000000000000000000000000000000008152600401610f15906126db565b60405180910390fd5b8060040154821015610f65576040517f08c379a0000000000000000000000000000000000000000000000000000000008152600401610f5c90612747565b60405180910390fd5b806004015460008054906101000a900473ffffffffffffffffffffffffffffffffffffffff1673ffffffffffffffffffffffffffffffffffffffff166370a08231336040518263ffffffff1660e01b8152600401610fc39190611be9565b602060405180830381865afa158015610fe0573d6000803e3d6000fd5b505050506040513d601f19601f820116820180604052508101906110049190611eb9565b1015611045576040517f08c379a000000000000000000000000000000000000000000000000000000000815260040161103c90611f32565b60405180910390fd5b600060648260060154836004015461105d91906123d6565b611067919061245f565b905060008054906101000a900473ffffffffffffffffffffffffffffffffffffffff1673ffffffffffffffffffffffffffffffffffffffff166323b872dd338460030160009054906101000a900473ffffffffffffffffffffffffffffffffffffffff168486600401546110db9190612490565b6040518463ffffffff1660e01b81526004016110f993929190612523565b6020604051808303816000875af1158015611118573d6000803e3d6000fd5b505050506040513d601f19601f8201168201806040525081019061113c919061256f565b5060008054906101000a900473ffffffffffffffffffffffffffffffffffffffff1673ffffffffffffffffffffffffffffffffffffffff166323b872dd3330846040518463ffffffff1660e01b815260040161119a9392919061259c565b6020604051808303816000875af11580156111b9573d6000803e3d6000fd5b505050506040513d601f19601f820116820180604052508101906111dd919061256f565b508473ffffffffffffffffffffffffffffffffffffffff166342842e0e8360030160009054906101000a900473ffffffffffffffffffffffffffffffffffffffff163385600201546040518463ffffffff1660e01b815260040161124393929190612767565b600060405180830381600087803b15801561125d57600080fd5b505af1158015611271573d6000803e3d6000fd5b50505050336004600086815260200190815260200160002060030160006101000a81548173ffffffffffffffffffffffffffffffffffffffff021916908373ffffffffffffffffffffffffffffffffffffffff1602179055507f709b84a3460fbf463071fb2ee858d2e5dec0792679f6ba748f96e8736f0bc32f6004600086815260200190815260200160002060405161130b919061228e565b60405180910390a15050505050565b60008060009054906101000a900473ffffffffffffffffffffffffffffffffffffffff1673ffffffffffffffffffffffffffffffffffffffff1663dd62ed3e83306040518363ffffffff1660e01b8152600401611378929190611f52565b602060405180830381865afa158015611395573d6000803e3d6000fd5b505050506040513d601f19601f820116820180604052508101906113b99190611eb9565b9050919050565b3373ffffffffffffffffffffffffffffffffffffffff166005600083815260200190815260200160002060010160009054906101000a900473ffffffffffffffffffffffffffffffffffffffff1673ffffffffffffffffffffffffffffffffffffffff1614611464576040517f08c379a000000000000000000000000000000000000000000000000000000000815260040161145b90612059565b60405180910390fd5b60006005600083815260200190815260200160002060040160006101000a81548160ff0219169083151502179055507fc1234f35a1e1e3326c0695929ca16fedd3a111be416dc7726efdac73277a81ab600560008381526020019081526020016000206040516114d49190612674565b60405180910390a150565b838560008290503373ffffffffffffffffffffffffffffffffffffffff168173ffffffffffffffffffffffffffffffffffffffff16636352211e846040518263ffffffff1660e01b81526004016115369190611d6b565b602060405180830381865afa158015611553573d6000803e3d6000fd5b505050506040513d601f19601f8201168201806040525081019061157791906127b3565b73ffffffffffffffffffffffffffffffffffffffff161461159757600080fd5b868860008290503073ffffffffffffffffffffffffffffffffffffffff168173ffffffffffffffffffffffffffffffffffffffff1663081812fc846040518263ffffffff1660e01b81526004016115ee9190611d6b565b602060405180830381865afa15801561160b573d6000803e3d6000fd5b505050506040513d601f19601f8201168201806040525081019061162f91906127b3565b73ffffffffffffffffffffffffffffffffffffffff161461164f57600080fd5b60008911611692576040517f08c379a0000000000000000000000000000000000000000000000000000000008152600401611689906120c5565b60405180910390fd5b600061169e60026118a4565b90506000600a9050600160009054906101000a900473ffffffffffffffffffffffffffffffffffffffff1673ffffffffffffffffffffffffffffffffffffffff163373ffffffffffffffffffffffffffffffffffffffff16141561170157601e90505b60006040518060e001604052808481526020018e73ffffffffffffffffffffffffffffffffffffffff1681526020018f81526020018b73ffffffffffffffffffffffffffffffffffffffff1681526020018d81526020018c1515815260200183815250905080600460008581526020019081526020016000206000820151816000015560208201518160010160006101000a81548173ffffffffffffffffffffffffffffffffffffffff021916908373ffffffffffffffffffffffffffffffffffffffff1602179055506040820151816002015560608201518160030160006101000a81548173ffffffffffffffffffffffffffffffffffffffff021916908373ffffffffffffffffffffffffffffffffffffffff1602179055506080820151816004015560a08201518160050160006101000a81548160ff02191690831515021790555060c0820151816006015590505061185d60026118b2565b7f41b861adba3bf38ed2a070632996c17d9cfbb82a9199c192494e9c95580663728160405161188c9190611bbf565b60405180910390a15050505050505050505050505050565b600081600001549050919050565b6001816000016000828254019250508190555050565b6040518060a0016040528060008152602001600073ffffffffffffffffffffffffffffffffffffffff16815260200160008152602001600081526020016000151581525090565b6040518060e0016040528060008152602001600073ffffffffffffffffffffffffffffffffffffffff16815260200160008152602001600073ffffffffffffffffffffffffffffffffffffffff16815260200160008152602001600015158152602001600081525090565b600080fd5b6000819050919050565b6119928161197f565b811461199d57600080fd5b50565b6000813590506119af81611989565b92915050565b600080604083850312156119cc576119cb61197a565b5b60006119da858286016119a0565b92505060206119eb858286016119a0565b9150509250929050565b600060208284031215611a0b57611a0a61197a565b5b6000611a19848285016119a0565b91505092915050565b611a2b8161197f565b82525050565b600073ffffffffffffffffffffffffffffffffffffffff82169050919050565b6000611a5c82611a31565b9050919050565b611a6c81611a51565b82525050565b60008115159050919050565b611a8781611a72565b82525050565b60a082016000820151611aa36000850182611a22565b506020820151611ab66020850182611a63565b506040820151611ac96040850182611a22565b506060820151611adc6060850182611a22565b506080820151611aef6080850182611a7e565b50505050565b600060a082019050611b0a6000830184611a8d565b92915050565b6000611b1b82611a31565b9050919050565b611b2b81611b10565b82525050565b60e082016000820151611b476000850182611a22565b506020820151611b5a6020850182611a63565b506040820151611b6d6040850182611a22565b506060820151611b806060850182611b22565b506080820151611b936080850182611a22565b5060a0820151611ba660a0850182611a7e565b5060c0820151611bb960c0850182611a22565b50505050565b600060e082019050611bd46000830184611b31565b92915050565b611be381611a51565b82525050565b6000602082019050611bfe6000830184611bda565b92915050565b611c0d81611a72565b8114611c1857600080fd5b50565b600081359050611c2a81611c04565b92915050565b60008060408385031215611c4757611c4661197a565b5b6000611c55858286016119a0565b9250506020611c6685828601611c1b565b9150509250929050565b611c7981611a51565b8114611c8457600080fd5b50565b600081359050611c9681611c70565b92915050565b60008060408385031215611cb357611cb261197a565b5b6000611cc185828601611c87565b9250506020611cd2858286016119a0565b9150509250929050565b600080600060608486031215611cf557611cf461197a565b5b6000611d0386828701611c87565b9350506020611d14868287016119a0565b9250506040611d25868287016119a0565b9150509250925092565b600060208284031215611d4557611d4461197a565b5b6000611d5384828501611c87565b91505092915050565b611d658161197f565b82525050565b6000602082019050611d806000830184611d5c565b92915050565b600080600080600060a08688031215611da257611da161197a565b5b6000611db0888289016119a0565b9550506020611dc188828901611c87565b9450506040611dd2888289016119a0565b9350506060611de388828901611c1b565b9250506080611df488828901611c87565b9150509295509295909350565b600082825260208201905092915050565b7f4c6973746564206974656d206973204e4f5420616363657074696e67206f666660008201527f6572730000000000000000000000000000000000000000000000000000000000602082015250565b6000611e6e602383611e01565b9150611e7982611e12565b604082019050919050565b60006020820190508181036000830152611e9d81611e61565b9050919050565b600081519050611eb381611989565b92915050565b600060208284031215611ecf57611ece61197a565b5b6000611edd84828501611ea4565b91505092915050565b7f496e73756666696369656e742052454420746f6b656e2062616c616e63650000600082015250565b6000611f1c601e83611e01565b9150611f2782611ee6565b602082019050919050565b60006020820190508181036000830152611f4b81611f0f565b9050919050565b6000604082019050611f676000830185611bda565b611f746020830184611bda565b9392505050565b7f696e73756666696369656e7420616c6c6f77616e63652c2072652d696e69746960008201527f616c697a652077616c6c65740000000000000000000000000000000000000000602082015250565b6000611fd7602c83611e01565b9150611fe282611f7b565b604082019050919050565b6000602082019050818103600083015261200681611fca565b9050919050565b7f556e617574686f72697a65642075736572000000000000000000000000000000600082015250565b6000612043601183611e01565b915061204e8261200d565b602082019050919050565b6000602082019050818103600083015261207281612036565b9050919050565b7f5072696365206d757374206265206174206c6561737420312052454400000000600082015250565b60006120af601c83611e01565b91506120ba82612079565b602082019050919050565b600060208201905081810360008301526120de816120a2565b9050919050565b60008160001c9050919050565b6000819050919050565b600061210f61210a836120e5565b6120f2565b9050919050565b600073ffffffffffffffffffffffffffffffffffffffff82169050919050565b6000612149612144836120e5565b612116565b9050919050565b600073ffffffffffffffffffffffffffffffffffffffff82169050919050565b600061218361217e836120e5565b612150565b9050919050565b600060ff82169050919050565b60006121aa6121a5836120e5565b61218a565b9050919050565b60e0820160008083015490506121c6816120fc565b6121d36000860182611a22565b50600183015490506121e481612136565b6121f16020860182611a63565b5060028301549050612202816120fc565b61220f6040860182611a22565b506003830154905061222081612170565b61222d6060860182611b22565b506004830154905061223e816120fc565b61224b6080860182611a22565b506005830154905061225c81612197565b61226960a0860182611a7e565b506006830154905061227a816120fc565b61228760c0860182611a22565b5050505050565b600060e0820190506122a360008301846121b1565b92915050565b7f4f6666657220697320636c6f7365640000000000000000000000000000000000600082015250565b60006122df600f83611e01565b91506122ea826122a9565b602082019050919050565b6000602082019050818103600083015261230e816122d2565b9050919050565b7f546f6b656e207472616e73666572206e6f7420617070726f766564206279207460008201527f6865206f666665722063726561746f7200000000000000000000000000000000602082015250565b6000612371603083611e01565b915061237c82612315565b604082019050919050565b600060208201905081810360008301526123a081612364565b9050919050565b7f4e487b7100000000000000000000000000000000000000000000000000000000600052601160045260246000fd5b60006123e18261197f565b91506123ec8361197f565b9250817fffffffffffffffffffffffffffffffffffffffffffffffffffffffffffffffff0483118215151615612425576124246123a7565b5b828202905092915050565b7f4e487b7100000000000000000000000000000000000000000000000000000000600052601260045260246000fd5b600061246a8261197f565b91506124758361197f565b92508261248557612484612430565b5b828204905092915050565b600061249b8261197f565b91506124a68361197f565b9250828210156124b9576124b86123a7565b5b828203905092915050565b6000819050919050565b60006124e96124e46124df84611a31565b6124c4565b611a31565b9050919050565b60006124fb826124ce565b9050919050565b600061250d826124f0565b9050919050565b61251d81612502565b82525050565b60006060820190506125386000830186611bda565b6125456020830185612514565b6125526040830184611d5c565b949350505050565b60008151905061256981611c04565b92915050565b6000602082840312156125855761258461197a565b5b60006125938482850161255a565b91505092915050565b60006060820190506125b16000830186611bda565b6125be6020830185611bda565b6125cb6040830184611d5c565b949350505050565b60a0820160008083015490506125e8816120fc565b6125f56000860182611a22565b506001830154905061260681612136565b6126136020860182611a63565b5060028301549050612624816120fc565b6126316040860182611a22565b5060038301549050612642816120fc565b61264f6060860182611a22565b506004830154905061266081612197565b61266d6080860182611a7e565b5050505050565b600060a08201905061268960008301846125d3565b92915050565b7f4c6973746564206974656d206973204e4f5420666f722073616c650000000000600082015250565b60006126c5601b83611e01565b91506126d08261268f565b602082019050919050565b600060208201905081810360008301526126f4816126b8565b9050919050565b7f496e73756666696369656e742052454420746f6b656e20616d6f756e74000000600082015250565b6000612731601d83611e01565b915061273c826126fb565b602082019050919050565b6000602082019050818103600083015261276081612724565b9050919050565b600060608201905061277c6000830186612514565b6127896020830185611bda565b6127966040830184611d5c565b949350505050565b6000815190506127ad81611c70565b92915050565b6000602082840312156127c9576127c861197a565b5b60006127d78482850161279e565b9150509291505056fea2646970667358221220901e0857aa240fb8dcec765187ff14c41e1f119c40b914d38c61f357028d838764736f6c634300080b0033",
  "immutableReferences": {},
  "source": "// SPDX-License-Identifier: MIT\npragma solidity ^0.8.4;\n\nimport \"@openzeppelin/contracts/token/ERC721/IERC721.sol\";\nimport \"@openzeppelin/contracts/utils/Counters.sol\";\nimport \"@openzeppelin/contracts/token/ERC20/ERC20.sol\";\nimport \"@openzeppelin/contracts/token/ERC20/IERC20.sol\";\n\ncontract RedMarketplace {\n    using Counters for Counters.Counter;\n\n    IERC20 redToken;\n    address redMinterAddress = 0x01Dc00E095788275224187812B3f92f5eF8dD069; // TODO\n\n    struct ListingItem {\n        uint256 itemId;\n        address tokenAddress;\n        uint256 tokenId;\n        address payable owner;\n        uint256 askingPrice;\n        bool isForSale;\n        uint256 royalty;\n    }\n\n    struct Offer {\n        uint256 offerId;\n        address creator;\n        uint256 itemId;\n        uint256 amount;\n        bool isOfferOpen;\n    }\n\n    constructor(address redTokenAddress) {\n        redToken = IERC20(redTokenAddress); // Token Address\n    }\n\n    Counters.Counter private _listingIdCounter;\n    Counters.Counter private _offerIdCounter;\n    mapping(uint256 => ListingItem) private items;\n    mapping(uint256 => Offer) private offers;\n\n    event itemAdded(ListingItem item);\n    event listingUpdated(ListingItem item);\n    event itemSold(ListingItem item);\n    event offerCreated(Offer offer);\n    event offerAccepted(Offer offer);\n    event offerCancelled(Offer offer);\n\n    modifier OnlyItemOwner(address tokenAddress, uint256 tokenId) {\n        IERC721 nftContract = IERC721(tokenAddress);\n        require(nftContract.ownerOf(tokenId) == msg.sender);\n        _;\n    }\n\n    modifier HasTransferApproval(address tokenAddress, uint256 tokenId) {\n        IERC721 nftContract = IERC721(tokenAddress);\n        require(nftContract.getApproved(tokenId) == address(this));\n        _;\n    }\n\n    function getRedMinterAddress() public view returns (address) {\n        return redMinterAddress;\n    }\n\n    function listItem(\n        uint256 tokenId,\n        address tokenAddress,\n        uint256 askingPrice,\n        bool isForSale,\n        address owner\n    )\n        external\n        OnlyItemOwner(tokenAddress, tokenId)\n        HasTransferApproval(tokenAddress, tokenId)\n    {\n        require(askingPrice > 0, \"Price must be at least 1 RED\");\n        uint256 listingId = _listingIdCounter.current();\n        uint256 royalty = 10;\n        if (msg.sender == redMinterAddress) {\n            royalty = 30;\n        }\n        ListingItem memory listing = ListingItem(\n            listingId,\n            tokenAddress,\n            tokenId,\n            payable(owner),\n            askingPrice,\n            isForSale,\n            royalty\n        );\n        items[listingId] = listing;\n        _listingIdCounter.increment();\n        emit itemAdded(listing);\n    }\n\n    function updateAskingPrice(uint256 listingId, uint256 askingPrice)\n        external\n    {\n        require(items[listingId].owner == msg.sender, \"Unauthorized user\");\n        require(askingPrice > 0, \"Price must be at least 1 RED\");\n        items[listingId].askingPrice = askingPrice;\n    }\n\n    function updateListingStatus(uint256 listingId, bool listingStatus)\n        external\n    {\n        require(items[listingId].owner == msg.sender, \"Unauthorized user\");\n        items[listingId].isForSale = listingStatus;\n        emit listingUpdated(items[listingId]);\n    }\n\n    function createOffer(uint256 listingId, uint256 amount) external {\n        ListingItem storage listing = items[listingId];\n        require(listing.isForSale, \"Listed item is NOT accepting offers\");\n        require(\n            redToken.balanceOf(msg.sender) >= listing.askingPrice,\n            \"Insufficient RED token balance\"\n        );\n        uint256 offerId = _offerIdCounter.current();\n        Offer memory offer = Offer(\n            offerId,\n            msg.sender,\n            listingId,\n            amount,\n            true\n        );\n        offers[offerId] = offer;\n        //uint256 royalty = (amount * listing.royalty) / 100;\n        require(\n            redToken.allowance(offer.creator, address(this)) > amount,\n            \"insufficient allowance, re-initialize wallet\"\n        );\n        //redToken.approve(redMinterAddress, royalty);\n        emit offerCreated(offer);\n    }\n\n    function cancelOffer(uint256 offerId) external {\n        require(offers[offerId].creator == msg.sender, \"Unauthorized user\");\n        offers[offerId].isOfferOpen = false;\n        emit offerCancelled(offers[offerId]);\n    }\n\n    function getAllowance(address offerCreator) public view returns (uint256) {\n        return redToken.allowance(offerCreator, address(this));\n    }\n\n    function acceptOffer(address _nftContract, uint256 offerId) external {\n        Offer storage offer = offers[offerId];\n        ListingItem storage listing = items[offer.itemId];\n        require(listing.owner == msg.sender, \"Unauthorized user\");\n        require(offer.isOfferOpen, \"Offer is closed\");\n        require(\n            offer.amount <= getAllowance(offer.creator),\n            \"Token transfer not approved by the offer creator\"\n        );\n        uint256 royalty = (offer.amount * listing.royalty) / 100;\n        redToken.transferFrom(\n            offer.creator,\n            listing.owner,\n            offer.amount - royalty\n        );\n        redToken.transferFrom(offer.creator, address(this), royalty);\n        IERC721(_nftContract).safeTransferFrom(\n            msg.sender,\n            offer.creator,\n            listing.tokenId\n        );\n        items[offer.itemId].owner = payable(offer.creator);\n        emit itemSold(items[offer.itemId]);\n        emit offerAccepted(offers[offerId]);\n    }\n\n    function buyNow(\n        address _nftContract,\n        uint256 listingId,\n        uint256 amount\n    ) external {\n        ListingItem storage listing = items[listingId];\n        require(listing.isForSale, \"Listed item is NOT for sale\");\n        require(amount >= listing.askingPrice, \"Insufficient RED token amount\");\n        require(\n            redToken.balanceOf(msg.sender) >= listing.askingPrice,\n            \"Insufficient RED token balance\"\n        );\n        uint256 royalty = (listing.askingPrice * listing.royalty) / 100;\n        redToken.transferFrom(\n            msg.sender,\n            listing.owner,\n            listing.askingPrice - royalty\n        );\n        redToken.transferFrom(msg.sender, address(this), royalty);\n\n        IERC721(_nftContract).safeTransferFrom(\n            listing.owner,\n            msg.sender,\n            listing.tokenId\n        );\n        items[listingId].owner = payable(msg.sender);\n        emit itemSold(items[listingId]);\n    }\n\n    function getListingById(uint256 listingId)\n        public\n        view\n        returns (ListingItem memory)\n    {\n        return items[listingId];\n    }\n\n    function getOfferById(uint256 offerId) public view returns (Offer memory) {\n        return offers[offerId];\n    }\n}\n",
  "sourcePath": "/Users/bigmadcode/Desktop/RED Broadcast NFT Contract/contracts/RedMarketplace.sol",
  "compiler": {
    "name": "solc",
    "version": "0.8.11+commit.d7f03943.Emscripten.clang"
  },
  "schemaVersion": "3.4.6",
  "updatedAt": "2022-04-20T01:39:22.532Z",
  "networkType": "ethereum",
  "devdoc": {
    "kind": "dev",
    "methods": {},
    "version": 1
  },
  "userdoc": {
    "kind": "user",
    "methods": {},
    "version": 1
  }
}