{
  "contractName": "RedNFT",
  "abi": [
    {
      "inputs": [
        {
          "internalType": "address",
          "name": "marketAddress",
          "type": "address"
        }
      ],
      "stateMutability": "nonpayable",
      "type": "constructor"
    },
    {
      "anonymous": false,
      "inputs": [
        {
          "indexed": true,
          "internalType": "address",
          "name": "owner",
          "type": "address"
        },
        {
          "indexed": true,
          "internalType": "address",
          "name": "approved",
          "type": "address"
        },
        {
          "indexed": true,
          "internalType": "uint256",
          "name": "tokenId",
          "type": "uint256"
        }
      ],
      "name": "Approval",
      "type": "event"
    },
    {
      "anonymous": false,
      "inputs": [
        {
          "indexed": true,
          "internalType": "address",
          "name": "owner",
          "type": "address"
        },
        {
          "indexed": true,
          "internalType": "address",
          "name": "operator",
          "type": "address"
        },
        {
          "indexed": false,
          "internalType": "bool",
          "name": "approved",
          "type": "bool"
        }
      ],
      "name": "ApprovalForAll",
      "type": "event"
    },
    {
      "anonymous": false,
      "inputs": [
        {
          "indexed": true,
          "internalType": "bytes32",
          "name": "role",
          "type": "bytes32"
        },
        {
          "indexed": true,
          "internalType": "bytes32",
          "name": "previousAdminRole",
          "type": "bytes32"
        },
        {
          "indexed": true,
          "internalType": "bytes32",
          "name": "newAdminRole",
          "type": "bytes32"
        }
      ],
      "name": "RoleAdminChanged",
      "type": "event"
    },
    {
      "anonymous": false,
      "inputs": [
        {
          "indexed": true,
          "internalType": "bytes32",
          "name": "role",
          "type": "bytes32"
        },
        {
          "indexed": true,
          "internalType": "address",
          "name": "account",
          "type": "address"
        },
        {
          "indexed": true,
          "internalType": "address",
          "name": "sender",
          "type": "address"
        }
      ],
      "name": "RoleGranted",
      "type": "event"
    },
    {
      "anonymous": false,
      "inputs": [
        {
          "indexed": true,
          "internalType": "bytes32",
          "name": "role",
          "type": "bytes32"
        },
        {
          "indexed": true,
          "internalType": "address",
          "name": "account",
          "type": "address"
        },
        {
          "indexed": true,
          "internalType": "address",
          "name": "sender",
          "type": "address"
        }
      ],
      "name": "RoleRevoked",
      "type": "event"
    },
    {
      "anonymous": false,
      "inputs": [
        {
          "indexed": true,
          "internalType": "address",
          "name": "from",
          "type": "address"
        },
        {
          "indexed": true,
          "internalType": "address",
          "name": "to",
          "type": "address"
        },
        {
          "indexed": true,
          "internalType": "uint256",
          "name": "tokenId",
          "type": "uint256"
        }
      ],
      "name": "Transfer",
      "type": "event"
    },
    {
      "inputs": [],
      "name": "DEFAULT_ADMIN_ROLE",
      "outputs": [
        {
          "internalType": "bytes32",
          "name": "",
          "type": "bytes32"
        }
      ],
      "stateMutability": "view",
      "type": "function",
      "constant": true
    },
    {
      "inputs": [],
      "name": "MINTER_ROLE",
      "outputs": [
        {
          "internalType": "bytes32",
          "name": "",
          "type": "bytes32"
        }
      ],
      "stateMutability": "view",
      "type": "function",
      "constant": true
    },
    {
      "inputs": [
        {
          "internalType": "address",
          "name": "to",
          "type": "address"
        },
        {
          "internalType": "uint256",
          "name": "tokenId",
          "type": "uint256"
        }
      ],
      "name": "approve",
      "outputs": [],
      "stateMutability": "nonpayable",
      "type": "function"
    },
    {
      "inputs": [
        {
          "internalType": "address",
          "name": "owner",
          "type": "address"
        }
      ],
      "name": "balanceOf",
      "outputs": [
        {
          "internalType": "uint256",
          "name": "",
          "type": "uint256"
        }
      ],
      "stateMutability": "view",
      "type": "function",
      "constant": true
    },
    {
      "inputs": [
        {
          "internalType": "uint256",
          "name": "tokenId",
          "type": "uint256"
        }
      ],
      "name": "getApproved",
      "outputs": [
        {
          "internalType": "address",
          "name": "",
          "type": "address"
        }
      ],
      "stateMutability": "view",
      "type": "function",
      "constant": true
    },
    {
      "inputs": [
        {
          "internalType": "bytes32",
          "name": "role",
          "type": "bytes32"
        }
      ],
      "name": "getRoleAdmin",
      "outputs": [
        {
          "internalType": "bytes32",
          "name": "",
          "type": "bytes32"
        }
      ],
      "stateMutability": "view",
      "type": "function",
      "constant": true
    },
    {
      "inputs": [
        {
          "internalType": "bytes32",
          "name": "role",
          "type": "bytes32"
        },
        {
          "internalType": "address",
          "name": "account",
          "type": "address"
        }
      ],
      "name": "grantRole",
      "outputs": [],
      "stateMutability": "nonpayable",
      "type": "function"
    },
    {
      "inputs": [
        {
          "internalType": "bytes32",
          "name": "role",
          "type": "bytes32"
        },
        {
          "internalType": "address",
          "name": "account",
          "type": "address"
        }
      ],
      "name": "hasRole",
      "outputs": [
        {
          "internalType": "bool",
          "name": "",
          "type": "bool"
        }
      ],
      "stateMutability": "view",
      "type": "function",
      "constant": true
    },
    {
      "inputs": [
        {
          "internalType": "address",
          "name": "owner",
          "type": "address"
        },
        {
          "internalType": "address",
          "name": "operator",
          "type": "address"
        }
      ],
      "name": "isApprovedForAll",
      "outputs": [
        {
          "internalType": "bool",
          "name": "",
          "type": "bool"
        }
      ],
      "stateMutability": "view",
      "type": "function",
      "constant": true
    },
    {
      "inputs": [],
      "name": "name",
      "outputs": [
        {
          "internalType": "string",
          "name": "",
          "type": "string"
        }
      ],
      "stateMutability": "view",
      "type": "function",
      "constant": true
    },
    {
      "inputs": [
        {
          "internalType": "uint256",
          "name": "tokenId",
          "type": "uint256"
        }
      ],
      "name": "ownerOf",
      "outputs": [
        {
          "internalType": "address",
          "name": "",
          "type": "address"
        }
      ],
      "stateMutability": "view",
      "type": "function",
      "constant": true
    },
    {
      "inputs": [
        {
          "internalType": "bytes32",
          "name": "role",
          "type": "bytes32"
        },
        {
          "internalType": "address",
          "name": "account",
          "type": "address"
        }
      ],
      "name": "renounceRole",
      "outputs": [],
      "stateMutability": "nonpayable",
      "type": "function"
    },
    {
      "inputs": [
        {
          "internalType": "bytes32",
          "name": "role",
          "type": "bytes32"
        },
        {
          "internalType": "address",
          "name": "account",
          "type": "address"
        }
      ],
      "name": "revokeRole",
      "outputs": [],
      "stateMutability": "nonpayable",
      "type": "function"
    },
    {
      "inputs": [
        {
          "internalType": "address",
          "name": "from",
          "type": "address"
        },
        {
          "internalType": "address",
          "name": "to",
          "type": "address"
        },
        {
          "internalType": "uint256",
          "name": "tokenId",
          "type": "uint256"
        }
      ],
      "name": "safeTransferFrom",
      "outputs": [],
      "stateMutability": "nonpayable",
      "type": "function"
    },
    {
      "inputs": [
        {
          "internalType": "address",
          "name": "from",
          "type": "address"
        },
        {
          "internalType": "address",
          "name": "to",
          "type": "address"
        },
        {
          "internalType": "uint256",
          "name": "tokenId",
          "type": "uint256"
        },
        {
          "internalType": "bytes",
          "name": "_data",
          "type": "bytes"
        }
      ],
      "name": "safeTransferFrom",
      "outputs": [],
      "stateMutability": "nonpayable",
      "type": "function"
    },
    {
      "inputs": [
        {
          "internalType": "address",
          "name": "operator",
          "type": "address"
        },
        {
          "internalType": "bool",
          "name": "approved",
          "type": "bool"
        }
      ],
      "name": "setApprovalForAll",
      "outputs": [],
      "stateMutability": "nonpayable",
      "type": "function"
    },
    {
      "inputs": [],
      "name": "symbol",
      "outputs": [
        {
          "internalType": "string",
          "name": "",
          "type": "string"
        }
      ],
      "stateMutability": "view",
      "type": "function",
      "constant": true
    },
    {
      "inputs": [
        {
          "internalType": "address",
          "name": "from",
          "type": "address"
        },
        {
          "internalType": "address",
          "name": "to",
          "type": "address"
        },
        {
          "internalType": "uint256",
          "name": "tokenId",
          "type": "uint256"
        }
      ],
      "name": "transferFrom",
      "outputs": [],
      "stateMutability": "nonpayable",
      "type": "function"
    },
    {
      "inputs": [
        {
          "internalType": "address",
          "name": "to",
          "type": "address"
        },
        {
          "internalType": "string",
          "name": "uri",
          "type": "string"
        }
      ],
      "name": "safeMint",
      "outputs": [],
      "stateMutability": "nonpayable",
      "type": "function"
    },
    {
      "inputs": [
        {
          "internalType": "string",
          "name": "uri",
          "type": "string"
        }
      ],
      "name": "safeMintByUser",
      "outputs": [],
      "stateMutability": "nonpayable",
      "type": "function"
    },
    {
      "inputs": [
        {
          "internalType": "uint256",
          "name": "tokenId",
          "type": "uint256"
        }
      ],
      "name": "tokenURI",
      "outputs": [
        {
          "internalType": "string",
          "name": "",
          "type": "string"
        }
      ],
      "stateMutability": "view",
      "type": "function",
      "constant": true
    },
    {
      "inputs": [
        {
          "internalType": "bytes4",
          "name": "interfaceId",
          "type": "bytes4"
        }
      ],
      "name": "supportsInterface",
      "outputs": [
        {
          "internalType": "bool",
          "name": "",
          "type": "bool"
        }
      ],
      "stateMutability": "view",
      "type": "function",
      "constant": true
    }
  ],
  "bytecode": "0x60806040523480156200001157600080fd5b5060405162003cfa38038062003cfa8339818101604052810190620000379190620003e5565b6040518060400160405280600681526020017f5265644e465400000000000000000000000000000000000000000000000000008152506040518060400160405280600381526020017f4e465400000000000000000000000000000000000000000000000000000000008152508160009080519060200190620000bb929190620002cb565b508060019080519060200190620000d4929190620002cb565b505050620000ec6000801b336200016660201b60201c565b6200011e7f9f2df0fed2c77648de5860a4cc508cd0818c85b8b8a1ab4ceeef8d981c8956a6336200016660201b60201c565b80600960006101000a81548173ffffffffffffffffffffffffffffffffffffffff021916908373ffffffffffffffffffffffffffffffffffffffff160217905550506200047c565b6200017882826200025860201b60201c565b620002545760016007600084815260200190815260200160002060000160008373ffffffffffffffffffffffffffffffffffffffff1673ffffffffffffffffffffffffffffffffffffffff16815260200190815260200160002060006101000a81548160ff021916908315150217905550620001f9620002c360201b60201c565b73ffffffffffffffffffffffffffffffffffffffff168173ffffffffffffffffffffffffffffffffffffffff16837f2f8788117e7eff1d82e926ec794901d17c78024a50270940304540a733656f0d60405160405180910390a45b5050565b60006007600084815260200190815260200160002060000160008373ffffffffffffffffffffffffffffffffffffffff1673ffffffffffffffffffffffffffffffffffffffff16815260200190815260200160002060009054906101000a900460ff16905092915050565b600033905090565b828054620002d99062000446565b90600052602060002090601f016020900481019282620002fd576000855562000349565b82601f106200031857805160ff191683800117855562000349565b8280016001018555821562000349579182015b82811115620003485782518255916020019190600101906200032b565b5b5090506200035891906200035c565b5090565b5b80821115620003775760008160009055506001016200035d565b5090565b600080fd5b600073ffffffffffffffffffffffffffffffffffffffff82169050919050565b6000620003ad8262000380565b9050919050565b620003bf81620003a0565b8114620003cb57600080fd5b50565b600081519050620003df81620003b4565b92915050565b600060208284031215620003fe57620003fd6200037b565b5b60006200040e84828501620003ce565b91505092915050565b7f4e487b7100000000000000000000000000000000000000000000000000000000600052602260045260246000fd5b600060028204905060018216806200045f57607f821691505b6020821081141562000476576200047562000417565b5b50919050565b61386e806200048c6000396000f3fe608060405234801561001057600080fd5b50600436106101425760003560e01c806391d14854116100b8578063c87b56dd1161007c578063c87b56dd14610385578063d204c45e146103b5578063d5391393146103d1578063d547741f146103ef578063e121ecd61461040b578063e985e9c51461042757610142565b806391d14854146102e157806395d89b4114610311578063a217fddf1461032f578063a22cb4651461034d578063b88d4fde1461036957610142565b8063248a9ca31161010a578063248a9ca3146101fd5780632f2ff15d1461022d57806336568abe1461024957806342842e0e146102655780636352211e1461028157806370a08231146102b157610142565b806301ffc9a71461014757806306fdde0314610177578063081812fc14610195578063095ea7b3146101c557806323b872dd146101e1575b600080fd5b610161600480360381019061015c9190612266565b610457565b60405161016e91906122ae565b60405180910390f35b61017f610469565b60405161018c9190612362565b60405180910390f35b6101af60048036038101906101aa91906123ba565b6104fb565b6040516101bc9190612428565b60405180910390f35b6101df60048036038101906101da919061246f565b610580565b005b6101fb60048036038101906101f691906124af565b610698565b005b61021760048036038101906102129190612538565b6106f8565b6040516102249190612574565b60405180910390f35b6102476004803603810190610242919061258f565b610718565b005b610263600480360381019061025e919061258f565b610741565b005b61027f600480360381019061027a91906124af565b6107c4565b005b61029b600480360381019061029691906123ba565b6107e4565b6040516102a89190612428565b60405180910390f35b6102cb60048036038101906102c691906125cf565b610896565b6040516102d8919061260b565b60405180910390f35b6102fb60048036038101906102f6919061258f565b61094e565b60405161030891906122ae565b60405180910390f35b6103196109b9565b6040516103269190612362565b60405180910390f35b610337610a4b565b6040516103449190612574565b60405180910390f35b61036760048036038101906103629190612652565b610a52565b005b610383600480360381019061037e91906127c7565b610a68565b005b61039f600480360381019061039a91906123ba565b610aca565b6040516103ac9190612362565b60405180910390f35b6103cf60048036038101906103ca91906128eb565b610adc565b005b6103d9610b6c565b6040516103e69190612574565b60405180910390f35b6104096004803603810190610404919061258f565b610b90565b005b61042560048036038101906104209190612947565b610bb9565b005b610441600480360381019061043c9190612990565b610c15565b60405161044e91906122ae565b60405180910390f35b600061046282610ca9565b9050919050565b606060008054610478906129ff565b80601f01602080910402602001604051908101604052809291908181526020018280546104a4906129ff565b80156104f15780601f106104c6576101008083540402835291602001916104f1565b820191906000526020600020905b8154815290600101906020018083116104d457829003601f168201915b5050505050905090565b600061050682610d23565b610545576040517f08c379a000000000000000000000000000000000000000000000000000000000815260040161053c90612aa3565b60405180910390fd5b6004600083815260200190815260200160002060009054906101000a900473ffffffffffffffffffffffffffffffffffffffff169050919050565b600061058b826107e4565b90508073ffffffffffffffffffffffffffffffffffffffff168373ffffffffffffffffffffffffffffffffffffffff1614156105fc576040517f08c379a00000000000000000000000000000000000000000000000000000000081526004016105f390612b35565b60405180910390fd5b8073ffffffffffffffffffffffffffffffffffffffff1661061b610d8f565b73ffffffffffffffffffffffffffffffffffffffff16148061064a575061064981610644610d8f565b610c15565b5b610689576040517f08c379a000000000000000000000000000000000000000000000000000000000815260040161068090612bc7565b60405180910390fd5b6106938383610d97565b505050565b6106a96106a3610d8f565b82610e50565b6106e8576040517f08c379a00000000000000000000000000000000000000000000000000000000081526004016106df90612c59565b60405180910390fd5b6106f3838383610f2e565b505050565b600060076000838152602001908152602001600020600101549050919050565b610721826106f8565b6107328161072d610d8f565b611195565b61073c8383611232565b505050565b610749610d8f565b73ffffffffffffffffffffffffffffffffffffffff168173ffffffffffffffffffffffffffffffffffffffff16146107b6576040517f08c379a00000000000000000000000000000000000000000000000000000000081526004016107ad90612ceb565b60405180910390fd5b6107c08282611313565b5050565b6107df83838360405180602001604052806000815250610a68565b505050565b6000806002600084815260200190815260200160002060009054906101000a900473ffffffffffffffffffffffffffffffffffffffff169050600073ffffffffffffffffffffffffffffffffffffffff168173ffffffffffffffffffffffffffffffffffffffff16141561088d576040517f08c379a000000000000000000000000000000000000000000000000000000000815260040161088490612d7d565b60405180910390fd5b80915050919050565b60008073ffffffffffffffffffffffffffffffffffffffff168273ffffffffffffffffffffffffffffffffffffffff161415610907576040517f08c379a00000000000000000000000000000000000000000000000000000000081526004016108fe90612e0f565b60405180910390fd5b600360008373ffffffffffffffffffffffffffffffffffffffff1673ffffffffffffffffffffffffffffffffffffffff168152602001908152602001600020549050919050565b60006007600084815260200190815260200160002060000160008373ffffffffffffffffffffffffffffffffffffffff1673ffffffffffffffffffffffffffffffffffffffff16815260200190815260200160002060009054906101000a900460ff16905092915050565b6060600180546109c8906129ff565b80601f01602080910402602001604051908101604052809291908181526020018280546109f4906129ff565b8015610a415780601f10610a1657610100808354040283529160200191610a41565b820191906000526020600020905b815481529060010190602001808311610a2457829003601f168201915b5050505050905090565b6000801b81565b610a64610a5d610d8f565b83836113f5565b5050565b610a79610a73610d8f565b83610e50565b610ab8576040517f08c379a0000000000000000000000000000000000000000000000000000000008152600401610aaf90612c59565b60405180910390fd5b610ac484848484611562565b50505050565b6060610ad5826115be565b9050919050565b7f9f2df0fed2c77648de5860a4cc508cd0818c85b8b8a1ab4ceeef8d981c8956a6610b0e81610b09610d8f565b611195565b6000610b1a6008611710565b9050610b26600861171e565b610b308482611734565b610b3a8184611752565b610b66600960009054906101000a900473ffffffffffffffffffffffffffffffffffffffff1682610d97565b50505050565b7f9f2df0fed2c77648de5860a4cc508cd0818c85b8b8a1ab4ceeef8d981c8956a681565b610b99826106f8565b610baa81610ba5610d8f565b611195565b610bb48383611313565b505050565b6000610bc56008611710565b9050610bd1600861171e565b610bdb3382611734565b610be58183611752565b610c11600960009054906101000a900473ffffffffffffffffffffffffffffffffffffffff1682610d97565b5050565b6000600560008473ffffffffffffffffffffffffffffffffffffffff1673ffffffffffffffffffffffffffffffffffffffff16815260200190815260200160002060008373ffffffffffffffffffffffffffffffffffffffff1673ffffffffffffffffffffffffffffffffffffffff16815260200190815260200160002060009054906101000a900460ff16905092915050565b60007f7965db0b000000000000000000000000000000000000000000000000000000007bffffffffffffffffffffffffffffffffffffffffffffffffffffffff1916827bffffffffffffffffffffffffffffffffffffffffffffffffffffffff19161480610d1c5750610d1b826117c6565b5b9050919050565b60008073ffffffffffffffffffffffffffffffffffffffff166002600084815260200190815260200160002060009054906101000a900473ffffffffffffffffffffffffffffffffffffffff1673ffffffffffffffffffffffffffffffffffffffff1614159050919050565b600033905090565b816004600083815260200190815260200160002060006101000a81548173ffffffffffffffffffffffffffffffffffffffff021916908373ffffffffffffffffffffffffffffffffffffffff160217905550808273ffffffffffffffffffffffffffffffffffffffff16610e0a836107e4565b73ffffffffffffffffffffffffffffffffffffffff167f8c5be1e5ebec7d5bd14f71427d1e84f3dd0314c0f7b2291e5b200ac8c7c3b92560405160405180910390a45050565b6000610e5b82610d23565b610e9a576040517f08c379a0000000000000000000000000000000000000000000000000000000008152600401610e9190612ea1565b60405180910390fd5b6000610ea5836107e4565b90508073ffffffffffffffffffffffffffffffffffffffff168473ffffffffffffffffffffffffffffffffffffffff161480610f1457508373ffffffffffffffffffffffffffffffffffffffff16610efc846104fb565b73ffffffffffffffffffffffffffffffffffffffff16145b80610f255750610f248185610c15565b5b91505092915050565b8273ffffffffffffffffffffffffffffffffffffffff16610f4e826107e4565b73ffffffffffffffffffffffffffffffffffffffff1614610fa4576040517f08c379a0000000000000000000000000000000000000000000000000000000008152600401610f9b90612f33565b60405180910390fd5b600073ffffffffffffffffffffffffffffffffffffffff168273ffffffffffffffffffffffffffffffffffffffff161415611014576040517f08c379a000000000000000000000000000000000000000000000000000000000815260040161100b90612fc5565b60405180910390fd5b61101f8383836118a8565b61102a600082610d97565b6001600360008573ffffffffffffffffffffffffffffffffffffffff1673ffffffffffffffffffffffffffffffffffffffff168152602001908152602001600020600082825461107a9190613014565b925050819055506001600360008473ffffffffffffffffffffffffffffffffffffffff1673ffffffffffffffffffffffffffffffffffffffff16815260200190815260200160002060008282546110d19190613048565b92505081905550816002600083815260200190815260200160002060006101000a81548173ffffffffffffffffffffffffffffffffffffffff021916908373ffffffffffffffffffffffffffffffffffffffff160217905550808273ffffffffffffffffffffffffffffffffffffffff168473ffffffffffffffffffffffffffffffffffffffff167fddf252ad1be2c89b69c2b068fc378daa952ba7f163c4a11628f55a4df523b3ef60405160405180910390a46111908383836118ad565b505050565b61119f828261094e565b61122e576111c48173ffffffffffffffffffffffffffffffffffffffff1660146118b2565b6111d28360001c60206118b2565b6040516020016111e3929190613172565b6040516020818303038152906040526040517f08c379a00000000000000000000000000000000000000000000000000000000081526004016112259190612362565b60405180910390fd5b5050565b61123c828261094e565b61130f5760016007600084815260200190815260200160002060000160008373ffffffffffffffffffffffffffffffffffffffff1673ffffffffffffffffffffffffffffffffffffffff16815260200190815260200160002060006101000a81548160ff0219169083151502179055506112b4610d8f565b73ffffffffffffffffffffffffffffffffffffffff168173ffffffffffffffffffffffffffffffffffffffff16837f2f8788117e7eff1d82e926ec794901d17c78024a50270940304540a733656f0d60405160405180910390a45b5050565b61131d828261094e565b156113f15760006007600084815260200190815260200160002060000160008373ffffffffffffffffffffffffffffffffffffffff1673ffffffffffffffffffffffffffffffffffffffff16815260200190815260200160002060006101000a81548160ff021916908315150217905550611396610d8f565b73ffffffffffffffffffffffffffffffffffffffff168173ffffffffffffffffffffffffffffffffffffffff16837ff6391f5c32d9c69d2a47ea670b442974b53935d1edc7fd64eb21e047a839171b60405160405180910390a45b5050565b8173ffffffffffffffffffffffffffffffffffffffff168373ffffffffffffffffffffffffffffffffffffffff161415611464576040517f08c379a000000000000000000000000000000000000000000000000000000000815260040161145b906131f8565b60405180910390fd5b80600560008573ffffffffffffffffffffffffffffffffffffffff1673ffffffffffffffffffffffffffffffffffffffff16815260200190815260200160002060008473ffffffffffffffffffffffffffffffffffffffff1673ffffffffffffffffffffffffffffffffffffffff16815260200190815260200160002060006101000a81548160ff0219169083151502179055508173ffffffffffffffffffffffffffffffffffffffff168373ffffffffffffffffffffffffffffffffffffffff167f17307eab39ab6107e8899845ad3d59bd9653f200f220920489ca2b5937696c318360405161155591906122ae565b60405180910390a3505050565b61156d848484610f2e565b61157984848484611aee565b6115b8576040517f08c379a00000000000000000000000000000000000000000000000000000000081526004016115af9061328a565b60405180910390fd5b50505050565b60606115c982610d23565b611608576040517f08c379a00000000000000000000000000000000000000000000000000000000081526004016115ff9061331c565b60405180910390fd5b6000600660008481526020019081526020016000208054611628906129ff565b80601f0160208091040260200160405190810160405280929190818152602001828054611654906129ff565b80156116a15780601f10611676576101008083540402835291602001916116a1565b820191906000526020600020905b81548152906001019060200180831161168457829003601f168201915b5050505050905060006116b2611c76565b90506000815114156116c857819250505061170b565b6000825111156116fd5780826040516020016116e592919061333c565b6040516020818303038152906040529250505061170b565b61170684611c8d565b925050505b919050565b600081600001549050919050565b6001816000016000828254019250508190555050565b61174e828260405180602001604052806000815250611d34565b5050565b61175b82610d23565b61179a576040517f08c379a0000000000000000000000000000000000000000000000000000000008152600401611791906133d2565b60405180910390fd5b806006600084815260200190815260200160002090805190602001906117c1929190612157565b505050565b60007f80ac58cd000000000000000000000000000000000000000000000000000000007bffffffffffffffffffffffffffffffffffffffffffffffffffffffff1916827bffffffffffffffffffffffffffffffffffffffffffffffffffffffff1916148061189157507f5b5e139f000000000000000000000000000000000000000000000000000000007bffffffffffffffffffffffffffffffffffffffffffffffffffffffff1916827bffffffffffffffffffffffffffffffffffffffffffffffffffffffff1916145b806118a157506118a082611d8f565b5b9050919050565b505050565b505050565b6060600060028360026118c591906133f2565b6118cf9190613048565b67ffffffffffffffff8111156118e8576118e761269c565b5b6040519080825280601f01601f19166020018201604052801561191a5781602001600182028036833780820191505090505b5090507f3000000000000000000000000000000000000000000000000000000000000000816000815181106119525761195161344c565b5b60200101907effffffffffffffffffffffffffffffffffffffffffffffffffffffffffffff1916908160001a9053507f7800000000000000000000000000000000000000000000000000000000000000816001815181106119b6576119b561344c565b5b60200101907effffffffffffffffffffffffffffffffffffffffffffffffffffffffffffff1916908160001a905350600060018460026119f691906133f2565b611a009190613048565b90505b6001811115611aa0577f3031323334353637383961626364656600000000000000000000000000000000600f861660108110611a4257611a4161344c565b5b1a60f81b828281518110611a5957611a5861344c565b5b60200101907effffffffffffffffffffffffffffffffffffffffffffffffffffffffffffff1916908160001a905350600485901c945080611a999061347b565b9050611a03565b5060008414611ae4576040517f08c379a0000000000000000000000000000000000000000000000000000000008152600401611adb906134f1565b60405180910390fd5b8091505092915050565b6000611b0f8473ffffffffffffffffffffffffffffffffffffffff16611df9565b15611c69578373ffffffffffffffffffffffffffffffffffffffff1663150b7a02611b38610d8f565b8786866040518563ffffffff1660e01b8152600401611b5a9493929190613566565b6020604051808303816000875af1925050508015611b9657506040513d601f19601f82011682018060405250810190611b9391906135c7565b60015b611c19573d8060008114611bc6576040519150601f19603f3d011682016040523d82523d6000602084013e611bcb565b606091505b50600081511415611c11576040517f08c379a0000000000000000000000000000000000000000000000000000000008152600401611c089061328a565b60405180910390fd5b805181602001fd5b63150b7a0260e01b7bffffffffffffffffffffffffffffffffffffffffffffffffffffffff1916817bffffffffffffffffffffffffffffffffffffffffffffffffffffffff191614915050611c6e565b600190505b949350505050565b606060405180602001604052806000815250905090565b6060611c9882610d23565b611cd7576040517f08c379a0000000000000000000000000000000000000000000000000000000008152600401611cce90613666565b60405180910390fd5b6000611ce1611c76565b90506000815111611d015760405180602001604052806000815250611d2c565b80611d0b84611e1c565b604051602001611d1c92919061333c565b6040516020818303038152906040525b915050919050565b611d3e8383611f7d565b611d4b6000848484611aee565b611d8a576040517f08c379a0000000000000000000000000000000000000000000000000000000008152600401611d819061328a565b60405180910390fd5b505050565b60007f01ffc9a7000000000000000000000000000000000000000000000000000000007bffffffffffffffffffffffffffffffffffffffffffffffffffffffff1916827bffffffffffffffffffffffffffffffffffffffffffffffffffffffff1916149050919050565b6000808273ffffffffffffffffffffffffffffffffffffffff163b119050919050565b60606000821415611e64576040518060400160405280600181526020017f30000000000000000000000000000000000000000000000000000000000000008152509050611f78565b600082905060005b60008214611e96578080611e7f90613686565b915050600a82611e8f91906136fe565b9150611e6c565b60008167ffffffffffffffff811115611eb257611eb161269c565b5b6040519080825280601f01601f191660200182016040528015611ee45781602001600182028036833780820191505090505b5090505b60008514611f7157600182611efd9190613014565b9150600a85611f0c919061372f565b6030611f189190613048565b60f81b818381518110611f2e57611f2d61344c565b5b60200101907effffffffffffffffffffffffffffffffffffffffffffffffffffffffffffff1916908160001a905350600a85611f6a91906136fe565b9450611ee8565b8093505050505b919050565b600073ffffffffffffffffffffffffffffffffffffffff168273ffffffffffffffffffffffffffffffffffffffff161415611fed576040517f08c379a0000000000000000000000000000000000000000000000000000000008152600401611fe4906137ac565b60405180910390fd5b611ff681610d23565b15612036576040517f08c379a000000000000000000000000000000000000000000000000000000000815260040161202d90613818565b60405180910390fd5b612042600083836118a8565b6001600360008473ffffffffffffffffffffffffffffffffffffffff1673ffffffffffffffffffffffffffffffffffffffff16815260200190815260200160002060008282546120929190613048565b92505081905550816002600083815260200190815260200160002060006101000a81548173ffffffffffffffffffffffffffffffffffffffff021916908373ffffffffffffffffffffffffffffffffffffffff160217905550808273ffffffffffffffffffffffffffffffffffffffff16600073ffffffffffffffffffffffffffffffffffffffff167fddf252ad1be2c89b69c2b068fc378daa952ba7f163c4a11628f55a4df523b3ef60405160405180910390a4612153600083836118ad565b5050565b828054612163906129ff565b90600052602060002090601f01602090048101928261218557600085556121cc565b82601f1061219e57805160ff19168380011785556121cc565b828001600101855582156121cc579182015b828111156121cb5782518255916020019190600101906121b0565b5b5090506121d991906121dd565b5090565b5b808211156121f65760008160009055506001016121de565b5090565b6000604051905090565b600080fd5b600080fd5b60007fffffffff0000000000000000000000000000000000000000000000000000000082169050919050565b6122438161220e565b811461224e57600080fd5b50565b6000813590506122608161223a565b92915050565b60006020828403121561227c5761227b612204565b5b600061228a84828501612251565b91505092915050565b60008115159050919050565b6122a881612293565b82525050565b60006020820190506122c3600083018461229f565b92915050565b600081519050919050565b600082825260208201905092915050565b60005b838110156123035780820151818401526020810190506122e8565b83811115612312576000848401525b50505050565b6000601f19601f8301169050919050565b6000612334826122c9565b61233e81856122d4565b935061234e8185602086016122e5565b61235781612318565b840191505092915050565b6000602082019050818103600083015261237c8184612329565b905092915050565b6000819050919050565b61239781612384565b81146123a257600080fd5b50565b6000813590506123b48161238e565b92915050565b6000602082840312156123d0576123cf612204565b5b60006123de848285016123a5565b91505092915050565b600073ffffffffffffffffffffffffffffffffffffffff82169050919050565b6000612412826123e7565b9050919050565b61242281612407565b82525050565b600060208201905061243d6000830184612419565b92915050565b61244c81612407565b811461245757600080fd5b50565b60008135905061246981612443565b92915050565b6000806040838503121561248657612485612204565b5b60006124948582860161245a565b92505060206124a5858286016123a5565b9150509250929050565b6000806000606084860312156124c8576124c7612204565b5b60006124d68682870161245a565b93505060206124e78682870161245a565b92505060406124f8868287016123a5565b9150509250925092565b6000819050919050565b61251581612502565b811461252057600080fd5b50565b6000813590506125328161250c565b92915050565b60006020828403121561254e5761254d612204565b5b600061255c84828501612523565b91505092915050565b61256e81612502565b82525050565b60006020820190506125896000830184612565565b92915050565b600080604083850312156125a6576125a5612204565b5b60006125b485828601612523565b92505060206125c58582860161245a565b9150509250929050565b6000602082840312156125e5576125e4612204565b5b60006125f38482850161245a565b91505092915050565b61260581612384565b82525050565b600060208201905061262060008301846125fc565b92915050565b61262f81612293565b811461263a57600080fd5b50565b60008135905061264c81612626565b92915050565b6000806040838503121561266957612668612204565b5b60006126778582860161245a565b92505060206126888582860161263d565b9150509250929050565b600080fd5b600080fd5b7f4e487b7100000000000000000000000000000000000000000000000000000000600052604160045260246000fd5b6126d482612318565b810181811067ffffffffffffffff821117156126f3576126f261269c565b5b80604052505050565b60006127066121fa565b905061271282826126cb565b919050565b600067ffffffffffffffff8211156127325761273161269c565b5b61273b82612318565b9050602081019050919050565b82818337600083830152505050565b600061276a61276584612717565b6126fc565b90508281526020810184848401111561278657612785612697565b5b612791848285612748565b509392505050565b600082601f8301126127ae576127ad612692565b5b81356127be848260208601612757565b91505092915050565b600080600080608085870312156127e1576127e0612204565b5b60006127ef8782880161245a565b94505060206128008782880161245a565b9350506040612811878288016123a5565b925050606085013567ffffffffffffffff81111561283257612831612209565b5b61283e87828801612799565b91505092959194509250565b600067ffffffffffffffff8211156128655761286461269c565b5b61286e82612318565b9050602081019050919050565b600061288e6128898461284a565b6126fc565b9050828152602081018484840111156128aa576128a9612697565b5b6128b5848285612748565b509392505050565b600082601f8301126128d2576128d1612692565b5b81356128e284826020860161287b565b91505092915050565b6000806040838503121561290257612901612204565b5b60006129108582860161245a565b925050602083013567ffffffffffffffff81111561293157612930612209565b5b61293d858286016128bd565b9150509250929050565b60006020828403121561295d5761295c612204565b5b600082013567ffffffffffffffff81111561297b5761297a612209565b5b612987848285016128bd565b91505092915050565b600080604083850312156129a7576129a6612204565b5b60006129b58582860161245a565b92505060206129c68582860161245a565b9150509250929050565b7f4e487b7100000000000000000000000000000000000000000000000000000000600052602260045260246000fd5b60006002820490506001821680612a1757607f821691505b60208210811415612a2b57612a2a6129d0565b5b50919050565b7f4552433732313a20617070726f76656420717565727920666f72206e6f6e657860008201527f697374656e7420746f6b656e0000000000000000000000000000000000000000602082015250565b6000612a8d602c836122d4565b9150612a9882612a31565b604082019050919050565b60006020820190508181036000830152612abc81612a80565b9050919050565b7f4552433732313a20617070726f76616c20746f2063757272656e74206f776e6560008201527f7200000000000000000000000000000000000000000000000000000000000000602082015250565b6000612b1f6021836122d4565b9150612b2a82612ac3565b604082019050919050565b60006020820190508181036000830152612b4e81612b12565b9050919050565b7f4552433732313a20617070726f76652063616c6c6572206973206e6f74206f7760008201527f6e6572206e6f7220617070726f76656420666f7220616c6c0000000000000000602082015250565b6000612bb16038836122d4565b9150612bbc82612b55565b604082019050919050565b60006020820190508181036000830152612be081612ba4565b9050919050565b7f4552433732313a207472616e736665722063616c6c6572206973206e6f74206f60008201527f776e6572206e6f7220617070726f766564000000000000000000000000000000602082015250565b6000612c436031836122d4565b9150612c4e82612be7565b604082019050919050565b60006020820190508181036000830152612c7281612c36565b9050919050565b7f416363657373436f6e74726f6c3a2063616e206f6e6c792072656e6f756e636560008201527f20726f6c657320666f722073656c660000000000000000000000000000000000602082015250565b6000612cd5602f836122d4565b9150612ce082612c79565b604082019050919050565b60006020820190508181036000830152612d0481612cc8565b9050919050565b7f4552433732313a206f776e657220717565727920666f72206e6f6e657869737460008201527f656e7420746f6b656e0000000000000000000000000000000000000000000000602082015250565b6000612d676029836122d4565b9150612d7282612d0b565b604082019050919050565b60006020820190508181036000830152612d9681612d5a565b9050919050565b7f4552433732313a2062616c616e636520717565727920666f7220746865207a6560008201527f726f206164647265737300000000000000000000000000000000000000000000602082015250565b6000612df9602a836122d4565b9150612e0482612d9d565b604082019050919050565b60006020820190508181036000830152612e2881612dec565b9050919050565b7f4552433732313a206f70657261746f7220717565727920666f72206e6f6e657860008201527f697374656e7420746f6b656e0000000000000000000000000000000000000000602082015250565b6000612e8b602c836122d4565b9150612e9682612e2f565b604082019050919050565b60006020820190508181036000830152612eba81612e7e565b9050919050565b7f4552433732313a207472616e736665722066726f6d20696e636f72726563742060008201527f6f776e6572000000000000000000000000000000000000000000000000000000602082015250565b6000612f1d6025836122d4565b9150612f2882612ec1565b604082019050919050565b60006020820190508181036000830152612f4c81612f10565b9050919050565b7f4552433732313a207472616e7366657220746f20746865207a65726f2061646460008201527f7265737300000000000000000000000000000000000000000000000000000000602082015250565b6000612faf6024836122d4565b9150612fba82612f53565b604082019050919050565b60006020820190508181036000830152612fde81612fa2565b9050919050565b7f4e487b7100000000000000000000000000000000000000000000000000000000600052601160045260246000fd5b600061301f82612384565b915061302a83612384565b92508282101561303d5761303c612fe5565b5b828203905092915050565b600061305382612384565b915061305e83612384565b9250827fffffffffffffffffffffffffffffffffffffffffffffffffffffffffffffffff0382111561309357613092612fe5565b5b828201905092915050565b600081905092915050565b7f416363657373436f6e74726f6c3a206163636f756e7420000000000000000000600082015250565b60006130df60178361309e565b91506130ea826130a9565b601782019050919050565b6000613100826122c9565b61310a818561309e565b935061311a8185602086016122e5565b80840191505092915050565b7f206973206d697373696e6720726f6c6520000000000000000000000000000000600082015250565b600061315c60118361309e565b915061316782613126565b601182019050919050565b600061317d826130d2565b915061318982856130f5565b91506131948261314f565b91506131a082846130f5565b91508190509392505050565b7f4552433732313a20617070726f766520746f2063616c6c657200000000000000600082015250565b60006131e26019836122d4565b91506131ed826131ac565b602082019050919050565b60006020820190508181036000830152613211816131d5565b9050919050565b7f4552433732313a207472616e7366657220746f206e6f6e20455243373231526560008201527f63656976657220696d706c656d656e7465720000000000000000000000000000602082015250565b60006132746032836122d4565b915061327f82613218565b604082019050919050565b600060208201905081810360008301526132a381613267565b9050919050565b7f45524337323155524953746f726167653a2055524920717565727920666f722060008201527f6e6f6e6578697374656e7420746f6b656e000000000000000000000000000000602082015250565b60006133066031836122d4565b9150613311826132aa565b604082019050919050565b60006020820190508181036000830152613335816132f9565b9050919050565b600061334882856130f5565b915061335482846130f5565b91508190509392505050565b7f45524337323155524953746f726167653a2055524920736574206f66206e6f6e60008201527f6578697374656e7420746f6b656e000000000000000000000000000000000000602082015250565b60006133bc602e836122d4565b91506133c782613360565b604082019050919050565b600060208201905081810360008301526133eb816133af565b9050919050565b60006133fd82612384565b915061340883612384565b9250817fffffffffffffffffffffffffffffffffffffffffffffffffffffffffffffffff048311821515161561344157613440612fe5565b5b828202905092915050565b7f4e487b7100000000000000000000000000000000000000000000000000000000600052603260045260246000fd5b600061348682612384565b9150600082141561349a57613499612fe5565b5b600182039050919050565b7f537472696e67733a20686578206c656e67746820696e73756666696369656e74600082015250565b60006134db6020836122d4565b91506134e6826134a5565b602082019050919050565b6000602082019050818103600083015261350a816134ce565b9050919050565b600081519050919050565b600082825260208201905092915050565b600061353882613511565b613542818561351c565b93506135528185602086016122e5565b61355b81612318565b840191505092915050565b600060808201905061357b6000830187612419565b6135886020830186612419565b61359560408301856125fc565b81810360608301526135a7818461352d565b905095945050505050565b6000815190506135c18161223a565b92915050565b6000602082840312156135dd576135dc612204565b5b60006135eb848285016135b2565b91505092915050565b7f4552433732314d657461646174613a2055524920717565727920666f72206e6f60008201527f6e6578697374656e7420746f6b656e0000000000000000000000000000000000602082015250565b6000613650602f836122d4565b915061365b826135f4565b604082019050919050565b6000602082019050818103600083015261367f81613643565b9050919050565b600061369182612384565b91507fffffffffffffffffffffffffffffffffffffffffffffffffffffffffffffffff8214156136c4576136c3612fe5565b5b600182019050919050565b7f4e487b7100000000000000000000000000000000000000000000000000000000600052601260045260246000fd5b600061370982612384565b915061371483612384565b925082613724576137236136cf565b5b828204905092915050565b600061373a82612384565b915061374583612384565b925082613755576137546136cf565b5b828206905092915050565b7f4552433732313a206d696e7420746f20746865207a65726f2061646472657373600082015250565b60006137966020836122d4565b91506137a182613760565b602082019050919050565b600060208201905081810360008301526137c581613789565b9050919050565b7f4552433732313a20746f6b656e20616c7265616479206d696e74656400000000600082015250565b6000613802601c836122d4565b915061380d826137cc565b602082019050919050565b60006020820190508181036000830152613831816137f5565b905091905056fea2646970667358221220d302a961346c54da6381fa8762a8b206afca122279b00e444379eb2737dba32f64736f6c634300080b0033",
  "immutableReferences": {},
  "source": "// SPDX-License-Identifier: MIT\npragma solidity ^0.8.4;\n\nimport \"@openzeppelin/contracts/token/ERC721/ERC721.sol\";\nimport \"@openzeppelin/contracts/token/ERC721/extensions/ERC721URIStorage.sol\";\nimport \"@openzeppelin/contracts/access/AccessControl.sol\";\nimport \"@openzeppelin/contracts/utils/Counters.sol\";\n\ncontract RedNFT is ERC721, ERC721URIStorage, AccessControl {\n    using Counters for Counters.Counter;\n\n    bytes32 public constant MINTER_ROLE = keccak256(\"MINTER_ROLE\");\n    Counters.Counter private _tokenIdCounter;\n    address marketplaceAddress;\n\n    constructor(address marketAddress) ERC721(\"RedNFT\", \"NFT\") {\n        _grantRole(DEFAULT_ADMIN_ROLE, msg.sender);\n        _grantRole(MINTER_ROLE, msg.sender);\n        marketplaceAddress = marketAddress;\n    }\n\n    function safeMint(address to, string memory uri)\n        public\n        onlyRole(MINTER_ROLE)\n    {\n        uint256 tokenId = _tokenIdCounter.current();\n        _tokenIdCounter.increment();\n        _safeMint(to, tokenId);\n        _setTokenURI(tokenId, uri);\n        _approve(marketplaceAddress, tokenId);\n    }\n\n    function safeMintByUser(string memory uri) public {\n        uint256 tokenId = _tokenIdCounter.current();\n        _tokenIdCounter.increment();\n        _safeMint(msg.sender, tokenId);\n        _setTokenURI(tokenId, uri);\n        _approve(marketplaceAddress, tokenId);\n    }\n\n    // The following functions are overrides required by Solidity.\n\n    function _burn(uint256 tokenId)\n        internal\n        override(ERC721, ERC721URIStorage)\n    {\n        super._burn(tokenId);\n    }\n\n    function tokenURI(uint256 tokenId)\n        public\n        view\n        override(ERC721, ERC721URIStorage)\n        returns (string memory)\n    {\n        return super.tokenURI(tokenId);\n    }\n\n    function supportsInterface(bytes4 interfaceId)\n        public\n        view\n        override(ERC721, AccessControl)\n        returns (bool)\n    {\n        return super.supportsInterface(interfaceId);\n    }\n}\n",
  "sourcePath": "/Users/bigmadcode/Desktop/RED Broadcast NFT Contract/contracts/RedNFT.sol",
  "compiler": {
    "name": "solc",
    "version": "0.8.11+commit.d7f03943.Emscripten.clang"
  },
  "schemaVersion": "3.4.6",
  "updatedAt": "2022-04-20T01:39:22.519Z",
  "networkType": "ethereum",
  "devdoc": {
    "kind": "dev",
    "methods": {
      "approve(address,uint256)": {
        "details": "See {IERC721-approve}."
      },
      "balanceOf(address)": {
        "details": "See {IERC721-balanceOf}."
      },
      "getApproved(uint256)": {
        "details": "See {IERC721-getApproved}."
      },
      "getRoleAdmin(bytes32)": {
        "details": "Returns the admin role that controls `role`. See {grantRole} and {revokeRole}. To change a role's admin, use {_setRoleAdmin}."
      },
      "grantRole(bytes32,address)": {
        "details": "Grants `role` to `account`. If `account` had not been already granted `role`, emits a {RoleGranted} event. Requirements: - the caller must have ``role``'s admin role."
      },
      "hasRole(bytes32,address)": {
        "details": "Returns `true` if `account` has been granted `role`."
      },
      "isApprovedForAll(address,address)": {
        "details": "See {IERC721-isApprovedForAll}."
      },
      "name()": {
        "details": "See {IERC721Metadata-name}."
      },
      "ownerOf(uint256)": {
        "details": "See {IERC721-ownerOf}."
      },
      "renounceRole(bytes32,address)": {
        "details": "Revokes `role` from the calling account. Roles are often managed via {grantRole} and {revokeRole}: this function's purpose is to provide a mechanism for accounts to lose their privileges if they are compromised (such as when a trusted device is misplaced). If the calling account had been revoked `role`, emits a {RoleRevoked} event. Requirements: - the caller must be `account`."
      },
      "revokeRole(bytes32,address)": {
        "details": "Revokes `role` from `account`. If `account` had been granted `role`, emits a {RoleRevoked} event. Requirements: - the caller must have ``role``'s admin role."
      },
      "safeTransferFrom(address,address,uint256)": {
        "details": "See {IERC721-safeTransferFrom}."
      },
      "safeTransferFrom(address,address,uint256,bytes)": {
        "details": "See {IERC721-safeTransferFrom}."
      },
      "setApprovalForAll(address,bool)": {
        "details": "See {IERC721-setApprovalForAll}."
      },
      "symbol()": {
        "details": "See {IERC721Metadata-symbol}."
      },
      "transferFrom(address,address,uint256)": {
        "details": "See {IERC721-transferFrom}."
      }
    },
    "version": 1
  },
  "userdoc": {
    "kind": "user",
    "methods": {},
    "version": 1
  }
}