{
  "contractName": "RedNFT",
  "abi": [
    {
      "inputs": [
        {
          "internalType": "address",
          "name": "marketAddress",
          "type": "address"
        }
      ],
      "stateMutability": "nonpayable",
      "type": "constructor"
    },
    {
      "anonymous": false,
      "inputs": [
        {
          "indexed": true,
          "internalType": "address",
          "name": "owner",
          "type": "address"
        },
        {
          "indexed": true,
          "internalType": "address",
          "name": "approved",
          "type": "address"
        },
        {
          "indexed": true,
          "internalType": "uint256",
          "name": "tokenId",
          "type": "uint256"
        }
      ],
      "name": "Approval",
      "type": "event"
    },
    {
      "anonymous": false,
      "inputs": [
        {
          "indexed": true,
          "internalType": "address",
          "name": "owner",
          "type": "address"
        },
        {
          "indexed": true,
          "internalType": "address",
          "name": "operator",
          "type": "address"
        },
        {
          "indexed": false,
          "internalType": "bool",
          "name": "approved",
          "type": "bool"
        }
      ],
      "name": "ApprovalForAll",
      "type": "event"
    },
    {
      "anonymous": false,
      "inputs": [
        {
          "indexed": true,
          "internalType": "address",
          "name": "previousOwner",
          "type": "address"
        },
        {
          "indexed": true,
          "internalType": "address",
          "name": "newOwner",
          "type": "address"
        }
      ],
      "name": "OwnershipTransferred",
      "type": "event"
    },
    {
      "anonymous": false,
      "inputs": [
        {
          "indexed": false,
          "internalType": "address",
          "name": "account",
          "type": "address"
        }
      ],
      "name": "Paused",
      "type": "event"
    },
    {
      "anonymous": false,
      "inputs": [
        {
          "indexed": true,
          "internalType": "bytes32",
          "name": "role",
          "type": "bytes32"
        },
        {
          "indexed": true,
          "internalType": "bytes32",
          "name": "previousAdminRole",
          "type": "bytes32"
        },
        {
          "indexed": true,
          "internalType": "bytes32",
          "name": "newAdminRole",
          "type": "bytes32"
        }
      ],
      "name": "RoleAdminChanged",
      "type": "event"
    },
    {
      "anonymous": false,
      "inputs": [
        {
          "indexed": true,
          "internalType": "bytes32",
          "name": "role",
          "type": "bytes32"
        },
        {
          "indexed": true,
          "internalType": "address",
          "name": "account",
          "type": "address"
        },
        {
          "indexed": true,
          "internalType": "address",
          "name": "sender",
          "type": "address"
        }
      ],
      "name": "RoleGranted",
      "type": "event"
    },
    {
      "anonymous": false,
      "inputs": [
        {
          "indexed": true,
          "internalType": "bytes32",
          "name": "role",
          "type": "bytes32"
        },
        {
          "indexed": true,
          "internalType": "address",
          "name": "account",
          "type": "address"
        },
        {
          "indexed": true,
          "internalType": "address",
          "name": "sender",
          "type": "address"
        }
      ],
      "name": "RoleRevoked",
      "type": "event"
    },
    {
      "anonymous": false,
      "inputs": [
        {
          "indexed": true,
          "internalType": "address",
          "name": "from",
          "type": "address"
        },
        {
          "indexed": true,
          "internalType": "address",
          "name": "to",
          "type": "address"
        },
        {
          "indexed": true,
          "internalType": "uint256",
          "name": "tokenId",
          "type": "uint256"
        }
      ],
      "name": "Transfer",
      "type": "event"
    },
    {
      "anonymous": false,
      "inputs": [
        {
          "indexed": false,
          "internalType": "address",
          "name": "account",
          "type": "address"
        }
      ],
      "name": "Unpaused",
      "type": "event"
    },
    {
      "inputs": [],
      "name": "DEFAULT_ADMIN_ROLE",
      "outputs": [
        {
          "internalType": "bytes32",
          "name": "",
          "type": "bytes32"
        }
      ],
      "stateMutability": "view",
      "type": "function",
      "constant": true
    },
    {
      "inputs": [],
      "name": "MINTER_ROLE",
      "outputs": [
        {
          "internalType": "bytes32",
          "name": "",
          "type": "bytes32"
        }
      ],
      "stateMutability": "view",
      "type": "function",
      "constant": true
    },
    {
      "inputs": [
        {
          "internalType": "address",
          "name": "to",
          "type": "address"
        },
        {
          "internalType": "uint256",
          "name": "tokenId",
          "type": "uint256"
        }
      ],
      "name": "approve",
      "outputs": [],
      "stateMutability": "nonpayable",
      "type": "function"
    },
    {
      "inputs": [
        {
          "internalType": "address",
          "name": "owner",
          "type": "address"
        }
      ],
      "name": "balanceOf",
      "outputs": [
        {
          "internalType": "uint256",
          "name": "",
          "type": "uint256"
        }
      ],
      "stateMutability": "view",
      "type": "function",
      "constant": true
    },
    {
      "inputs": [
        {
          "internalType": "uint256",
          "name": "tokenId",
          "type": "uint256"
        }
      ],
      "name": "getApproved",
      "outputs": [
        {
          "internalType": "address",
          "name": "",
          "type": "address"
        }
      ],
      "stateMutability": "view",
      "type": "function",
      "constant": true
    },
    {
      "inputs": [
        {
          "internalType": "bytes32",
          "name": "role",
          "type": "bytes32"
        }
      ],
      "name": "getRoleAdmin",
      "outputs": [
        {
          "internalType": "bytes32",
          "name": "",
          "type": "bytes32"
        }
      ],
      "stateMutability": "view",
      "type": "function",
      "constant": true
    },
    {
      "inputs": [
        {
          "internalType": "bytes32",
          "name": "role",
          "type": "bytes32"
        },
        {
          "internalType": "address",
          "name": "account",
          "type": "address"
        }
      ],
      "name": "grantRole",
      "outputs": [],
      "stateMutability": "nonpayable",
      "type": "function"
    },
    {
      "inputs": [
        {
          "internalType": "bytes32",
          "name": "role",
          "type": "bytes32"
        },
        {
          "internalType": "address",
          "name": "account",
          "type": "address"
        }
      ],
      "name": "hasRole",
      "outputs": [
        {
          "internalType": "bool",
          "name": "",
          "type": "bool"
        }
      ],
      "stateMutability": "view",
      "type": "function",
      "constant": true
    },
    {
      "inputs": [
        {
          "internalType": "address",
          "name": "owner",
          "type": "address"
        },
        {
          "internalType": "address",
          "name": "operator",
          "type": "address"
        }
      ],
      "name": "isApprovedForAll",
      "outputs": [
        {
          "internalType": "bool",
          "name": "",
          "type": "bool"
        }
      ],
      "stateMutability": "view",
      "type": "function",
      "constant": true
    },
    {
      "inputs": [],
      "name": "name",
      "outputs": [
        {
          "internalType": "string",
          "name": "",
          "type": "string"
        }
      ],
      "stateMutability": "view",
      "type": "function",
      "constant": true
    },
    {
      "inputs": [],
      "name": "owner",
      "outputs": [
        {
          "internalType": "address",
          "name": "",
          "type": "address"
        }
      ],
      "stateMutability": "view",
      "type": "function",
      "constant": true
    },
    {
      "inputs": [
        {
          "internalType": "uint256",
          "name": "tokenId",
          "type": "uint256"
        }
      ],
      "name": "ownerOf",
      "outputs": [
        {
          "internalType": "address",
          "name": "",
          "type": "address"
        }
      ],
      "stateMutability": "view",
      "type": "function",
      "constant": true
    },
    {
      "inputs": [],
      "name": "paused",
      "outputs": [
        {
          "internalType": "bool",
          "name": "",
          "type": "bool"
        }
      ],
      "stateMutability": "view",
      "type": "function",
      "constant": true
    },
    {
      "inputs": [],
      "name": "renounceOwnership",
      "outputs": [],
      "stateMutability": "nonpayable",
      "type": "function"
    },
    {
      "inputs": [
        {
          "internalType": "bytes32",
          "name": "role",
          "type": "bytes32"
        },
        {
          "internalType": "address",
          "name": "account",
          "type": "address"
        }
      ],
      "name": "renounceRole",
      "outputs": [],
      "stateMutability": "nonpayable",
      "type": "function"
    },
    {
      "inputs": [
        {
          "internalType": "bytes32",
          "name": "role",
          "type": "bytes32"
        },
        {
          "internalType": "address",
          "name": "account",
          "type": "address"
        }
      ],
      "name": "revokeRole",
      "outputs": [],
      "stateMutability": "nonpayable",
      "type": "function"
    },
    {
      "inputs": [
        {
          "internalType": "address",
          "name": "from",
          "type": "address"
        },
        {
          "internalType": "address",
          "name": "to",
          "type": "address"
        },
        {
          "internalType": "uint256",
          "name": "tokenId",
          "type": "uint256"
        }
      ],
      "name": "safeTransferFrom",
      "outputs": [],
      "stateMutability": "nonpayable",
      "type": "function"
    },
    {
      "inputs": [
        {
          "internalType": "address",
          "name": "from",
          "type": "address"
        },
        {
          "internalType": "address",
          "name": "to",
          "type": "address"
        },
        {
          "internalType": "uint256",
          "name": "tokenId",
          "type": "uint256"
        },
        {
          "internalType": "bytes",
          "name": "_data",
          "type": "bytes"
        }
      ],
      "name": "safeTransferFrom",
      "outputs": [],
      "stateMutability": "nonpayable",
      "type": "function"
    },
    {
      "inputs": [
        {
          "internalType": "address",
          "name": "operator",
          "type": "address"
        },
        {
          "internalType": "bool",
          "name": "approved",
          "type": "bool"
        }
      ],
      "name": "setApprovalForAll",
      "outputs": [],
      "stateMutability": "nonpayable",
      "type": "function"
    },
    {
      "inputs": [],
      "name": "symbol",
      "outputs": [
        {
          "internalType": "string",
          "name": "",
          "type": "string"
        }
      ],
      "stateMutability": "view",
      "type": "function",
      "constant": true
    },
    {
      "inputs": [
        {
          "internalType": "address",
          "name": "from",
          "type": "address"
        },
        {
          "internalType": "address",
          "name": "to",
          "type": "address"
        },
        {
          "internalType": "uint256",
          "name": "tokenId",
          "type": "uint256"
        }
      ],
      "name": "transferFrom",
      "outputs": [],
      "stateMutability": "nonpayable",
      "type": "function"
    },
    {
      "inputs": [
        {
          "internalType": "address",
          "name": "newOwner",
          "type": "address"
        }
      ],
      "name": "transferOwnership",
      "outputs": [],
      "stateMutability": "nonpayable",
      "type": "function"
    },
    {
      "inputs": [],
      "name": "pause",
      "outputs": [],
      "stateMutability": "nonpayable",
      "type": "function"
    },
    {
      "inputs": [],
      "name": "unpause",
      "outputs": [],
      "stateMutability": "nonpayable",
      "type": "function"
    },
    {
      "inputs": [
        {
          "internalType": "address",
          "name": "to",
          "type": "address"
        },
        {
          "internalType": "string",
          "name": "uri",
          "type": "string"
        }
      ],
      "name": "safeMint",
      "outputs": [],
      "stateMutability": "nonpayable",
      "type": "function"
    },
    {
      "inputs": [
        {
          "internalType": "string",
          "name": "uri",
          "type": "string"
        }
      ],
      "name": "safeMintByUser",
      "outputs": [],
      "stateMutability": "nonpayable",
      "type": "function"
    },
    {
      "inputs": [
        {
          "internalType": "uint256",
          "name": "tokenId",
          "type": "uint256"
        }
      ],
      "name": "tokenURI",
      "outputs": [
        {
          "internalType": "string",
          "name": "",
          "type": "string"
        }
      ],
      "stateMutability": "view",
      "type": "function",
      "constant": true
    },
    {
      "inputs": [
        {
          "internalType": "bytes4",
          "name": "interfaceId",
          "type": "bytes4"
        }
      ],
      "name": "supportsInterface",
      "outputs": [
        {
          "internalType": "bool",
          "name": "",
          "type": "bool"
        }
      ],
      "stateMutability": "view",
      "type": "function",
      "constant": true
    }
  ],
  "bytecode": "0x60806040523480156200001157600080fd5b50604051620045f9380380620045f98339818101604052810190620000379190620004e6565b6040518060400160405280600681526020017f5265644e465400000000000000000000000000000000000000000000000000008152506040518060400160405280600381526020017f4e465400000000000000000000000000000000000000000000000000000000008152508160009080519060200190620000bb929190620003cc565b508060019080519060200190620000d4929190620003cc565b5050506000600860006101000a81548160ff0219169083151502179055506200011262000106620001a160201b60201c565b620001a960201b60201c565b620001276000801b336200026f60201b60201c565b620001597f9f2df0fed2c77648de5860a4cc508cd0818c85b8b8a1ab4ceeef8d981c8956a6336200026f60201b60201c565b80600a60006101000a81548173ffffffffffffffffffffffffffffffffffffffff021916908373ffffffffffffffffffffffffffffffffffffffff160217905550506200057d565b600033905090565b6000600860019054906101000a900473ffffffffffffffffffffffffffffffffffffffff16905081600860016101000a81548173ffffffffffffffffffffffffffffffffffffffff021916908373ffffffffffffffffffffffffffffffffffffffff1602179055508173ffffffffffffffffffffffffffffffffffffffff168173ffffffffffffffffffffffffffffffffffffffff167f8be0079c531659141344cd1fd0a4f28419497f9722a3daafe3b4186f6b6457e060405160405180910390a35050565b6200028182826200036160201b60201c565b6200035d5760016007600084815260200190815260200160002060000160008373ffffffffffffffffffffffffffffffffffffffff1673ffffffffffffffffffffffffffffffffffffffff16815260200190815260200160002060006101000a81548160ff02191690831515021790555062000302620001a160201b60201c565b73ffffffffffffffffffffffffffffffffffffffff168173ffffffffffffffffffffffffffffffffffffffff16837f2f8788117e7eff1d82e926ec794901d17c78024a50270940304540a733656f0d60405160405180910390a45b5050565b60006007600084815260200190815260200160002060000160008373ffffffffffffffffffffffffffffffffffffffff1673ffffffffffffffffffffffffffffffffffffffff16815260200190815260200160002060009054906101000a900460ff16905092915050565b828054620003da9062000547565b90600052602060002090601f016020900481019282620003fe57600085556200044a565b82601f106200041957805160ff19168380011785556200044a565b828001600101855582156200044a579182015b82811115620004495782518255916020019190600101906200042c565b5b5090506200045991906200045d565b5090565b5b80821115620004785760008160009055506001016200045e565b5090565b600080fd5b600073ffffffffffffffffffffffffffffffffffffffff82169050919050565b6000620004ae8262000481565b9050919050565b620004c081620004a1565b8114620004cc57600080fd5b50565b600081519050620004e081620004b5565b92915050565b600060208284031215620004ff57620004fe6200047c565b5b60006200050f84828501620004cf565b91505092915050565b7f4e487b7100000000000000000000000000000000000000000000000000000000600052602260045260246000fd5b600060028204905060018216806200056057607f821691505b6020821081141562000577576200057662000518565b5b50919050565b61406c806200058d6000396000f3fe608060405234801561001057600080fd5b50600436106101c45760003560e01c80638456cb59116100f9578063c87b56dd11610097578063d547741f11610071578063d547741f146104cb578063e121ecd6146104e7578063e985e9c514610503578063f2fde38b14610533576101c4565b8063c87b56dd14610461578063d204c45e14610491578063d5391393146104ad576101c4565b806395d89b41116100d357806395d89b41146103ed578063a217fddf1461040b578063a22cb46514610429578063b88d4fde14610445576101c4565b80638456cb59146103955780638da5cb5b1461039f57806391d14854146103bd576101c4565b806336568abe116101665780635c975abb116101405780635c975abb1461030d5780636352211e1461032b57806370a082311461035b578063715018a61461038b576101c4565b806336568abe146102cb5780633f4ba83a146102e757806342842e0e146102f1576101c4565b8063095ea7b3116101a2578063095ea7b31461024757806323b872dd14610263578063248a9ca31461027f5780632f2ff15d146102af576101c4565b806301ffc9a7146101c957806306fdde03146101f9578063081812fc14610217575b600080fd5b6101e360048036038101906101de919061288e565b61054f565b6040516101f091906128d6565b60405180910390f35b610201610561565b60405161020e919061298a565b60405180910390f35b610231600480360381019061022c91906129e2565b6105f3565b60405161023e9190612a50565b60405180910390f35b610261600480360381019061025c9190612a97565b610678565b005b61027d60048036038101906102789190612ad7565b610790565b005b61029960048036038101906102949190612b60565b6107f0565b6040516102a69190612b9c565b60405180910390f35b6102c960048036038101906102c49190612bb7565b610810565b005b6102e560048036038101906102e09190612bb7565b610839565b005b6102ef6108bc565b005b61030b60048036038101906103069190612ad7565b610942565b005b610315610962565b60405161032291906128d6565b60405180910390f35b610345600480360381019061034091906129e2565b610979565b6040516103529190612a50565b60405180910390f35b61037560048036038101906103709190612bf7565b610a2b565b6040516103829190612c33565b60405180910390f35b610393610ae3565b005b61039d610b6b565b005b6103a7610bf1565b6040516103b49190612a50565b60405180910390f35b6103d760048036038101906103d29190612bb7565b610c1b565b6040516103e491906128d6565b60405180910390f35b6103f5610c86565b604051610402919061298a565b60405180910390f35b610413610d18565b6040516104209190612b9c565b60405180910390f35b610443600480360381019061043e9190612c7a565b610d1f565b005b61045f600480360381019061045a9190612def565b610d35565b005b61047b600480360381019061047691906129e2565b610d97565b604051610488919061298a565b60405180910390f35b6104ab60048036038101906104a69190612f13565b610da9565b005b6104b5610e39565b6040516104c29190612b9c565b60405180910390f35b6104e560048036038101906104e09190612bb7565b610e5d565b005b61050160048036038101906104fc9190612f6f565b610e86565b005b61051d60048036038101906105189190612fb8565b610ee2565b60405161052a91906128d6565b60405180910390f35b61054d60048036038101906105489190612bf7565b610f76565b005b600061055a8261106e565b9050919050565b60606000805461057090613027565b80601f016020809104026020016040519081016040528092919081815260200182805461059c90613027565b80156105e95780601f106105be576101008083540402835291602001916105e9565b820191906000526020600020905b8154815290600101906020018083116105cc57829003601f168201915b5050505050905090565b60006105fe826110e8565b61063d576040517f08c379a0000000000000000000000000000000000000000000000000000000008152600401610634906130cb565b60405180910390fd5b6004600083815260200190815260200160002060009054906101000a900473ffffffffffffffffffffffffffffffffffffffff169050919050565b600061068382610979565b90508073ffffffffffffffffffffffffffffffffffffffff168373ffffffffffffffffffffffffffffffffffffffff1614156106f4576040517f08c379a00000000000000000000000000000000000000000000000000000000081526004016106eb9061315d565b60405180910390fd5b8073ffffffffffffffffffffffffffffffffffffffff16610713611154565b73ffffffffffffffffffffffffffffffffffffffff16148061074257506107418161073c611154565b610ee2565b5b610781576040517f08c379a0000000000000000000000000000000000000000000000000000000008152600401610778906131ef565b60405180910390fd5b61078b838361115c565b505050565b6107a161079b611154565b82611215565b6107e0576040517f08c379a00000000000000000000000000000000000000000000000000000000081526004016107d790613281565b60405180910390fd5b6107eb8383836112f3565b505050565b600060076000838152602001908152602001600020600101549050919050565b610819826107f0565b61082a81610825611154565b61155a565b61083483836115f7565b505050565b610841611154565b73ffffffffffffffffffffffffffffffffffffffff168173ffffffffffffffffffffffffffffffffffffffff16146108ae576040517f08c379a00000000000000000000000000000000000000000000000000000000081526004016108a590613313565b60405180910390fd5b6108b882826116d8565b5050565b6108c4611154565b73ffffffffffffffffffffffffffffffffffffffff166108e2610bf1565b73ffffffffffffffffffffffffffffffffffffffff1614610938576040517f08c379a000000000000000000000000000000000000000000000000000000000815260040161092f9061337f565b60405180910390fd5b6109406117ba565b565b61095d83838360405180602001604052806000815250610d35565b505050565b6000600860009054906101000a900460ff16905090565b6000806002600084815260200190815260200160002060009054906101000a900473ffffffffffffffffffffffffffffffffffffffff169050600073ffffffffffffffffffffffffffffffffffffffff168173ffffffffffffffffffffffffffffffffffffffff161415610a22576040517f08c379a0000000000000000000000000000000000000000000000000000000008152600401610a1990613411565b60405180910390fd5b80915050919050565b60008073ffffffffffffffffffffffffffffffffffffffff168273ffffffffffffffffffffffffffffffffffffffff161415610a9c576040517f08c379a0000000000000000000000000000000000000000000000000000000008152600401610a93906134a3565b60405180910390fd5b600360008373ffffffffffffffffffffffffffffffffffffffff1673ffffffffffffffffffffffffffffffffffffffff168152602001908152602001600020549050919050565b610aeb611154565b73ffffffffffffffffffffffffffffffffffffffff16610b09610bf1565b73ffffffffffffffffffffffffffffffffffffffff1614610b5f576040517f08c379a0000000000000000000000000000000000000000000000000000000008152600401610b569061337f565b60405180910390fd5b610b69600061185c565b565b610b73611154565b73ffffffffffffffffffffffffffffffffffffffff16610b91610bf1565b73ffffffffffffffffffffffffffffffffffffffff1614610be7576040517f08c379a0000000000000000000000000000000000000000000000000000000008152600401610bde9061337f565b60405180910390fd5b610bef611922565b565b6000600860019054906101000a900473ffffffffffffffffffffffffffffffffffffffff16905090565b60006007600084815260200190815260200160002060000160008373ffffffffffffffffffffffffffffffffffffffff1673ffffffffffffffffffffffffffffffffffffffff16815260200190815260200160002060009054906101000a900460ff16905092915050565b606060018054610c9590613027565b80601f0160208091040260200160405190810160405280929190818152602001828054610cc190613027565b8015610d0e5780601f10610ce357610100808354040283529160200191610d0e565b820191906000526020600020905b815481529060010190602001808311610cf157829003601f168201915b5050505050905090565b6000801b81565b610d31610d2a611154565b83836119c5565b5050565b610d46610d40611154565b83611215565b610d85576040517f08c379a0000000000000000000000000000000000000000000000000000000008152600401610d7c90613281565b60405180910390fd5b610d9184848484611b32565b50505050565b6060610da282611b8e565b9050919050565b7f9f2df0fed2c77648de5860a4cc508cd0818c85b8b8a1ab4ceeef8d981c8956a6610ddb81610dd6611154565b61155a565b6000610de76009611ce0565b9050610df36009611cee565b610dfd8482611d04565b610e078184611d22565b610e33600a60009054906101000a900473ffffffffffffffffffffffffffffffffffffffff168261115c565b50505050565b7f9f2df0fed2c77648de5860a4cc508cd0818c85b8b8a1ab4ceeef8d981c8956a681565b610e66826107f0565b610e7781610e72611154565b61155a565b610e8183836116d8565b505050565b6000610e926009611ce0565b9050610e9e6009611cee565b610ea83382611d04565b610eb28183611d22565b610ede600a60009054906101000a900473ffffffffffffffffffffffffffffffffffffffff168261115c565b5050565b6000600560008473ffffffffffffffffffffffffffffffffffffffff1673ffffffffffffffffffffffffffffffffffffffff16815260200190815260200160002060008373ffffffffffffffffffffffffffffffffffffffff1673ffffffffffffffffffffffffffffffffffffffff16815260200190815260200160002060009054906101000a900460ff16905092915050565b610f7e611154565b73ffffffffffffffffffffffffffffffffffffffff16610f9c610bf1565b73ffffffffffffffffffffffffffffffffffffffff1614610ff2576040517f08c379a0000000000000000000000000000000000000000000000000000000008152600401610fe99061337f565b60405180910390fd5b600073ffffffffffffffffffffffffffffffffffffffff168173ffffffffffffffffffffffffffffffffffffffff161415611062576040517f08c379a000000000000000000000000000000000000000000000000000000000815260040161105990613535565b60405180910390fd5b61106b8161185c565b50565b60007f7965db0b000000000000000000000000000000000000000000000000000000007bffffffffffffffffffffffffffffffffffffffffffffffffffffffff1916827bffffffffffffffffffffffffffffffffffffffffffffffffffffffff191614806110e157506110e082611d96565b5b9050919050565b60008073ffffffffffffffffffffffffffffffffffffffff166002600084815260200190815260200160002060009054906101000a900473ffffffffffffffffffffffffffffffffffffffff1673ffffffffffffffffffffffffffffffffffffffff1614159050919050565b600033905090565b816004600083815260200190815260200160002060006101000a81548173ffffffffffffffffffffffffffffffffffffffff021916908373ffffffffffffffffffffffffffffffffffffffff160217905550808273ffffffffffffffffffffffffffffffffffffffff166111cf83610979565b73ffffffffffffffffffffffffffffffffffffffff167f8c5be1e5ebec7d5bd14f71427d1e84f3dd0314c0f7b2291e5b200ac8c7c3b92560405160405180910390a45050565b6000611220826110e8565b61125f576040517f08c379a0000000000000000000000000000000000000000000000000000000008152600401611256906135c7565b60405180910390fd5b600061126a83610979565b90508073ffffffffffffffffffffffffffffffffffffffff168473ffffffffffffffffffffffffffffffffffffffff1614806112d957508373ffffffffffffffffffffffffffffffffffffffff166112c1846105f3565b73ffffffffffffffffffffffffffffffffffffffff16145b806112ea57506112e98185610ee2565b5b91505092915050565b8273ffffffffffffffffffffffffffffffffffffffff1661131382610979565b73ffffffffffffffffffffffffffffffffffffffff1614611369576040517f08c379a000000000000000000000000000000000000000000000000000000000815260040161136090613659565b60405180910390fd5b600073ffffffffffffffffffffffffffffffffffffffff168273ffffffffffffffffffffffffffffffffffffffff1614156113d9576040517f08c379a00000000000000000000000000000000000000000000000000000000081526004016113d0906136eb565b60405180910390fd5b6113e4838383611e78565b6113ef60008261115c565b6001600360008573ffffffffffffffffffffffffffffffffffffffff1673ffffffffffffffffffffffffffffffffffffffff168152602001908152602001600020600082825461143f919061373a565b925050819055506001600360008473ffffffffffffffffffffffffffffffffffffffff1673ffffffffffffffffffffffffffffffffffffffff1681526020019081526020016000206000828254611496919061376e565b92505081905550816002600083815260200190815260200160002060006101000a81548173ffffffffffffffffffffffffffffffffffffffff021916908373ffffffffffffffffffffffffffffffffffffffff160217905550808273ffffffffffffffffffffffffffffffffffffffff168473ffffffffffffffffffffffffffffffffffffffff167fddf252ad1be2c89b69c2b068fc378daa952ba7f163c4a11628f55a4df523b3ef60405160405180910390a4611555838383611ed0565b505050565b6115648282610c1b565b6115f3576115898173ffffffffffffffffffffffffffffffffffffffff166014611ed5565b6115978360001c6020611ed5565b6040516020016115a8929190613898565b6040516020818303038152906040526040517f08c379a00000000000000000000000000000000000000000000000000000000081526004016115ea919061298a565b60405180910390fd5b5050565b6116018282610c1b565b6116d45760016007600084815260200190815260200160002060000160008373ffffffffffffffffffffffffffffffffffffffff1673ffffffffffffffffffffffffffffffffffffffff16815260200190815260200160002060006101000a81548160ff021916908315150217905550611679611154565b73ffffffffffffffffffffffffffffffffffffffff168173ffffffffffffffffffffffffffffffffffffffff16837f2f8788117e7eff1d82e926ec794901d17c78024a50270940304540a733656f0d60405160405180910390a45b5050565b6116e28282610c1b565b156117b65760006007600084815260200190815260200160002060000160008373ffffffffffffffffffffffffffffffffffffffff1673ffffffffffffffffffffffffffffffffffffffff16815260200190815260200160002060006101000a81548160ff02191690831515021790555061175b611154565b73ffffffffffffffffffffffffffffffffffffffff168173ffffffffffffffffffffffffffffffffffffffff16837ff6391f5c32d9c69d2a47ea670b442974b53935d1edc7fd64eb21e047a839171b60405160405180910390a45b5050565b6117c2610962565b611801576040517f08c379a00000000000000000000000000000000000000000000000000000000081526004016117f89061391e565b60405180910390fd5b6000600860006101000a81548160ff0219169083151502179055507f5db9ee0a495bf2e6ff9c91a7834c1ba4fdd244a5e8aa4e537bd38aeae4b073aa611845611154565b6040516118529190612a50565b60405180910390a1565b6000600860019054906101000a900473ffffffffffffffffffffffffffffffffffffffff16905081600860016101000a81548173ffffffffffffffffffffffffffffffffffffffff021916908373ffffffffffffffffffffffffffffffffffffffff1602179055508173ffffffffffffffffffffffffffffffffffffffff168173ffffffffffffffffffffffffffffffffffffffff167f8be0079c531659141344cd1fd0a4f28419497f9722a3daafe3b4186f6b6457e060405160405180910390a35050565b61192a610962565b1561196a576040517f08c379a00000000000000000000000000000000000000000000000000000000081526004016119619061398a565b60405180910390fd5b6001600860006101000a81548160ff0219169083151502179055507f62e78cea01bee320cd4e420270b5ea74000d11b0c9f74754ebdbfc544b05a2586119ae611154565b6040516119bb9190612a50565b60405180910390a1565b8173ffffffffffffffffffffffffffffffffffffffff168373ffffffffffffffffffffffffffffffffffffffff161415611a34576040517f08c379a0000000000000000000000000000000000000000000000000000000008152600401611a2b906139f6565b60405180910390fd5b80600560008573ffffffffffffffffffffffffffffffffffffffff1673ffffffffffffffffffffffffffffffffffffffff16815260200190815260200160002060008473ffffffffffffffffffffffffffffffffffffffff1673ffffffffffffffffffffffffffffffffffffffff16815260200190815260200160002060006101000a81548160ff0219169083151502179055508173ffffffffffffffffffffffffffffffffffffffff168373ffffffffffffffffffffffffffffffffffffffff167f17307eab39ab6107e8899845ad3d59bd9653f200f220920489ca2b5937696c3183604051611b2591906128d6565b60405180910390a3505050565b611b3d8484846112f3565b611b4984848484612111565b611b88576040517f08c379a0000000000000000000000000000000000000000000000000000000008152600401611b7f90613a88565b60405180910390fd5b50505050565b6060611b99826110e8565b611bd8576040517f08c379a0000000000000000000000000000000000000000000000000000000008152600401611bcf90613b1a565b60405180910390fd5b6000600660008481526020019081526020016000208054611bf890613027565b80601f0160208091040260200160405190810160405280929190818152602001828054611c2490613027565b8015611c715780601f10611c4657610100808354040283529160200191611c71565b820191906000526020600020905b815481529060010190602001808311611c5457829003601f168201915b505050505090506000611c82612299565b9050600081511415611c98578192505050611cdb565b600082511115611ccd578082604051602001611cb5929190613b3a565b60405160208183030381529060405292505050611cdb565b611cd6846122b0565b925050505b919050565b600081600001549050919050565b6001816000016000828254019250508190555050565b611d1e828260405180602001604052806000815250612357565b5050565b611d2b826110e8565b611d6a576040517f08c379a0000000000000000000000000000000000000000000000000000000008152600401611d6190613bd0565b60405180910390fd5b80600660008481526020019081526020016000209080519060200190611d9192919061277f565b505050565b60007f80ac58cd000000000000000000000000000000000000000000000000000000007bffffffffffffffffffffffffffffffffffffffffffffffffffffffff1916827bffffffffffffffffffffffffffffffffffffffffffffffffffffffff19161480611e6157507f5b5e139f000000000000000000000000000000000000000000000000000000007bffffffffffffffffffffffffffffffffffffffffffffffffffffffff1916827bffffffffffffffffffffffffffffffffffffffffffffffffffffffff1916145b80611e715750611e70826123b2565b5b9050919050565b611e80610962565b15611ec0576040517f08c379a0000000000000000000000000000000000000000000000000000000008152600401611eb79061398a565b60405180910390fd5b611ecb83838361241c565b505050565b505050565b606060006002836002611ee89190613bf0565b611ef2919061376e565b67ffffffffffffffff811115611f0b57611f0a612cc4565b5b6040519080825280601f01601f191660200182016040528015611f3d5781602001600182028036833780820191505090505b5090507f300000000000000000000000000000000000000000000000000000000000000081600081518110611f7557611f74613c4a565b5b60200101907effffffffffffffffffffffffffffffffffffffffffffffffffffffffffffff1916908160001a9053507f780000000000000000000000000000000000000000000000000000000000000081600181518110611fd957611fd8613c4a565b5b60200101907effffffffffffffffffffffffffffffffffffffffffffffffffffffffffffff1916908160001a905350600060018460026120199190613bf0565b612023919061376e565b90505b60018111156120c3577f3031323334353637383961626364656600000000000000000000000000000000600f86166010811061206557612064613c4a565b5b1a60f81b82828151811061207c5761207b613c4a565b5b60200101907effffffffffffffffffffffffffffffffffffffffffffffffffffffffffffff1916908160001a905350600485901c9450806120bc90613c79565b9050612026565b5060008414612107576040517f08c379a00000000000000000000000000000000000000000000000000000000081526004016120fe90613cef565b60405180910390fd5b8091505092915050565b60006121328473ffffffffffffffffffffffffffffffffffffffff16612421565b1561228c578373ffffffffffffffffffffffffffffffffffffffff1663150b7a0261215b611154565b8786866040518563ffffffff1660e01b815260040161217d9493929190613d64565b6020604051808303816000875af19250505080156121b957506040513d601f19601f820116820180604052508101906121b69190613dc5565b60015b61223c573d80600081146121e9576040519150601f19603f3d011682016040523d82523d6000602084013e6121ee565b606091505b50600081511415612234576040517f08c379a000000000000000000000000000000000000000000000000000000000815260040161222b90613a88565b60405180910390fd5b805181602001fd5b63150b7a0260e01b7bffffffffffffffffffffffffffffffffffffffffffffffffffffffff1916817bffffffffffffffffffffffffffffffffffffffffffffffffffffffff191614915050612291565b600190505b949350505050565b606060405180602001604052806000815250905090565b60606122bb826110e8565b6122fa576040517f08c379a00000000000000000000000000000000000000000000000000000000081526004016122f190613e64565b60405180910390fd5b6000612304612299565b90506000815111612324576040518060200160405280600081525061234f565b8061232e84612444565b60405160200161233f929190613b3a565b6040516020818303038152906040525b915050919050565b61236183836125a5565b61236e6000848484612111565b6123ad576040517f08c379a00000000000000000000000000000000000000000000000000000000081526004016123a490613a88565b60405180910390fd5b505050565b60007f01ffc9a7000000000000000000000000000000000000000000000000000000007bffffffffffffffffffffffffffffffffffffffffffffffffffffffff1916827bffffffffffffffffffffffffffffffffffffffffffffffffffffffff1916149050919050565b505050565b6000808273ffffffffffffffffffffffffffffffffffffffff163b119050919050565b6060600082141561248c576040518060400160405280600181526020017f300000000000000000000000000000000000000000000000000000000000000081525090506125a0565b600082905060005b600082146124be5780806124a790613e84565b915050600a826124b79190613efc565b9150612494565b60008167ffffffffffffffff8111156124da576124d9612cc4565b5b6040519080825280601f01601f19166020018201604052801561250c5781602001600182028036833780820191505090505b5090505b6000851461259957600182612525919061373a565b9150600a856125349190613f2d565b6030612540919061376e565b60f81b81838151811061255657612555613c4a565b5b60200101907effffffffffffffffffffffffffffffffffffffffffffffffffffffffffffff1916908160001a905350600a856125929190613efc565b9450612510565b8093505050505b919050565b600073ffffffffffffffffffffffffffffffffffffffff168273ffffffffffffffffffffffffffffffffffffffff161415612615576040517f08c379a000000000000000000000000000000000000000000000000000000000815260040161260c90613faa565b60405180910390fd5b61261e816110e8565b1561265e576040517f08c379a000000000000000000000000000000000000000000000000000000000815260040161265590614016565b60405180910390fd5b61266a60008383611e78565b6001600360008473ffffffffffffffffffffffffffffffffffffffff1673ffffffffffffffffffffffffffffffffffffffff16815260200190815260200160002060008282546126ba919061376e565b92505081905550816002600083815260200190815260200160002060006101000a81548173ffffffffffffffffffffffffffffffffffffffff021916908373ffffffffffffffffffffffffffffffffffffffff160217905550808273ffffffffffffffffffffffffffffffffffffffff16600073ffffffffffffffffffffffffffffffffffffffff167fddf252ad1be2c89b69c2b068fc378daa952ba7f163c4a11628f55a4df523b3ef60405160405180910390a461277b60008383611ed0565b5050565b82805461278b90613027565b90600052602060002090601f0160209004810192826127ad57600085556127f4565b82601f106127c657805160ff19168380011785556127f4565b828001600101855582156127f4579182015b828111156127f35782518255916020019190600101906127d8565b5b5090506128019190612805565b5090565b5b8082111561281e576000816000905550600101612806565b5090565b6000604051905090565b600080fd5b600080fd5b60007fffffffff0000000000000000000000000000000000000000000000000000000082169050919050565b61286b81612836565b811461287657600080fd5b50565b60008135905061288881612862565b92915050565b6000602082840312156128a4576128a361282c565b5b60006128b284828501612879565b91505092915050565b60008115159050919050565b6128d0816128bb565b82525050565b60006020820190506128eb60008301846128c7565b92915050565b600081519050919050565b600082825260208201905092915050565b60005b8381101561292b578082015181840152602081019050612910565b8381111561293a576000848401525b50505050565b6000601f19601f8301169050919050565b600061295c826128f1565b61296681856128fc565b935061297681856020860161290d565b61297f81612940565b840191505092915050565b600060208201905081810360008301526129a48184612951565b905092915050565b6000819050919050565b6129bf816129ac565b81146129ca57600080fd5b50565b6000813590506129dc816129b6565b92915050565b6000602082840312156129f8576129f761282c565b5b6000612a06848285016129cd565b91505092915050565b600073ffffffffffffffffffffffffffffffffffffffff82169050919050565b6000612a3a82612a0f565b9050919050565b612a4a81612a2f565b82525050565b6000602082019050612a656000830184612a41565b92915050565b612a7481612a2f565b8114612a7f57600080fd5b50565b600081359050612a9181612a6b565b92915050565b60008060408385031215612aae57612aad61282c565b5b6000612abc85828601612a82565b9250506020612acd858286016129cd565b9150509250929050565b600080600060608486031215612af057612aef61282c565b5b6000612afe86828701612a82565b9350506020612b0f86828701612a82565b9250506040612b20868287016129cd565b9150509250925092565b6000819050919050565b612b3d81612b2a565b8114612b4857600080fd5b50565b600081359050612b5a81612b34565b92915050565b600060208284031215612b7657612b7561282c565b5b6000612b8484828501612b4b565b91505092915050565b612b9681612b2a565b82525050565b6000602082019050612bb16000830184612b8d565b92915050565b60008060408385031215612bce57612bcd61282c565b5b6000612bdc85828601612b4b565b9250506020612bed85828601612a82565b9150509250929050565b600060208284031215612c0d57612c0c61282c565b5b6000612c1b84828501612a82565b91505092915050565b612c2d816129ac565b82525050565b6000602082019050612c486000830184612c24565b92915050565b612c57816128bb565b8114612c6257600080fd5b50565b600081359050612c7481612c4e565b92915050565b60008060408385031215612c9157612c9061282c565b5b6000612c9f85828601612a82565b9250506020612cb085828601612c65565b9150509250929050565b600080fd5b600080fd5b7f4e487b7100000000000000000000000000000000000000000000000000000000600052604160045260246000fd5b612cfc82612940565b810181811067ffffffffffffffff82111715612d1b57612d1a612cc4565b5b80604052505050565b6000612d2e612822565b9050612d3a8282612cf3565b919050565b600067ffffffffffffffff821115612d5a57612d59612cc4565b5b612d6382612940565b9050602081019050919050565b82818337600083830152505050565b6000612d92612d8d84612d3f565b612d24565b905082815260208101848484011115612dae57612dad612cbf565b5b612db9848285612d70565b509392505050565b600082601f830112612dd657612dd5612cba565b5b8135612de6848260208601612d7f565b91505092915050565b60008060008060808587031215612e0957612e0861282c565b5b6000612e1787828801612a82565b9450506020612e2887828801612a82565b9350506040612e39878288016129cd565b925050606085013567ffffffffffffffff811115612e5a57612e59612831565b5b612e6687828801612dc1565b91505092959194509250565b600067ffffffffffffffff821115612e8d57612e8c612cc4565b5b612e9682612940565b9050602081019050919050565b6000612eb6612eb184612e72565b612d24565b905082815260208101848484011115612ed257612ed1612cbf565b5b612edd848285612d70565b509392505050565b600082601f830112612efa57612ef9612cba565b5b8135612f0a848260208601612ea3565b91505092915050565b60008060408385031215612f2a57612f2961282c565b5b6000612f3885828601612a82565b925050602083013567ffffffffffffffff811115612f5957612f58612831565b5b612f6585828601612ee5565b9150509250929050565b600060208284031215612f8557612f8461282c565b5b600082013567ffffffffffffffff811115612fa357612fa2612831565b5b612faf84828501612ee5565b91505092915050565b60008060408385031215612fcf57612fce61282c565b5b6000612fdd85828601612a82565b9250506020612fee85828601612a82565b9150509250929050565b7f4e487b7100000000000000000000000000000000000000000000000000000000600052602260045260246000fd5b6000600282049050600182168061303f57607f821691505b6020821081141561305357613052612ff8565b5b50919050565b7f4552433732313a20617070726f76656420717565727920666f72206e6f6e657860008201527f697374656e7420746f6b656e0000000000000000000000000000000000000000602082015250565b60006130b5602c836128fc565b91506130c082613059565b604082019050919050565b600060208201905081810360008301526130e4816130a8565b9050919050565b7f4552433732313a20617070726f76616c20746f2063757272656e74206f776e6560008201527f7200000000000000000000000000000000000000000000000000000000000000602082015250565b60006131476021836128fc565b9150613152826130eb565b604082019050919050565b600060208201905081810360008301526131768161313a565b9050919050565b7f4552433732313a20617070726f76652063616c6c6572206973206e6f74206f7760008201527f6e6572206e6f7220617070726f76656420666f7220616c6c0000000000000000602082015250565b60006131d96038836128fc565b91506131e48261317d565b604082019050919050565b60006020820190508181036000830152613208816131cc565b9050919050565b7f4552433732313a207472616e736665722063616c6c6572206973206e6f74206f60008201527f776e6572206e6f7220617070726f766564000000000000000000000000000000602082015250565b600061326b6031836128fc565b91506132768261320f565b604082019050919050565b6000602082019050818103600083015261329a8161325e565b9050919050565b7f416363657373436f6e74726f6c3a2063616e206f6e6c792072656e6f756e636560008201527f20726f6c657320666f722073656c660000000000000000000000000000000000602082015250565b60006132fd602f836128fc565b9150613308826132a1565b604082019050919050565b6000602082019050818103600083015261332c816132f0565b9050919050565b7f4f776e61626c653a2063616c6c6572206973206e6f7420746865206f776e6572600082015250565b60006133696020836128fc565b915061337482613333565b602082019050919050565b600060208201905081810360008301526133988161335c565b9050919050565b7f4552433732313a206f776e657220717565727920666f72206e6f6e657869737460008201527f656e7420746f6b656e0000000000000000000000000000000000000000000000602082015250565b60006133fb6029836128fc565b91506134068261339f565b604082019050919050565b6000602082019050818103600083015261342a816133ee565b9050919050565b7f4552433732313a2062616c616e636520717565727920666f7220746865207a6560008201527f726f206164647265737300000000000000000000000000000000000000000000602082015250565b600061348d602a836128fc565b915061349882613431565b604082019050919050565b600060208201905081810360008301526134bc81613480565b9050919050565b7f4f776e61626c653a206e6577206f776e657220697320746865207a65726f206160008201527f6464726573730000000000000000000000000000000000000000000000000000602082015250565b600061351f6026836128fc565b915061352a826134c3565b604082019050919050565b6000602082019050818103600083015261354e81613512565b9050919050565b7f4552433732313a206f70657261746f7220717565727920666f72206e6f6e657860008201527f697374656e7420746f6b656e0000000000000000000000000000000000000000602082015250565b60006135b1602c836128fc565b91506135bc82613555565b604082019050919050565b600060208201905081810360008301526135e0816135a4565b9050919050565b7f4552433732313a207472616e736665722066726f6d20696e636f72726563742060008201527f6f776e6572000000000000000000000000000000000000000000000000000000602082015250565b60006136436025836128fc565b915061364e826135e7565b604082019050919050565b6000602082019050818103600083015261367281613636565b9050919050565b7f4552433732313a207472616e7366657220746f20746865207a65726f2061646460008201527f7265737300000000000000000000000000000000000000000000000000000000602082015250565b60006136d56024836128fc565b91506136e082613679565b604082019050919050565b60006020820190508181036000830152613704816136c8565b9050919050565b7f4e487b7100000000000000000000000000000000000000000000000000000000600052601160045260246000fd5b6000613745826129ac565b9150613750836129ac565b9250828210156137635761376261370b565b5b828203905092915050565b6000613779826129ac565b9150613784836129ac565b9250827fffffffffffffffffffffffffffffffffffffffffffffffffffffffffffffffff038211156137b9576137b861370b565b5b828201905092915050565b600081905092915050565b7f416363657373436f6e74726f6c3a206163636f756e7420000000000000000000600082015250565b60006138056017836137c4565b9150613810826137cf565b601782019050919050565b6000613826826128f1565b61383081856137c4565b935061384081856020860161290d565b80840191505092915050565b7f206973206d697373696e6720726f6c6520000000000000000000000000000000600082015250565b60006138826011836137c4565b915061388d8261384c565b601182019050919050565b60006138a3826137f8565b91506138af828561381b565b91506138ba82613875565b91506138c6828461381b565b91508190509392505050565b7f5061757361626c653a206e6f7420706175736564000000000000000000000000600082015250565b60006139086014836128fc565b9150613913826138d2565b602082019050919050565b60006020820190508181036000830152613937816138fb565b9050919050565b7f5061757361626c653a2070617573656400000000000000000000000000000000600082015250565b60006139746010836128fc565b915061397f8261393e565b602082019050919050565b600060208201905081810360008301526139a381613967565b9050919050565b7f4552433732313a20617070726f766520746f2063616c6c657200000000000000600082015250565b60006139e06019836128fc565b91506139eb826139aa565b602082019050919050565b60006020820190508181036000830152613a0f816139d3565b9050919050565b7f4552433732313a207472616e7366657220746f206e6f6e20455243373231526560008201527f63656976657220696d706c656d656e7465720000000000000000000000000000602082015250565b6000613a726032836128fc565b9150613a7d82613a16565b604082019050919050565b60006020820190508181036000830152613aa181613a65565b9050919050565b7f45524337323155524953746f726167653a2055524920717565727920666f722060008201527f6e6f6e6578697374656e7420746f6b656e000000000000000000000000000000602082015250565b6000613b046031836128fc565b9150613b0f82613aa8565b604082019050919050565b60006020820190508181036000830152613b3381613af7565b9050919050565b6000613b46828561381b565b9150613b52828461381b565b91508190509392505050565b7f45524337323155524953746f726167653a2055524920736574206f66206e6f6e60008201527f6578697374656e7420746f6b656e000000000000000000000000000000000000602082015250565b6000613bba602e836128fc565b9150613bc582613b5e565b604082019050919050565b60006020820190508181036000830152613be981613bad565b9050919050565b6000613bfb826129ac565b9150613c06836129ac565b9250817fffffffffffffffffffffffffffffffffffffffffffffffffffffffffffffffff0483118215151615613c3f57613c3e61370b565b5b828202905092915050565b7f4e487b7100000000000000000000000000000000000000000000000000000000600052603260045260246000fd5b6000613c84826129ac565b91506000821415613c9857613c9761370b565b5b600182039050919050565b7f537472696e67733a20686578206c656e67746820696e73756666696369656e74600082015250565b6000613cd96020836128fc565b9150613ce482613ca3565b602082019050919050565b60006020820190508181036000830152613d0881613ccc565b9050919050565b600081519050919050565b600082825260208201905092915050565b6000613d3682613d0f565b613d408185613d1a565b9350613d5081856020860161290d565b613d5981612940565b840191505092915050565b6000608082019050613d796000830187612a41565b613d866020830186612a41565b613d936040830185612c24565b8181036060830152613da58184613d2b565b905095945050505050565b600081519050613dbf81612862565b92915050565b600060208284031215613ddb57613dda61282c565b5b6000613de984828501613db0565b91505092915050565b7f4552433732314d657461646174613a2055524920717565727920666f72206e6f60008201527f6e6578697374656e7420746f6b656e0000000000000000000000000000000000602082015250565b6000613e4e602f836128fc565b9150613e5982613df2565b604082019050919050565b60006020820190508181036000830152613e7d81613e41565b9050919050565b6000613e8f826129ac565b91507fffffffffffffffffffffffffffffffffffffffffffffffffffffffffffffffff821415613ec257613ec161370b565b5b600182019050919050565b7f4e487b7100000000000000000000000000000000000000000000000000000000600052601260045260246000fd5b6000613f07826129ac565b9150613f12836129ac565b925082613f2257613f21613ecd565b5b828204905092915050565b6000613f38826129ac565b9150613f43836129ac565b925082613f5357613f52613ecd565b5b828206905092915050565b7f4552433732313a206d696e7420746f20746865207a65726f2061646472657373600082015250565b6000613f946020836128fc565b9150613f9f82613f5e565b602082019050919050565b60006020820190508181036000830152613fc381613f87565b9050919050565b7f4552433732313a20746f6b656e20616c7265616479206d696e74656400000000600082015250565b6000614000601c836128fc565b915061400b82613fca565b602082019050919050565b6000602082019050818103600083015261402f81613ff3565b905091905056fea26469706673582212208210d54bed1e308c0349d133779fab75e200ca50eff318b6c9a6b344a6af161664736f6c634300080b0033",
  "immutableReferences": {},
  "source": "// SPDX-License-Identifier: MIT\npragma solidity ^0.8.4;\n\nimport \"@openzeppelin/contracts/token/ERC721/ERC721.sol\";\nimport \"@openzeppelin/contracts/token/ERC721/extensions/ERC721URIStorage.sol\";\nimport \"@openzeppelin/contracts/access/AccessControl.sol\";\nimport \"@openzeppelin/contracts/utils/Counters.sol\";\nimport \"@openzeppelin/contracts/security/Pausable.sol\";\nimport \"@openzeppelin/contracts/access/Ownable.sol\";\n\ncontract RedNFT is ERC721, ERC721URIStorage, AccessControl, Pausable, Ownable {\n    using Counters for Counters.Counter;\n\n    bytes32 public constant MINTER_ROLE = keccak256(\"MINTER_ROLE\");\n    Counters.Counter private _tokenIdCounter;\n    address marketplaceAddress;\n\n    constructor(address marketAddress) ERC721(\"RedNFT\", \"NFT\") {\n        _grantRole(DEFAULT_ADMIN_ROLE, msg.sender);\n        _grantRole(MINTER_ROLE, msg.sender);\n        marketplaceAddress = marketAddress;\n    }\n\n    function pause() public onlyOwner {\n        _pause();\n    }\n\n    function unpause() public onlyOwner {\n        _unpause();\n    }\n\n    function safeMint(address to, string memory uri)\n        public\n        onlyRole(MINTER_ROLE)\n    {\n        uint256 tokenId = _tokenIdCounter.current();\n        _tokenIdCounter.increment();\n        _safeMint(to, tokenId);\n        _setTokenURI(tokenId, uri);\n        _approve(marketplaceAddress, tokenId);\n    }\n\n    function safeMintByUser(string memory uri) public {\n        uint256 tokenId = _tokenIdCounter.current();\n        _tokenIdCounter.increment();\n        _safeMint(msg.sender, tokenId);\n        _setTokenURI(tokenId, uri);\n        _approve(marketplaceAddress, tokenId);\n    }\n\n    // The following functions are overrides required by Solidity.\n\n    function _burn(uint256 tokenId)\n        internal\n        override(ERC721, ERC721URIStorage)\n    {\n        super._burn(tokenId);\n    }\n\n    function tokenURI(uint256 tokenId)\n        public\n        view\n        override(ERC721, ERC721URIStorage)\n        returns (string memory)\n    {\n        return super.tokenURI(tokenId);\n    }\n\n    function supportsInterface(bytes4 interfaceId)\n        public\n        view\n        override(ERC721, AccessControl)\n        returns (bool)\n    {\n        return super.supportsInterface(interfaceId);\n    }\n\n    function _beforeTokenTransfer(\n        address from,\n        address to,\n        uint256 tokenId\n    ) internal override whenNotPaused {\n        super._beforeTokenTransfer(from, to, tokenId);\n    }\n}\n",
  "sourcePath": "/Users/noel/workspace/manak/RedNFTcontracts/contracts/RedNFT.sol",
  "compiler": {
    "name": "solc",
    "version": "0.8.11+commit.d7f03943.Emscripten.clang"
  },
  "schemaVersion": "3.4.5",
  "updatedAt": "2022-04-25T18:19:10.321Z",
  "networkType": "ethereum",
  "devdoc": {
    "kind": "dev",
    "methods": {
      "approve(address,uint256)": {
        "details": "See {IERC721-approve}."
      },
      "balanceOf(address)": {
        "details": "See {IERC721-balanceOf}."
      },
      "getApproved(uint256)": {
        "details": "See {IERC721-getApproved}."
      },
      "getRoleAdmin(bytes32)": {
        "details": "Returns the admin role that controls `role`. See {grantRole} and {revokeRole}. To change a role's admin, use {_setRoleAdmin}."
      },
      "grantRole(bytes32,address)": {
        "details": "Grants `role` to `account`. If `account` had not been already granted `role`, emits a {RoleGranted} event. Requirements: - the caller must have ``role``'s admin role."
      },
      "hasRole(bytes32,address)": {
        "details": "Returns `true` if `account` has been granted `role`."
      },
      "isApprovedForAll(address,address)": {
        "details": "See {IERC721-isApprovedForAll}."
      },
      "name()": {
        "details": "See {IERC721Metadata-name}."
      },
      "owner()": {
        "details": "Returns the address of the current owner."
      },
      "ownerOf(uint256)": {
        "details": "See {IERC721-ownerOf}."
      },
      "paused()": {
        "details": "Returns true if the contract is paused, and false otherwise."
      },
      "renounceOwnership()": {
        "details": "Leaves the contract without owner. It will not be possible to call `onlyOwner` functions anymore. Can only be called by the current owner. NOTE: Renouncing ownership will leave the contract without an owner, thereby removing any functionality that is only available to the owner."
      },
      "renounceRole(bytes32,address)": {
        "details": "Revokes `role` from the calling account. Roles are often managed via {grantRole} and {revokeRole}: this function's purpose is to provide a mechanism for accounts to lose their privileges if they are compromised (such as when a trusted device is misplaced). If the calling account had been revoked `role`, emits a {RoleRevoked} event. Requirements: - the caller must be `account`."
      },
      "revokeRole(bytes32,address)": {
        "details": "Revokes `role` from `account`. If `account` had been granted `role`, emits a {RoleRevoked} event. Requirements: - the caller must have ``role``'s admin role."
      },
      "safeTransferFrom(address,address,uint256)": {
        "details": "See {IERC721-safeTransferFrom}."
      },
      "safeTransferFrom(address,address,uint256,bytes)": {
        "details": "See {IERC721-safeTransferFrom}."
      },
      "setApprovalForAll(address,bool)": {
        "details": "See {IERC721-setApprovalForAll}."
      },
      "symbol()": {
        "details": "See {IERC721Metadata-symbol}."
      },
      "transferFrom(address,address,uint256)": {
        "details": "See {IERC721-transferFrom}."
      },
      "transferOwnership(address)": {
        "details": "Transfers ownership of the contract to a new account (`newOwner`). Can only be called by the current owner."
      }
    },
    "version": 1
  },
  "userdoc": {
    "kind": "user",
    "methods": {},
    "version": 1
  }
}