{
  "contractName": "RedNFT",
  "abi": [
    {
      "inputs": [],
      "stateMutability": "nonpayable",
      "type": "constructor"
    },
    {
      "anonymous": false,
      "inputs": [
        {
          "indexed": true,
          "internalType": "address",
          "name": "owner",
          "type": "address"
        },
        {
          "indexed": true,
          "internalType": "address",
          "name": "approved",
          "type": "address"
        },
        {
          "indexed": true,
          "internalType": "uint256",
          "name": "tokenId",
          "type": "uint256"
        }
      ],
      "name": "Approval",
      "type": "event"
    },
    {
      "anonymous": false,
      "inputs": [
        {
          "indexed": true,
          "internalType": "address",
          "name": "owner",
          "type": "address"
        },
        {
          "indexed": true,
          "internalType": "address",
          "name": "operator",
          "type": "address"
        },
        {
          "indexed": false,
          "internalType": "bool",
          "name": "approved",
          "type": "bool"
        }
      ],
      "name": "ApprovalForAll",
      "type": "event"
    },
    {
      "anonymous": false,
      "inputs": [
        {
          "indexed": true,
          "internalType": "bytes32",
          "name": "role",
          "type": "bytes32"
        },
        {
          "indexed": true,
          "internalType": "bytes32",
          "name": "previousAdminRole",
          "type": "bytes32"
        },
        {
          "indexed": true,
          "internalType": "bytes32",
          "name": "newAdminRole",
          "type": "bytes32"
        }
      ],
      "name": "RoleAdminChanged",
      "type": "event"
    },
    {
      "anonymous": false,
      "inputs": [
        {
          "indexed": true,
          "internalType": "bytes32",
          "name": "role",
          "type": "bytes32"
        },
        {
          "indexed": true,
          "internalType": "address",
          "name": "account",
          "type": "address"
        },
        {
          "indexed": true,
          "internalType": "address",
          "name": "sender",
          "type": "address"
        }
      ],
      "name": "RoleGranted",
      "type": "event"
    },
    {
      "anonymous": false,
      "inputs": [
        {
          "indexed": true,
          "internalType": "bytes32",
          "name": "role",
          "type": "bytes32"
        },
        {
          "indexed": true,
          "internalType": "address",
          "name": "account",
          "type": "address"
        },
        {
          "indexed": true,
          "internalType": "address",
          "name": "sender",
          "type": "address"
        }
      ],
      "name": "RoleRevoked",
      "type": "event"
    },
    {
      "anonymous": false,
      "inputs": [
        {
          "indexed": true,
          "internalType": "address",
          "name": "from",
          "type": "address"
        },
        {
          "indexed": true,
          "internalType": "address",
          "name": "to",
          "type": "address"
        },
        {
          "indexed": true,
          "internalType": "uint256",
          "name": "tokenId",
          "type": "uint256"
        }
      ],
      "name": "Transfer",
      "type": "event"
    },
    {
      "inputs": [],
      "name": "DEFAULT_ADMIN_ROLE",
      "outputs": [
        {
          "internalType": "bytes32",
          "name": "",
          "type": "bytes32"
        }
      ],
      "stateMutability": "view",
      "type": "function",
      "constant": true
    },
    {
      "inputs": [],
      "name": "MINTER_ROLE",
      "outputs": [
        {
          "internalType": "bytes32",
          "name": "",
          "type": "bytes32"
        }
      ],
      "stateMutability": "view",
      "type": "function",
      "constant": true
    },
    {
      "inputs": [
        {
          "internalType": "address",
          "name": "to",
          "type": "address"
        },
        {
          "internalType": "uint256",
          "name": "tokenId",
          "type": "uint256"
        }
      ],
      "name": "approve",
      "outputs": [],
      "stateMutability": "nonpayable",
      "type": "function"
    },
    {
      "inputs": [
        {
          "internalType": "address",
          "name": "owner",
          "type": "address"
        }
      ],
      "name": "balanceOf",
      "outputs": [
        {
          "internalType": "uint256",
          "name": "",
          "type": "uint256"
        }
      ],
      "stateMutability": "view",
      "type": "function",
      "constant": true
    },
    {
      "inputs": [
        {
          "internalType": "uint256",
          "name": "tokenId",
          "type": "uint256"
        }
      ],
      "name": "getApproved",
      "outputs": [
        {
          "internalType": "address",
          "name": "",
          "type": "address"
        }
      ],
      "stateMutability": "view",
      "type": "function",
      "constant": true
    },
    {
      "inputs": [
        {
          "internalType": "bytes32",
          "name": "role",
          "type": "bytes32"
        }
      ],
      "name": "getRoleAdmin",
      "outputs": [
        {
          "internalType": "bytes32",
          "name": "",
          "type": "bytes32"
        }
      ],
      "stateMutability": "view",
      "type": "function",
      "constant": true
    },
    {
      "inputs": [
        {
          "internalType": "bytes32",
          "name": "role",
          "type": "bytes32"
        },
        {
          "internalType": "address",
          "name": "account",
          "type": "address"
        }
      ],
      "name": "grantRole",
      "outputs": [],
      "stateMutability": "nonpayable",
      "type": "function"
    },
    {
      "inputs": [
        {
          "internalType": "bytes32",
          "name": "role",
          "type": "bytes32"
        },
        {
          "internalType": "address",
          "name": "account",
          "type": "address"
        }
      ],
      "name": "hasRole",
      "outputs": [
        {
          "internalType": "bool",
          "name": "",
          "type": "bool"
        }
      ],
      "stateMutability": "view",
      "type": "function",
      "constant": true
    },
    {
      "inputs": [
        {
          "internalType": "address",
          "name": "owner",
          "type": "address"
        },
        {
          "internalType": "address",
          "name": "operator",
          "type": "address"
        }
      ],
      "name": "isApprovedForAll",
      "outputs": [
        {
          "internalType": "bool",
          "name": "",
          "type": "bool"
        }
      ],
      "stateMutability": "view",
      "type": "function",
      "constant": true
    },
    {
      "inputs": [],
      "name": "name",
      "outputs": [
        {
          "internalType": "string",
          "name": "",
          "type": "string"
        }
      ],
      "stateMutability": "view",
      "type": "function",
      "constant": true
    },
    {
      "inputs": [
        {
          "internalType": "uint256",
          "name": "tokenId",
          "type": "uint256"
        }
      ],
      "name": "ownerOf",
      "outputs": [
        {
          "internalType": "address",
          "name": "",
          "type": "address"
        }
      ],
      "stateMutability": "view",
      "type": "function",
      "constant": true
    },
    {
      "inputs": [
        {
          "internalType": "bytes32",
          "name": "role",
          "type": "bytes32"
        },
        {
          "internalType": "address",
          "name": "account",
          "type": "address"
        }
      ],
      "name": "renounceRole",
      "outputs": [],
      "stateMutability": "nonpayable",
      "type": "function"
    },
    {
      "inputs": [
        {
          "internalType": "bytes32",
          "name": "role",
          "type": "bytes32"
        },
        {
          "internalType": "address",
          "name": "account",
          "type": "address"
        }
      ],
      "name": "revokeRole",
      "outputs": [],
      "stateMutability": "nonpayable",
      "type": "function"
    },
    {
      "inputs": [
        {
          "internalType": "address",
          "name": "from",
          "type": "address"
        },
        {
          "internalType": "address",
          "name": "to",
          "type": "address"
        },
        {
          "internalType": "uint256",
          "name": "tokenId",
          "type": "uint256"
        }
      ],
      "name": "safeTransferFrom",
      "outputs": [],
      "stateMutability": "nonpayable",
      "type": "function"
    },
    {
      "inputs": [
        {
          "internalType": "address",
          "name": "from",
          "type": "address"
        },
        {
          "internalType": "address",
          "name": "to",
          "type": "address"
        },
        {
          "internalType": "uint256",
          "name": "tokenId",
          "type": "uint256"
        },
        {
          "internalType": "bytes",
          "name": "_data",
          "type": "bytes"
        }
      ],
      "name": "safeTransferFrom",
      "outputs": [],
      "stateMutability": "nonpayable",
      "type": "function"
    },
    {
      "inputs": [
        {
          "internalType": "address",
          "name": "operator",
          "type": "address"
        },
        {
          "internalType": "bool",
          "name": "approved",
          "type": "bool"
        }
      ],
      "name": "setApprovalForAll",
      "outputs": [],
      "stateMutability": "nonpayable",
      "type": "function"
    },
    {
      "inputs": [],
      "name": "symbol",
      "outputs": [
        {
          "internalType": "string",
          "name": "",
          "type": "string"
        }
      ],
      "stateMutability": "view",
      "type": "function",
      "constant": true
    },
    {
      "inputs": [
        {
          "internalType": "address",
          "name": "from",
          "type": "address"
        },
        {
          "internalType": "address",
          "name": "to",
          "type": "address"
        },
        {
          "internalType": "uint256",
          "name": "tokenId",
          "type": "uint256"
        }
      ],
      "name": "transferFrom",
      "outputs": [],
      "stateMutability": "nonpayable",
      "type": "function"
    },
    {
      "inputs": [
        {
          "internalType": "address",
          "name": "to",
          "type": "address"
        },
        {
          "internalType": "string",
          "name": "uri",
          "type": "string"
        }
      ],
      "name": "safeMint",
      "outputs": [],
      "stateMutability": "nonpayable",
      "type": "function"
    },
    {
      "inputs": [
        {
          "internalType": "string",
          "name": "uri",
          "type": "string"
        }
      ],
      "name": "safeMintByUser",
      "outputs": [],
      "stateMutability": "nonpayable",
      "type": "function"
    },
    {
      "inputs": [
        {
          "internalType": "uint256",
          "name": "tokenId",
          "type": "uint256"
        }
      ],
      "name": "tokenURI",
      "outputs": [
        {
          "internalType": "string",
          "name": "",
          "type": "string"
        }
      ],
      "stateMutability": "view",
      "type": "function",
      "constant": true
    },
    {
      "inputs": [
        {
          "internalType": "bytes4",
          "name": "interfaceId",
          "type": "bytes4"
        }
      ],
      "name": "supportsInterface",
      "outputs": [
        {
          "internalType": "bool",
          "name": "",
          "type": "bool"
        }
      ],
      "stateMutability": "view",
      "type": "function",
      "constant": true
    }
  ],
  "bytecode": "0x60806040523480156200001157600080fd5b506040518060400160405280600681526020017f5265644e465400000000000000000000000000000000000000000000000000008152506040518060400160405280600381526020017f4e4654000000000000000000000000000000000000000000000000000000000081525081600090805190602001906200009692919062000264565b508060019080519060200190620000af92919062000264565b505050620000c76000801b33620000ff60201b60201c565b620000f97f9f2df0fed2c77648de5860a4cc508cd0818c85b8b8a1ab4ceeef8d981c8956a633620000ff60201b60201c565b62000379565b620001118282620001f160201b60201c565b620001ed5760016007600084815260200190815260200160002060000160008373ffffffffffffffffffffffffffffffffffffffff1673ffffffffffffffffffffffffffffffffffffffff16815260200190815260200160002060006101000a81548160ff021916908315150217905550620001926200025c60201b60201c565b73ffffffffffffffffffffffffffffffffffffffff168173ffffffffffffffffffffffffffffffffffffffff16837f2f8788117e7eff1d82e926ec794901d17c78024a50270940304540a733656f0d60405160405180910390a45b5050565b60006007600084815260200190815260200160002060000160008373ffffffffffffffffffffffffffffffffffffffff1673ffffffffffffffffffffffffffffffffffffffff16815260200190815260200160002060009054906101000a900460ff16905092915050565b600033905090565b828054620002729062000343565b90600052602060002090601f016020900481019282620002965760008555620002e2565b82601f10620002b157805160ff1916838001178555620002e2565b82800160010185558215620002e2579182015b82811115620002e1578251825591602001919060010190620002c4565b5b509050620002f19190620002f5565b5090565b5b8082111562000310576000816000905550600101620002f6565b5090565b7f4e487b7100000000000000000000000000000000000000000000000000000000600052602260045260246000fd5b600060028204905060018216806200035c57607f821691505b6020821081141562000373576200037262000314565b5b50919050565b61381680620003896000396000f3fe608060405234801561001057600080fd5b50600436106101425760003560e01c806391d14854116100b8578063c87b56dd1161007c578063c87b56dd14610385578063d204c45e146103b5578063d5391393146103d1578063d547741f146103ef578063e121ecd61461040b578063e985e9c51461042757610142565b806391d14854146102e157806395d89b4114610311578063a217fddf1461032f578063a22cb4651461034d578063b88d4fde1461036957610142565b8063248a9ca31161010a578063248a9ca3146101fd5780632f2ff15d1461022d57806336568abe1461024957806342842e0e146102655780636352211e1461028157806370a08231146102b157610142565b806301ffc9a71461014757806306fdde0314610177578063081812fc14610195578063095ea7b3146101c557806323b872dd146101e1575b600080fd5b610161600480360381019061015c919061220e565b610457565b60405161016e9190612256565b60405180910390f35b61017f610469565b60405161018c919061230a565b60405180910390f35b6101af60048036038101906101aa9190612362565b6104fb565b6040516101bc91906123d0565b60405180910390f35b6101df60048036038101906101da9190612417565b610580565b005b6101fb60048036038101906101f69190612457565b610698565b005b610217600480360381019061021291906124e0565b6106f8565b604051610224919061251c565b60405180910390f35b61024760048036038101906102429190612537565b610718565b005b610263600480360381019061025e9190612537565b610741565b005b61027f600480360381019061027a9190612457565b6107c4565b005b61029b60048036038101906102969190612362565b6107e4565b6040516102a891906123d0565b60405180910390f35b6102cb60048036038101906102c69190612577565b610896565b6040516102d891906125b3565b60405180910390f35b6102fb60048036038101906102f69190612537565b61094e565b6040516103089190612256565b60405180910390f35b6103196109b9565b604051610326919061230a565b60405180910390f35b610337610a4b565b604051610344919061251c565b60405180910390f35b610367600480360381019061036291906125fa565b610a52565b005b610383600480360381019061037e919061276f565b610a68565b005b61039f600480360381019061039a9190612362565b610aca565b6040516103ac919061230a565b60405180910390f35b6103cf60048036038101906103ca9190612893565b610adc565b005b6103d9610b40565b6040516103e6919061251c565b60405180910390f35b61040960048036038101906104049190612537565b610b64565b005b610425600480360381019061042091906128ef565b610b8d565b005b610441600480360381019061043c9190612938565b610bbd565b60405161044e9190612256565b60405180910390f35b600061046282610c51565b9050919050565b606060008054610478906129a7565b80601f01602080910402602001604051908101604052809291908181526020018280546104a4906129a7565b80156104f15780601f106104c6576101008083540402835291602001916104f1565b820191906000526020600020905b8154815290600101906020018083116104d457829003601f168201915b5050505050905090565b600061050682610ccb565b610545576040517f08c379a000000000000000000000000000000000000000000000000000000000815260040161053c90612a4b565b60405180910390fd5b6004600083815260200190815260200160002060009054906101000a900473ffffffffffffffffffffffffffffffffffffffff169050919050565b600061058b826107e4565b90508073ffffffffffffffffffffffffffffffffffffffff168373ffffffffffffffffffffffffffffffffffffffff1614156105fc576040517f08c379a00000000000000000000000000000000000000000000000000000000081526004016105f390612add565b60405180910390fd5b8073ffffffffffffffffffffffffffffffffffffffff1661061b610d37565b73ffffffffffffffffffffffffffffffffffffffff16148061064a575061064981610644610d37565b610bbd565b5b610689576040517f08c379a000000000000000000000000000000000000000000000000000000000815260040161068090612b6f565b60405180910390fd5b6106938383610d3f565b505050565b6106a96106a3610d37565b82610df8565b6106e8576040517f08c379a00000000000000000000000000000000000000000000000000000000081526004016106df90612c01565b60405180910390fd5b6106f3838383610ed6565b505050565b600060076000838152602001908152602001600020600101549050919050565b610721826106f8565b6107328161072d610d37565b61113d565b61073c83836111da565b505050565b610749610d37565b73ffffffffffffffffffffffffffffffffffffffff168173ffffffffffffffffffffffffffffffffffffffff16146107b6576040517f08c379a00000000000000000000000000000000000000000000000000000000081526004016107ad90612c93565b60405180910390fd5b6107c082826112bb565b5050565b6107df83838360405180602001604052806000815250610a68565b505050565b6000806002600084815260200190815260200160002060009054906101000a900473ffffffffffffffffffffffffffffffffffffffff169050600073ffffffffffffffffffffffffffffffffffffffff168173ffffffffffffffffffffffffffffffffffffffff16141561088d576040517f08c379a000000000000000000000000000000000000000000000000000000000815260040161088490612d25565b60405180910390fd5b80915050919050565b60008073ffffffffffffffffffffffffffffffffffffffff168273ffffffffffffffffffffffffffffffffffffffff161415610907576040517f08c379a00000000000000000000000000000000000000000000000000000000081526004016108fe90612db7565b60405180910390fd5b600360008373ffffffffffffffffffffffffffffffffffffffff1673ffffffffffffffffffffffffffffffffffffffff168152602001908152602001600020549050919050565b60006007600084815260200190815260200160002060000160008373ffffffffffffffffffffffffffffffffffffffff1673ffffffffffffffffffffffffffffffffffffffff16815260200190815260200160002060009054906101000a900460ff16905092915050565b6060600180546109c8906129a7565b80601f01602080910402602001604051908101604052809291908181526020018280546109f4906129a7565b8015610a415780601f10610a1657610100808354040283529160200191610a41565b820191906000526020600020905b815481529060010190602001808311610a2457829003601f168201915b5050505050905090565b6000801b81565b610a64610a5d610d37565b838361139d565b5050565b610a79610a73610d37565b83610df8565b610ab8576040517f08c379a0000000000000000000000000000000000000000000000000000000008152600401610aaf90612c01565b60405180910390fd5b610ac48484848461150a565b50505050565b6060610ad582611566565b9050919050565b7f9f2df0fed2c77648de5860a4cc508cd0818c85b8b8a1ab4ceeef8d981c8956a6610b0e81610b09610d37565b61113d565b6000610b1a60086116b8565b9050610b2660086116c6565b610b3084826116dc565b610b3a81846116fa565b50505050565b7f9f2df0fed2c77648de5860a4cc508cd0818c85b8b8a1ab4ceeef8d981c8956a681565b610b6d826106f8565b610b7e81610b79610d37565b61113d565b610b8883836112bb565b505050565b6000610b9960086116b8565b9050610ba560086116c6565b610baf33826116dc565b610bb981836116fa565b5050565b6000600560008473ffffffffffffffffffffffffffffffffffffffff1673ffffffffffffffffffffffffffffffffffffffff16815260200190815260200160002060008373ffffffffffffffffffffffffffffffffffffffff1673ffffffffffffffffffffffffffffffffffffffff16815260200190815260200160002060009054906101000a900460ff16905092915050565b60007f7965db0b000000000000000000000000000000000000000000000000000000007bffffffffffffffffffffffffffffffffffffffffffffffffffffffff1916827bffffffffffffffffffffffffffffffffffffffffffffffffffffffff19161480610cc45750610cc38261176e565b5b9050919050565b60008073ffffffffffffffffffffffffffffffffffffffff166002600084815260200190815260200160002060009054906101000a900473ffffffffffffffffffffffffffffffffffffffff1673ffffffffffffffffffffffffffffffffffffffff1614159050919050565b600033905090565b816004600083815260200190815260200160002060006101000a81548173ffffffffffffffffffffffffffffffffffffffff021916908373ffffffffffffffffffffffffffffffffffffffff160217905550808273ffffffffffffffffffffffffffffffffffffffff16610db2836107e4565b73ffffffffffffffffffffffffffffffffffffffff167f8c5be1e5ebec7d5bd14f71427d1e84f3dd0314c0f7b2291e5b200ac8c7c3b92560405160405180910390a45050565b6000610e0382610ccb565b610e42576040517f08c379a0000000000000000000000000000000000000000000000000000000008152600401610e3990612e49565b60405180910390fd5b6000610e4d836107e4565b90508073ffffffffffffffffffffffffffffffffffffffff168473ffffffffffffffffffffffffffffffffffffffff161480610ebc57508373ffffffffffffffffffffffffffffffffffffffff16610ea4846104fb565b73ffffffffffffffffffffffffffffffffffffffff16145b80610ecd5750610ecc8185610bbd565b5b91505092915050565b8273ffffffffffffffffffffffffffffffffffffffff16610ef6826107e4565b73ffffffffffffffffffffffffffffffffffffffff1614610f4c576040517f08c379a0000000000000000000000000000000000000000000000000000000008152600401610f4390612edb565b60405180910390fd5b600073ffffffffffffffffffffffffffffffffffffffff168273ffffffffffffffffffffffffffffffffffffffff161415610fbc576040517f08c379a0000000000000000000000000000000000000000000000000000000008152600401610fb390612f6d565b60405180910390fd5b610fc7838383611850565b610fd2600082610d3f565b6001600360008573ffffffffffffffffffffffffffffffffffffffff1673ffffffffffffffffffffffffffffffffffffffff16815260200190815260200160002060008282546110229190612fbc565b925050819055506001600360008473ffffffffffffffffffffffffffffffffffffffff1673ffffffffffffffffffffffffffffffffffffffff16815260200190815260200160002060008282546110799190612ff0565b92505081905550816002600083815260200190815260200160002060006101000a81548173ffffffffffffffffffffffffffffffffffffffff021916908373ffffffffffffffffffffffffffffffffffffffff160217905550808273ffffffffffffffffffffffffffffffffffffffff168473ffffffffffffffffffffffffffffffffffffffff167fddf252ad1be2c89b69c2b068fc378daa952ba7f163c4a11628f55a4df523b3ef60405160405180910390a4611138838383611855565b505050565b611147828261094e565b6111d65761116c8173ffffffffffffffffffffffffffffffffffffffff16601461185a565b61117a8360001c602061185a565b60405160200161118b92919061311a565b6040516020818303038152906040526040517f08c379a00000000000000000000000000000000000000000000000000000000081526004016111cd919061230a565b60405180910390fd5b5050565b6111e4828261094e565b6112b75760016007600084815260200190815260200160002060000160008373ffffffffffffffffffffffffffffffffffffffff1673ffffffffffffffffffffffffffffffffffffffff16815260200190815260200160002060006101000a81548160ff02191690831515021790555061125c610d37565b73ffffffffffffffffffffffffffffffffffffffff168173ffffffffffffffffffffffffffffffffffffffff16837f2f8788117e7eff1d82e926ec794901d17c78024a50270940304540a733656f0d60405160405180910390a45b5050565b6112c5828261094e565b156113995760006007600084815260200190815260200160002060000160008373ffffffffffffffffffffffffffffffffffffffff1673ffffffffffffffffffffffffffffffffffffffff16815260200190815260200160002060006101000a81548160ff02191690831515021790555061133e610d37565b73ffffffffffffffffffffffffffffffffffffffff168173ffffffffffffffffffffffffffffffffffffffff16837ff6391f5c32d9c69d2a47ea670b442974b53935d1edc7fd64eb21e047a839171b60405160405180910390a45b5050565b8173ffffffffffffffffffffffffffffffffffffffff168373ffffffffffffffffffffffffffffffffffffffff16141561140c576040517f08c379a0000000000000000000000000000000000000000000000000000000008152600401611403906131a0565b60405180910390fd5b80600560008573ffffffffffffffffffffffffffffffffffffffff1673ffffffffffffffffffffffffffffffffffffffff16815260200190815260200160002060008473ffffffffffffffffffffffffffffffffffffffff1673ffffffffffffffffffffffffffffffffffffffff16815260200190815260200160002060006101000a81548160ff0219169083151502179055508173ffffffffffffffffffffffffffffffffffffffff168373ffffffffffffffffffffffffffffffffffffffff167f17307eab39ab6107e8899845ad3d59bd9653f200f220920489ca2b5937696c31836040516114fd9190612256565b60405180910390a3505050565b611515848484610ed6565b61152184848484611a96565b611560576040517f08c379a000000000000000000000000000000000000000000000000000000000815260040161155790613232565b60405180910390fd5b50505050565b606061157182610ccb565b6115b0576040517f08c379a00000000000000000000000000000000000000000000000000000000081526004016115a7906132c4565b60405180910390fd5b60006006600084815260200190815260200160002080546115d0906129a7565b80601f01602080910402602001604051908101604052809291908181526020018280546115fc906129a7565b80156116495780601f1061161e57610100808354040283529160200191611649565b820191906000526020600020905b81548152906001019060200180831161162c57829003601f168201915b50505050509050600061165a611c1e565b90506000815114156116705781925050506116b3565b6000825111156116a557808260405160200161168d9291906132e4565b604051602081830303815290604052925050506116b3565b6116ae84611c35565b925050505b919050565b600081600001549050919050565b6001816000016000828254019250508190555050565b6116f6828260405180602001604052806000815250611cdc565b5050565b61170382610ccb565b611742576040517f08c379a00000000000000000000000000000000000000000000000000000000081526004016117399061337a565b60405180910390fd5b806006600084815260200190815260200160002090805190602001906117699291906120ff565b505050565b60007f80ac58cd000000000000000000000000000000000000000000000000000000007bffffffffffffffffffffffffffffffffffffffffffffffffffffffff1916827bffffffffffffffffffffffffffffffffffffffffffffffffffffffff1916148061183957507f5b5e139f000000000000000000000000000000000000000000000000000000007bffffffffffffffffffffffffffffffffffffffffffffffffffffffff1916827bffffffffffffffffffffffffffffffffffffffffffffffffffffffff1916145b80611849575061184882611d37565b5b9050919050565b505050565b505050565b60606000600283600261186d919061339a565b6118779190612ff0565b67ffffffffffffffff8111156118905761188f612644565b5b6040519080825280601f01601f1916602001820160405280156118c25781602001600182028036833780820191505090505b5090507f3000000000000000000000000000000000000000000000000000000000000000816000815181106118fa576118f96133f4565b5b60200101907effffffffffffffffffffffffffffffffffffffffffffffffffffffffffffff1916908160001a9053507f78000000000000000000000000000000000000000000000000000000000000008160018151811061195e5761195d6133f4565b5b60200101907effffffffffffffffffffffffffffffffffffffffffffffffffffffffffffff1916908160001a9053506000600184600261199e919061339a565b6119a89190612ff0565b90505b6001811115611a48577f3031323334353637383961626364656600000000000000000000000000000000600f8616601081106119ea576119e96133f4565b5b1a60f81b828281518110611a0157611a006133f4565b5b60200101907effffffffffffffffffffffffffffffffffffffffffffffffffffffffffffff1916908160001a905350600485901c945080611a4190613423565b90506119ab565b5060008414611a8c576040517f08c379a0000000000000000000000000000000000000000000000000000000008152600401611a8390613499565b60405180910390fd5b8091505092915050565b6000611ab78473ffffffffffffffffffffffffffffffffffffffff16611da1565b15611c11578373ffffffffffffffffffffffffffffffffffffffff1663150b7a02611ae0610d37565b8786866040518563ffffffff1660e01b8152600401611b02949392919061350e565b6020604051808303816000875af1925050508015611b3e57506040513d601f19601f82011682018060405250810190611b3b919061356f565b60015b611bc1573d8060008114611b6e576040519150601f19603f3d011682016040523d82523d6000602084013e611b73565b606091505b50600081511415611bb9576040517f08c379a0000000000000000000000000000000000000000000000000000000008152600401611bb090613232565b60405180910390fd5b805181602001fd5b63150b7a0260e01b7bffffffffffffffffffffffffffffffffffffffffffffffffffffffff1916817bffffffffffffffffffffffffffffffffffffffffffffffffffffffff191614915050611c16565b600190505b949350505050565b606060405180602001604052806000815250905090565b6060611c4082610ccb565b611c7f576040517f08c379a0000000000000000000000000000000000000000000000000000000008152600401611c769061360e565b60405180910390fd5b6000611c89611c1e565b90506000815111611ca95760405180602001604052806000815250611cd4565b80611cb384611dc4565b604051602001611cc49291906132e4565b6040516020818303038152906040525b915050919050565b611ce68383611f25565b611cf36000848484611a96565b611d32576040517f08c379a0000000000000000000000000000000000000000000000000000000008152600401611d2990613232565b60405180910390fd5b505050565b60007f01ffc9a7000000000000000000000000000000000000000000000000000000007bffffffffffffffffffffffffffffffffffffffffffffffffffffffff1916827bffffffffffffffffffffffffffffffffffffffffffffffffffffffff1916149050919050565b6000808273ffffffffffffffffffffffffffffffffffffffff163b119050919050565b60606000821415611e0c576040518060400160405280600181526020017f30000000000000000000000000000000000000000000000000000000000000008152509050611f20565b600082905060005b60008214611e3e578080611e279061362e565b915050600a82611e3791906136a6565b9150611e14565b60008167ffffffffffffffff811115611e5a57611e59612644565b5b6040519080825280601f01601f191660200182016040528015611e8c5781602001600182028036833780820191505090505b5090505b60008514611f1957600182611ea59190612fbc565b9150600a85611eb491906136d7565b6030611ec09190612ff0565b60f81b818381518110611ed657611ed56133f4565b5b60200101907effffffffffffffffffffffffffffffffffffffffffffffffffffffffffffff1916908160001a905350600a85611f1291906136a6565b9450611e90565b8093505050505b919050565b600073ffffffffffffffffffffffffffffffffffffffff168273ffffffffffffffffffffffffffffffffffffffff161415611f95576040517f08c379a0000000000000000000000000000000000000000000000000000000008152600401611f8c90613754565b60405180910390fd5b611f9e81610ccb565b15611fde576040517f08c379a0000000000000000000000000000000000000000000000000000000008152600401611fd5906137c0565b60405180910390fd5b611fea60008383611850565b6001600360008473ffffffffffffffffffffffffffffffffffffffff1673ffffffffffffffffffffffffffffffffffffffff168152602001908152602001600020600082825461203a9190612ff0565b92505081905550816002600083815260200190815260200160002060006101000a81548173ffffffffffffffffffffffffffffffffffffffff021916908373ffffffffffffffffffffffffffffffffffffffff160217905550808273ffffffffffffffffffffffffffffffffffffffff16600073ffffffffffffffffffffffffffffffffffffffff167fddf252ad1be2c89b69c2b068fc378daa952ba7f163c4a11628f55a4df523b3ef60405160405180910390a46120fb60008383611855565b5050565b82805461210b906129a7565b90600052602060002090601f01602090048101928261212d5760008555612174565b82601f1061214657805160ff1916838001178555612174565b82800160010185558215612174579182015b82811115612173578251825591602001919060010190612158565b5b5090506121819190612185565b5090565b5b8082111561219e576000816000905550600101612186565b5090565b6000604051905090565b600080fd5b600080fd5b60007fffffffff0000000000000000000000000000000000000000000000000000000082169050919050565b6121eb816121b6565b81146121f657600080fd5b50565b600081359050612208816121e2565b92915050565b600060208284031215612224576122236121ac565b5b6000612232848285016121f9565b91505092915050565b60008115159050919050565b6122508161223b565b82525050565b600060208201905061226b6000830184612247565b92915050565b600081519050919050565b600082825260208201905092915050565b60005b838110156122ab578082015181840152602081019050612290565b838111156122ba576000848401525b50505050565b6000601f19601f8301169050919050565b60006122dc82612271565b6122e6818561227c565b93506122f681856020860161228d565b6122ff816122c0565b840191505092915050565b6000602082019050818103600083015261232481846122d1565b905092915050565b6000819050919050565b61233f8161232c565b811461234a57600080fd5b50565b60008135905061235c81612336565b92915050565b600060208284031215612378576123776121ac565b5b60006123868482850161234d565b91505092915050565b600073ffffffffffffffffffffffffffffffffffffffff82169050919050565b60006123ba8261238f565b9050919050565b6123ca816123af565b82525050565b60006020820190506123e560008301846123c1565b92915050565b6123f4816123af565b81146123ff57600080fd5b50565b600081359050612411816123eb565b92915050565b6000806040838503121561242e5761242d6121ac565b5b600061243c85828601612402565b925050602061244d8582860161234d565b9150509250929050565b6000806000606084860312156124705761246f6121ac565b5b600061247e86828701612402565b935050602061248f86828701612402565b92505060406124a08682870161234d565b9150509250925092565b6000819050919050565b6124bd816124aa565b81146124c857600080fd5b50565b6000813590506124da816124b4565b92915050565b6000602082840312156124f6576124f56121ac565b5b6000612504848285016124cb565b91505092915050565b612516816124aa565b82525050565b6000602082019050612531600083018461250d565b92915050565b6000806040838503121561254e5761254d6121ac565b5b600061255c858286016124cb565b925050602061256d85828601612402565b9150509250929050565b60006020828403121561258d5761258c6121ac565b5b600061259b84828501612402565b91505092915050565b6125ad8161232c565b82525050565b60006020820190506125c860008301846125a4565b92915050565b6125d78161223b565b81146125e257600080fd5b50565b6000813590506125f4816125ce565b92915050565b60008060408385031215612611576126106121ac565b5b600061261f85828601612402565b9250506020612630858286016125e5565b9150509250929050565b600080fd5b600080fd5b7f4e487b7100000000000000000000000000000000000000000000000000000000600052604160045260246000fd5b61267c826122c0565b810181811067ffffffffffffffff8211171561269b5761269a612644565b5b80604052505050565b60006126ae6121a2565b90506126ba8282612673565b919050565b600067ffffffffffffffff8211156126da576126d9612644565b5b6126e3826122c0565b9050602081019050919050565b82818337600083830152505050565b600061271261270d846126bf565b6126a4565b90508281526020810184848401111561272e5761272d61263f565b5b6127398482856126f0565b509392505050565b600082601f8301126127565761275561263a565b5b81356127668482602086016126ff565b91505092915050565b60008060008060808587031215612789576127886121ac565b5b600061279787828801612402565b94505060206127a887828801612402565b93505060406127b98782880161234d565b925050606085013567ffffffffffffffff8111156127da576127d96121b1565b5b6127e687828801612741565b91505092959194509250565b600067ffffffffffffffff82111561280d5761280c612644565b5b612816826122c0565b9050602081019050919050565b6000612836612831846127f2565b6126a4565b9050828152602081018484840111156128525761285161263f565b5b61285d8482856126f0565b509392505050565b600082601f83011261287a5761287961263a565b5b813561288a848260208601612823565b91505092915050565b600080604083850312156128aa576128a96121ac565b5b60006128b885828601612402565b925050602083013567ffffffffffffffff8111156128d9576128d86121b1565b5b6128e585828601612865565b9150509250929050565b600060208284031215612905576129046121ac565b5b600082013567ffffffffffffffff811115612923576129226121b1565b5b61292f84828501612865565b91505092915050565b6000806040838503121561294f5761294e6121ac565b5b600061295d85828601612402565b925050602061296e85828601612402565b9150509250929050565b7f4e487b7100000000000000000000000000000000000000000000000000000000600052602260045260246000fd5b600060028204905060018216806129bf57607f821691505b602082108114156129d3576129d2612978565b5b50919050565b7f4552433732313a20617070726f76656420717565727920666f72206e6f6e657860008201527f697374656e7420746f6b656e0000000000000000000000000000000000000000602082015250565b6000612a35602c8361227c565b9150612a40826129d9565b604082019050919050565b60006020820190508181036000830152612a6481612a28565b9050919050565b7f4552433732313a20617070726f76616c20746f2063757272656e74206f776e6560008201527f7200000000000000000000000000000000000000000000000000000000000000602082015250565b6000612ac760218361227c565b9150612ad282612a6b565b604082019050919050565b60006020820190508181036000830152612af681612aba565b9050919050565b7f4552433732313a20617070726f76652063616c6c6572206973206e6f74206f7760008201527f6e6572206e6f7220617070726f76656420666f7220616c6c0000000000000000602082015250565b6000612b5960388361227c565b9150612b6482612afd565b604082019050919050565b60006020820190508181036000830152612b8881612b4c565b9050919050565b7f4552433732313a207472616e736665722063616c6c6572206973206e6f74206f60008201527f776e6572206e6f7220617070726f766564000000000000000000000000000000602082015250565b6000612beb60318361227c565b9150612bf682612b8f565b604082019050919050565b60006020820190508181036000830152612c1a81612bde565b9050919050565b7f416363657373436f6e74726f6c3a2063616e206f6e6c792072656e6f756e636560008201527f20726f6c657320666f722073656c660000000000000000000000000000000000602082015250565b6000612c7d602f8361227c565b9150612c8882612c21565b604082019050919050565b60006020820190508181036000830152612cac81612c70565b9050919050565b7f4552433732313a206f776e657220717565727920666f72206e6f6e657869737460008201527f656e7420746f6b656e0000000000000000000000000000000000000000000000602082015250565b6000612d0f60298361227c565b9150612d1a82612cb3565b604082019050919050565b60006020820190508181036000830152612d3e81612d02565b9050919050565b7f4552433732313a2062616c616e636520717565727920666f7220746865207a6560008201527f726f206164647265737300000000000000000000000000000000000000000000602082015250565b6000612da1602a8361227c565b9150612dac82612d45565b604082019050919050565b60006020820190508181036000830152612dd081612d94565b9050919050565b7f4552433732313a206f70657261746f7220717565727920666f72206e6f6e657860008201527f697374656e7420746f6b656e0000000000000000000000000000000000000000602082015250565b6000612e33602c8361227c565b9150612e3e82612dd7565b604082019050919050565b60006020820190508181036000830152612e6281612e26565b9050919050565b7f4552433732313a207472616e736665722066726f6d20696e636f72726563742060008201527f6f776e6572000000000000000000000000000000000000000000000000000000602082015250565b6000612ec560258361227c565b9150612ed082612e69565b604082019050919050565b60006020820190508181036000830152612ef481612eb8565b9050919050565b7f4552433732313a207472616e7366657220746f20746865207a65726f2061646460008201527f7265737300000000000000000000000000000000000000000000000000000000602082015250565b6000612f5760248361227c565b9150612f6282612efb565b604082019050919050565b60006020820190508181036000830152612f8681612f4a565b9050919050565b7f4e487b7100000000000000000000000000000000000000000000000000000000600052601160045260246000fd5b6000612fc78261232c565b9150612fd28361232c565b925082821015612fe557612fe4612f8d565b5b828203905092915050565b6000612ffb8261232c565b91506130068361232c565b9250827fffffffffffffffffffffffffffffffffffffffffffffffffffffffffffffffff0382111561303b5761303a612f8d565b5b828201905092915050565b600081905092915050565b7f416363657373436f6e74726f6c3a206163636f756e7420000000000000000000600082015250565b6000613087601783613046565b915061309282613051565b601782019050919050565b60006130a882612271565b6130b28185613046565b93506130c281856020860161228d565b80840191505092915050565b7f206973206d697373696e6720726f6c6520000000000000000000000000000000600082015250565b6000613104601183613046565b915061310f826130ce565b601182019050919050565b60006131258261307a565b9150613131828561309d565b915061313c826130f7565b9150613148828461309d565b91508190509392505050565b7f4552433732313a20617070726f766520746f2063616c6c657200000000000000600082015250565b600061318a60198361227c565b915061319582613154565b602082019050919050565b600060208201905081810360008301526131b98161317d565b9050919050565b7f4552433732313a207472616e7366657220746f206e6f6e20455243373231526560008201527f63656976657220696d706c656d656e7465720000000000000000000000000000602082015250565b600061321c60328361227c565b9150613227826131c0565b604082019050919050565b6000602082019050818103600083015261324b8161320f565b9050919050565b7f45524337323155524953746f726167653a2055524920717565727920666f722060008201527f6e6f6e6578697374656e7420746f6b656e000000000000000000000000000000602082015250565b60006132ae60318361227c565b91506132b982613252565b604082019050919050565b600060208201905081810360008301526132dd816132a1565b9050919050565b60006132f0828561309d565b91506132fc828461309d565b91508190509392505050565b7f45524337323155524953746f726167653a2055524920736574206f66206e6f6e60008201527f6578697374656e7420746f6b656e000000000000000000000000000000000000602082015250565b6000613364602e8361227c565b915061336f82613308565b604082019050919050565b6000602082019050818103600083015261339381613357565b9050919050565b60006133a58261232c565b91506133b08361232c565b9250817fffffffffffffffffffffffffffffffffffffffffffffffffffffffffffffffff04831182151516156133e9576133e8612f8d565b5b828202905092915050565b7f4e487b7100000000000000000000000000000000000000000000000000000000600052603260045260246000fd5b600061342e8261232c565b9150600082141561344257613441612f8d565b5b600182039050919050565b7f537472696e67733a20686578206c656e67746820696e73756666696369656e74600082015250565b600061348360208361227c565b915061348e8261344d565b602082019050919050565b600060208201905081810360008301526134b281613476565b9050919050565b600081519050919050565b600082825260208201905092915050565b60006134e0826134b9565b6134ea81856134c4565b93506134fa81856020860161228d565b613503816122c0565b840191505092915050565b600060808201905061352360008301876123c1565b61353060208301866123c1565b61353d60408301856125a4565b818103606083015261354f81846134d5565b905095945050505050565b600081519050613569816121e2565b92915050565b600060208284031215613585576135846121ac565b5b60006135938482850161355a565b91505092915050565b7f4552433732314d657461646174613a2055524920717565727920666f72206e6f60008201527f6e6578697374656e7420746f6b656e0000000000000000000000000000000000602082015250565b60006135f8602f8361227c565b91506136038261359c565b604082019050919050565b60006020820190508181036000830152613627816135eb565b9050919050565b60006136398261232c565b91507fffffffffffffffffffffffffffffffffffffffffffffffffffffffffffffffff82141561366c5761366b612f8d565b5b600182019050919050565b7f4e487b7100000000000000000000000000000000000000000000000000000000600052601260045260246000fd5b60006136b18261232c565b91506136bc8361232c565b9250826136cc576136cb613677565b5b828204905092915050565b60006136e28261232c565b91506136ed8361232c565b9250826136fd576136fc613677565b5b828206905092915050565b7f4552433732313a206d696e7420746f20746865207a65726f2061646472657373600082015250565b600061373e60208361227c565b915061374982613708565b602082019050919050565b6000602082019050818103600083015261376d81613731565b9050919050565b7f4552433732313a20746f6b656e20616c7265616479206d696e74656400000000600082015250565b60006137aa601c8361227c565b91506137b582613774565b602082019050919050565b600060208201905081810360008301526137d98161379d565b905091905056fea2646970667358221220d9bd4661225508cd53194bf6a67fa9af48cc51d54fa5bc20fbab34623e39b61964736f6c634300080b0033",
  "immutableReferences": {},
  "source": "// SPDX-License-Identifier: MIT\npragma solidity ^0.8.4;\n\nimport \"@openzeppelin/contracts/token/ERC721/ERC721.sol\";\nimport \"@openzeppelin/contracts/token/ERC721/extensions/ERC721URIStorage.sol\";\nimport \"@openzeppelin/contracts/access/AccessControl.sol\";\nimport \"@openzeppelin/contracts/utils/Counters.sol\";\n\ncontract RedNFT is ERC721, ERC721URIStorage, AccessControl {\n    using Counters for Counters.Counter;\n\n    bytes32 public constant MINTER_ROLE = keccak256(\"MINTER_ROLE\");\n    Counters.Counter private _tokenIdCounter;\n\n    constructor() ERC721(\"RedNFT\", \"NFT\") {\n        _grantRole(DEFAULT_ADMIN_ROLE, msg.sender);\n        _grantRole(MINTER_ROLE, msg.sender);\n    }\n\n    function safeMint(address to, string memory uri)\n        public\n        onlyRole(MINTER_ROLE)\n    {\n        uint256 tokenId = _tokenIdCounter.current();\n        _tokenIdCounter.increment();\n        _safeMint(to, tokenId);\n        _setTokenURI(tokenId, uri);\n    }\n\n    function safeMintByUser(string memory uri) public {\n        uint256 tokenId = _tokenIdCounter.current();\n        _tokenIdCounter.increment();\n        _safeMint(msg.sender, tokenId);\n        _setTokenURI(tokenId, uri);\n    }\n\n    // The following functions are overrides required by Solidity.\n\n    function _burn(uint256 tokenId)\n        internal\n        override(ERC721, ERC721URIStorage)\n    {\n        super._burn(tokenId);\n    }\n\n    function tokenURI(uint256 tokenId)\n        public\n        view\n        override(ERC721, ERC721URIStorage)\n        returns (string memory)\n    {\n        return super.tokenURI(tokenId);\n    }\n\n    function supportsInterface(bytes4 interfaceId)\n        public\n        view\n        override(ERC721, AccessControl)\n        returns (bool)\n    {\n        return super.supportsInterface(interfaceId);\n    }\n}\n",
  "sourcePath": "/Users/bigmadcode/Desktop/RED Broadcast NFT Contract/contracts/RedNFT.sol",
  "compiler": {
    "name": "solc",
    "version": "0.8.11+commit.d7f03943.Emscripten.clang"
  },
  "schemaVersion": "3.4.6",
  "updatedAt": "2022-04-15T04:24:28.642Z",
  "networkType": "ethereum",
  "devdoc": {
    "kind": "dev",
    "methods": {
      "approve(address,uint256)": {
        "details": "See {IERC721-approve}."
      },
      "balanceOf(address)": {
        "details": "See {IERC721-balanceOf}."
      },
      "getApproved(uint256)": {
        "details": "See {IERC721-getApproved}."
      },
      "getRoleAdmin(bytes32)": {
        "details": "Returns the admin role that controls `role`. See {grantRole} and {revokeRole}. To change a role's admin, use {_setRoleAdmin}."
      },
      "grantRole(bytes32,address)": {
        "details": "Grants `role` to `account`. If `account` had not been already granted `role`, emits a {RoleGranted} event. Requirements: - the caller must have ``role``'s admin role."
      },
      "hasRole(bytes32,address)": {
        "details": "Returns `true` if `account` has been granted `role`."
      },
      "isApprovedForAll(address,address)": {
        "details": "See {IERC721-isApprovedForAll}."
      },
      "name()": {
        "details": "See {IERC721Metadata-name}."
      },
      "ownerOf(uint256)": {
        "details": "See {IERC721-ownerOf}."
      },
      "renounceRole(bytes32,address)": {
        "details": "Revokes `role` from the calling account. Roles are often managed via {grantRole} and {revokeRole}: this function's purpose is to provide a mechanism for accounts to lose their privileges if they are compromised (such as when a trusted device is misplaced). If the calling account had been revoked `role`, emits a {RoleRevoked} event. Requirements: - the caller must be `account`."
      },
      "revokeRole(bytes32,address)": {
        "details": "Revokes `role` from `account`. If `account` had been granted `role`, emits a {RoleRevoked} event. Requirements: - the caller must have ``role``'s admin role."
      },
      "safeTransferFrom(address,address,uint256)": {
        "details": "See {IERC721-safeTransferFrom}."
      },
      "safeTransferFrom(address,address,uint256,bytes)": {
        "details": "See {IERC721-safeTransferFrom}."
      },
      "setApprovalForAll(address,bool)": {
        "details": "See {IERC721-setApprovalForAll}."
      },
      "symbol()": {
        "details": "See {IERC721Metadata-symbol}."
      },
      "transferFrom(address,address,uint256)": {
        "details": "See {IERC721-transferFrom}."
      }
    },
    "version": 1
  },
  "userdoc": {
    "kind": "user",
    "methods": {},
    "version": 1
  }
}